:020000040800F2
:1000000080080220A9020008A54A0008E13400087F
:10001000B50200087D08000815690008000000000E
:100020000000000000000000000000002161000846
:100030008D0E000800000000A74A0008D9620008E1
:10004000C3020008C3020008C3020008C30200087C
:10005000C3020008C3020008C3020008C30200086C
:10006000C3020008C3020008C3020008C30200085C
:10007000C3020008C3020008C3020008C30200084C
:10008000C3020008C3020008C3020008C30200083C
:10009000C3020008C3020008C30200085D0F000885
:1000A000C3020008C3020008C3020008C30200081C
:1000B000C3020008C3020008C3020008C30200080C
:1000C000C3020008C3020008C3020008C3020008FC
:1000D000C3020008C3020008C3020008C3020008EC
:1000E000C3020008C3020008C3020008C3020008DC
:1000F000C3020008C3020008C3020008C3020008CC
:10010000C3020008C3020008C3020008C3020008BB
:10011000C3020008C3020008C3020008C3020008AB
:10012000C3020008C3020008C3020008C30200089B
:10013000C3020008C3020008C3020008C30200088B
:10014000C3020008C3020008C3020008C30200087B
:10015000C3020008C3020008C3020008C30200086B
:10016000C3020008C3020008C3020008C30200085B
:10017000C3020008C3020008C30200080000000018
:10018000C3020008C3020008C3020008C30200083B
:10019000C3020008C3020008C3020008C30200082B
:1001A000C3020008C3020008C3020008C30200081B
:1001B000C3020008C3020008C3020008C30200080B
:1001C000C3020008C302000800000000C3020008C8
:1001D000C3020008C3020008C3020008C3020008EB
:1001E000C3020008C3020008C3020008C3020008DB
:1001F000C3020008C302000800F002F800F044F84F
:100200000AA090E8000C82448344AAF10107DA4571
:1002100001D100F039F8AFF2090EBAE80F0013F07F
:10022000010F18BFFB1A43F0010318473C8F000071
:100230005C8F0000103A24BF78C878C1FAD8520702
:1002400024BF30C830C144BF04680C607047000050
:100250000023002400250026103A28BF78C1FBD8CF
:10026000520728BF30C148BF0B607047782900F0A3
:100270009F80732900F01982002070471FB506F097
:10028000FBFC1FBD10B510BD00F01CFA1146FFF7B6
:10029000F5FF06F060FC00F03AFA03B4FFF7F2FF56
:1002A00003BC00F03DFA00000948804709480047B8
:1002B000FEE7FEE7FEE7FEE7FEE7FEE7FEE7FEE716
:1002C000FEE7FEE704480549054A064B7047000073
:1002D000DD620008F9010008800202208008022087
:1002E00080040220800402200FB41CB5074B06AA2C
:1002F0007B4469460090059800F0ADF900206946FE
:1003000000F0BCF91CBC5DF814FB00008903000080
:1003100070B5044685690068C10601D5302600E045
:100320002026C00707D070BDD4E901213046904790
:10033000206A401C20626D1EF6D570BD70B5044663
:1003400085690078C00707D170BDD4E9012120205C
:100350009047206A401C20626D1EF6D570BD70B5B6
:100360000C460546012A05D02878800600D5EA69A2
:10037000002302E0012305E05B1C934202D2E05C13
:100380000028F9D1A869E618C01AA861286A18449B
:1003900028622846FFF7BCFF04E0D5E9012114F8E4
:1003A000010B9047B442F8D32846FFF7C7FF70BD52
:1003B00070B504460D4621461068AFF300802188D1
:1003C000090502D50F4A7A4402E00E4A7A440E32F9
:1003D000002104F1240305E000F00F060009965DFA
:1003E0005E54491C0028F7D120780023000704D56B
:1003F000702D02D009B1022311322046BDE87040B1
:1004000000F0CBB82C8D00002DE9F05F8946044642
:100410004FF0000ADFF824B1FB44C0F820A02046CA
:10042000E168884700287DD0252806D0D4E901213D
:100430009047206A401C2062F1E700255F46204675
:10044000E16888472028064607DB312E05D2B81917
:1004500010F8200C08B10543F1E7A80701D525F0F5
:100460000405C4F81CA00027C4F818A02A2E09D03F
:10047000304606F0D1FA38B304EB8708303EC8F8AE
:10048000186019E059F8041B204604EB87029161BB
:10049000E1688847012F064618D1E069002820DA74
:1004A00025F020051DE0D8F8180000EB800006EBD1
:1004B00040003038C8F818002046E16888470646F2
:1004C00006F0AAFA0028EED1012F0AD02E2E08D16C
:1004D0002046E16888477F1C0646022F45F020052C
:1004E000C4DBA069002803DA404245F00105A061A1
:1004F000E80701D025F01005A6B1A6F141001928A2
:1005000002D8203645F400654A463146204625602B
:100510004D46FFF7ABFE60B1012807D0ED1D25F079
:10052000070000E007E000F1080978E705F1040999
:1005300075E730467AE7206ABDE8F09F028D00003B
:1005400010B5431C02E010F8011B71B18107FAD10C
:100550004FF0013202C88C1A8C4314EAC211F9D050
:10056000C01A0A0603D0C01E10BDC01A10BD0A046E
:1005700001D0801E10BD0902FCD0401E10BD704786
:100580007047704710B500F095F8006810BD10B5C1
:10059000044600F08FF8046010BD2DE9F0470D46C9
:1005A00099469246044600F124080168880604D55D
:1005B000E06921F01001216000E00120A84201DD86
:1005C000471B00E00027A1697A1902EB0900081A0D
:1005D000A0612078C00602D42046FFF799FE0026CD
:1005E00008E0D4E901211AF806009047206A401C6F
:1005F000761C20624E45F4DB2078C0060AD52046E2
:10060000FFF786FE06E0D4E9012130209047206AFA
:10061000401C2062381EA7F10107F4DC07E0D4E992
:10062000012118F805009047206A401C2062281E0E
:10063000A5F10105F3DC2046FFF780FE20780006D7
:1006400002D50220BDE8F0870120FBE701694A1CC2
:1006500002610878704700B58FB0CDE90131002103
:10066000059105497944CDE9031011466846FFF725
:10067000CBFE0FB000BD0000E5FFFFFF0A6802F8E7
:10068000010B0A60704710B5436913B1AFF30080E6
:1006900001E0FFF764FE012010BD127800F1240193
:1006A0000A7000224A700122EDE711684FF0FF3214
:1006B000E9E70000004870471C020220004870472C
:1006C0001C0202207546FFF7F9FFAE460500694699
:1006D000534620F00700854618B020B5FFF7F2FD1D
:1006E000BDE820404FF000064FF000074FF0000833
:1006F0004FF0000B21F00701AC46ACE8C009ACE8B4
:10070000C009ACE8C009ACE8C0098D46704710B517
:100710000446AFF300802046BDE81040FFF7BDBDA2
:1007200001491820ABBEFEE72600020070472DE904
:10073000F0470E0001464FF0000004461ABF01EBDF
:1007400006084FF0A009BDE8F0870702A8EB0400F7
:10075000451E02F077FF280A09EB4000C0B202F004
:1007600035FF02F0BFFFE8B202F030FF02F0BAFF3F
:1007700002F068FFA12002F029FF02F0B3FF002081
:1007800002F0B0FE054602F085FF611CE819CCB20C
:10079000A642DAD8BDE8F08710B5044602F052FF51
:1007A000200AA02101EB4000C0B202F00FFF02F0CE
:1007B00099FFE0B202F00AFF02F094FF02F042FF5C
:1007C000A12002F003FF02F08DFF002002F08AFE5C
:1007D000044602F05FFF204610BD2DE9F0471600E9
:1007E0000F4680464FF0000414BF4FF0A00ABDE84A
:1007F000F08708EB0405E00027FA00F000F0FF099D
:1008000002F020FF280A0AEB4000C0B202F0DEFE30
:1008100002F068FFE8B202F0D9FE02F063FF48463A
:1008200002F0D4FE02F05EFF02F034FF0A2006F070
:1008300005F9601CC4B2A642DBD8BDE8F08770B5EC
:100840000D46044602F0FEFE200AA02202EB400004
:10085000C0B202F0BBFE02F045FFE0B202F0B6FE0D
:1008600002F040FF284602F0B1FE02F03BFF02F02A
:1008700011FFBDE870400A2006F0E0B8FEE7000076
:1008800013484DF804ED87B0016841F08001016024
:10089000016801F080010591016841F480710160F7
:1008A0000068694600F480700590402000900120A7
:1008B0000190029003200390064801F08FFA08206F
:1008C00000900548694601F089FA07B05DF804FB1D
:1008D00030380240001C0240002002402DE9F04167
:1008E0003C4F80460024386820F0C00038603868EB
:1008F00038601E2006F0C8F8374E0025002240213F
:10090000304601F096FB022006F0BEF80122304688
:10091000402101F08EFB60060821040E384601F0EC
:100920007FFB00281CBF601CC4B2681CC5B2082D28
:10093000E4D3B8F1000F4FF000024FF04001304611
:1009400024D001F076FB386820F0C00038603868A9
:1009500040F040003860022006F096F80022384649
:10096000082101F066FB022006F08EF801223046D5
:10097000402101F05EFB022006F086F8002230469E
:10098000402101F056FB2046BDE8F08101F051FB0B
:10099000386820F0C0003860386840F040003860A7
:1009A000022006F071F801223846082101F041FBCF
:1009B000022006F069F801223046402101F039FB9F
:1009C000022006F061F800223046402101F031FBA0
:1009D000D9E7000000200240001C02402DE9F04150
:1009E0001C4F0546386820F0C0003860386840F079
:1009F00040003860184E00224021304601F019FBBB
:100A0000022006F041F8002415F0800F05D00122E5
:100A10003846082101F00DFB04E000223846082189
:100A200001F007FB68060122050E3046402101F067
:100A300000FB022006F028F800223046402101F099
:100A4000F8FA022006F020F8601CC4B2082CDBD3B0
:100A5000BDE8F08100200240001C024070B5134C3C
:100A6000206820F0C0002060206840F04000206036
:100A700001222046082101F0DCFA0D4D012240211F
:100A8000284601F0D6FA1E2005F0FEFF002220467F
:100A9000082101F0CEFA022005F0F6FF2846BDE855
:100AA00070400022402101F0C4BA00000020024042
:100AB000001C024010B5104C206820F0C0002060DF
:100AC000206840F0400020600C480122402101F0E5
:100AD000B0FA1E2005F0D8FF00222046082101F0C0
:100AE000A8FA022005F0D0FF01222046BDE8104000
:100AF000082101F09EBA000000200240001C0240C4
:100B000070B5284E0024306820F0C0003060306896
:100B1000306001220821304601F08BFA224D01227B
:100B20004021284601F085FA022005F0ADFF08219A
:100B3000304601F075FA00282CD0601CC4B2FA2CA3
:100B40001FD93068344620F0C0003060306840F073
:100B50004000306001222846402101F06AFA1E2040
:100B600005F092FF00222046082101F062FA0220DF
:100B700005F08AFF01222046082101F05AFA0120DF
:100B800070BD022005F080FF0821304601F048FAD0
:100B90000028D2D100222846402101F04AFA002044
:100BA00070BD000000200240001C024070B4BFF382
:100BB0004F8FBFF36F8F1A4900200860194D2968C5
:100BC00041F400312960BFF34F8FBFF36F8F164997
:100BD0000860BFF34F8F081F006843F6FF76134A83
:100BE000C0F34E3CC0F3C90406EA4C11204641EA6A
:100BF00080731360401EFAD2BCF1010CF4D2BFF333
:100C00004F8F286840F480302860BFF34F8FBFF3C8
:100C10006F8F0748016841F00401016070BC7047A4
:100C200050EF00E014ED00E084ED00E060EF00E044
:100C30009CEF00E030B583B01DA000F029F910242E
:100C40004FF6E0731FA000250295CDE900041F2296
:100C50001E210A2005F066FA23A04FF6E073CDE9C5
:100C600000041F22029532210A2005F05BFA1820A9
:100C70004FF6E07322A101240294CDE900101F2257
:100C800046210A2005F04EFA20204FF6E07322A1FB
:100C900002941F22CDE9001064210A2005F042FAD7
:100CA00003B04FF49660BDE8304005F0C7BE0000C9
:100CB000B2E2CAD4373AD6D0CEC4CFD4CABEB2E29A
:100CC000CAD4000031365831363AC8ABB6AFB5E7B2
:100CD000D7D3BCBCCAF5D3D0CFDEB9ABCBBEBBB685
:100CE000D3ADC4FA0000000031365831363A5765AA
:100CF0006C636F6D65C8ABB6AFB5E7D7D3000000C6
:100D000032345832343AC9EEDBDACAD0D6D0CEC447
:100D1000B2E2CAD40000000033325833323AD7D698
:100D2000CCE5B2E2CAD400004FF0000888B04546D6
:100D300003F0DEF845A000F0ABF8DFF834B14FF077
:100D40000109CDF80090102200214AA3BBF8000051
:100D5000183880B203F06AF847494FF47840DFF85A
:100D60001CA102AE0860681CC5B200F0A7FB0024FD
:100D70009AF8140009FA04F1084204BF4FF6FF7014
:100D800026F8240046D03AF81420BBF80000904220
:100D900040D90AEB4407BBF802107B89994239D944
:100DA00036F824C0ACF57F41FF3904D106EB84014D
:100DB00026F824204B801838824216DD102B14D2DE
:100DC000012D27D821A000F063F8CDF80090102263
:100DD000BBF80000002127A3183880B203F026F8E2
:100DE00025494FF4784008600CE02549022031F88D
:100DF0001410CDE9000106EB8400418836F8240088
:100E000002F0E6FD3AF8140006EB840126F824000F
:100E100078894880601CC4B2052CA9D3052005F050
:100E20000DFE08F1010000F0FF081648A0FB0810B5
:100E30000009A0EB001018EB400003D1124802217A
:100E400001F0F3F8042D88BF00258CE7B2E2CAD484
:100E500031303AB5E7C8DD546F756368B2E2CAD481
:100E600028D6A7B3D635B5E3B4A5C3FE2920200004
:100E70003000022052535400280002204400022077
:100E8000C0900008898888880004024070470000EC
:100E9000F0B583B007464FF6FF7002F02DFD1B4CF6
:100EA0001F250095002114232088401E82B2084689
:100EB00002F04EFE00956188481E83B22088401ED5
:100EC00082B2A1F1140081B2002002F041FE10496B
:100ED0004FF6FF700126024610251F2308600221ED
:100EE00000970020CDE9015600F0F4FE09A002961B
:100EF000CDE9000560881F234FF6FF72123881B2DA
:100F0000002000F0E7FE03B0F0BD0000300002203A
:100F100028000220687474703A2F2F7777772E6C30
:100F2000636477696B692E636F6D00002DE9F0478C
:100F30001E46174688468146DDE9085402F0F8FC53
:100F400023462A463146384602F0F2FC43464A46DA
:100F500021462846BDE8F04702F0EABC802000F0B8
:100F600031BF000070B584B027A0FFF791FF0C25BA
:100F70004FF6E07329A000240294CDE900051F225A
:100F80001E210A2005F0CEF82FA04FF6E073CDE920
:100F90000005012602961F222D210A2005F0C2F825
:100FA00034A04FF6E073CDE900051F2202943C21E6
:100FB0000A2005F0B7F810254FF6E07335A002942B
:100FC0001F22CDE9000550210A2005F0ABF83CA016
:100FD0004FF6E073CDE900051F22029664210A2036
:100FE00005F0A0F841A04FF6E073CDE900051F22FF
:100FF000029478210A2005F095F804B04FF4966029
:10100000BDE8704005F01ABDB2E2CAD4363AD3A2A8
:10101000CEC4CFD4CABEB2E2CAD4000036583132F0
:101020003A6162636465666768696A6B6C6D6E6F6E
:10103000707172737475767778797A3031323334AF
:101040003536373839000000365831323A4142439C
:101050004445464748494A4B4C4D4E4F50515253D8
:101060005455565758595A3031323334353637384B
:1010700039000000365831323A7E21402324255E63
:10108000262A28295F2B7B7D3A3C3E3F2F7C2D2B47
:101090002E000000385831363A6162636465666735
:1010A00068696A6B6C6D6E6F707172737475767748
:1010B00078797A30313233343536373839000000B8
:1010C000385831363A4142434445464748494A4BED
:1010D0004C4D4E4F505152535455565758595A3003
:1010E000313233343536373839000000385831362C
:1010F0003A7E21402324255E262A28295F2B7B7DEA
:101100003A3C3E3F2F7C2D2B2E000000B3F5804F44
:1011100030B418BF6FF0704104D040F8221030BCDA
:101120000020704750F82230DFF824C08D8903EA90
:101130000C03D1E900C44CEA041C8C6889692402C0
:1011400044EA05444CEA040C4CEA01011943E4E783
:101150000000F0CF70B4D1F800C050F82C201B4B29
:10116000D1E903561A40D1E9014335431C432C43CE
:101170004D692C438D692C43CD692C430D6A2C435A
:101180004D6A2C438D6A2C43CD6A2C430D6B2C4346
:101190008D6B2C434D6B2C432243082B08BF42F030
:1011A000400240F82C200A6BB2F5801F05D10A6876
:1011B0004AB1026842F4801202600A681AB10268F9
:1011C000496B1143016070BC002070478004C0FF70
:1011D00000EB820270B453684FF07E46D1E900C440
:1011E0008D8903F040434CEA041C8C68240244EAD5
:1011F00005440D8A4CEA0404DFF834C00CEB0555B5
:101200002C430D7D06EB05652C438D692C43234350
:101210005360026812F4801F07D04268098A22F4E2
:1012200070020CEB01511143416070BC002070470B
:101230000000F0FF4DF8044DD1E901320C68134372
:10124000D1E903C24CEA02021A434B6913438A698B
:10125000012C046843EA020CCB690A6A496A08D087
:101260004CEA03031A4311436FF30E042143016058
:101270000BE024F4F8441A4321430A434168026016
:101280006FF30E014CEA010141605DF8044B002050
:101290007047426942EA4101416100207047F8B558
:1012A00014460546D1E900026FF01F0310438A6817
:1012B000C96803EB421242EA4121084300902861C9
:1012C00000F0BCFE0646A86910F0200F0ED0B4F165
:1012D000FF3F07D024B100F0B1FE801BA04201D92E
:1012E0000320F8BDA86910F0200FF0D10020F8BD50
:1012F0002DE9F001D1F804C06FF00F050B682C0147
:101300005B1E05EB0C1C43EA0C03D1F808C04FEA46
:101310000428270304EB0C2C43EA0C050B8A260453
:10132000CC68012A826808EB034C8B8A097E07EBA4
:10133000035306EB01610DD0361306EB04342C4346
:1013400044EA0C0C4CEA0303194302F070421143C7
:10135000816012E0240322F47042A4F580542343F8
:1013600022F470021A43C36845EA0C0C826003F051
:1013700070434CEA01011943C160BDE8F00100204F
:1013800070470000344870B588B0016841F08001B2
:101390000160016801F080010691016841F48071EB
:1013A0000160006800250124694600F48070069001
:1013B0008020CDE900050320CDE90240274800F058
:1013C0000DFD274E2002CDE900046946304600F0AD
:1013D00005FD05F065FAFFF753FA002230462102B9
:1013E00000F027FE142005F029FB012230461102EF
:1013F00000F01FFE322005F021FB01228DF8145071
:10140000002005A900F05CF901228DF81440A42009
:1014100005A900F055F916208DF81400012280204E
:1014200005A900F04DF90C208DF814000122882048
:1014300005A900F045F90222A12005A900F012F843
:101440009DF81400302805BF9DF8150003280120E1
:10145000002008B070BD000030380240001C02407F
:10146000002002402DE9F04115460E460446FFF7E4
:10147000F5FA7020FFF7B2FAFFF742FBE0B2FFF790
:10148000ADFAFFF73DFBFFF7E9FA7120FFF7A6FA87
:10149000FFF736FB0024002D88BF6F1E0AD9BC421F
:1014A00014BF01200020FFF719FA3055601CC4B2A8
:1014B000AC42F4D3BDE8F041FFF7FCBA2DE9F04FA0
:1014C0007B480024DFF8EC9183B02546A2460078E3
:1014D00000287CD00122022001A9FFF7C3FF9DF85C
:1014E000041011F00F0F72D001F00F0006286ED219
:1014F000FF21DFF8C4B101FA00F0C04340F0C000A2
:1015000089F81400012099F81410A040014278D005
:101510006A480426E84610F81450FFF79FFA702036
:10152000FFF75CFAFFF7ECFAE8B2FFF757FAFFF7BC
:10153000E7FAFFF793FA7120FFF750FAFFF7E0FAA6
:101540000025771EBD4214BF01200020FFF7C6F919
:1015500008F80500681CC5B2B542F3D3FFF7AAFA34
:101560009BF8060030B101281DD0022830D0032896
:1015700048D062E09DF800109DF8010001F00F01D5
:1015800000EB0120BBF80010081A29F814009DF8A0
:1015900002109DF8030001F00F0100EB012009EBA0
:1015A0004401488149E09DF800109DF8010001F0D8
:1015B0000F0100EB012009EB440148819DF8021066
:1015C0009DF8030001F00F0100EB012033E04FE034
:1015D0009DF800109DF8010001F00F0100EB0120C3
:1015E00029F814009DF802109DF8030001F00F0186
:1015F00000EB0120BBF80210081A09EB44014881F6
:101600001BE026E09DF800109DF8010001F00F019D
:1016100000EB0120BBF80210081A09EB44014881D5
:101620009DF802109DF8030001F00F0100EB01206E
:10163000BBF80010081A29F814009DF8000000F00B
:10164000F000802805D009EB4400A0F80AA029F892
:1016500014A0601CC4B2052CFFF454AFB9F80010FC
:101660000125002902BFB9F80A0000288DF804A05E
:101670009DF8040010F01F0F03D003B02846BDE80A
:10168000F08F0B4880F800A099F8141011F0800F2B
:1016900011BF21F080004FF6FF70A9F80000A9F8F3
:1016A0000A0008BF01F0E00089F81400E5E7000037
:1016B000390002204400022030000220EC90000893
:1016C0002DE9F041002716460D460446FFF7C6F9FE
:1016D0007020FFF783F9FFF713FAE0B2FFF77EF906
:1016E000FFF70EFA0024002E0AD9285DFFF776F9DD
:1016F000FFF706FA070003D1601CC4B2B442F4D36A
:10170000FFF7D8F93846BDE8F08100002DE9FF4F1A
:1017100087B04FF00008C146DDE91423BDF828C0AA
:10172000614508D90C4661468446BDF82400ADF8F1
:101730002840ADF824C01FFA83FCBDF8284064455A
:1017400007D9ADF828C09446BDF824202346ADF84B
:1017500024C0BDF828C0614508D90C4661468446BE
:10176000BDF82400ADF82840ADF824C09FB2B942BE
:101770000E4625D1BDF82410ADF80400814288BF83
:10178000ADF8041038BF084691B2814238BF084610
:1017900005D3BDF804208A4238BFADF80410BDF867
:1017A00004203346DFF810C11946BCF800C01FFA08
:1017B0008CFCCDF800C002F0D3F90BB0BDE8F08F7F
:1017C000BDF824100546BDF828B092B2481B06901B
:1017D000ABEB06000590B81B0390501A0290BB4576
:1017E000A2EB050AA7EB0B0004901CBFABF10100B4
:1017F0001FFA80FB34465E4523D80399059899FB70
:10180000F1F198FBF0F0D14429441FFA81FCADF8C6
:1018100004C00699284480B26045884403D9014633
:101820006046ADF8041023462349BDF8042009881A
:1018300089B20091194602F093F9601C84B25C45AC
:10184000DBD9BDF82800211A029801FB00F8A01B83
:10185000BC4200FB0AF692BFDFF85C900BB0BDE81B
:10186000F08F0498BDF8241098FBF0F00844039919
:1018700080B296FBF1F1564429441FFA81FC02998B
:101880006045ADF804C0884403D901466046ADF810
:1018900004102346B9F80010BDF804201FFA81FC9B
:1018A0001946CDF800C002F05BF9601C84B2BC425E
:1018B000D7D90BB0BDE8F08F280002202DE9FF4FEB
:1018C00083B0DFF814A104460646462088464FF050
:1018D000000B01904149109A0BEB0B1011F81030DE
:1018E0001278934235D101EB400000904178109876
:1018F000407881422DD108F10F00414683B204F1B6
:101900000F0082B2204602F075F94FF000090098EE
:10191000002500EB0907119888B33148059A026049
:101920008020B978E840014203D04146204602F0C9
:1019300001F9601C84B2A01B102836D0681CC5B207
:10194000082DE8D309F1010000F0FF09B9F1200FDB
:10195000DDD30BF101001FFA80FB01988345B9D359
:10196000BAF80200401E83B2BAF8000007B0401E69
:1019700082B2BDE8F04F0021084602F03BB980205A
:10198000B978E84001429AF807001AD0012818BF38
:10199000059810D002F0A2FA9AF807000128CDD1DC
:1019A000601C84B2A01B1028C8D108F10100344685
:1019B0001FFA80F8C6E7059A4146204602F0BAF8B9
:1019C000EAE7012818BF0698E4D1069A4146204666
:1019D00002F0B0F8E0E7000030000220E6760008F0
:1019E000280002202DE9FF4F83B0DFF818A104463C
:1019F0000646072088464FF0000B01904249109A96
:101A00000BEB8B0000EB4B1011F810301278934267
:101A100035D101EB40000090417810984078814228
:101A20002DD108F11700414683B204F1170082B2AC
:101A3000204602F0DFF84FF000090098002500EB87
:101A40000907119888B33148059A02608020B97857
:101A5000E840014203D04146204602F06BF8601C8A
:101A600084B2A01B182836D0681CC5B2082DE8D354
:101A700009F1010000F0FF09B9F1480FDDD30BF1C6
:101A800001001FFA80FB01988345B7D3BAF8020022
:101A9000401E83B2BAF8000007B0401E82B2BDE813
:101AA000F04F0021084602F0A5B88020B978E84040
:101AB00001429AF807001AD0012818BF059810D0E3
:101AC00002F00CFA9AF807000128CDD1601C84B20C
:101AD000A01B1828C8D108F1010034461FFA80F86D
:101AE000C6E7059A4146204602F024F8EAE70128B5
:101AF00018BF0698E4D1069A4146204602F01AF82B
:101B0000E0E70000300002203280000828000220B8
:101B10002DE9FF4F83B0DFF814A1044606460420E8
:101B200088464FF0000B01904149109A0BEB8B1047
:101B300011F810301278934235D101EB400000903B
:101B400041781098407881422DD108F11F0041461C
:101B500083B204F11F0082B2204602F04BF84FF02E
:101B600000090098002500EB0907119888B3314857
:101B7000059A02608020B978E840014203D04146CE
:101B8000204601F0D7FF601C84B2A01B202836D06D
:101B9000681CC5B2082DE8D309F1010000F0FF0967
:101BA000B9F1800FDDD30BF101001FFA80FB019822
:101BB0008345B9D3BAF80200401E83B2BAF80000D8
:101BC00007B0401E82B2BDE8F04F0021084602F087
:101BD00011B88020B978E84001429AF807001AD07D
:101BE000012818BF059810D002F078F99AF807007C
:101BF0000128CDD1601C84B2A01B2028C8D108F1D7
:101C0000010034461FFA80F8C6E7059A414620468F
:101C100001F090FFEAE7012818BF0698E4D1069A80
:101C20004146204601F086FFE0E700003000022038
:101C300038820008280002202DE9F0479946054621
:101C400001EB09001646401EDDF8208083B20F46E6
:101C5000A819401E82B2284601F0CCFF06FB09F904
:101C6000DFF86CA00024B9F1000F0FDD08EB440190
:101C70009AF8072018F81400012A497814D040EA8D
:101C8000012002F02BF9641CA145EFDCBAF8020038
:101C9000401E83B2BAF80000BDE8F047401E82B291
:101CA0000021084601F0A6BF40EA01223946284635
:101CB00001F040FF681C85B2601C90FBF6F106FB4A
:101CC00011000028DFD1A81B85B2781C87B2DAE7A3
:101CD000300002202DE9F04383B01F46904689462C
:101CE000DDE90A460C9D2046FEF72AFC0A4980B22F
:101CF00040423B4642460988CDE9004601EBC00C14
:101D0000494602950CEBDC70C0F34F0004F00AFA70
:101D100003B0BDE8F083000030000220002804BFBB
:101D20000120704770B5044690F85100002520B995
:101D3000204684F8505000F03AF8022084F8510010
:101D400020680168626821F4403111430160206815
:101D5000416BA26821F00701114341632068016CC7
:101D6000E2686FF30D01114301642068416B4FF489
:101D70008013226993FAA3F321F48011B3FA83F359
:101D80009A40114341632068416B4FF4001362692C
:101D900093FAA3F321F40011B3FA83F39A401143A9
:101DA00041636565012084F85100002070BD7047D3
:101DB000802818BF70470120014908707047000053
:101DC0003900022004490A68024208BF704710B572
:101DD0000860FFF7EDFF10BD143C01402DE9F84FFE
:101DE000DFF830920022DFF828820F2709F1040A79
:101DF0004FF0010E0B680EFA02F52B40AB4240F09B
:101E00000181D1F804C0BCF1020F18BFBCF1120F60
:101E100015D14FEAD20C00EB8C0CDCF820604FEAB5
:101E200042744FEAD46407FA04FB26EA0B06D1F8A1
:101E300010B00BFA04F444EA0604CCF8204006681B
:101E40004FEA420C91F804B04FF003040BF0030B7F
:101E500004FA0CF40BFA0CFB26EA04064BEA06061D
:101E600006604E68012E18BF022E03D0112E18BF37
:101E7000122E14D18668D1F80CB026EA04060BFAAB
:101E80000CFB4BEA06068660466826EA05050E79D5
:101E9000C6F3001606FA02F646EA05054560C5686F
:101EA00025EA04048D6805FA0CFC4CEA040CC0F821
:101EB0000CC0D1F804C01CF0805F7CD0D8F800C002
:101EC0004CF4804CC8F800C0D8F800C00CF4804C2A
:101ED000CDF800C022F0030C0CF1804505F59835D3
:101EE000D5F808C84FEA82744FEA147407FA04F66A
:101EF0002CEA0606A0F1804CBCF5003C48D0A0F1CD
:101F0000804CBCF5013C08BF4FF0010C40D0A0F163
:101F1000804CBCF5023C08BF4FF0020C38D0A0F159
:101F2000804CBCF5033C08BF4FF0030C30D0A0F14F
:101F3000804CBCF5043C08BF4FF0040C28D0A0F145
:101F4000804CBCF5053C08BF4FF0050C20D0A0F13B
:101F5000804CBCF5063C08BF4FF0060C18D0A0F131
:101F6000804CBCF5073C08BF4FF0070C10D0A0F127
:101F7000804CBCF5083C08BF4FF0080C08D0A0F11D
:101F8000804CBCF5093C0CBF4FF0090C4FF00A0C1B
:101F90000CFA04FC4CEA060CC5F808C8D9F800C0D5
:101FA0004C682CEA030C14F4803F18BF4CEA030C75
:101FB000C9F800C000E025E0DAF800C04C682CEA5F
:101FC000030C14F4003F18BF4CEA030CCAF800C01D
:101FD000114CD4F800C04D682CEA030C15F4801F96
:101FE00018BF4CEA030CC4F800C00C4CD4F800C075
:101FF0004D682CEA030C15F4001F18BF4CEA030CC3
:10200000C4F800C0521C102AFFF4F4AEBDE8F88FEB
:1020100044380240003C0140083C01400C3C014077
:102020000069084018BF0120704742695140416172
:102030007047002A08BF09048161704701480068A1
:10204000704700002000022002480168491C01601E
:102050007047000020000220074810B5016841F4D5
:1020600000710160052000F009FA0F2000F006F869
:1020700000F0C4F9002010BD003C024010B5044639
:1020800007484FF47A720068B0FBF2F001F012FAE0
:1020900000222146501E00F0BFF9002010BD0000B4
:1020A0001C0002202DE9F05F044690F8A0000128F2
:1020B00004BF0220BDE8F09F0125022084F8A05053
:1020C00084F8A10002EB820000EBC20004EB800365
:1020D000B1E8C11F3833A3E8C11F91E8C11120390D
:1020E00083E8C111204601F029FF2068456284F889
:1020F000A150002084F8A000BDE8F09F002804BF94
:102100000120704770B5044690F8A100002520B961
:10211000204684F8A05000F077F8022084F8A1004F
:102120002068816921F070418161D4E9010108438F
:10213000D4E903121143014320688269114381618C
:10214000206882682F490A408260A08A02042068C1
:102150008368D4F818C043EA0C031A4382602068ED
:10216000C2680A40C260A08B02042068C368D4F829
:1021700020C043EA0C031A43C260206802690A4087
:102180000261A08C020420680369D4F828C043EAE5
:102190000C031A4302612068426911404161A08D1D
:1021A000010420684269236B1A431143416194F88A
:1021B0003500020294F8360001042068C36A03F077
:1021C0007F43C3622068C36A114394F834C043EA72
:1021D0000C031943C1622068416B41F00401416363
:1021E0002068416B41F0020141632068816941F040
:1021F00001018161C4F8A450012084F8A1000020ED
:1022000070BD000000F800F0354810B586B00168D8
:1022100041F080610160006800F080600590314805
:10222000016841F400010160016801F400010591B9
:10223000016841F002010160016801F002010591AD
:10224000016841F020010160016801F02001059161
:10225000016841F040010160016801F04001059111
:10226000016841F080010160016801F08001059181
:10227000016841F48071016000680324694600F43C
:10228000807005902020009001200190CDE902048B
:102290001548FFF7A3FD4FF48060009002200190E5
:1022A00000206946CDE902040E2004900F48FFF794
:1022B00095FD4FF40C6000900D486946FFF78EFDC8
:1022C0004FF47E4000900B486946FFF787FD40F2CF
:1022D000F760009008486946FFF780FD06B010BD22
:1022E00044380240303802400004024000140240EA
:1022F00000180240001C02400020024070B5044655
:1023000090F8A0008C46012804BF022070BD012572
:10231000022084F8A05084F8A10003EB830000EBB6
:10232000C30004EB800000F13801C0F838C0006E33
:102330006044C1E90102C86A10441A46C8602046D8
:1023400001F0FCFD2068456284F8A150002084F86B
:10235000A00070BD70B5044690F8A0008C4601281E
:1023600004BF022070BD0125022084F8A05084F82B
:10237000A10003EB830000EBC300002604EB800008
:1023800000F138012046C1E9006CC1E90262C1E9EF
:102390000AC21A4601F0D2FD2068456284F8A150B5
:1023A000002084F8A06070BD134A41781160111DAF
:1023B00003780A1D002B04BF002008601AD0436870
:1023C0000B60017BC37A090741EA0361837A41EA22
:1023D000C341437B41EA8341837B41EA4341C37B61
:1023E00041EA0341437A41EA0321037A007841EA52
:1023F000430108431060704798ED00E070470122E8
:1024000000F01F0102FA01F14009800000F1E02014
:10241000C0F8001170470000174B4DF8044D1B68C1
:10242000C3F30223C3F1070CBCF1040F88BF4FF0C4
:10243000040C1C1D072C34BF0023DB1E012404FAEE
:102440000CFCACF1010C0CEA0101994004FA03F315
:102450005B1E1A40114300284FEA0111B8BF00F07B
:102460000F0000F1E020B4BF80F8141D80F80014C4
:102470005DF8044B704700000CED00E0074A00F0E7
:10248000070011684FF6FF03194041EA002040F0B1
:10249000FD7040F080601060704700000CED00E0BF
:1024A0001C4838B5016841F08051016000681A4C41
:1024B00000F080500090206840F480302060FFF7EA
:1024C000BDFD0546606810F4803F09D1FFF7B6FDF9
:1024D000401BB0F57A7F14D8606810F4803FF5D0C7
:1024E000206840F400302060FFF7A8FD05466068D2
:1024F00010F4003F0BD1FFF7A1FD401BB0F57A7F30
:1025000001D9032038BD606810F4003FF3D00020EB
:1025100038BD000040380240007000402DE9F84FFF
:1025200004460078DFF82C944FF0000B10F0010FF8
:102530005D4610D0D9F8000020F40000C9F8000072
:10254000D9F80000616B0843C9F80000606B0028EF
:1025500008BF4FF0010B2068FF4E10F4002F0FD082
:102560003068E16B20F4401008433060E06BB0F558
:10257000801F08BF4FF0010B02D0002808BF0125C3
:10258000206810F4801F0FD03068216C20F44000C8
:1025900008433060206CB0F5800F08BF4FF0010B8E
:1025A00002D0002808BF0125206810F0807F18BFE6
:1025B0004FF0010B10F0200F71D0E848016841F096
:1025C000805101600068DFF8988300F0805000902F
:1025D000D8F8000040F48070C8F80000FFF72EFD26
:1025E0000746D8F8000010F4807F0AD1FFF726FDD7
:1025F000C01B642800F23083D8F8000010F4807FFC
:10260000F4D0DFF86083D8F8000010F4407031D0C7
:10261000218E01F4407181422CD0D8F80000D8F806
:10262000001020F4407041F48031C8F80010D8F850
:10263000001021F48031C8F80010C8F80000D8F864
:10264000000010F0010F15D0FFF7F8FC0746D8F88E
:10265000000010F0020F08BF41F2883A0AD1FFF7DC
:10266000EDFCC01B504500F2F782D8F8000010F0D6
:10267000020FF4D0206B4FF4407181431CBFD9F896
:10268000000020F4F81000F0EE80C9F80000D8F83F
:102690000000218EC1F30B010843C8F80000207828
:1026A00010F0100F07D0306820F080703060306874
:1026B000A16B08433060208810F4804FAA4805D0F1
:1026C0000168626E21F4403111430160218811F4E8
:1026D000004F05D00168A26E21F440211143016032
:1026E000216811F4803F05D00168E26E21F44011A9
:1026F00011430160216811F4003F05D00168226F89
:1027000021F4400111430160217811F0400F05D000
:102710000168626C21F0030111430160217811F01E
:10272000800F05D00168A26C21F00C0111430160FB
:10273000218811F4807F05D00168E26C21F030011E
:1027400011430160218811F4007F05D00168226DDA
:1027500021F0C00111430160218811F4806F05D080
:102760000168626D21F4407111430160218811F408
:10277000006F05D00168A26D21F440611143016032
:10278000218811F4805F05D00168E26D21F4405189
:1027900011430160218811F4005F05D00168226EA9
:1027A00021F4404111430160216811F4800F05D0EC
:1027B0000168A26F21F0806111430160216811F46A
:1027C000001F0AD00168E26F21F00061114301602F
:1027D000E16FB1F1006F08BF0125216811F0080F0A
:1027E00018BF012511F4802F05D00168626F21F018
:1027F000407111430160216811F4000F06D0016897
:10280000D4F8802021F0805111430160216811F03B
:10281000806F06D00168D4F8842021F00051114364
:102820000160206810F0006F06D03068D4F888107E
:1028300020F0007008433060206810F0805F06D000
:102840003068D4F88C1020F0806008433060BBF111
:10285000000F47F6C07A4FF440374FF070684FF0E2
:10286000E0490ED109E0D9F8001020F4407020F0C2
:10287000704021F4F811084307E72068B0F1007FA9
:1028800067D13A48006820F0806138480160FFF75E
:10289000D5FB83463548006810F0006F0BD0FFF77A
:1028A000CDFBA0EB0B00642800F2D6812F48006816
:1028B00010F0006FF3D1207810F0010F2C482DD0CC
:1028C000616B59BB016897FAA7F201F44031B2FA83
:1028D00082F2D140026898FAA8F39AFAAAFC02F0B0
:1028E0007062B3FA83F3BCFA8CFCDA40636803FAD3
:1028F0000CF397FAA7FCBCFA8CFC01FA0CF1194313
:1029000098FAA8F3B3FA83F39A4099FAA9F30A4321
:10291000A168B3FA83F3994011430160216811F46F
:10292000002F03D0E26BB2F5801F06D011F4801F98
:1029300049D0216CB1F5800F45D1016897FAA7F213
:1029400001F44031B2FA82F2D140026802F0E04272
:1029500010E0A5E0083802408C38024040380240C0
:102960000070004070380240903802400038024049
:102970008438024099FAA9F39AFAAAFCB3FA83F3CD
:10298000BCFA8CFCDA40636803FA0CF397FAA7FCF4
:10299000BCFA8CFC01FA0CF198FAA8FC1943E36824
:1029A000BCFA8CFC03FA0CF3194399FAA9F3B3FAB5
:1029B00083F39A40114301603168626A21F01F017C
:1029C000521E11433160216811F0807F2ED00168C2
:1029D00098FAA8F201F07061B2FA82F2D14002686E
:1029E00099FAA9F39AFAAAFC02F0E042B3FA83F347
:1029F000BCFA8CFCDA40636897FAA7FBBBFA8BFB46
:102A000003FA0CF3D4F810C00CFA0BFC43EA0C03E5
:102A100098FAA8FCBCFA8CFC01FA0CF1194399FA5B
:102A2000A9F3B3FA83F39A4011430160216811F0CE
:102A3000007F1CD09AFAAAF2616897FAA7F3B2FA5B
:102A400082F2B3FA83F301FA02F22169994098FA0B
:102A5000A8F31143E268B3FA83F39A4099FAA9F311
:102A60001143A268B3FA83F39A40114301607F488F
:102A7000006840F080617D480160FFF7DFFA83461F
:102A80007A48006810F0006F0AD1FFF7D7FAA0EB80
:102A90000B0064287DD87548006810F0006FF4D0F2
:102AA000002D77D0714D286820F080502860FFF706
:102AB000C5FA8346286810F0005F09D0FFF7BEFA18
:102AC000A0EB0B00642864D8286810F0005FF5D1F3
:102AD0002068DFF89CC110F4002F01D0E16B21B118
:102AE00010F4801F38D0206CB0BBDCF8000097FADF
:102AF000A7F100F44030B1FA81F1C840DCF80010D1
:102B000099FAA9F29AFAAAF301F0E041B2FA82F234
:102B1000B3FA83F3D14062699A4097FAA7F3B3FA04
:102B200083F3984098FAA8F31043A269B3FA83F3A9
:102B30009A40104399FAA9F2B2FA82F291400843FE
:102B4000CCF8000030686FF0FF02A16A20F4F85062
:102B500002EB012108433060206810F4001F34D0DC
:102B6000E06FB0F1006F30D1DCF8000098FAA8F106
:102B700000F07060B1FA81F1C840DCF8001099FAF9
:102B8000A9F29AFAAAF301F0E041B2FA82F2D14036
:102B900001E061E067E06269B3FA83F397FAA7FBAB
:102BA0009A40236ABBFA8BFB03FA0BF31A4398FA99
:102BB000A8F3B3FA83F39840104399FAA9F2B2FA52
:102BC00082F291400843CCF80000207810F0080F02
:102BD00032D0DCF8000098FAA8F100F07060B1FA89
:102BE00081F1C840DCF8001097FAA7F29AFAAAF32C
:102BF00001F44031B2FA82F2B3FA83F3D140626950
:102C00009A4097FAA7F3B3FA83F39940114398FADD
:102C1000A8F2B2FA82F2904099FAA9F20843E16967
:102C2000B2FA82F291400843CCF800003068E16AC1
:102C300020F4403008433060286840F0805028601D
:102C4000FFF7FCF90446286810F0005F0BD1FFF78E
:102C5000F5F9001B642802D90320BDE8F88F286825
:102C600010F0005FF3D00020BDE8F88F003802407C
:102C7000883802402DE9F047DFF8688104460D46A8
:102C8000D8F8000000F00F00A8420CD2D8F80000DD
:102C900020F00F002843C8F80000D8F8000000F02A
:102CA0000F00A84270D120784F4F10F0020F05D0CE
:102CB0003868A16820F0F00008433860207810F0F0
:102CC000010F4ED060684949012820D009680228C8
:102CD00022D011F0020F57D0396821F003010843C8
:102CE0003860FFF7ABF90646606841F28839012881
:102CF00016D00228386800F00C0021D0F8B1FFF798
:102D00009DF9801B484528D90320BDE8F087096854
:102D100011F4003FE0D137E011F0007FDCD133E067
:102D2000386800F00C0004281BD0FFF787F9801BDF
:102D30004845E9D8386800F00C000428F5D110E0C7
:102D400008280ED0FFF77AF9801B4845DCD8386890
:102D500000F00C000828F5D103E0386810F00C0FE3
:102D6000CDD1D8F8000000F00F00A8420FD9D8F854
:102D7000000020F00F002843C8F80000D8F8000039
:102D800000F00F00A84202D00120BDE8F0872078B3
:102D900010F0040F05D03868E16820F4E0500843D3
:102DA0003860207810F0080F06D03868216920F4C8
:102DB000604040EAC100386000F01EF83968F02237
:102DC00092FAA2F201F0F001B2FA82F2D140084A7E
:102DD000515CC840074908600F20FFF74FF90020F9
:102DE000BDE8F087003C024008380240003802404D
:102DF000DC9000081C0002202148006810F00C0143
:102E0000204808BF7047DFF880C0042904BF60462F
:102E10007047082918BF70474DF8044D1B4A1168C8
:102E2000136801F03F0113F4800F47F6C0730BD015
:102E3000BCFBF1F01168194093FAA3F3B3FA83F3E2
:102E4000D94000FB01F00AE0B0FBF1F01168194035
:102E500093FAA3F3B3FA83F3D94000FB01F01168AE
:102E60004FF440325DF8044B92FAA2F201F4403183
:102E7000B2FA82F2D140491C4900B0FBF1F0704730
:102E8000083802400024F40040787D0104380240F4
:102E90002DE9F84FDFF8A88304460078A8F104076D
:102EA00010F0010FA7F104055AD0D8F8000000F087
:102EB0000C00042809D0D8F8000000F00C00082805
:102EC0000CD1386810F4800F08D0286810F4003F47
:102ED00046D06068002800F0AF8141E06068B0F53E
:102EE000803F04BF286840F480300AD010B1B0F5AC
:102EF000A02F11D0286820F480302860286820F4A2
:102F0000802028606068D0B1FFF798F806462868EE
:102F100010F4003F08D023E0286840F480202860A7
:102F2000286840F48030ECE7FFF788F8801B6428BD
:102F300000F22581286810F4003FF5D010E0FFF77B
:102F40007DF80646286810F4003F09D0FFF776F8B0
:102F5000801B642800F21381286810F4003FF5D12B
:102F6000207810F0020F50D0D8F800004FF0F80988
:102F700010F00C0F18D0D8F8000000F00C00082852
:102F800004BF386810F4800F0ED0E068002828686D
:102F900028D040F001002860FFF750F80646286866
:102FA00010F0020F09D011E0286810F0020F1CBFCA
:102FB000E06801280AD000F03FB9FFF73FF8801B16
:102FC00002287DD8286810F0020FF6D0286899FAF8
:102FD000A9F22169B2FA82F220F0F8009140084388
:102FE000286012E020F001002860FFF727F806466D
:102FF000286810F0020F08D0FFF720F8801B022885
:103000005ED8286810F0020FF6D1207810F0080F73
:1030100033D0DFF8309260690028D9F8000016D06C
:1030200040F00100C9F80000FFF708F80646D9F89B
:10303000000010F0020F20D1FFF700F8801B0228DB
:103040003ED8D9F8000010F0020FF5D015E020F0BE
:103050000100C9F80000FEF7F1FF0646D9F80000AC
:1030600010F0020F09D0FEF7E9FF801B022827D8D5
:10307000D9F8000010F0020FF5D1207810F0040FFD
:1030800063D07148016841F08051016000686F4E63
:1030900000F080500090306840F480703060FEF79F
:1030A000CDFF8146306810F4807F0BD1FEF7C6FF5C
:1030B000A0EB0900642862D8306810F4807F00E03B
:1030C0005DE0F3D0A068624E012804BF306840F094
:1030D000010009D008B1052813D0306820F00100A4
:1030E0003060306820F004003060A06841F2883A17
:1030F000D0B1FEF7A3FF8146306810F0020F08D070
:1031000023E0306840F004003060306840F0010097
:10311000EAE7FEF793FFA0EB090050452FD830688F
:1031200010F0020FF5D010E0FEF788FF81463068FE
:1031300010F0020F09D0FEF781FFA0EB0900504507
:103140001DD8306810F0020FF5D1A069E8B3D8F8A7
:10315000001001F00C0108296ED00228286820F028
:10316000807028600ED0FEF769FF0446286810F0D2
:10317000007F5ED0FEF762FF001B022855D90320B6
:10318000BDE8F88FFEF75AFF0646286810F0007F6A
:1031900008D0FEF753FF801B0228F0D8286810F0F3
:1031A000007FF6D1D4E9070147F6C0724FF0FF3334
:1031B00092FAA2F20843616AB2FA82F29140A26ADC
:1031C00003EB52024FF4403300E032E093FAA3F3F2
:1031D000B3FA83F39A4011434FF070620843E16AF7
:1031E00092FAA2F2B2FA82F291404FF0E042084322
:1031F000216B92FAA2F2B2FA82F29140084338604F
:10320000286840F080702860FEF718FF04462868A0
:1032100010F0007F0DD1FEF711FF001B0228AED881
:10322000286810F0007FF6D003E0286810F0007FD7
:10323000A0D10020BDE8F88F0120BDE8F88F000084
:1032400008380240743802404038024000700040A4
:1032500070380240002804BF0120704770B5044652
:1032600090F82C000D4628B9002084F82D00204647
:1032700000F012F8022084F82C002068211DFDF7D0
:10328000D9FFD4E900022946FEF732F8012084F87C
:103290002C00002070BD000030484DF804ED87B0D0
:1032A000016841F001010160006800F00100059033
:1032B0002B48016841F004010160016801F004013C
:1032C0000591016841F008010160016801F0080101
:1032D0000591016841F010010160016801F01001E1
:1032E0000591016841F020010160016801F02001B1
:1032F0000591016841F0400101600068694600F0F5
:10330000400005900D2000900220019001200290C5
:10331000032003900C2004901248FEF75FFD4CF24E
:103320000370009010486946FEF758FD4FF6837011
:1033300000900E486946FEF751FD4FF63F000090A1
:103340000B486946FEF74AFD48F2371000900948DD
:103350006946FEF743FD07B05DF804FB38380240CC
:103360003038024000080240000C024000100240C9
:10337000001402400018024010B5044690F82C00DA
:10338000022808BF10BD022084F82C002068FDF739
:1033900080FF012084F82C00002010BD70B5044689
:1033A00090F82C000D46022808BF70BD022084F85A
:1033B0002C002068FDF773FF286802280CBF052049
:1033C000012084F82C00002070BD002804BF0120DB
:1033D000704770B5044690F8450015460E4628B96A
:1033E000002084F84400204600F01AF8206804F118
:1033F0000801FDF7AFFEA26831462068FDF7E8FE40
:10340000E36A2946D4E90102FDF780FEA16820683D
:1034100050F8212042F0010240F82120002070BD28
:103420001A484DF804ED87B0016841F001010160D0
:10343000006800F0010005901548016841F008019E
:103440000160016801F008010591016841F0100177
:1034500001600068694600F0100005904EF2B370FC
:1034600000900220019001200290032003900C2084
:1034700004900848FEF7B2FC4FF6807000900648B2
:103480006946FEF7ABFC07B05DF804FB3838024034
:1034900030380240000C0240001002404FF0E021A2
:1034A000042808690CBF40F0040020F00400086103
:1034B00070470000401EB0F1807F24BF012070479C
:1034C0004FF0E0214861F020044A82F8140D0020FA
:1034D0008861072008610020704700000FE000E0CD
:1034E000FEE700002DE9F041374E07460024306822
:1034F00020F440603060306830602546002230465D
:103500001021FEF796FD022003F0BEFA012230469C
:103510001021FEF78EFD60062021040E3046FEF7D6
:103520007FFD00281CBF601CC4B2012003F0ACFA70
:10353000681CC5B2082DE1D34FF000024FF0100116
:1035400030460FB3FEF775FD306820F44060306000
:10355000306840F480603060002230462021FEF761
:1035600068FD022003F090FA012230461021FEF798
:1035700060FD022003F088FA002230461021FEF799
:1035800058FD2046BDE8F081FEF753FD306820F479
:1035900040603060306840F4806030600122304626
:1035A0002021FEF746FD022003F06EFA012230468C
:1035B0001021FEF73EFD022003F066FA002230469D
:1035C0001021FEF736FDDCE7001C024070B51C4EF2
:1035D00005463046316821F440613160316841F47C
:1035E0008061316000221021FEF723FD002415F0D8
:1035F000800F05D0012230462021FEF71AFD04E09D
:10360000002230462021FEF714FD6806050E022038
:1036100003F03AFA012230461021FEF70AFD02209B
:1036200003F032FA002230461021FEF702FD02209C
:1036300003F02AFA601CC4B2082CD8D370BD000075
:10364000001C024010B5124C206820F4406020603D
:10365000206840F480602060012220462021FEF78F
:10366000E8FC012220461021FEF7E3FC042003F0D1
:103670000BFA002220462021FEF7DBFC042003F099
:1036800003FA00222046BDE810401021FEF7D1BC0D
:10369000001C024010B5124C206820F440602060ED
:1036A000206840F480602060002220461021FEF750
:1036B000C0FC002220462021FEF7BBFC042003F0C2
:1036C000E3F9012220461021FEF7B3FC042003F0A9
:1036D000DBF901222046BDE810402021FEF7A9BCFD
:1036E000001C024070B5294D0024286820F4406079
:1036F000286028682860012220212846FEF799FCCE
:10370000012003F0C1F9012228461021FEF791FCA7
:10371000012003F0B9F920212846FEF781FC00289A
:103720002DD0601CC4B2FA2C23D9286820F4406044
:103730002860286840F48060286000222846102114
:10374000FEF777FC002228462021FEF772FC0420B9
:1037500003F09AF9012228461021FEF76AFC0420A2
:1037600003F092F9012228462021FEF762FC012095
:1037700070BD20212846FEF753FC0028D1D100223D
:1037800028461021FEF755FC002070BD001C0240A9
:103790001B4870B586B0016841F001010160016805
:1037A00001F001010591016841F004010160016827
:1037B00001F004010591016841F080010160006899
:1037C00003250026694600F08000059002200124B0
:1037D000CDE902050B48CDE90046FEF7FFFA60038C
:1037E0006946CDE900060848CDE90245FEF7F6FA3C
:1037F0000C20009005486946FEF7F0FA06B070BD4F
:10380000303802400000024000080240001C024024
:103810002DE9F041344C0126344F0128DFF8D080E7
:10382000344D08BF267001D02078A8B10821284661
:10383000FEF7F6FBB8B104212846FEF7F1FB90B184
:103840004FF400513846FEF7EBFB60B101214046D2
:10385000FEF7E6FB012806D008212846FEF7E0FB2C
:1038600001283ED12AE00A2003F0E8F80020207069
:1038700008212846FEF7D4FB002804BF0120BDE83C
:10388000F08104212846FEF7CBFB002804BF02206C
:10389000BDE8F0814FF400513846FEF7C1FB002827
:1038A00004BF0320BDE8F08101214046FEF7B8FBCC
:1038B000012804BF0420BDE8F08112E0042128465D
:1038C000FEF7AEFB01280CD141033846FEF7A8FBFA
:1038D000012806D101214046FEF7A2FB002808BFBF
:1038E00026700020BDE8F081380002200008024068
:1038F00000000240001C02400549C979012905D099
:10390000002918BF704780B200F000BC01F020B958
:1039100030000220DFF814C008B5BCF800C01FFA60
:103920008CFCCDF800C000F01BF908BD2800022077
:103930002DE9F04F002682465F1A3546A2EB0008BB
:103940008946B8F1000F83B0C8BF012007DC0FBF64
:1039500000204FF0FF300190C8F1000800D1019025
:10396000002FC8BF012006DC0FBF00204FF0FF3042
:1039700000907F4200D10090B845CCBF44463C4601
:103980004FF0000B601C52BF029003B0BDE8F08FF7
:103990001FFA89F10D4A1FFA8AF0126800F0CAF87E
:1039A0004644A6423D4402DD0198361B8244A542AE
:1039B00002DD00982D1B81440BF101001FFA80FBF2
:1039C00002988345E4DD03B0BDE8F08F28000220B3
:1039D0002DE9F04F8DB04FF0000AD146DDF858C008
:1039E00060452EBF62450DB0BDE8F08F61452EBF2A
:1039F00063450DB0BDE8F08F121A04925A1A019275
:103A0000049ACDE90201002AC8BF012008DC0FBFDB
:103A100000204FF0FF300790504218BF049000D1B3
:103A200007900198002808BF0020C8BF012001DBD3
:103A3000099006E04FF0FF3009900198C0F10000B6
:103A40000190049901988142CCBF884680460020AD
:103A50000A90B8F1FF3F44BF0DB0BDE8F08FCCF144
:103A60000000032101EB4000089008F101000B90D9
:103A700002980026DDE9164B06900398002C089F5B
:103A800005901CDBA64235460ADCCDF800B02B467B
:103A9000DDE90510324602F071FF6D1CA542F4DD30
:103AA000002FBCBF07EB8600871D05DB301B641EA3
:103AB00007EB800000F10A07761CA642E2DD0498BD
:103AC00082440198C245814405DD0799AAEB080AA2
:103AD000029808440290C14505DD0999A9EB08093F
:103AE0000398084403900A980B99401C80B20A90EE
:103AF0008842BDDD0DB0BDE8F08F2DE9F0411C46D8
:103B000015460E4607460B46FFF712FF3A46234678
:103B100031461046FFF70CFF23462A461946384621
:103B2000FFF706FF2A46234631461046BDE8F0411E
:103B3000FFF7FEBE054BDB79012B05D0002B18BF2C
:103B4000704792B200F000BB01F03EB83000022096
:103B500008B5DDF808C0CDF800C000F001F808BDD8
:103B600038B50A4CDDF810C0E479012C09D0002CDE
:103B700018BF38BD1FFA8CFCCDF800C000F0F0FA79
:103B800038BDCDF800C001F063F838BD3000022028
:103B900010B501F0D7F9084CA08028B10120E071E0
:103BA000BDE8104001F0D8B80020E07100F050FBF3
:103BB00000F0F4FDA08010BD30000220054AD2794B
:103BC000012A05D0002A1CBF0020704700F00CBE5F
:103BD00001F004BA300002200549C979012904D056
:103BE000002918BF704700F027BE00F0C1BF0000D9
:103BF00030000220DFF810C09CF807C0BCF1000FB5
:103C000018BF704700F0CCBE300002202DE9FF4FF6
:103C100083B00746884650499146DDE91004129E5C
:103C200020380988C5B208EB0400401E83B207EBB8
:103C30005400401E89B2019182B241463846FFF7D6
:103C4000D9FF4649002E4FF0000A01F2744241D0DC
:103C5000002C2ED905EB450001EB8000029002EB11
:103C6000051000900C2C0CBF0298009810F80A6008
:103C70000025B5EB540F38BF08EB0A0B13D23648BA
:103C800016F0800FC0F8009006D078194A461FFA47
:103C90008BF180B2FFF74EFF7006060E681CC5B2AE
:103CA000B5EB540FEBD30AF1010000F0FF0AA24577
:103CB000D8D329490198086029484188008807B06D
:103CC000491E401EBDE8F04F8BB282B2002108466B
:103CD000FFF790BF002CECD905EB450001EB80000D
:103CE000029002EB051000900C2C0CBF029800987B
:103CF00010F80A600025B5EB540F38BF08EB0A0B2B
:103D000011D2174816F0800FC07919D0012818BFBA
:103D100048460FD000F0E2F87006060E681CC5B2E7
:103D2000B5EB540FEDD30AF1010000F0FF0AA245F4
:103D3000DAD3BEE778194A461FFA8BF180B208E061
:103D4000012818BF0698E5D17819069A1FFA8BF159
:103D500080B2FFF7EFFEDFE728000220826C000848
:103D6000300002202DE9FF4F83B04FF000081D0006
:103D7000934681464446109E19BFA5F1010A770873
:103D800007B0BDE8F08F0A23281B401E0121C2B2F4
:103D9000501EC0B204D301FB03F1401EC0B2FAD2E0
:103DA000BBFBF1F01E49A1FB0021C9084942B8F153
:103DB000000F01EB810100EB410006D1544504DA0C
:103DC000002818BF4FF0010818D03030C0B2CDE93C
:103DD00000061448002102910499008883B2124819
:103DE000008882B207FB049080B2FFF70FFF601CCF
:103DF000C4B2AC42C7D307B0BDE8F08F0020202189
:103E00000091CDE9016007480499008883B2064813
:103E1000008882B207FB049080B2FFF7F7FEE6E766
:103E2000CDCCCCCC2C000220280002202DE9F04F74
:103E300083B0054618781C4616468946DDF8308062
:103E400020385E2884BF03B0BDE8F08F164FDFF83E
:103E50005CA0DFF85CB03888401EA842BCBF03B04D
:103E6000BDE8F08F7888401E4845BCBF03B0BDE870
:103E7000F08F20784946CDE90006CDF80880BAF8E1
:103E8000000083B2BBF8000082B22846FFF7BEFEF6
:103E900005EB560085B214F8010F20385E28DAD9F8
:103EA00003B0BDE8F08F0000300002202C0002209B
:103EB000280002200349C979002918BF704700F083
:103EC000CFBD0000300002200349C979002918BF86
:103ED000704700F0D3BD0000300002200349C979CB
:103EE000002918BF704700F0D7BD00003000022045
:103EF000104810B586B0016841F002010160006809
:103F000001210D4C00F0020005900320CDE90001D5
:103F1000CDE9021069462046FDF760FF01222046E8
:103F20001146FEF786F8012220460221FEF781F8AD
:103F300006B010BD3038024000040240F0B4D0F8A2
:103F400000C08B88DCF80C40C4F30B4423441C04F1
:103F5000882303EBC2135CF8035005F470454CF85A
:103F60000350D0F800C00D68DCF80C60C6F30B46B7
:103F7000761C35442C434CF80340D0F800C08B89A4
:103F8000DCF80C40C4F30A0423441C048C2303EB28
:103F9000C2135CF8035005F470454CF80350D0F898
:103FA00000C08D68DCF80C60C6F30A06761C354448
:103FB0002C434CF80340D0F800C0942303EBC21309
:103FC0005CF8034024F007044CF803400468D1F87F
:103FD00010C044F803C091F83130D0F800C01F027F
:103FE00091F832301E040B7E1D069C2303EBC21396
:103FF0005CF8034000244CF8034091F830C035438E
:104000004CEA070C4CEA050C056845F803C0D0F8EB
:1040100000C0982303EBC2135CF8035025F0FF05A2
:104020004CF803500568D1F814C045F803C0D0F827
:1040300000C0A02303EBC2135CF8035025F0070572
:1040400025F4E0654CF80350D1E907C54CEA050CAE
:10405000056845F803C0D0F800C0AC2303EBC213D9
:104060005CF803504CF803400468D1F824C044F8CD
:1040700003C00B69002B08BF04230CD0012B08BF21
:10408000032308D0042B18BF022B3BD0032B1CBFEB
:10409000072B012336D004684FF0B00C0CEBC21C88
:1040A00054F80C5005F0E02544F80C50D1E90054C8
:1040B000A4EB05040D8D04FB03F405FB03F304F1ED
:1040C000030444EA0343046844F80C30D0F800C009
:1040D0004FF0B40303EBC2135CF803406FF30A0420
:1040E0004CF80340D0F800C0C96A4CF803100068CF
:1040F0004FF0840101EBC211425842F001024250DC
:10410000F0BC70474FF00203C5E7000070B50546EC
:104110000B480188408801FB00F4401E83B2481E12
:1041200082B20021084600F03BFC0021002C8CBF2D
:10413000044A70BD1580491C8C42FBD870BD00003C
:10414000EC0002200000086010B514460B46024641
:1041500000F026FC0148048010BD0000000008604B
:10416000A2EB000C70B50CF1010C1FFA8CF4A3EB60
:10417000010C049D0CF1010C1FFA8CF600F010FCF0
:104180000022002E88BF0D490BD90020002C04D935
:104190000D80401C80B28442FAD8501C82B2B242D8
:1041A000F3D3074841880088491E401E8BB2BDE802
:1041B000704082B20021084600F0F2BB00000860A7
:1041C000EC0002201E484DF804ED95B0016841F066
:1041D00002010160006810A900F0020000904FF495
:1041E00090701090012011901290032013901548A8
:1041F000FDF7F4FD00F09CFA13484FF02041102227
:1042000001601249416000218160C160C0E904126F
:104210001202426281619200C262152080220B92DA
:10422000CDE90901CDE90201049002AA06480F91E7
:10423000089109A9FFF7C9F815B05DF804FB000063
:104240003038024000040240A0000220040100A017
:104250002DE9F843FFF7B6FF642002F0EFFBE22000
:10426000ADF80000BDF80000ADF80000BDF800009A
:10427000FE4D28801D20ADF80000BDF80000ADF80F
:104280000000BDF80000AC1C20804FF00209ADF822
:104290000090BDF80000ADF80000BDF800002080DF
:1042A0004FF00408ADF80080BDF80000ADF8000044
:1042B000BDF800002080642002F0E6FBE027ADF8A6
:1042C0000070BDF80000ADF80000BDF800002880C7
:1042D0000126ADF80060BDF80000ADF80000BDF8A3
:1042E000000020800A2002F0A9FBADF80070BDF8A4
:1042F0000000ADF80000BDF8000028800327ADF8ED
:104300000070BDF80000ADF80000BDF8000020808E
:104310000C2002F093FBADF80060BDF80000ADF892
:104320000000BDF8000028800A2002F087FBE6208C
:10433000ADF80000BDF80000ADF80000BDF80000C9
:1043400028802F20ADF80000BDF80000ADF8000077
:10435000BDF800002080FF20ADF80000BDF800107F
:10436000ADF80010BDF800102180ADF80000BDF8D8
:104370000000ADF80000BDF800002080B020ADF8CE
:104380000000BDF80000ADF80000BDF80000288076
:104390002020ADF80000BDF80000ADF80000BDF829
:1043A000000020800020ADF80000BDF80010ADF83E
:1043B0000010BDF800102180ADF80070BDF80010AD
:1043C000ADF80010BDF80010218040F21F31ADF8AB
:1043D0000010BDF80010ADF80010BDF800102180ED
:1043E000ADF80060BDF80010ADF80010BDF8001089
:1043F000218040F2DF11ADF80010BDF80010ADF8DB
:104400000010BDF800102180ADF80000BDF80010CC
:10441000ADF80010BDF800102180B421ADF80010F7
:10442000BDF80010ADF80010BDF800102980ADF8FF
:104430000080BDF80010ADF80010BDF8001021801C
:1044400040F21F41ADF80010BDF80010ADF80010AB
:10445000BDF800102180ADF80000BDF80010ADF8E7
:104460000010BDF8001021802E21ADF80010BDF81D
:104470000010ADF80010BDF800102180ADF800006C
:10448000BDF80010ADF80010BDF800102180ADF8A7
:104490000000BDF80010ADF80010BDF8001021803C
:1044A000ADF80000BDF80010ADF80010BDF8001028
:1044B0002180ADF80000BDF80010ADF80010BDF887
:1044C00000102180B621ADF80010BDF80010ADF845
:1044D0000010BDF800102980ADF80090BDF8001064
:1044E000ADF80010BDF8001021804FF40371ADF855
:1044F0000010BDF80010ADF80010BDF800102180CC
:10450000ADF80000BDF80010ADF80010BDF80010C7
:1045100021801721ADF80010BDF80010ADF8001093
:10452000BDF8001021801521ADF80010BDF8001075
:10453000ADF80010BDF800102180ADF80000BDF806
:104540000010ADF80010BDF800102180ADF800009B
:10455000BDF80010ADF80010BDF800102180F0216A
:10456000ADF80010BDF80010ADF80010BDF8001057
:104570002980ADF80070BDF80010ADF80010BDF84E
:10458000001021802921ADF80010BDF80010ADF811
:104590000010BDF800102980D021ADF80010BDF842
:1045A0000010ADF80010BDF800102980ADF8000033
:1045B000BDF80010ADF80010BDF800102180BE213C
:1045C000ADF80010BDF80010ADF80010BDF80010F7
:1045D00029800521ADF80010BDF80010ADF80010DD
:1045E000BDF800102180FE21ADF80010BDF80010CC
:1045F000ADF80010BDF800102180ADF80060BDF8E6
:104600000010ADF80010BDF800102180ADF80000DA
:10461000BDF80010ADF80010BDF800102180ADF815
:104620000000BDF80010ADF80010BDF800102180AA
:10463000ADF80000BDF80000ADF80000BDF80000C6
:104640002080B820ADF80000BDF80000ADF80000F3
:10465000BDF800002880ADF80070BDF80000ADF88E
:104660000000BDF80000208002E00000FEFF0760AF
:10467000ADF80060BDF80000ADF80000BDF8000026
:104680002080BA20ADF80000BDF80000ADF80000B1
:10469000BDF800002880ADF80060BDF80000ADF85E
:1046A0000000BDF800002080642000F019F94FF0F0
:1046B0002040D0F8041121F00F01C0F80411D0F807
:1046C000041121F47061C0F80411D0F8041141F014
:1046D0000501C0F80411D0F8041141F4A061C0F83C
:1046E0000411012000F0A8F80F4801222021FDF755
:1046F000A0FC0E494FF6FF760888498800FB01F5BB
:10470000491E8BB2401E82B20021084600F048F9D3
:104710000020002D98BFBDE8F8832680401C85420C
:10472000FBD8BDE8F883000000040240EC00022042
:1047300030B5184C85B0206820F480302060164DCC
:10474000286820F00100286000208DF80C004FF050
:10475000C04201921B228DF8082001218DF809002A
:104760008DF80D0003228DF800108DF80A008DF8E9
:104770000E008DF8010068468DF80B208DF80F10A3
:10478000FDF712FE05202860206840F4803020608C
:1047900005B030BD24ED00E094ED00E070B582B0CE
:1047A000002001AC0190A120ADF80000BDF8000090
:1047B000ADF80000BDF800000A49088002258E1CF3
:1047C0003088ADF80000BDF8000004F8010B0520AA
:1047D00002F05AF96D1EF3D2BDF8050002B040BADE
:1047E00070BD0000FEFF076038B5114C2288824280
:1047F00087BF62888A42002038BD0B46024600F01F
:10480000CFF82089ADF80000BDF80000ADF8000039
:10481000BDF8000007490880881C0088ADF800003A
:10482000BDF80040012002F02FF9204638BD0000FD
:10483000EC000220FEFF076025492C2270B4DFF84F
:1048400094C04FF44873CA802E220A8110F00300EE
:104850004FF4F0724FF02B050CF102044FF02A06D2
:10486000087106D001280ED0022816D003281ED0C9
:1048700026E04D818E810A804B803623A022ACF841
:10488000003022801CE04E818D810B804A803622D0
:104890000023ACF80020238012E04D818E810A8035
:1048A0004B8036236022ACF80030228008E04E8135
:1048B0008D810B8036234A80C022ACF800302280E4
:1048C000054A0B88138049885180907170BC7047ED
:1048D000EC000220FEFF0760300002200000000014
:1048E00081B0BE21ADF80010BDF80010ADF8001089
:1048F000BDF80010264A11800521ADF80010BDF862
:104900000010ADF80010BDF8002022490A8000EE2A
:10491000100A9FED211BB8EE400B20EE010BBCEE00
:10492000C00B10EE100AADF80000BDF80000ADF8A5
:104930000000BDF8000008800120ADF80000BDF8BF
:104940000000ADF80000BDF800000880FF20ADF8C1
:104950000000BDF80000ADF80000BDF800000880C0
:104960000020ADF80000BDF80020ADF80020BDF833
:1049700000200A80ADF80000BDF80000ADF800008E
:10498000BDF80000088001B0704700000000000082
:10499000FEFF0760000008606666666666660440A3
:1049A0002DE9F041DFF8B480154600EB050C074611
:1049B00040460E461C4698F80420018832B14088D3
:1049C0003319022A0DD0032A39D012E0ACEB0500CE
:1049D000ACEB00028A1A521E081A401E97B285B22A
:1049E00007E0191B5A1A821A521E401A401E96B22C
:1049F00084B2B8F80A00FFF767FA380AFFF75AFAE4
:104A0000F8B2FFF757FA280AFFF754FAE8B2FFF7AF
:104A100051FAB8F80C00FFF757FA300AFFF74AFAD4
:104A2000F0B2FFF747FA200AFFF744FAE0B2FFF7C7
:104A300041FAB8F80600BDE8F041FFF745BAACEB23
:104A40000502ACEB020CA1EB0C0C891A491EACF16F
:104A5000010C1FFA8CF78DB2C3E70000EC000220B6
:104A60004DF8040DBDF80000ADF80000BDF80000E1
:104A70000149088001B07047000008604DF8040D3E
:104A8000BDF80000ADF80000BDF800000149088045
:104A900001B07047FEFF07600149088070470000C1
:104AA000000008607047704770B584B021A0FCF723
:104AB000EFF9254E28231E211A4608460096FDF7D9
:104AC000BBF810254FF6E07320A001240294CDE935
:104AD00000051F224B212A2001F024FB28230096E9
:104AE0001E211A465A20FDF7A7F818A04FF6E073CA
:104AF000CDE900051F2202944B21662001F012FB34
:104B0000282300961E211A469620FDF795F80FA03F
:104B10004FF6E073CDE900051F2202944B21A2203D
:104B200001F000FB04B04FF49660BDE8704001F066
:104B300085BF0000B2E2CAD4383ACDBCC6ACCFD4EF
:104B4000CABEB2E2CAD4000040840008515100003D
:104B500008B500900548018BC08A491E8BB2401EE3
:104B600082B20021084600F073F808BDFC01022063
:104B7000DFF84CC000F003034DF8044D64460028F4
:104B80008CF81530A1888AB2218889B212BF022818
:104B9000ACF81620ACF8181006D0012812BF032874
:104BA000ACF81610ACF8182006488371BCF8161043
:104BB0000180BCF8181041805DF8044B704700007C
:104BC000FC01022030000220F0B41F4B94B21F4FB2
:104BD0001A465D7D137DD2F81CC056681268A5B1D7
:104BE000012D1DD0022D24D0032D1CBFF0BC704719
:104BF000711A491E02FB0121081A57F82310401EA2
:104C000000FB0CF00C52F0BC7047301A401E02FB47
:104C1000001057F8231000FB0CF00C52F0BC70474A
:104C200002FB010057F823100CFB00F00C52F0BC03
:104C3000704702FB0020401A57F82310401E00FB6B
:104C40000CF00C52F0BC7047FC0102203C0002202A
:104C50002DE9F00FDFF8F0B00024D846DDF820A0F1
:104C60009BF81590D8E900C8B9F1000F09D0B9F147
:104C7000010F0ED0B9F1020F10D0B9F1030F15D00A
:104C800020E00E461F46A8EB02014D1EA8EB0000D7
:104C900017E006460D4617461A4613E0ACEB030331
:104CA00005465E1EACEB0100471E0BE0ACEB0202BA
:104CB000561EA8EB0302551EACEB0000471EA8EBE6
:104CC0000100421EB91B214FACEB0100401E83B214
:104CD0009BF814000CFB056C57F82000DBF81C70E7
:104CE00007FB0C0C1A48066846F4000606601948D3
:104CF0004FF440360660022646630364036823F0DF
:104D000001030360C0F83CC0F303521B521C03EBC9
:104D1000014111434164C0F838A0016841F001012C
:104D20000160416811F0020F07D1641CB4F5001F47
:104D300003D2416811F0020FF7D0816841F00201FF
:104D40008160BDE8F00F7047FC0102203C000220AA
:104D50003038024000B00240F0B5A5B000F0F2F8E3
:104D6000594C0823A0F5EA41843904D0A0F5E0416C
:104D700016391ED039E04FF4487020604FF4F070BF
:104D800060600120208160812E20A0811720E081B9
:104D9000D220208216206082032000934FF4C67236
:104DA0004FF4803105920B9107906846FDF7B6FBF2
:104DB0001BE04FF4806020604FF416706060142098
:104DC0002081032161818C21A181E081A0202082AA
:104DD0000C206082022100934FF4B472C803059244
:104DE00007910B906846FDF799FB394E0220E06170
:104DF00000253648374930603748C0E900158560DE
:104E0000C560056121894A1E42616289531E836122
:104E1000A38919444B1EC361E3891A44531E0362DC
:104E20002368A3F1010C8C44C0F824C0D4F804C05A
:104E3000ACF1010717448762278A3B441944491E95
:104E4000C162618A61441144491E016380F8365091
:104E500080F8355080F83450FDF750F91F48FCF7C2
:104E60005DFF06210720CDE90205CDE9005131683B
:104E7000FF230222002000F035F820882B461A4636
:104E800086B2A088114687B21348FDF737FA124858
:104E90002B463A463146FDF75DFA0120FFF768FEE2
:104EA0000F48012220212575FDF7C3F8681E0090E8
:104EB000208B0021401E83B2E08A401E82B2084649
:104EC000FFF7C6FE25B0F0BDFC010220000000C0C7
:104ED0003C00022000680140FC000220A4010220E6
:104EE000000402402DE9F0438DB0914614AADFF88A
:104EF0004CC0002492E8E00100940294DCF8002009
:104F00000192DCF804C0CDE90535330207933B027A
:104F10000893CDE903C9CDF82CC0CDE909128DF86D
:104F2000324002468DF83140694605488DF83080A0
:104F3000FDF7B8F80DB0BDE8F0830000FC010220D9
:104F4000FC000220224830B587B0016841F04001E2
:104F50000160016801F040010591016841F4807130
:104F60000160006869461B4C00F480700590402089
:104F70000090002001900120029003200390204621
:104F8000FCF72CFF144D8420694600902846FCF75E
:104F900025FF40212046FDF743F80421044628461A
:104FA000FDF73EF844EA400428468021FDF738F832
:104FB00044EA8000C0B2012802BF47F2845007B023
:104FC00030BD02280CBF47F21600002007B030BDEC
:104FD0003038024000180240002002401F4AF0B45E
:104FE0001F4F0546547D0020137DD2F81CC0566823
:104FF0001268A4B1012C1DD0022C24D0032C1CBF9C
:10500000F0BC7047701A401E57F8231002FB0020B6
:10501000401B401E00FB0CF0085AF0BC7047701B90
:10502000401E02FB001057F8231000FB0CF0085A3A
:10503000F0BC704702FB015057F823100CFB00F046
:10504000085AF0BC704702FB0520401A57F823109D
:10505000401E00FB0CF0085AF0BC7047FC01022017
:105060003C0002202DE9FF4F81B08B460EA99A46E5
:105070004FF47840012491E8E0034249102242A312
:1050800008608C2128200094FEF7D0FE10220094A6
:105090008C2178203DA3FEF7C9FE10220094A021A8
:1050A00028203BA3FEF7C2FE10220094A021782006
:1050B00038A3FEF7BBFE10220094B421282036A3AB
:1050C000FEF7B4FE10220094B421782033A3FEF73B
:1050D000ADFE10220094C821282031A3FEF7A6FEC1
:1050E00010220094C82178202EA3FEF79FFE1022E4
:1050F0000094DC2128202CA3FEF798FE019A1024AE
:10510000042300948C214020FEF72CFE04235A46F1
:105110008C2100949020FEF725FE039A0423A02101
:1051200000944020FEF71EFE04235246A021009466
:105130009020FEF717FE04232A46B4210094402055
:10514000FEF710FE04233246B42100949020FEF7AF
:1051500009FE04233A46C82100944020FEF702FECF
:1051600004234246C82100949020FEF7FBFD032350
:105170004A46DC2100946020FEF7F4FD05B0BDE84E
:10518000F08F00002800022078313A0079313A008F
:1051900078323A0079323A0078333A0079333A007B
:1051A00078343A0079343A006661632069733A00D2
:1051B0002DE9F04FF84E0024F8491F2025462DED2B
:1051C0000E8B8BB030604FF6FF700860FEF794FBDB
:1051D0004FF4784030604FF6FF70FEF78DFBA0462D
:1051E000C6F8008010224FF0010B2821CDF800B046
:1051F0000A20EBA3FEF71AFE1022CDF800B03821EA
:105200000A20EEA3FEF712FE1022CDF800B04821CE
:105210000A20F1A3FEF70AFE1022CDF800B05821B3
:105220000A20F4A3FEF702FE1022CDF800B0682198
:105230000A20F7A3FEF7FAFD14214FF4784208463E
:1052400000F0A0FBF64F87F814809FEDF60A87ED7B
:10525000060A9FEDF5CB9FEDF6DB9FEDF7BBF84E11
:105260004FF09009DFF8DC834FF0D00AB6EE00EA89
:10527000012000F055FD387D00F0C001402946D1E5
:1052800020F04000387506A83988002520F8241041
:1052900000EB840079894180601CC4B2012C06D0E7
:1052A000022C13D0032C20D0042C3FD02FE014214B
:1052B0004FF6FF72084600F065FB308814214FF46A
:1052C0007842143880B200F05DFB20E03088142171
:1052D0004FF6FF72143880B200F054FB70884FF420
:1052E0007842143881B214200FE070884FF6FF72B4
:1052F000143881B2142000F045FB70884FF47842D6
:10530000143881B23088143880B200F03BFB0A2098
:1053100001F094FB681C85B2B5F57A7FA8D900F03E
:1053200077FB0BB0BDEC0E8BBDE8F08FBDF818001D
:10533000BDF81C10411A48BF4942BDF81A00BDF81B
:105340001E20801A48BF404201FB01F100FB00F023
:10535000084400EE100AB8EE400BB1EEC01BB4EEEC
:10536000411BF1EE10FA03D001F0D5FAB0EE401B6C
:10537000BDF82410BCEEC10B10EE100A84B2BDF8CB
:105380002000411A48BF4942BDF82200BDF826203E
:10539000801A48BF404201FB01F100FB00F00844C5
:1053A00000EE100AB8EE400BB1EEC01BB4EE411B8C
:1053B000F1EE10FA03D001F0AEFAB0EE401BB0EE01
:1053C0004C9BBCEEC10B10EE100A00EE104A80B2EE
:1053D000F8EE400A00EE100AB8EE400A80EE801A9D
:1053E000B7EEC18AB4EEC98BF1EE10FA7CD3B0EE01
:1053F0004DABB4EECA8BF1EE10FA75DC002C18BF81
:10540000002871D0BDF81800BDF82010411A48BF1F
:105410004942BDF81A00BDF82220801A48BF404218
:1054200001FB01F100FB00F0084400EE100AB8EEA9
:10543000400BB1EEC01BB4EE411BF1EE10FA03D0ED
:1054400001F069FAB0EE401BBDF82410BCEEC10BB0
:1054500010EE100A84B2BDF81C00411A48BF494240
:10546000BDF81E00BDF82620801A48BF404201FB4F
:1054700001F100FB00F0084400EE100AB8EE400B0A
:10548000B1EEC01BB4EE411BF1EE10FA03D001F0F7
:1054900042FAB0EE401BBCEEC10B10EE100A00EE5B
:1054A000104A80B2F8EE400A00EE100AB8EE400A48
:1054B00080EE801AB7EEC18AB4EEC98BF1EE10FA15
:1054C00004D3B4EECA8BF1EE10FA61DD70880024CB
:1054D0004FF6FF72143881B23088143880B200F071
:1054E00051FA4FF4784200E022E01421084600F01F
:1054F00049FA28EE0B0BBDF82410BDF82620BCEEAF
:10550000C00B10EE100A83B2BDF82200CDE90101F4
:10551000CDE90323BDF820000090BDF81E30BDF892
:105520001C20BDF81A10BDF81800FFF79BFD9FE680
:10553000708800244FF6FF72143881B23088143816
:1055400080B200F01FFA14214FF47842084600F0B0
:1055500019FA28EE0B0BBDF82620BDF82210BCEE80
:10556000C00B10EE100A83B2BDF82400CDE9011083
:10557000CDE90323BDF820000090BDF81E30BDF832
:105580001C20BDF81A10BDF81800FFF76BFD6FE680
:105590005AE0000000000000280002202C00022039
:1055A000506C656173652075736520746865207340
:1055B00074796C757320636C69636B007468652023
:1055C00063726F7373206F6E2074686520736372EB
:1055D00065656E2E000000005468652063726F736D
:1055E000732077696C6C20616C77617973206D6FC3
:1055F00076650000756E74696C207468652073634D
:105600007265656E2061646A7573746D656E740091
:10561000697320636F6D706C657465642E000000A3
:105620004400022000000000666666666666EE3F83
:10563000CDCCCCCCCCCCF03F0000000000005940D9
:10564000300002203A000220BDF81C00BDF82010F6
:10565000411A48BF4942BDF81E00BDF82220801AF9
:1056600048BF404201FB01F100FB00F0084400EE9E
:10567000100AB8EE400BB1EEC01BB4EE411BF1EEC8
:1056800010FA03D001F047F9B0EE401BBDF824102A
:10569000BCEEC10B10EE100A84B2BDF81800411A1E
:1056A00048BF4942BDF81A00BDF82620801A48BFFD
:1056B000404201FB01F100FB00F0084400EE100A3B
:1056C000B8EE400BB1EEC01BB4EE411BF1EE10FA88
:1056D00003D001F020F9B0EE401BBCEEC10B10EE80
:1056E000100A00EE104A80B2F8EE400A00EE100AEE
:1056F000B8EE400A80EE801AB7EEC18AB4EEC98BCC
:10570000F1EE10FA04D3B4EECA8BF1EE10FA2FDDED
:10571000708800244FF6FF72143881B23088143834
:1057200080B200F02FF914214FF47842084600F0BF
:1057300029F928EE0B0BBDF82430BDF82210BCEE81
:10574000C00B10EE100A82B2BDF82600CDE90302AC
:10575000CDE90113BDF820000090BDF81E30BDF862
:105760001C20BDF81A10BDF81800FFF77BFC7FE580
:10577000BDF81C10BDF818000A1A00EE102A328875
:105780000844B8EEC01AA2F1280300EE103AB8EEB1
:10579000C00AC0EE010A00EE100AB8EE401A00EE90
:1057A000102AB8EE400AC7ED060A00EEC10AFDEE67
:1057B000E00A20EE0E0ABDEEC00A10EE100A388490
:1057C000BDF82230BDF81A00191A00EE101A7188BF
:1057D0001844B8EEC01AA1F1280C00EE10CAF8EE79
:1057E000C01A81EE810A01EE100AF8EE411A01EEAC
:1057F000101AB8EE411A87ED070A00EE611A21EE81
:105800000E1ABDEEC11A11EE100A788410EE900A3D
:105810000028B8BF4042022808DCBDEEC00A10EEE6
:10582000100A0028B8BF404202282BDDA1F1140065
:1058300081B2A2F114004FF6FF7280B2002400F092
:10584000A1F814214FF47842084600F09BF810228A
:10585000CDF800B01A2128202EA3FEF7E7FA97F81A
:10586000240000280CBF0120002087F82400002815
:1058700019BF88F8009088F801A088F800A088F87F
:105880000190F5E428491F2008604FF6FF70FEF7ED
:1058900033F81022CDF800B06E21232023A3FEF7A9
:1058A000C5FA4FF47A7001F0C9F897ED060A9FED3A
:1058B000258A0422282020EE080ABDEEC00A10EE38
:1058C000101AFAF78AFF97ED070A04222C2020EE1F
:1058D000080ABDEEC00A10EE101AFAF77EFFB7F9FB
:1058E000201002223020FAF778FFB7F922100222A6
:1058F0003220FAF772FF97F824103420FAF79FFF4E
:105900000A213520FAF79BFF4FF6FF70FDF7F4FFF1
:1059100007E500005450204E65656420726561649F
:105920006A7573742100000028000220546F7563AB
:10593000682053637265656E2041646A75737420D4
:105940004F4B210020BCBE4C2DE9F0410C4E0D46C2
:1059500007463260FEF7EEF87C1C3268A0B229469A
:10596000FEF7E8F86D1C3268A9B23846FEF7E2F897
:10597000A9B23268A0B2BDE8F041FEF7DBB8000082
:10598000280002202DE9F843DFF8809005460D300D
:105990000C460B46C9F8002082B2A5F10C0080B27B
:1059A000FDF7C6FF04F10D002A4683B2193881B213
:1059B0001046FDF7BDFF671CD9F800206E1CB9B278
:1059C000B0B2FEF7B7F8B9B2D9F800206F1EB8B27E
:1059D000FEF7B0F8A4F10108D9F800201FFA88F109
:1059E000B0B2FEF7A7F81FFA88F1D9F80020B8B2D4
:1059F000FEF7A0F800200090B9F800000623214629
:105A000082B2284601F05AF8BDE8F8832800022047
:105A100010B535202DED028BFAF7BEFE0A281EBF09
:105A20000020BDEC028B10BD04212820FAF77FFE78
:105A300000EE100A9FED188A184C0421B8EEC00A37
:105A40002C20C0EE080AC4ED060AFAF770FE00EE3C
:105A5000100A02213020B8EEC00AC0EE080AC4EDD8
:105A6000070AFAF764FE022120843220FAF75FFE6B
:105A700060843420FAF790FE09499023D02284F8FC
:105A80002400002819BF0B704A700A704B70012067
:105A9000BDEC028B10BD000020BCBE4C44000220B7
:105AA0003A0002202DE9F047DFF8EC800024402185
:105AB000054622464046FCF7BCFA384F0022082132
:105AC0003846FCF7B6FA00223846B915FCF7B1FAA9
:105AD000002615F0800F05D0012238460821FCF77A
