:020000040800F2
:1000000030060020C1010008B32B00082D1A00089B
:10001000B12B0008F3020008013B000800000000BB
:10002000000000000000000000000000353500085E
:100030007504000800000000712C00083936000823
:10004000DB010008DB010008DB010008DB01000820
:10005000DB010008DB010008DB010008DB01000810
:10006000DB010008DB010008DB010008DB01000800
:10007000DB010008DB010008DB010008DB010008F0
:10008000DB010008DB010008DB010008DB010008E0
:10009000DB010008DB010008DB010008DB010008D0
:1000A000DB010008DB010008DB010008DB010008C0
:1000B000DB010008DB010008DB010008DB010008B0
:1000C000DB010008DB010008DB010008DB010008A0
:1000D000DB010008DB010008DB010008DB01000890
:1000E000D50A0008DB010008DB010008DB0100087D
:1000F000DB010008DB010008DB010008DB01000870
:10010000DB010008DB010008DB010008DB0100085F
:10011000DB010008DB010008DB010008DB0100084F
:10012000DB010008DB010008DB010008DB0100083F
:10013000DB010008DB010008DB010008DB0100082F
:10014000DB010008DB010008DB010008DB0100081F
:10015000DB010008DB010008DB010008DB0100080F
:10016000DB010008DB010008DB010008DB010008FF
:10017000DB010008DB010008DB010008DB010008EF
:10018000DB010008DB010008DB010008DB010008DF
:10019000DB010008DB010008DB010008DB010008CF
:1001A000DB010008DB010008DB010008DFF80CD0F0
:1001B00000F06EF8004800477D410008300600203E
:1001C0000648804706480047FEE7FEE7FEE7FEE7F1
:1001D000FEE7FEE7FEE7FEE7FEE7FEE73D36000846
:1001E000AD01000840EA01039B0703D009E008C9FC
:1001F000121F08C0042AFAD203E011F8013B00F8EC
:10020000013B521EF9D27047D2B201E000F8012B37
:10021000491EFBD270470022F6E710B513460A4686
:1002200004461946FFF7F0FF204610BD2DE9F05FA8
:100230000546002092469B46884606468146402455
:100240001BE0284641464746224600F042F8534606
:100250005A46C01A914110D311461846224600F062
:1002600029F82D1A67EB01084F462246012000218C
:1002700000F020F817EB00094E41201EA4F1010404
:10028000DFDC484631462A464346BDE8F09F000081
:10029000064C074D06E0E06840F0010394E80700D3
:1002A00098471034AC42F6D3FFF784FFF0540008AF
:1002B00010550008202A04DB203A00FA02F1002041
:1002C00070479140C2F1200320FA03F31943904094
:1002D0007047202A04DB203A21FA02F000217047FF
:1002E00021FA02F3D040C2F120029140084319469E
:1002F0007047FEE710B54FF6FF70014602F010FBA5
:100300000D480E496FF00104007800EB400201EB4C
:1003100082010B4A0B8932F82000424204EB420270
:100320001A444B89012101EB4000BDE8104092B214
:1003300080B2002101F016BF100000200C4200081E
:1003400000540008017A0448017100884FF6FF71DB
:1003500080B202F0E5BA00003000002010B5074C72
:100360008068206080B24FF6FF7102F0D9FA2079E0
:10037000082801D10020207110BD000030000020AD
:1003800010B50121CC05204602F0A0FC2046BDE8B6
:100390001040002102F09ABC01460020024A526837
:1003A0000A4200D00120704700B0024030B500245E
:1003B0002A4B19682A4A11401960196802681143CA
:1003C0001960596B21F007015963596B4268114359
:1003D00059634168002928D001292DD0022930D045
:1003E000032933D0C1680A01016909024469240361
:1003F0008568214315430D43996B0D439D638169C6
:10040000D963196C6FF30D011964196CC26911433A
:100410001964818C09045A6C02F040425A645A6C87
:10042000006A02430A435A6430BDC1680A02018A65
:100430000904047D2406DBE7C1680A02018A090475
:10044000D6E7C1684A010169C902D1E7C1684A011A
:10045000016989024469E403CAE7000000B0024070
:10046000FCE0FCFF0248016841F0010101607047B7
:1004700000B002407047000070B586B00121084608
:1004800002F016FC0121102002F04AFC1E4E072249
:100490000A21304600F072FE07220921304600F0A2
:1004A0006DFE00248DF8164001208DF817000225FE
:1004B0008DF81450410204918DF8155004A930466E
:1004C00000F01EFE8DF814506802049004A9304616
:1004D00000F016FE4FF4E1300090ADF80440ADF8A6
:1004E0000640ADF80840ADF80C400C20ADF80A000D
:1004F000064C6946204603F0A1FA0121204603F08C
:1005000089FA06B070BD00000000024000100140F2
:1005100001B502E00098401E009000980028F9D133
:1005200008BD01B502E00098401E00900098002828
:10053000F9D108BD2DE9F04104464FF47846207BFF
:100540004FF6FF75002834D02946284602F0E8F916
:10055000E0886188A288401A83B22088121A92B279
:1005600001F000FE2946304602F0DAF9244802F094
:10057000DDF9A088218823A2401A183800EBD0703A
:1005800001EB600081B26088193080B201F080FC1C
:1005900029464FF4047002F0C3F9E0886188A2880C
:1005A000401A83B22088BDE8F041121A92B201F0DD
:1005B00075BE4DF6FB672946384602F0B1F9E08872
:1005C0006188A288401A83B22088121A92B201F080
:1005D000C9FD3946304602F0A3F9094802F0A6F9F0
:1005E000A088218807A2401A183800EBD07001EBD0
:1005F000600081B26088193080B201F049FCC7E721
:10060000240000204300000070B504464FF6FF753B
:10061000207B00281ED02846014602F081F9E088A0
:100620006188A288401A83B22088121A92B201F01F
:1006300099FD29464FF4047002F072F9E088618850
:10064000A288401A83B22088BDE87040121A92B284
:1006500001F024BE2089294680B202F061F9E088C9
:100660006188A288401A83B22088121A92B201F0DF
:1006700079FDDEE7F8B504464FF40476207B4FF6AB
:10068000FF7500282AD02946284602F049F9E0885B
:100690006188A288401A83B22088121A92B201F0AF
:1006A00061FD2946304602F03BF9E0886188A28866
:1006B000401A83B22088121A92B201F0EFFD294647
:1006C000002002F02DF9A0680A26092850D2DFE8A0
:1006D00000F0243C5064788CA0B3E7004DF6FB6733
:1006E0002946384602F01CF9E0886188A288401A41
:1006F00083B22088121A92B201F034FD3946304696
:1007000002F00EF9E0886188A288401A83B220883E
:10071000121A92B201F0C2FDD1E72946002002F080
:10072000FFF8E0886188401A00EBD07001EB6000B0
:1007300083B281B2A088143882B2208801B014300C
:10074000BDE8F04080B201F0CBBD01200090E08810
:100750006188401A00EBD07001EB600083B281B277
:10076000A088143882B22088143080B201F014FEC0
:10077000F8BD02200090E0886188401A00EBD0703C
:1007800001EB600083B281B2A088143882B2208865
:10079000143080B201F000FEF8BD03200090E18823
:1007A0006088091A01EBD17100EB610083B281B25C
:1007B000A088143882B22088143080B201F0ECFD99
:1007C000F8BD04200090E0886188401A00EBD070EA
:1007D00001EB600083B281B2A088143882B2208815
:1007E000143080B201F0D8FDF8BD08200090E188F7
:1007F0006088091A01EBD17100EB610083B281B20C
:10080000A088143882B22088143080B201F0C4FD70
:10081000F8BD0096E1886088091A01EBD17100EB00
:10082000610083B281B2A088143882B2208814306B
:1008300080B201F0B1FDF8BD2946002002F070F849
:10084000E0886188401A00EBD07001EB600083B251
:1008500081B2A088401F82B22088401D80B201F082
:100860003FFD002513E0E18860880523091A01EBAC
:10087000D17100EB610081B205EB850003EB400014
:10088000104480B2032201F01FFC6D1CADB2A088A1
:100890002288801A0A3890FBF6F0A842E3DCF8BD03
:1008A0000021284602F03CF8E08861882323401AA2
:1008B0001E3800EBD07001EB600086B2A088218862
:1008C0001E22401A1E3800EBD07001EB600080B28F
:1008D000314601F047FC29464FF4784002F020F8F9
:1008E0000D4802F023F8A08821880CA2401A18387D
:1008F00000EBD07001EB600083B2E0886188401AA1
:10090000143800EBD07001EB60001946BDE8F840E8
:1009100080B201F0BDBA00002400002052000000A7
:100920002DE9F8431446089A0E461D46674B664962
:100930004FF0010C1F7831F827100CEB4101A14258
:1009400030DA81422EDA92F80480E21EC31EB8F13A
:10095000090F27D2DFE808F00518283744536475DB
:100960009000002801DB002E05DA29462046BDE86C
:10097000F84302F07FB901B0ABB2A2B2B1B2BDE8A8
:10098000F04380B201F0ACBC621E91420ADC421E10
:10099000914207DCABB2A2B2B1B280B2CDF800C0D6
:1009A00001F0FAFCBDE8F883A21E9142FADC821E37
:1009B0009142F7DC02210091ABB2A2B2B1B280B297
:1009C00001F0EAFCEEE79142ECDC9942EADC03211B
:1009D0000091ABB2A2B2B1B280B201F0DDFCE1E7AE
:1009E000221F9142DEDC021F9142DBDC04210091D8
:1009F000ABB2A2B2B1B280B201F0CEFCD2E7A4F1A8
:100A000008029142CEDCA0F108029142CADC082122
:100A10000091ABB2A2B2B1B280B201F0BDFCC1E7AD
:100A2000A4F10A029142BDDCA0F10A029142B9DCB4
:100A30000A210091ABB2A2B2B1B280B201F0ACFC1B
:100A4000B0E79142AEDC9942ACDC002801DB002E1D
:100A500005DA29462046BDE8F84302F00BB9ABB2EF
:100A6000A2B2B1B280B201F03BFCA9B2A0B2BDE823
:100A7000F843032201F028BBA4F11400064681428A
:100A800090DC134807EB470100EB810004F11401EF
:100A900002898A4286DB142C84D4418905F1140032
:100AA00081428FDB142D8DD44FF6FF70014601F08B
:100AB00037FF143D01B0A9B2B0B2BDE8F04328231E
:100AC0001A4601F04FBB000000540008100000203F
:100AD0000C42000810B54FF40054204600F01EF8F8
:100AE000002813D000F016FAA0F5405103390AD0BF
:100AF000012808D0022806D000F02CFE2046BDE8D0
:100B0000104000F005B800F0C3FAF7E710BD000090
:100B10000149086070470000143C01400146002074
:100B2000024A12680A4200D001207047143C01407A
:100B300030B51B4A83790168002B2AD013688B4398
:100B40001360111D0B680468A3430B600179114405
:100B50000B68046823430B60114C08342168036858
:100B600099432160231D19680568A94319604179DB
:100B7000102905D011440A68006802430A6030BD9C
:100B800021680268114321601968006801431960F7
:100B900030BD0079104402688A43026030BD000015
:100BA000003C014000224FF0204310280AD0B0F54D
:100BB000807F09D0B0F5805F09D0D3F85801814318
:100BC00009D107E0586EFAE7D3F88400F7E7D3F8C5
:100BD000A400F4E70122104670470000D0E900129B
:100BE00011438268C068521E520142EA402001430C
:100BF0000148016070470000500100A070B5046812
:100C0000A100A1F1C041D1F84011CE0BF603D0E90B
:100C100001121143D0E903231A4311434269C36906
:100C200011438269056A11431943426A29431143FA
:100C300031434FF02046002C3CD0D6F840416FF3B2
:100C40000E042B4322431343C6F84031026892003E
:100C5000A2F1C042C2F84011016871B38900A1F14C
:100C6000C041D1F8481101F07043816A0A684C68AC
:100C7000521E641E42EA04148A68521E44EA022488
:100C80000A8A521E44EA02421A43D6F8483103F057
:100C90007043CC68898A641E2403491E44EA0151CA
:100CA0001943C6F8481100688000A0F1C040C0F8A0
:100CB000482170BDC6F84011CEE7FFE7D6F84811CD
:100CC00001F07041806A02684368521E5B1E42EA6E
:100CD00003138268521E43EA0223C268521E43EA8B
:100CE0000233028A521E43EA0243828A007E521E67
:100CF00043EA0252401E42EA00600843C6F8480137
:100D000070BD000002490A6842EA4000086070476E
:100D1000540100A030B587B00C468DF804000021C6
:100D2000ADF8061003940121ADF808108DF81000FD
:100D3000ADF81210601C0690521EADF8142002216E
:100D400001A800F095FE05461DB1217802A002F031
:100D5000D9FE07B0284630BD726561642030782521
:100D600030325820726567697372657220666169F6
:100D70006C656421210000003EB50D468DF8000031
:100D800002950020ADF80200ADF80420012168466C
:100D900000F06EFE04461CB1297802A002F0B2FEFB
:100DA00020463EBD77726974652030782530325810
:100DB000207265676973726572206661696C65642B
:100DC0002121000038B500F085FF00208DF80000DB
:100DD0008DF80100022269467020FFF7CDFF84B232
:100DE00024B127A002F08EFE204638BDA4208DF845
:100DF000000001208DF80100022269467020FFF7F3
:100E0000BBFF84B224B125A002F07CFE204638BD91
:100E100080208DF8000016208DF80100022269461E
:100E20007020FFF7A9FF84B224B123A002F06AFE6C
:100E3000204638BD88208DF800000C208DF8010078
:100E4000022269467020FFF797FF84B224B122A0E6
:100E500002F058FE204638BD00F05CF80446A4F5C8
:100E60004050033808D0012C06D0022C04D023A017
:100E700002F048FE204638BD00F09AFE002038BD42
:100E80007365742046545F4445564944455F4D4F51
:100E90004445206661696C65642121007365742096
:100EA00046545F49445F475F4D4F44452066616942
:100EB0006C656421210000007365742046545F490D
:100EC000445F475F544847524F5550206661696CF4
:100ED00065642121000000007365742046545F4959
:100EE000445F475F504552494F444143544956453A
:100EF000206661696C65642121000000726561648F
:100F00002063686970206964206661696C6564218A
:100F10002100000038B50CA000680090032269464B
:100F20007020FFF7F7FE80B228B14FF6FF7407A0DC
:100F300002F0E8FD05E09DF802009DF8011040EA8E
:100F40000124204638BD0000A100000072656164E4
:100F50002063686970206964206661696C6564213A
:100F6000210000002DE9F04788B040480068079054
:100F700000200590069014216846FFF74CF90024E4
:100F8000022207A97020FFF7C5FE002805DA38A065
:100F900002F0B8FD08B0BDE8F0879DF81D0000F034
:100FA0000F05E946ADB1062D13D2304EB61C0EE04A
:100FB00016F814008DF81400052205A97020FFF71B
:100FC000A9FE09EB8400DDF815100160641CAC4239
:100FD000EEDBDFF8B8A00AF10208BAF80000A84278
:100FE00019D9002613E000246F1E0DE009EB8400E0
:100FF0008078010918F80600884207D0BC4201DB5E
:1010000000F06AF8641CE4B2AC42EFD3761CBAF884
:1010100000008642E7DBC5B1002413E009EB840140
:101020008B78180908F804000E784A7806F00F0645
:1010300042EA0622C97803F00F0341EA032100F0D7
:1010400029F8641CAC42E9DB0DE0BAF8000050B1AD
:10105000002404E018F8040000F03EF8641CBAF81C
:1010600000008442F6DBAAF8005093E740540008E1
:101070007265616420706F696E74206E756D206694
:1010800061696C656421210A000000005A0000209B
:10109000FFF768BF2DE9F84304460D461646B1B286
:1010A000A8B202F0F9FA0B4F09480090A7F10A081C
:1010B00033B22AB237F9141038F914001E46154617
:1010C000FFF72EFC28F8145027F81460BDE8F883C9
:1010D000300000206C00002070B50446074EA6F1D9
:1010E0000A0536F8141035F8140002F069FC4FF0C8
:1010F000FF3025F8140026F8140070BD6C000020A5
:101100002DE9F041002201274FF0030C07FA02F508
:101110000B682B40AB422CD1066853000CFA03F449
:10112000A64306600E79D0F800809E4046EA080685
:1011300006600E79012E01D0022E12D18668A643D8
:1011400086604E79D0F808809E4046EA08068660A0
:101150004668AE43466045688E799640B6B23543E0
:101160004560C568A543C560CC799C40C3681C43F5
:10117000C460521C102AC9D3BDE8F08110B54B07DA
:10118000DB0E9A40C90800EB8100016A0F249C40E5
:10119000A1430162016A1143016210BD02460020B1
:1011A00012690A4200D001207047418370470183D1
:1011B000704700002DE9FE4F002000900190029042
:1011C000334FDFF8D080387800EB400008EB400068
:1011D0008088401C010A8DF800108DF801000A2259
:1011E0006946BA2000F096F8002802DA0020BDE82F
:1011F000FE8F9DF802009DF8031000EB01201FFAFE
:1012000080F99DF804009DF8051000EB01201FFAFD
:1012100080FA40F2C72120A002F074FC6E4625A09F
:1012200002F070FC00240A25315D28A002F06AFC5F
:10123000601C90FBF5F105FB110010B925A002F030
:1012400061FC641C0A2CEFDB22A002F05BFC387806
:1012500000EB400008EB40008088801D010A8DF8FB
:1012600000108DF8010003226946BA2000F052F800
:10127000002801DA0020BAE79DF8020000F003031D
:101280005246494614A002F03DFC0120AFE70000A1
:101290003C0000201C5400083C3C2D4754502D4479
:1012A000454255472D3E3E205B25645D5245530A1D
:1012B000000000003C3C2D4754502D44454255470A
:1012C0002D41525241592D3E3E0A000025303278C0
:1012D000202020000A0000003C3C2D4754502D499E
:1012E0004E464F2D3E3E20585F4D4158203D202513
:1012F000642C20595F4D4158203D2025642C2054FA
:10130000524947474552203D203078253032780AEF
:1013100000000000F0B587B00E4617464FF0FF35CD
:1013200000240021ADF806108DF804000221ADF86C
:10133000081003960121ADF812108DF81000B81EA8
:10134000ADF81400B01C069007E0022101A800F0DF
:10135000CAFC0546022D02D0641C052CF5DB052CC9
:1013600008DB707831782B4640EA0121BA1E034829
:1013700002F0C8FB07B02846F0BD00004C5400083E
:1013800038B5002000901248007800EB4001114869
:1013900000EB41008088010A8DF800108DF80100F3
:1013A0000024651E0DE003226946BA20FFF7B2FF54
:1013B00045B2002D01DD284638BD214606A002F0C9
:1013C000A1FB2046641CE4B20528ECD3284638BDB6
:1013D0003C0000201C5400083C3C2D4754502D4537
:1013E00052524F522D3E3E204754502069326320C6
:1013F00074657374206661696C65642074696D65D9
:101400002025642E0A000000FEB50E4617464FF058
:10141000FF3500240021ADF802108DF80000ADF872
:101420000470029607E00121684600F05CFC054666
:10143000012D02D0641C052CF5DB052C08DB70782F
:1014400031782B4640EA0121BA1E024802F05AFBCD
:101450002846FEBD9C54000800F0AABB10B500F061
:1014600039FCFFF78DFF0446002C04DA06A002F0D9
:1014700049FB204610BD00F01DF8FFF7EDFFFFF718
:1014800099FE002010BD00003C3C2D4754502D45D6
:1014900052524F522D3E3E2049324320636F6D6DB4
:1014A000756E69636174696F6E204552524F5221A7
:1014B0000A0000002DE9F04186B06648C1688068E6
:1014C000CDE90401082204A9BA20FFF723FF04464E
:1014D000200006D560A002F015FB204606B0BDE84E
:1014E000F0819DF81430674D674E312B18D00027DE
:1014F000352B39D0382B5ED0372B77D09DF816009E
:101500009DF817109DF81520CDE9002102909DF857
:1015100013209DF812105DA002F0F4FA2046DDE7DA
:101520009DF81210392903D19DF81320312A0ED0CD
:101530009DF816009DF817209DF81550CDE9005232
:1015400002909DF8132051A002F0DCFAE6E79DF826
:1015500016709DF81700CDE900075AA002F0D2FAE4
:10156000012028703070D9E79DF81210392907D171
:101570009DF81320312A03D19DF8150037280ED08D
:101580009DF816009DF817209DF81550CDE90052E2
:1015900002909DF813203DA002F0B4FABEE79DF83A
:1015A00016C09DF817808DE8011152A002F0AAFA2A
:1015B0002F703770B2E79DF81210352907D19DF8CA
:1015C0001320362A03D19DF8150038280FD09DF836
:1015D00016009DF817209DF81550CDE90052029095
:1015E0009DF8132029A002F08DFA97E70DE09DF8F1
:1015F00016709DF817C0CDE901C7009049A002F010
:1016000081FA02202870307088E79DF816009DF856
:1016100017109DF81520CDE9002102909DF81320A8
:101620009DF8121033A002F06DFA9DF812003928CF
:101630008CD19DF81300312888D19DF814003728EB
:1016400084D19DF8150053288DD103202870377060
:1016500064E700000C5400083C3C2D4754502D45D5
:1016600052524F522D3E3E204754502072656164C5
:101670002076657273696F6E206661696C65640AB5
:10168000000000003C000020100000203C3C2D47E2
:1016900054502D494E464F2D3E3E20556E6B6E6F79
:1016A000776E2049432056657273696F6E3A202524
:1016B000632563256325635F2530327825303278D2
:1016C0000A0000003C3C2D4754502D494E464F2DFA
:1016D0003E3E204943312056657273696F6E3A2051
:1016E0002563256325635F25303278253032780AFB
:1016F000000000003C3C2D4754502D494E464F2DD4
:101700003E3E204943322056657273696F6E3A201F
:1017100025632563256325635F25303278253032C4
:10172000780A00003C3C2D4754502D494E464F2D21
:101730003E3E204943332056657273696F6E3A20EE
:1017400025632563256325635F2530327825303294
:10175000780A000000F09AB82DE9FC4104460E46D4
:101760001546CDE90053334622464FF4C9710EA009
:1017700002F0C8F9A9B2B0B201F08EFF174F1648B7
:101780000090A7F10A082BB232B237F9141038F9D9
:1017900014001D461646FFF7C3F828F8146027F812
:1017A0001450BDE8FC8100003C3C2D4754502D44B2
:1017B000454255472D3E3E205B25645D49443A2510
:1017C000642C20583A25642C20593A25642C205743
:1017D0003A25640A0000000030000020500000207C
:1017E00070B504460B4EA6F10A0536F8141035F80C
:1017F000140002F0E5F84FF0FF3025F8140026F849
:1018000014002246BDE870404FF4DF7102A002F0E0
:1018100079B90000500000203C3C2D4754502D4425
:10182000454255472D3E3E205B25645D546F7563F0
:10183000682069645B2532645D2072656C65617344
:1018400065210A0070B505460C460F48007800284F
:1018500001D101F083FD220AE1B2A13AC2EB0210EC
:1018600000EB421001EB4001A13901EBC100810105
:10187000C81701EB5070C110482201F5AA01284693
:1018800001F046FD002070BD2C0000202DE9F04F36
:1018900097B04CA00068169028210DF12C090CA8D7
:1018A000FEF7B9FC484C20680B904FF0BA0B0026AD
:1018B0000C220BA95846FFF72DFD0146002905DA39
:1018C00042A002F01FF917B0BDE8F08F9DF82E007E
:1018D0000028F8D0010669D500F00F05052D65D860
:1018E000012D14D9242101AF381DFEF794FC606846
:1018F0000190681E022101EBC002044601A958466E
:10190000FFF708FDE200B91C0EA8FEF76BFCDFF83C
:10191000ECA00AF10408BAF80200A84215D818E0B1
:1019200000246F1E0EE009EBC400C07800F00F0128
:1019300018F80600884207D0BC4201DBFFF750FFD1
:10194000641CE4B2AC42EED3761CBAF802008642C4
:10195000E6DBDDB1002416E009EBC400C17801F03C
:101960000F0608F804600179427941EA0221827980
:10197000C37942EA0322037A407A43EA00233046DD
:10198000FFF7EAFE641CAC42E6DB0DE0BAF80200A9
:1019900050B1002404E018F80400FFF721FF641C94
:1019A000BAF802008442F6DBAAF80250032216A914
:1019B0005846FFF729FD002885DA11A002F0A2F8A9
:1019C00081E70000814E00000C5400083C3C2D478C
:1019D00054502D4552524F522D3E3E204932432005
:1019E0007472616E73666572206572726F722E20FA
:1019F0006572726E6F3A25640A200A003C0000206E
:101A00003C3C2D4754502D494E464F2D3E3E2049DB
:101A1000324320777269746520656E645F636D641C
:101A2000206572726F72210A000000004B2102A033
:101A300002F068F8FEE7000046696C653A2E2E5CFD
:101A40002E2E5C557365725C73746D333266347818
:101A5000785F69742E632C4C696E653A2530336467
:101A60003A686172646661756C74206572720A000E
:101A700070B505460E46002400200EE004EB44033A
:101A800005EB8300418859B18288816815F82300ED
:101A900000F0C4F8002802D1641CB442EED370BD3B
:101AA0000279816815F8230000F03FF9F2E70000A1
:101AB0002DE9FC410121880501F024F9012188204C
:101AC00001F0F6F80121880301F02AF910200090B6
:101AD00001258DF8045002248DF805408DF806503C
:101AE00000268DF80760154F69463846FFF708FB5A
:101AF0002021009169463846FFF702FBA0020090C2
:101B00008DF804508DF805408DF806608DF807407B
:101B10000B4F69463846FFF7F3FA200300908DF823
:101B200004508DF805408DF806608DF80740694631
:101B30003846FFF7E5FABDE8FC810000001C0240D2
:101B4000000C024030B585B04FF4005500950024DC
:101B50008DF8044002208DF805008DF80740694695
:101B60001248FFF7CDFA0D21032001F0E5FC0395A3
:101B70008DF8104008208DF811008DF8124003A850
:101B8000FEF7D6FF4FF4C06001F048F828208DF82A
:101B9000080001208DF809008DF80A008DF80B402F
:101BA00002A801F007F805B030BD0000000C0240AB
:101BB00030B585B04FF40055009500248DF80440F1
:101BC00002208DF805008DF8074069461248FFF79E
:101BD00097FA0D21032001F0AFFC03958DF810401A
:101BE00008208DF8110001248DF8124003A8FEF79B
:101BF0009FFF4FF4C06001F011F828208DF8080015
:101C00008DF809408DF80A408DF80B4002A800F0CD
:101C1000D1FF05B030BD0000000C024070B5064693
:101C20000D46144602F05AFA46F0010002F02AFA74
:101C300002F084FA60B102F06DFA012070BD02F08A
:101C4000FFF905F8010B641EA4B23CB102F0BEF925
:101C5000002CF4D102F05EFA002070BD02F0D8F939
:101C6000F6E700002DE9FC474FF4005600960120EE
:101C70008DF8040002248DF8054000258DF80650EB
:101C80008DF80740114F69463846FFF739FA4FF48F
:101C9000006841463846FFF788FADFF83490484636
:101CA000FEF73FFC41463846FFF781FA4846FEF70B
:101CB00038FC00968DF804508DF805408DF80750DB
:101CC00069463846FFF71CFABDE8FC87000C024065
:101CD000FFFF0F0010B5FFF7EBFEFFF7C3FFBDE8F6
:101CE0001040FFF72FBF70B505460E4600240020B8
:101CF00014E004EB440005EB80039978C90706D093
:101D00009A8815F820009968FFF788FF05E01A798E
:101D100015F82000996800F008F8641C08B9B4426E
:101D2000E7D1002800D1204670BD2DE9F041804662
:101D30000E46154602F0EEF900244FF47A7702F0D1
:101D4000CDF9404602F09EF902F0F8F918B1641C92
:101D5000A4B2BC42F3D3BC4206D00BE0307802F010
:101D600091F902F0EBF920B102F0D4F90120BDE8BD
:101D7000F081761C6D1EEDB2F0D202F0CBF900209E
:101D8000F5E7000070B58AB0C40A00F01F05C0F383
:101D90004516FEF7F5FA4FF440300090022001900E
:101DA0000396029504940F2005900F4CA0680690AE
:101DB00000200790207800EB40010C4800EB8100E8
:101DC00041890891008909906846FEF7EFFAFEF70D
:101DD00049FB0220FEF7E0FA0028FAD0608800F004
:101DE000C7FD0AB070BD0000100000200C420008C2
:101DF0002DE9F04393B00C46234E244F317801EB8C
:101E0000410107EB8101098941434D00114601A8B9
:101E1000FFF718FD0022B3680DF1040C02EB42003D
:101E20001CF800100902604490F8018048EA01089B
:101E30004FEA0828817841EA080100205FEA01287A
:101E400006D503EB4409B6F8028029F8058005E0C1
:101E500003EB4409B6F8048029F80580641C4900A6
:101E6000401CC0B21828E9D33078183C00EB400081
:101E700007EB800000890444521CD2B2182ACDD34B
:101E800013B0BDE8F0830000100000200C420008F1
:101E90002DE9F04105460C461646264FDFF898809E
:101EA00042E07E2A20D8386981880B19397801EB05
:101EB000410108EB8101B1F808C0634503D9002452
:101EC000C3882B449DB2C08849892844884201D9DF
:101ED000002400252146284600F030F83869808823
:101EE000204484B2761C1FE0387804F1180100EB1E
:101EF000400008EB800002898A4202D20024183593
:101F0000ADB2418905F11800814201D200240025BB
:101F10003088010201EB102082B221462846FFF7EB
:101F200067FF1834A4B2B61C3278002AB9D1BDE8D4
:101F3000F0810000100000200C42000810B4203A8C
:101F4000D3B2054A12691468D2885A4304EB42029C
:101F500010BC00F003B80000100000202DE9F04391
:101F60000024DFF8A0C0DFF8A0809CF8003003EB6D
:101F7000430308EB83031B8943435F006046066904
:101F80003AE000202AE00C25B3FBF5F5ED004FF018
:101F9000800909FA05F932F8145049FA00F919EAEA
:101FA000050F01D10C2B08D94FF0010909FA00F9EE
:101FB00015EA090F09D10C2B07D9DCF80850BCF839
:101FC000043005EB4105EB5306E0DCF80850BCF8A3
:101FD000023005EB4105EB53491C401CB38883429A
:101FE000D1D89CF80000B38800EB400008EB8000DB
:101FF0000089C01A0144641CF088A042C1D8BDE821
:10200000F0830000100000200C4200082DE9F04F82
:1020100052420023022404EB4204DFF8A480DFF8DC
:10202000A490B8F80260D8F8085098F80070A0EBB7
:10203000020B07EB470709EB870701EB030A3F8910
:1020400007FB0AB725F8176098F800C087180CEB53
:102050004C0C09EB8C0CBCF808C00CFB0A7C25F876
:102060001C6098F800C00CEB4C0C09EB8C0CBCF815
:1020700008A0A1EB030C0AFB0C7725F8176098F871
:10208000007007EB470709EB87073F8907FB0CB791
:1020900025F8176027469F4208DC5B1C04EB4304CD
:1020A000641CDA4202D1974200DC0027974203DD2C
:1020B000521C04EB4204641C002AB6DDBDE8F08F1C
:1020C000100000200C4200082DE9F74F0746884613
:1020D00002980321A1EB40060024029D4FF6FF79F0
:1020E00035E09DB109EA4502A8EB050A381B934685
:1020F0001FFA8AF180B2012300F080F838195A469D
:102100001FFA8AF180B2012300F078F89CB109EA45
:102110004402A8EB040A781B93461FFA8AF180B2A6
:10212000012300F06BF878195A461FFA8AF180B241
:10213000012300F063F8002E03DA06EB8406B61DD7
:1021400004E0601B06EB80060A366D1E641CAC4280
:10215000C7D9029A03B041463846BDE8F04FFFF7B1
:1021600055BF00002DE9F04F8BB014469B46DFF8B9
:102170008490B9F80220D60A02F01F08C2F345176E
:1021800099F80020DFF870A002EB42020AEB82020D
:10219000128902FB0100D9F8081001EB4005FEF797
:1021A000EFF84FF440300190022002900497CDF8F0
:1021B0000C8005960F200690079599F8000000EB1B
:1021C00040000AEB80000089001B0890CDF824B085
:1021D0000A9401A8FEF7EAF8FEF744F90220FEF798
:1021E000DBF80028FAD0B9F8020000F0C1FB0BB010
:1021F000BDE8F08F100000200C4200082DE9F04FE0
:102200008BB014469A46DFF88C80DFF88C9098F8F3
:10221000002002EB420209EB8202128902FB01005C
:10222000D8F8081001EB4005B8F80200C60A00F023
:102230001F07C0F3451BFEF7A3F84FF44030019091
:1022400002200290CDF810B0039705960F2006905B
:1022500007950121BAF1000F17D098F8000000EBA4
:10226000400009EB80000089401E089009940A9103
:1022700001A8FEF79BF8FEF7F5F80220FEF78CF8B0
:102280000028FAD00BB0BDE8F08F0020089009912B
:102290000A94EDE7100000200C4200082DE9F041FF
:1022A00006460D4617461C4600233A462946304648
:1022B000FFF7A4FF281981B200233A463046FFF702
:1022C0009DFF0123224629463046FFF797FFF0196C
:1022D00022462946BDE8F04180B20123FFF78EBFB8
:1022E0002DE9FC4F84460C460027A2EB0C00002889
:1022F00001DCACEB020000B2191B002900DCE11A82
:1023000009B20FFA8CF526B24FF0FF3B624503D3BA
:102310004FF00109CA4601E0D946DA46A34204D388
:102320004FF0010B0122019201E0CDF804B0884288
:102330000ADB4FF000090022019200EBD07252102C
:1023400014B20091804623E04FF0000AD34601EB1F
:10235000D172521014B20090884619E031462846D6
:1023600000F088FC0098204404B2444508DBA4EB4C
:10237000080004B205EB090005B206EB0B0006B23B
:1023800005EB0A0005B20198304406B27F1C3FB24B
:102390004745E3DDBDE8FC8F2DE9FE4F84460C9FE9
:1023A0000E464FF00008A2EB0C00002801DCACEB5D
:1023B000020000B2991B002900DCF11A09B20FFAE1
:1023C0008CF435B24FF0FF39624504D34FF0010A67
:1023D0004FF0010B01E0CA46CB46B34203D30122C2
:1023E0000292019203E0CDF80890CDF80490884263
:1023F0000ADB4FF0000A0022019200EBD07252106B
:1024000016B2009181463CE04FF0000B0022029290
:1024100001EBD172521016B20090894631E01B4890
:10242000E119007800EB4002194800EB82000289B4
:10243000914222DAE11B00291FDD4089E91981421E
:102440001BDAE81B002818DDA9B2A0B23A46FFF754
:102450003BFE0098304406B24E4508DBA6EB09006F
:1024600006B204EB0A0004B20298284405B204EB59
:102470000B0004B20198284405B208F101080FFAD4
:1024800088F8C845CBDDBDE8FE8F000010000020B5
:102490000C4200082DE9FC5F012140F2FF1000F022
:1024A00007FC4FF00408CDF8008002208DF80500ED
:1024B0008DF8040000208DF806008DF807006946AD
:1024C000AA48FEF71DFE0E220221A848FEF756FE7E
:1024D0004FF00809CDF800906946A448FEF710FEB9
:1024E0000E220321A148FEF749FE4FF4807ACDF871
:1024F00000A069469D48FEF703FE0E2208219B4876
:10250000FEF73CFE0124009469469948FEF7F8FD69
:10251000092200219648FEF731FE4FF4006BCDF8FA
:1025200000B069469348FEF7EBFD0E220B2191485F
:10253000FEF724FE2003009069468E48FEF7E0FD7A
:102540000E220C218B48FEF719FE022000906946EE
:102550008748FEF7D5FD092201218548FEF70EFECA
:102560004025009569468448FEF7CAFD0E220621E3
:102570008148FEF703FE2020009069467F48FEF761
:10258000BFFD0E2205217D48FEF7F8FD0095694646
:102590007A48FEF7B5FD0E2206217848FEF7EEFDDB
:1025A0006003009069467148FEF7AAFD0E220D21D6
:1025B0006E48FEF7E3FDA602009669466E48FEF7F8
:1025C0009FFD09220A216C48FEF7D8FDE003009028
:1025D00069466648FEF794FD0E220F216348FEF718
:1025E000CDFD009469466648FEF78AFD0E22002163
:1025F0006348FEF7C3FD8027009769466148FEF7F0
:102600007FFD0E2207215F48FEF7B8FDCDF8008060
:1026100069465B48FEF774FD0E2202215848FEF71A
:10262000ADFD4FF01008CDF8008069465348FEF725
:1026300067FD0E2204215148FEF7A0FD2003009003
:1026400069464D48FEF75CFD0E220C214A48FEF714
:1026500095FD00954C4D69462846FEF751FD0E222A
:1026600006212846FEF78AFDCDF800B069464248AB
:10267000FEF746FD0E220B213F48FEF77FFDCDF809
:10268000008069463E48FEF73BFD0E2204213C488F
:10269000FEF774FDCDF8009069463648FEF730FD30
:1026A0000E2203213348FEF769FDCDF800A06946EC
:1026B0002F48FEF725FD0E2208212D48FEF75EFD6E
:1026C0004FF40079CDF8009069462948FEF718FDCF
:1026D0000E2209212648FEF751FD0097694626483B
:1026E000FEF70EFD0E2207212348FEF747FD009658
:1026F00069462348FEF704FD0E220A212048FEF712
:102700003DFDCDF8009069461D48FEF7F9FC0E220C
:1027100009211B48FEF732FD00961C4E69463046E3
:10272000FEF7EEFC0E220A213046FEF727FDCDF81B
:10273000008002208DF805008DF8044000208DF8FF
:1027400006008DF8074069462846FEF7D9FC009739
:1027500069462846FEF7D4FC10212846FEF727FDDF
:1027600080212846FEF723FDBDE8FC9F001C0240A7
:102770000004024000000240001802400010024025
:102780000020024000080240000C024000140240F9
:1027900030B58FB00121880600F0C2FA0121C805CA
:1027A00000F086FAFFF776FE00F012FD00200090A0
:1027B0000190029003900C900D900E90052207213D
:1027C000FA2000F039FB002000F026FB012000F089
:1027D0002DFB3D2000F004FB0028FAD01648174CD2
:1027E000007800EB400304EB830081784A1E0492DA
:1027F000C278551E059514F8233019444B1E0693D4
:1028000043781A44531E079303895C1E0C440894B2
:102810004489651E1544099505792B441944491EC0
:102820000A91407920441044401E0B90684600F005
:102830000BF90FB030BD0000100000200C42000862
:102840002DE9F04190B0324D324C287800EB400039
:1028500014F8201004EB800082788B180093531832
:1028600001894A1E1A4401924278C378D61802960A
:1028700040891344421E1A44039202260496FF2202
:1028800005920022069207920892099272020A9219
:1028900005220B92032202EB41020D9249000E9198
:1028A0000F904FF050470C97DFF86C806946404618
:1028B00000F02CF90496297801EB410004EB80012B
:1028C00008894989484307EB40000C904FF4C060E9
:1028D0000A9007200B90104C69468034204600F087
:1028E00015F9012000F05EF90121404600F002F9DF
:1028F0000121204600F0FEF8012000F053F90748BE
:1029000000F014F8012000F08FF810B0BDE8F0815D
:10291000100000200C4200088468014024000020C0
:10292000014A5080918070471000002001490861E1
:1029300070470000100000200B494FF05042002863
:102940000ED0087800EB4003084800EB83000389B1
:102950004089434302EB430088600120C860704710
:102960008A600020C8607047100000200C420008F8
:1029700001494880704700001000002010B5094947
:10298000C968002908D00146074800F0B1F8BDE841
:102990001040012000F006B901460348803800F0DD
:1029A000A7F8F4E710000020046901402DE9FC417C
:1029B0000121802000F07CF94FF480640094012014
:1029C0008DF8040000218DF806108DF807008DF8B1
:1029D00005100C4F69463846FEF792FB66000096DC
:1029E00069463846FEF78CFBA500009569463846D7
:1029F000FEF786FB03481830048006800580BDE89A
:102A0000FC810000001C02400649002804D0086830
:102A100040F0010008607047086820F0010008607D
:102A200070470000186801400649002804D0086873
:102A300040F4803008607047086820F480300860F7
:102A4000704700001868014030B5264A13682649CF
:102A50000B401360038A1B04146845692C431C4314
:102A60001460121D13680B401360038B1B04146861
:102A7000C5692C431C431460121D13680B4013607E
:102A8000038C1B041468456A2C431C431460121DFC
:102A900013680B401360018D09041368C46A234353
:102AA0000B431360111D0A68104B1A400A60D0E9ED
:102AB00000231A43D0E9023423431A430B681A4314
:102AC0000A60416B0A02018E0B04064924310C682E
:102AD00004F07F440C600C68806B134304431C4378
:102AE0000C6030BD0868014000F800F08F88FE0FD0
:102AF00041617047002904D0016841F00101016083
:102B00007047016821F001010160704770B58A8843
:102B10001204436803F4704343600B68134343603B
:102B20008A891204836803F4704383608B681343BB
:102B30008360026922F0070202610A690261CA69C0
:102B400013020A8C120491F824402406856900259A
:102B500085618E6922431E4316438661426922F0D5
:102B6000FF0242614A694261C26940F207739A43B7
:102B7000C261D1E90A231A43C261826A85620A6B83
:102B800082620A8F1204C36A03F0E023C3624B6BB4
:102B90001343C362026B6FF30A020263C96B0163E2
:102BA00070BD0000014908607047000024680140C2
:102BB000FEE7704730B50F23C27801250178002A5F
:102BC0001FD0154A126802F4E062C2F5E062C2F357
:102BD0000722C2F10404D3404278A24084781C400A
:102BE0001443220101F1E02181F80024007800F073
:102BF0001F018D404009800000F1E020C0F8005125
:102C000030BD01F01F0085404809800000F1E02040
:102C1000C0F8805130BD00000CED00E002490843CF
:102C200002490860704700000000FA050CED00E062
:102C300070B54FF6FF70FFF7A5F800F05BFD0024BC
:102C4000094D04EB440005EBC00001698847641C92
:102C5000E4B2122CF5D30549002008600871BDE8E4
:102C60007040FFF785BE00007C000020300000208F
:102C70007047000010B5002815DB0B4C227802EBE2
:102C800042030A4A02EB8302138983420BDB0029C9
:102C900009DB52898A4206DB03FB0100A16801EBD4
:102CA00040006188018010BD100000200C42000827
:102CB000054A002903D0116801431160704711686B
:102CC000814311607047000030380240054A0029F6
:102CD00003D011680143116070471168814311608E
:102CE0007047000010380240054A002903D01168DF
:102CF0000143116070471168814311607047000003
:102D000038380240054A002903D011680143116098
:102D100070471168814311607047000040380240DD
:102D2000054A002903D011680143116070471168FA
:102D300081431160704700004438024070B5244B55
:102D4000196801F00C01234C00291ED0224E0429E1
:102D50001DD008291DD00460196801F0F00109098F
:102D60001E4A545C0168E14041601C6804F4E05470
:102D7000A40A145D21FA04F484601B6803F4604320
:102D80005B0BD25CD140C16070BD0460E4E70660BB
:102D9000E2E70F4A121F1168C1F38055116801F074
:102DA0003F0135B1B6FBF1F11468C4F388146143F7
:102DB00005E0B4FBF1F11468C4F3881461431268B0
:102DC000C2F30142521C5200B1FBF2F10160C3E7B1
:102DD000083802400024F40040787D010000002003
:102DE00002460020510901290BD002290DD00949C2
:102DF000096802F01F02012393400B4200D001201A
:102E00007047044974390968F3E70249091F0968E2
:102E1000EFE7000074380240034A116821F44031A2
:102E200001431160704700008C3802400149086777
:102E30007047000000004742800140EA01600249FB
:102E400040EA027008607047883802402DE9FC5F54
:102E50000121FC20FFF72CFF02208DF804008DF8E3
:102E6000050000208DF806008DF807000120009075
:102E70006946D148FEF744F90C220021CE48FEF7FE
:102E80007DF9022000906946CB48FEF739F90C2203
:102E90000121C948FEF772F9042000906946C6482E
:102EA000FEF72EF90C220221C348FEF767F908202D
:102EB00000906946C048FEF723F90C220321BE4862
:102EC000FEF75CF9102700976946BB48FEF718F932
:102ED0000C220421B848FEF751F94FF02008CDF834
:102EE00000806946B448FEF70BF90C220521B24870
:102EF000FEF744F94FF48059CDF800906946AE488A
:102F0000FEF7FEF80C221146AB48FEF737F94FF4F6
:102F1000005ACDF800A06946A748FEF7F1F80C2248
:102F20000D21A548FEF72AF9BD0200956946A24881
:102F3000FEF7E6F80C220E219F48FEF71FF96C0001
:102F4000009469469C48FEF7DBF80C220F219A4852
:102F5000FEF714F90120009069469848FEF7D0F872
:102F60000C2200219548FEF709F9022000906946DD
:102F70009248FEF7C5F80C2201219048FEF7FEF8B2
:102F8000009569468E48FEF7BBF80C220E218C484E
:102F9000FEF7F4F8009469468948FEF7B1F80C2270
:102FA0000F218748FEF7EAF801200090694684481F
:102FB000FEF7A6F80C2200218148FEF7DFF8022078
:102FC000009069467E48FEF79BF80C2201217C4860
:102FD000FEF7D4F84FF0800BCDF800B06946794881
:102FE000FEF78EF80C2207217648FEF7C7F8E611A7
:102FF000009669467348FEF783F80C220821714851
:10300000FEF7BCF8A011009069466E48FEF778F80C
:103010000C2209216B48FEF7B1F860110090694657
:103020006848FEF76DF80C220A216648FEF7A6F8FC
:103030002011009069466348FEF762F80C220B21CC
:103040006048FEF79BF8CDF8009069465D48FEF7B2
:1030500057F80C2211465B48FEF790F8CDF800A017
:1030600069465848FEF74CF80C220D215548FEF7EA
:1030700085F8009569465348FEF742F80C220E2168
:103080005048FEF77BF8009469464E48FEF738F842
:103090000C220F214B48FEF771F80096694648480C
:1030A000FEF72EF80C2208214548FEF767F8A0111C
:1030B000009069464248FEF723F80C220921404857
:1030C000FEF75CF86011009069463D48FEF718F87D
:1030D0000C220A213A48FEF751F8402000903A4D60
:1030E00069462846FEF70CF80C2206212846FEF712
:1030F00045F8009769463148FEF702F80C22042192
:103100002E48FEF73BF8CDF8008069462B48FDF7C6
:10311000F7FF0C2205212948FEF730F80120009026
:103120002A4F69463846FDF7EBFF0C22002138464E
:10313000FEF724F82011009069461F48FDF7E0FFD4
:103140000C220B211C48FEF719F8009469461B4815
:10315000FDF7D6FF0C220F211848FEF70FF8009656
:1031600069461648FDF7CCFF0C2208211348FEF7EC
:1031700005F8CDF800B069462846FDF7C1FF0C22DE
:1031800007212846FDF7FAFF0220009069460D4806
:10319000FDF7B6FF0C2201210A48FDF7EFFF0120E1
:1031A000009069460748FDF7ABFF0C220021054857
:1031B000FDF7E4FFBDE8FC9F001402400018024048
:1031C000000C024000100240001C024000080240B7
:1031D00000B593B0FFF73AFE01210846FFF784FDE2
:1031E000022001900722029204210391049205908B
:1031F0000690079001200890002009900A91102164
:103200000B9140210C914FF4C0710D910E904FF431
:1032100000610F9110908800119001A8129008A8E9
:10322000FDF7ECFC00F002F813B000BD2DE9FF4102
:10323000012500950826019602950024039420217B
:103240000120FDF7AFFC0028F9D16846FDF7C6FC68
:103250000A2000F041F802200090019602950394A4
:1032600020210120FDF79EFC0028F9D16846FDF7DA
:10327000B5FC0320009001960427029703942021B7
:103280000120FDF78FFC0028F9D16846FDF7A6FC68
:1032900020210120FDF786FC0028F9D16846FDF7C2
:1032A0009DFC40F231200097019602950390202169
:1032B0000120FDF777FC0028F9D16846FDF78EFC68
:1032C00040F26A50FDF71EFD20210120FDF76AFC47
:1032D0000028F9D1BDE8FF8101B581B00549019809
:1032E0004843009002E00098401E0090009800289B
:1032F000F9D10CBDA0860100002904D0018841F05D
:10330000400101807047018821F040010180704731
:103310002DE9F04104460F4615460F484026068029
:10332000032000F087F8C7F3074000F083F8C7F3E5
:10333000072000F07FF8F8B200F07CF804E0FF20EE
:1033400000F078F804F8010B6D1EADB2F7D2024818
:10335000801E0680BDE8F0811A1402402DE9F0437A
:1033600087B001212020FFF7A3FC01210805FFF70A
:10337000D7FCDFF8B890052207214846FDF7FEFE8E
:10338000052208214846FDF7F9FE05220921484695
:10339000FDF7F4FE8020009002258DF805508DF891
:1033A000045000248DF806408DF8074069464846D1
:1033B000FDF7A6FEE801009069464846FDF7A0FE2D
:1033C0004FF40078CDF8008069464846FDF798FE36
:1033D0004027009701268DF8046069464846FDF7AE
:1033E0008FFE124818300780ADF808404FF4827005
:1033F000ADF80A00ADF80C40ADF80E50ADF8106015
:10340000ADF81280ADF81440ADF816400720ADF8C5
:103410001800074C02A9204600F04FF80121204671
:10342000FFF76AFF07B0BDE8F08300000014024018
:10343000005001402DE9F0410746184C4FF48055EB
:103440002560174E09E02068411E216005D200204A
:1034500000F050F8C0B2BDE8F0810221304600F023
:1034600021F80028EFD03946304600F024F82560D6
:1034700008E021684A1E226004D2012000F03AF8D8
:10348000C0B2E8E70121304600F00CF80028F0D087
:10349000304600F00EF8C0B2DDE700003800002032
:1034A000005001400246002012890A4200D001204B
:1034B0007047808970478181704730B5028802F477
:1034C00041530A884C88CD8822438C882C43224360
:1034D0000C8922434C8922438C892243CC89224384
:1034E0001A430280828B22F400628283098A01825D
:1034F00030BD000010B5014602A000F003FB002023
:1035000010BD00003C3C2D464C4153482D455252C5
:103510004F522D3E3E2053504920B5C8B4FDB3ACA8
:10352000CAB1216572726F72436F6465203D2025B8
:10353000640A00007047000010B58A07120F0F23BD
:10354000934021F003040649214401F608010C6868
:103550009C430C600B68904003430B6010BD00005F
:10356000003001401CB50021019100912E4A1068E5
:1035700040F4803010604FF4A043106800F4003035
:1035800000900198401C0190009810B90198984251
:10359000F3D11068800302D50120009000E0009173
:1035A000009801283FD120484030016841F0805107
:1035B00001601E49086840F4404008601A4808301D
:1035C00003680360036843F400430360036843F443
:1035D000A0530360041F164B2360136843F08073ED
:1035E000136013689B01FCD50A6842F480320A60BC
:1035F0004A68D203FCD50A6842F400320A604A687D
:103600009203FCD50B4A40F205711160016821F06C
:1036100003010160016841F0020101600168C1F32A
:1036200081010229FAD11CBD00380240007000401F
:10363000195A4007003C02407047000010B512487C
:10364000016841F4700101601048016841F0010116
:1036500001600E4A00210832116002680C4B1A40CA
:103660000260031D0B4A1A60026822F48022026085
:1036700006480C300160FFF775FF03494FF000600A
:103680008039086010BD000088ED00E0003802407D
:10369000FFFFF6FE103000242DE9F04105460E46EE
:1036A0000024134F04EB440207EBC2008188A942B7
:1036B00010D3C188B1420DD34188B1420AD837F83E
:1036C0003210A94206D8017B59B901210173016961
:1036D000884706E0017B012903D1002101730169BC
:1036E0008847641CE4B2122CDCD3BDE8F0810000F2
:1036F0007C0000202DE9FC4FA748002220F8B82CC0
:1037000020F8B62CA649A54B0C78019433F8241068
:1037100020F8B41C019C03EB84035B8820F8B23CC6
:1037200040F8B02C00F8AC2C9E4C40F8A84C9E4DB4
:1037300040F8A45C20F8A02C20F89E3C20F89C1CAB
:103740004FF6FF7606EA430E20F89AEC46F20C3666
:1037500040F8986C00F8942C40F8904C40F88C5C41
:1037600020F8882C20F886EC20F8841C03EB430713
:1037700020F8827C1F2640F8806C00F87C2C40F8F2
:10378000784C40F8745C20F8702C20F86E7C20F89F
:103790006C1C4FF6FF7606EA830920F86A9C102617
:1037A00040F8686C00F8642C40F8604C40F85C5CB1
:1037B00020F8582C20F8569C20F8541C03EB830C5E
:1037C00020F852CC4FF4784640F8506C00F84C2C5E
:1037D00040F8484C40F8445C20F8402C20F83ECC9F
:1037E00020F83C1C4FF6FF7606EA470A20F83AAC70
:1037F0004FF61F0640F8386C00F8342C40F8304C77
:1038000040F82C5C20F8282C20F826AC20F8241C4A
:10381000C3EBC30820F8228C4FF4FC6640F8206C00
:1038200000F81C2C40F8184C40F8145C20F8102CC0
:1038300020F80E8C20F80C1C4FF6FF7606EAC30B1E
:1038400020F80ABC761140F8086C00F8042C0460DB
:1038500045600281A0F80AB08181019C04EB440517
:10386000524C04EB850464890094C4814DF6FB64DA
:10387000046102754E4C84614E4CC46101844284E3
:103880004FF6FF7404EA41048484C384826280F8A2
:103890002C20494D0563494E466301874387848741
:1038A000A0F83EE00123036480F844208564C664E8
:1038B000A0F85010A0F852E0A0F85440A0F85670BC
:1038C0000223836580F85C2005664666A0F86810D0
:1038D000A0F86A70A0F86C40A0F86E90032303670C
:1038E00080F874208567C667A0F88010A0F88290E1
:1038F000A0F88440A0F886C00423C0F8883080F87F
:103900008C20C0F89050C0F89460A0F89810A0F8EF
:103910009AC0A0F89C40A0F89EA00523C0F8A03053
:1039200080F8A420C0F8A850C0F8AC60A0F8B0108F
:10393000A0F8B2A0A0F8B440A0F8B6800623C0F862
:10394000B83080F8BC20C0F8C050C0F8C460A0F8FF
:10395000C810A0F8CA80A0F8CC40A0F8CEB00723C9
:10396000C0F8D03080F8D420C0F8D850C0F8DC605F
:10397000A0F8E010A0F8E2B0A0F8E440009CA0F8A5
:10398000E6400821C0F8E81080F8EC20C0F8F050BC
:10399000C0F8F460BDE8FC8F34010020005400083A
:1039A00010000020090600085D0300080C42000812
:1039B00035050008F50200087506000845030008F3
:1039C00070B503460020124D00EB400205EBC20427
:1039D000A6889E4217D935F832209A4213D2E2883F
:1039E0008A4210D962888A420DD200EB400005EB72
:1039F000C000002101732169204688472046616983
:103A0000BDE870400847401CC0B21228DCD370BD2E
:103A10007C000020002904D0818941F4005181817B
:103A20007047818921F4005181817047024600204E
:103A300012880A4200D00120704700007FB504467A
:103A40000D46208A20F44051E88808432082A0894E
:103A500041F20C618843A9882A8911436A8902438B
:103A60001143A181A08A20F44071A8890843A08253
:103A70006846FFF763F91E48844202D01D4884421D
:103A800001D1039800E00298A189090408D500EB50
:103A9000C00101EB001029684900B0FBF1F007E01C
:103AA00000EBC00101EB001029688900B0FBF1F0C8
:103AB0006422B0FBF2F109010B096FF018056B43AA
:103AC00000EB8300A3891D044FF0320307D503EBFD
:103AD000C000B0FBF2F000F00700084306E003EB83
:103AE0000010B0FBF2F000F00F00084320817FBD12
:103AF0000010014000140140C1F3080181807047AB
:103B0000FEE700000FB4054B10B503A9044A029864
:103B100000F018F810BC5DF814FB0000A93F000885
:103B20007800002002E008C8121F08C1002AFAD15C
:103B300070477047002001E001C1121F002AFBD12D
:103B4000704700002DE9FF4F8DB00F460546002657
:103B500006E025280BD0DDE90F1290476D1C761C7E
:103B600028780028F5D111B03046BDE8F08F002448
:103B7000A246A1460122EC4900E0044315F8013FAA
:103B8000203B02FA03F00842F7D128782A2810D007
:103B90006FF02F022878A0F13001092914D80AEB20
:103BA0008A0102EB410144F0020400EB010A6D1CA2
:103BB000F0E701CF5FEA000A03D544F40054CAF1EC
:103BC000000A44F002046D1C28782E2817D115F83D
:103BD000010F44F004042A280ED06FF02F02287839
:103BE000A0F1300109290AD809EB890102EB410152
:103BF00000EB01096D1CF2E757F8049B6D1C287857
:103C00006C280FD006DC4C2817D068280DD06A2805
:103C100014D104E0742810D07A280FD10DE044F4B8
:103C200000140AE044F4801401E044F4401469787C
:103C3000814202D104F580146D1C6D1C2A786E2A15
:103C40001FD00CDC632A31D004DC002A8BD0582A28
:103C500011D1A3E0642A68D0692A0CD165E0732AE7
:103C60002ED004DC6F2A73D0702A04D19BE0752A11
:103C70006FD0782A6ED01046DDE90F129047761C7F
:103C800050E1C4F30250022806D0032809D00428CA
:103C900001CF09D0066045E101CFF117C0E900610D
:103CA00040E101CF06803DE106703BE117F8040BCF
:103CB0008DF8000000208DF80100EB46012003E0A4
:103CC00057F804BB4FF0FF3061074FF0000102D4FA
:103CD0000DE008F10101884649450FDA8045F8DB1F
:103CE0001BF808100029F4D108E008F1010188460A
:103CF0008142FADB1BF808100029F6D1DDE90F2319
:103D0000AAEB08008146214600F036F9304400EB6A
:103D1000080604E0DDE90F121BF8010B9047B8F12B
:103D20000108F7D221464846F7E00A21C4F30253BE
:103D30004FF0000B0891022B04D001CFC117032BC9
:103D400009D00AE0FF1D27F00707F7E8020108E0A5
:103D500032E01FE020E000B2C117042B01D140B2D5
:103D6000C117031E71F1000307DA4FF0000CD0EB0E
:103D70000C006CEB01012D2302E0230504D52B235D
:103D80008DF82430012303E0E30701D02023F7E777
:103D9000984658E00A2110E010210EE010204FF064
:103DA000000B08900CE010214FF0000B44F00404CD
:103DB0004FF00809089103E008214FF0000B08912B
:103DC000C4F30253022B04D001CF0021032B06D0F1
:103DD00006E0FF1D27F00707F7E8020103E080B2C5
:103DE000042B00D1C0B24FF0000823072BD5702A56
:103DF00007D0DDF820C08CF0100C5CEA0B0C05D06D
:103E00000EE040238DF82430012308E050EA01033E
:103E100006D030238DF824308DF8252002239846D3
:103E2000DDF820C08CF0080C5CEA0B0C0BD150EADA
:103E3000010301D1630706D530238DF824304FF0FC
:103E40000108A9F10109582A04D038A20B9208AA46
:103E50000A920BE03AA2F9E75B46089AFCF7E6F90A
:103E60000B9B9B5C0A9A521E0A92137050EA010245
:103E7000F2D10A98ADEB000000F1200B600702D5EB
:103E800024F4803401E04FF00109D94502DDA9EBAB
:103E90000B0000E0002000EB0B0141440890AAEB6E
:103EA000010AE00306D4DDE90F232146504600F065
:103EB00063F806444FF0000908E009A911F8090069
:103EC000DDE90F12904709F10109761CC145F4DBC9
:103ED000E0030CD5DDE90F232146504600F04CF8F5
:103EE000064404E0DDE90F1230209047761C089963
:103EF000481E08900029F5DC08E00A980A99007825
:103F0000491C0A91DDE90F129047761CBBF10001B4
:103F1000ABF1010BF1DC21465046DDE90F2300F047
:103F200019F806446D1C1BE60928010030313233B4
:103F300034353637383961626364656600000000E5
:103F400030313233343536373839414243444546CF
:103F5000000000002DE9F041044600251E461746EA
:103F6000880404D405E039462020B0476D1C641E47
:103F7000F9D52846BDE8F0812DE9F0410446002539
:103F80001E469046C80301D5302700E0202788044C
:103F900004D505E041463846B0476D1C641EF9D58E
:103FA0002846BDE8F081000070B50446064DE1B238
:103FB0002846FFF7A1FD80212846FFF737FD00289E
:103FC000F9D0204670BD00000010014010B50C4C27
:103FD00020212046FDF7E9F800F014F810212046D2
:103FE000FDF7E5F800F00EF810212046FDF7DDF8AA
:103FF00000F008F82046BDE810402021FDF7D7B8B2
:10400000001C02400020401CC0B23228FBD3704785
:1040100010B50A4C20212046FDF7C9F8FFF7F2FF42
:1040200010212046FDF7C3F8FFF7ECFF10212046D2
:10403000FDF7BBF8BDE81040FFF7E4BF001C0240ED
:1040400070B5002400250E4E6006040E1021304687
:10405000FDF7ADF8FFF7D6FF20213046FDF79EF8BB
:1040600008B1641CE4B210213046FDF79EF8FFF75A
:10407000C9FF6D1CEDB2082DE6D3204670BD0000CF
:10408000001C024070B505460024134E280604D5D6
:1040900020213046FDF78BF803E020213046FDF764
:1040A00084F8FFF7AFFF10213046FDF780F8FFF7E7
:1040B000A9FF10213046FDF778F8072C03D1202105
:1040C0003046FDF774F86806050EFFF79BFF641C89
:1040D000E4B2082CDAD370BD001C024010B50C4CC1
:1040E00020212046FDF763F810212046FDF75FF8F8
:1040F000FFF788FF20212046FDF757F8FFF782FFE2
:1041000010212046FDF751F8BDE81040FFF77ABFB7
:10411000001C024010B5084C20212046FDF745F850
:1041200010212046FDF743F8FFF76CFF2046BDE85D
:1041300010402021FDF73BB8001C024070B50E4D29
:1041400020212846FDF733F8FFF75CFF10212846B1
:10415000FDF72DF8FFF756FF20212846FDF71EF842
:1041600008B1012400E0002410212846FDF71DF8C5
:10417000FFF748FF204670BD001C0240FEF716FC0A
:10418000FCF77AF918A0FFF7BDFCFCF7C3FEA0F519
:104190004051033924D0012822D0022820D0FDF735
:1041A0005DF9FEF7F5FAFEF74BFB0120FEF72CFC5C
:1041B0000020FEF7C1FB4FF400442046FDF7E2FD6E
:1041C0000120FEF7B9FBFF20FEF7D8FB2046FDF7E4
:1041D000D9FDFEF72DFD40F6FF70FCF799F9FEE7DB
:1041E000FCF7F0FDDDE700000D0AD2B0BBF0535440
:1041F0004D334634323920B4A5C3FEBBADB0E5B271
:10420000E2CAD4C0FDB3CC0D0A0000002E17010194
:10421000161621152003E0012E170101D2162115D3
:104220002003E0010802290A04040F0FE001100135
:10423000000000000000000000000000000000007E
:10424000000000000000000000000000000000006E
:10425000000000000000000000000000000000005E
:1042600000008001800180018001800180018001C7
:104270008001800180018001800180010000000038
:10428000800180010000000000000000000000002C
:1042900000000000CC00CC00CC00CC00CC00CC0056
:1042A000000000000000000000000000000000000E
:1042B00000000000000000000000000000000000FE
:1042C000000000000000000000000000600C600C16
:1042D000600C30063006FE1FFE1F3006380718033C
:1042E000FE1FFE1F180318038C018C018C010000B7
:1042F00000008000E003F80F9C0E8C1C8C188C00D2
:104300009800F801E007800E801C8C188C189C180F
:10431000B80CF00FE00380008000000000000000F7
:104320000000000000000E181B0C110C11061106F5
:10433000110311039B018E01C038C06C60446044BE
:10434000304430441844186C0C3800000000000061
:104350000000E001F0033807180618063003F001EA
:10436000F000F8009C310E33061E061C061C063FAA
:10437000FC73F021000000000000000000000000BD
:10438000000000000C000C000C000C000C000C00E5
:10439000000000000000000000000000000000001D
:1043A000000000000000000000000000000000000D
:1043B0000000000200038001C000C0006000600037
:1043C000300030003000300030003000300030006D
:1043D00060006000C000C000800100030002000017
:1043E000000020006000C000800180010003000385
:1043F000000600060006000600060006000600068D
:104400000003000380018001C00060002000000064
:10441000000000000000000000000000C000C0001C
:10442000D806F807E001300338070000000000005C
:10443000000000000000000000000000000000007C
:10444000000000000000000000000000800180016A
:10445000800180018001FC3FFC3F800180018001E0
:10446000800180010000000000000000000000004A
:10447000000000000000000000000000000000003C
:10448000000000000000000000000000000000002C
:104490000000800180010001000180000000000098
:1044A000000000000000000000000000000000000C
:1044B0000000000000000000E007E007000000002E
:1044C00000000000000000000000000000000000EC
:1044D00000000000000000000000000000000000DC
:1044E00000000000000000000000000000000000CC
:1044F0000000C000C000000000000000000000003C
:104500000000000C000C000600060006000300037B
:1045100000038003800180018001C000C000C00052
:1045200060006000000000000000000000000000CB
:104530000000E003F007380E180C0C180C180C18CB
:104540000C180C180C180C180C180C18180C380E29
:10455000F007E00300000000000000000000000081
:10456000000000018001C001F00198018801800174
:104570008001800180018001800180018001800133
:104580008001800100000000000000000000000029
:104590000000E003F80F180C0C180C180018001895
:1045A000000C000600038001C0006000300018000D
:1045B000FC1FFC1F000000000000000000000000C5
:1045C0000000E001F807180E0C0C0C0C000C0006A3
:1045D000C003C007000C001800180C180C18180CA9
:1045E000F807E003000000000000000000000000E9
:1045F0000000000C000E000F000F800DC00C600CBE
:10460000600C300C180C0C0CFC3FFC3F000C000C38
:10461000000C000C00000000000000000000000082
:104620000000F80FF80F180018000C00EC03FC074E
:104630001C0E001C0018001800180C181C0C180E7A
:10464000F807E00300000000000000000000000088
:104650000000C007F00F381C181818000C00CC031D
:10466000EC0F3C0E1C1C0C180C180C18181C380EE7
:10467000F007E00300000000000000000000000060
:104680000000FC1FFC1F000C000600060003800356
:104690008001C001C000E0006000600070003000D8
:1046A00030003000000000000000000000000000AA
:1046B0000000E003F007380E180C180C180C380630
:1046C000F007F007180C0C180C180C180C18380C04
:1046D000F80FE003000000000000000000000000F0
:1046E0000000E003F007380E1C0C0C180C180C1816
:1046F0001C1C381EF81BE0190018000C000C1C0EC6
:10470000F807F001000000000000000000000000B9
:104710000000000000000000000000008001800197
:104720000000000000000000000000000000000089
:104730008001800100000000000000000000000077
:104740000000000000000000000000008001800167
:104750000000000000000000000000000000000059
:1047600080018001000100018000000000000000C5
:104770000000000000000000000000000000000039
:104780000010001C800FE003F8001800F800E003A0
:10479000800F001C0010000000000000000000005E
:1047A0000000000000000000000000000000000009
:1047B000F81F000000000000F81F000000000000CB
:1047C00000000000000000000000000000000000E9
:1047D00000000000000000000000000000000000D9
:1047E00008003800F001C007001F0018001FC007B4
:1047F000F001380008000000000000000000000088
:104800000000E003F80F180C0C180C180018000C2E
:10481000000600038001C000C000C00000000000CE
:10482000C000C00000000000000000000000000008
:1048300000000000E00718180420C229224A114491
:1048400009440944094409221113E20C02400420DE
:104850001818E00700000000000000000000000041
:10486000000080038003C006C006C006600C600C18
:10487000301830183018F83FF83F1C700C600C608E
:1048800006C006C00000000000000000000000009C
:104890000000FC03FC0F0C0C0C180C180C180C0C72
:1048A000FC07FC0F0C180C300C300C300C300C18C2
:1048B000FC1FFC07000000000000000000000000DA
:1048C0000000C007F01F38381C300C70066006006E
:1048D0000600060006000600060006600C701C308C
:1048E000F01FE007000000000000000000000000D2
:1048F0000000FE03FE0F060E0618061806300630EE
:104900000630063006300630063006180618060E49
:10491000FE0FFE0300000000000000000000000089
:104920000000FC3FFC3F0C000C000C000C000C00D5
:10493000FC1FFC1F0C000C000C000C000C000C00F9
:10494000FC3FFC3F000000000000000000000000F1
:104950000000F83FF83F1800180018001800180071
:10496000F81FF81F18001800180018001800180089
:104970001800180000000000000000000000000007
:104980000000E00FF83F3C780E6006E007C003002F
:10499000030003FE03FE03C007C006C00EC03CF0C8
:1049A000F83FE00F000000000000000000000000E1
:1049B00000000C300C300C300C300C300C300C3053
:1049C000FC3FFC3F0C300C300C300C300C300C3009
:1049D0000C300C300000000000000000000000005F
:1049E0000000800180018001800180018001800140
:1049F00080018001800180018001800180018001AF
:104A000080018001000000000000000000000000A4
:104A1000000000060006000600060006000600066C
:104A200000060006000600060006180618063807ED
:104A3000F003E001000000000000000000000000A2
:104A4000000006300618060C060606038601C6009E
:104A500066007600DE008E0106030606060C0618C8
:104A600006300660000000000000000000000000AA
:104A7000000018001800180018001800180018008E
:104A80001800180018001800180018001800180066
:104A9000F81FF81F000000000000000000000000E8
:104AA00000000EE01EF01EF01EF036D836D836D8C4
:104AB00036D866CC66CC66CCC6C6C6C6C6C6C6C622
:104AC00086C386C300000000000000000000000054
:104AD00000000C301C303C303C306C306C30CC3042
:104AE000CC308C310C330C330C360C360C3C0C3C7B
:104AF0000C380C3000000000000000000000000036
:104B00000000E007F81F1C380E70066003C003C0E9
:104B100003C003C003C003C003C006600E701C388E
:104B2000F81FE00700000000000000000000000087
:104B30000000FC0FFC1F0C380C300C300C300C301B
:104B40000C18FC1FFC070C000C000C000C000C00E7
:104B50000C000C000000000000000000000000003D
:104B60000000E007F81F1C380E70066003E003C069
:104B700003C003C003C003C007E006630E3F1C3C34
:104B8000F83FE0F700C00000000000000000000057
:104B90000000FE0FFE1F06380630063006300638CD
:104BA000FE1FFE0706030606060C0618061806304A
:104BB0000630066000000000000000000000000059
:104BC0000000E003F80F1C0C0C180C180C001C0063
:104BD000F803E00F001E0038063006300E301C1CB3
:104BE000F80FE007000000000000000000000000D7
:104BF0000000FE7FFE7F8001800180018001800136
:104C0000800180018001800180018001800180019C
:104C10008001800100000000000000000000000092
:104C200000000C300C300C300C300C300C300C30E0
:104C30000C300C300C300C300C300C300C301818A0
:104C4000F81FE00700000000000000000000000066
:104C5000000003600630063006300C180C180C18E3
:104C6000180C180C380E300630067007600360030D
:104C7000C001C001000000000000000000000000B2
:104C800000000360C361C361C3616633663366338A
:104C90006633663366336C1B6C1B6C1B2C1A3C1E14
:104CA000380E380E00000000000000000000000078
:104CB00000000FE00C7018303018700C600EC00748
:104CC00080038003C003E006700C301C18180C3001
:104CD0000E6007E00000000000000000000000007F
:104CE000000003C006600C301C383818300C600619
:104CF000E007C00380018001800180018001800104
:104D000080018001000000000000000000000000A1
:104D10000000FC7FFC7F006000300018000C0006E3
:104D200000038001C0006000300018000C00060085
:104D3000FE7FFE7F00000000000000000000000079
:104D40000000E003E00360006000600060006000BD
:104D50006000600060006000600060006000600053
:104D600060006000600060006000E003E00300009D
:104D7000000030003000600060006000C000C00033
:104D8000C000C00180018001800100030003000316
:104D90000006000600000000000000000000000007
:104DA0000000E003E003000300030003000300032E
:104DB00000030003000300030003000300030003DB
:104DC00000030003000300030003E003E00300000E
:104DD00000000000C001C0016003600360033006F2
:104DE0003006180C180C0000000000000000000045
:104DF00000000000000000000000000000000000B3
:104E000000000000000000000000000000000000A2
:104E10000000000000000000000000000000000092
:104E20000000FFFFFFFF0000000000000000000086
:104E300000000C000C000C000C000C000C0000002A
:104E40000000000000000000000000000000000062
:104E50000000000000000000000000000000000052
:104E6000000000000000000000000000F003F80750
:104E70001C0C0C0C000FF00FF80C0C0C0C0C1C0F85
:104E8000F80FF01800000000000000000000000013
:104E9000000018001800180018001800D803F80FB8
:104EA000380C181818181818181818181818380C5A
:104EB000F80FD80300000000000000000000000010
:104EC000000000000000000000000000C003F00728
:104ED000300E180C1800180018001800180C300EAE
:104EE000F007C00300000000000000000000000008
:104EF000000000180018001800180018C01BF01F50
:104F0000301C181818181818181818181818301CE9
:104F1000F01FC01B000000000000000000000000A7
:104F2000000000000000000000000000C003F00FBF
:104F3000300C1818F81FF81F180018003818301C0B
:104F4000F00FC0070000000000000000000000009B
:104F50000000800FC00FC000C000C000F007F007C5
:104F6000C000C000C000C000C000C000C000C00041
:104F7000C000C000000000000000000000000000B1
:104F8000000000000000000000000000E00DF80F2D
:104F9000180E0C0C0C0C0C0C0C0C0C0C0C0C180E35
:104FA000F80FE00D000C0C0C1C06F807F0010000D7
:104FB000000018001800180018001800D807F80F93
:104FC000381C18181818181818181818181818183D
:104FD0001818181800000000000000000000000071
:104FE0000000C000C000000000000000C000C000C1
:104FF000C000C000C000C000C000C000C000C000B1
:10500000C000C00000000000000000000000000020
:105010000000C000C000000000000000C000C00090
:10502000C000C000C000C000C000C000C000C00080
:10503000C000C000C000C000C000F8007800000040
:1050400000000C000C000C000C000C000C0C0C06FA
:105050000C038C01CC006C00FC009C018C030C0345
:105060000C060C0C00000000000000000000000016
:105070000000C000C000C000C000C000C000C000F0
:10508000C000C000C000C000C000C000C000C00020
:10509000C000C00000000000000000000000000090
:1050A0000000000000000000000000007C3CFF7ECB
:1050B000C7E383C183C183C183C183C183C183C16A
:1050C00083C183C100000000000000000000000058
:1050D0000000000000000000000000009807F80F2A
:1050E000381C18181818181818181818181818181C
:1050F0001818181800000000000000000000000050
:10510000000000000000000000000000C003F00FDD
:10511000300C181818181818181818181818300CF7
:10512000F00FC003000000000000000000000000BD
:10513000000000000000000000000000D803F80F8D
:10514000380C181818181818181818181818380CB7
:10515000F80FD803180018001800180018000000F5
:10516000000000000000000000000000C01BF01F55
:10517000301C181818181818181818181818301C77
:10518000F01FC01B001800180018001800180000BD
:10519000000000000000000000000000B007F00365
:1051A000700030003000300030003000300030003F
:1051B000300030000000000000000000000000008F
:1051C000000000000000000000000000E003F00309
:1051D000380E180C3800F003C007000C180C380EFD
:1051E000F007E003000000000000000000000000E5
:1051F000000000008000C000C000C000F007F00701
:10520000C000C000C000C000C000C000C000C0009E
:10521000C007800700000000000000000000000040
:10522000000000000000000000000000181818181E
:105230001818181818181818181818181818381CCA
:10524000F01FE01900000000000000000000000056
:105250000000000000000000000000000C18180C06
:10526000180C180C3006300630066003600360032B
:10527000C001C001000000000000000000000000AC
:10528000000000000000000000000000C141C1411A
:10529000C3616363636363633636363636361C1C1C
:1052A0001C1C1C1C0000000000000000000000008E
:1052B0000000000000000000000000001C38381C46
:1052C000300C600660036003600360036006300C0E
:1052D000381C1C3800000000000000000000000026
:1052E000000000000000000000000000183030182E
:1052F00030187018600C600CE00CC006C00680030B
:105300008003800380018001C001F0007000000074
:10531000000000000000000000000000FC1FFC1F57
:10532000000C000600038001C0006000300018007F
:10533000FC1FFC1F00000000000000000000000037
:10534000000000038001C000C000C000C000C00019
:10535000C00060006000300060004000C000C0007D
:10536000C000C000C000C0008001000300000000B9
:1053700000008001800180018001800180018001A6
:105380008001800180018001800180018001800115
:105390008001800180018001800180018001000086
:1053A00000006000C000C001800180018001800118
:1053B000800100030003000600030001800180015A
:1053C0008001800180018001C000600000000000B9
:1053D00000000000000000000000000000000000CD
:1053E000F010F81F080F000000000000000000008F
:1053F00000000000000000000000000000000000AD
:105400005A0032005A00320028001900814E000074
:105410008158000081400000000000002003E001EE
:1054200047802003E0014780E00110015080200305
:10543000E0015080814E00000000000000000000EC
:105440000200030009000F0015001B003C3C2D4723
:1054500054502D4552524F522D3E3E20493243204A
:10546000526561643A203078253034582C20256408
:10547000206279746573206661696C65642C2065AF
:105480007272636F64653A202564212050726F63E5
:105490006573732072657365742E0A003C3C2D475A
:1054A00054502D4552524F522D3E3E2049324320FA
:1054B00057726974653A203078253034582C20258D
:1054C00064206279746573206661696C65642C2060
:1054D000657272636F64653A202564212050726F93
:1054E000636573732072657365742E0A0000000093
:1054F00010550008000000207C000000243B00083C
:105500008C5500087C000020B4050000343B0008E6
:105510000000000001020304010203040607080959
:1055200001000000FFFF0000000000D000000000AC
:1055300000000000304200081000180000000000C9
:10554000000000000000000000A0000003000000B8
:10555000000000000000FFFFFFFFFFFFFFFFFFFF55
:10556000FFFFFFFFFFFFFFFFFFFF00000000000045
:105570000000FFFFFFFFFFFFFFFFFFFFFFFFFFFF39
:0C558000FFFFFFFFFFFF00000000000025
:04000005080001AD41
:00000001FF
