:020000040800F2
:10000000400800205D020008333C0008912C0008E5
:10001000313C0008B3080008C15700080000000088
:100020000000000000000000000000009D500008DB
:10003000B50D000800000000553C00080D520008F6
:1000400077020008770200087702000877020008AC
:10005000770200087702000877020008770200089C
:10006000770200087702000877020008770200088C
:10007000770200087702000877020008770200087C
:10008000770200087702000877020008770200086C
:10009000770200087702000877020008810E000846
:1000A000770200087702000877020008770200084C
:1000B000770200087702000877020008770200083C
:1000C000770200087702000877020008770200082C
:1000D000770200087702000877020008770200081C
:1000E000770200087702000877020008770200080C
:1000F00077020008770200087702000877020008FC
:1001000077020008770200087702000877020008EB
:1001100077020008770200087702000877020008DB
:1001200077020008770200087702000877020008CB
:1001300077020008770200087702000877020008BB
:1001400077020008770200087702000877020008AB
:10015000770200087702000877020008770200089B
:10016000770200087702000877020008770200088B
:1001700077020008770200087702000800000000FC
:10018000770200087702000877020008770200086B
:10019000770200087702000877020008770200085B
:1001A00077020008770200087702000800F002F8E2
:1001B00000F044F80AA090E8000C82448344AAF1BD
:1001C0000107DA4501D100F039F8AFF2090EBAE8BB
:1001D0000F0013F0010F18BFFB1A43F0010318477B
:1001E000F483000014840000103A24BF78C878C15A
:1001F000FAD8520724BF30C830C144BF04680C602D
:10020000704700000023002400250026103A28BF74
:1002100078C1FBD8520728BF30C148BF0B60704778
:10022000782900F09F80732900F0978200207047A2
:100230001FB505F056FF1FBD10B510BD00F09AFAAE
:100240001146FFF7F5FF05F0C1FB00F0B8FA03B463
:10025000FFF7F2FF03BC00F0BBFA0000094880473B
:1002600009480047FEE7FEE7FEE7FEE7FEE7FEE798
:10027000FEE7FEE7FEE7FEE704480549054A064BB0
:100280007047000011520008AD0100084002002034
:100290004008002040040020400400200FB41CB59A
:1002A000074B06AA7B4469460090059800F02BFA9C
:1002B0000020694600F03AFA1CBC5DF814FB00000F
:1002C0008504000070B5044685690068C10601D543
:1002D000302600E02026C00707D070BDD4E90121F8
:1002E00030469047206A401C20626D1EF6D570BDD6
:1002F00070B5044685690078C00707D170BDD4E9A0
:10030000012120209047206A401C20626D1EF6D5F6
:1003100070BD70B50C460546012A05D028788006C8
:1003200000D5EA69002302E0012305E05B1C93424B
:1003300002D2E05C0028F9D1A869E618C01AA861C9
:10034000286A184428622846FFF7BCFF04E0D5E974
:10035000012114F8010B9047B442F8D32846FFF767
:10036000C7FF70BD70B504460D4621461068AFF357
:1003700000802188090502D50F4A7A4402E00E4A1E
:100380007A440E32002104F1240305E000F00F0648
:100390000009965D5E54491C0028F7D1207800239F
:1003A000000704D5702D02D009B102231132204676
:1003B000BDE8704000F048B9E48100002DE9F05F2D
:1003C000894604464FF0000ADFF824B1FB44C0F828
:1003D00020A02046E168884700287DD0252806D047
:1003E000D4E901219047206A401C2062F1E70025F2
:1003F0005F462046E16888472028064607DB312E05
:1004000005D2B81910F8200C08B10543F1E7A80788
:1004100001D525F00405C4F81CA00027C4F818A0D5
:100420002A2E09D0304605F055FA38B304EB870878
:10043000303EC8F8186019E059F8041B204604EB58
:1004400087029161E1688847012F064618D1E0696B
:10045000002820DA25F020051DE0D8F8180000EB70
:10046000800006EB40003038C8F818002046E168EC
:100470008847064605F02EFA0028EED1012F0AD053
:100480002E2E08D12046E16888477F1C0646022FA1
:1004900045F02005C4DBA069002803DA404245F09E
:1004A0000105A061E80701D025F01005A6B1A6F16D
:1004B0004100192802D8203645F400654A463146E5
:1004C000204625604D46FFF7ABFE60B1012807D0FE
:1004D000ED1D25F0070000E007E000F1080978E7CE
:1004E00005F1040975E730467AE7206ABDE8F09F18
:1004F000BA81000040EA0103024630B59B0710D1E3
:100500004FF0013400E008C208C91D1B9D4315EAE5
:10051000C41FF8D013F0FF0102F8011B0DD01B0A15
:10052000F8E711F8013B002B02F8013B05D011F868
:10053000013B002B02F8013BF3D130BD10B5431C49
:1005400002E010F8011B71B18107FAD14FF00132BE
:1005500002C88C1A8C4314EAC211F9D0C01A0A06D8
:1005600003D0C01E10BDC01A10BD0A0401D0801EE9
:1005700010BD0902FCD0401E10BD10B5203AC0F0DD
:100580000B80B1E81850203AA0E81850B1E8185094
:10059000A0E81850BFF4F5AF5FEA027C24BFB1E8D1
:1005A0001850A0E8185044BF18C918C0BDE8104042
:1005B0005FEA827C24BF51F8043B40F8043B08BF4B
:1005C0007047D20728BF31F8023B48BF11F8012B12
:1005D00028BF20F8023B48BF00F8012B70474FF0BE
:1005E000000200B5134694469646203922BFA0E883
:1005F0000C50A0E80C50B1F12001BFF4F7AF09078F
:1006000028BFA0E80C5048BF0CC05DF804EB89007F
:1006100028BF40F8042B08BF704748BF20F8022BC2
:1006200011F0804F18BF00F8012B704770477047DA
:10063000704710B500F096F8006810BD10B504467C
:1006400000F090F8046010BD2DE9F0470D46994682
:100650009246044600F124080168880604D5E06942
:1006600021F01001216000E00120A84201DD471BBC
:1006700000E00027A1697A1902EB0900081AA061BD
:100680002078C00602D42046FFF71CFE002608E0B2
:10069000D4E901211AF806009047206A401C761C14
:1006A00020624E45F4DB2078C0060AD52046FFF7CD
:1006B00009FE06E0D4E9012130209047206A401C61
:1006C0002062381EA7F10107F4DC07E0D4E901211C
:1006D00018F805009047206A401C2062281EA5F1EA
:1006E0000105F3DC2046FFF703FE2078000602D563
:1006F0000220BDE8F0870120FBE7000001694A1CE9
:1007000002610878704700B58FB0CDE90131002152
:10071000059105497944CDE9031011466846FFF774
:100720004DFE0FB000BD0000E5FFFFFF0A6802F8B4
:10073000010B0A60704710B5436913B1AFF3008035
:1007400001E0FFF7E6FD012010BD127800F1240161
:100750000A7000224A700122EDE711684FF0FF3263
:10076000E9E7000000487047DC01002000487047BE
:10077000DC0100207546FFF7F9FFAE46050069462B
:10078000534620F00700854618B020B5FFF774FDEA
:10079000BDE820404FF000064FF000074FF0000882
:1007A0004FF0000B21F00701AC46ACE8C009ACE803
:1007B000C009ACE8C009ACE8C0098D46704710B567
:1007C0000446AFF300802046BDE81040FFF73FBD70
:1007D00001491820ABBEFEE72600020070472DE954
:1007E000F0410D460146002004464E1908E007027C
:1007F000301B401E80B200F007F8641C3844E4B29D
:10080000AC42F4D3BDE8F08110B5044602F0E6FA3C
:10081000200AA02101EB4000C0B202F0AFFA02F0C2
:100820001DFBE0B202F0AAFA02F018FB02F0D6FAC1
:10083000A12002F0A3FA02F011FB002002F06AFAF4
:10084000044602F0EBFA204610BD2DE9F0411646B1
:100850000D460746002409E0E00025FA00F0C1B289
:10086000381980B200F006F8641CE4B2B442F3D345
:10087000BDE8F08170B50D46044602F0AFFA200ADB
:10088000A02101EB4000C0B202F078FA02F0E6FAD3
:10089000E0B202F073FA02F0E1FA284602F06EFAD2
:1008A00002F0DCFA02F0BAFABDE870400A2005F066
:1008B00023B8FEE770B50E4C0025C4F898520D48D9
:1008C000016821F0C0010160016841F04001016050
:1008D0000948C0F88C52022004F5267405F01AF875
:1008E00001202060022005F015F8256070BD000091
:1008F000008043420020024000004442124800B5FC
:10090000016887B041F080010160016801F0800159
:100910000591016841F4807101600068694600F446
:1009200080700590402000900120019002900320EB
:100930000390064801F012F9082000906946044827
:1009400001F00CF907B000BD30380240001C024035
:100950000020024070B50E4C0026C4F898620D4885
:10096000016821F0C0010160016841F040010160AF
:1009700009480125C0F88C52022004F5267404F0C1
:10098000C9FF2560022004F0C5FF266070BD00008D
:100990000080434200200240000044422DE9F0471D
:1009A000824619480024016821F0C00101600168F5
:1009B00001601E2004F0AEFF0025144EDFF85090B9
:1009C0002F464FF00108C6F89872022004F0A2FFEB
:1009D000C6F898826006040ED9F80C0208B1641CAF
:1009E000E4B2022004F096FF6D1CEDB2082DEAD3AC
:1009F000BAF1000F04D0FFF75DFF2046BDE8F08795
:100A0000FFF7A8FFF9E70000002002400080434202
:100A1000000044422DE9F04705461548016821F0E1
:100A2000C0010160016841F040010160114E0027E2
:100A3000C6F89872DFF840803C464FF00109E9099A
:100A4000C8F88C126806050E022004F063FFC6F891
:100A50009892022004F05EFFC6F89872022004F01B
:100A600059FF641CE4B2082CE9D3BDE8F08700000C
:100A700000200240008043420000444270B50F480D
:100A8000016821F0C0010160016841F0400101608E
:100A90000B4E0120C6F88C020A4DC5F898021E20A4
:100AA00005F5267506F5237604F034FF002434603E
:100AB000022004F02FFF2C6070BD000000200240D7
:100AC000000044420080434270B50F48016821F0A5
:100AD000C0010160016841F0400101600B4E00203F
:100AE000C6F898020A4DC5F88C021E2005F523753C
:100AF00006F5267604F00EFF01243460022004F08F
:100B000009FF2C6070BD00000020024000804342BD
:100B10000000444270B511480024016821F0C00172
:100B20000160016801600E4D0120C5F88C020D4E78
:100B3000C6F8980207E0641CE4B2FA2C03D9FFF768
:100B4000C3FF012070BD022004F0E4FED5F80C02C2
:100B50000028F0D1C6F8980270BD000000200240C5
:100B60000000444200804342FEB51BA000F024F97F
:100B7000002510241DA08DE831004FF6E0763346A5
:100B80001F221E210A2004F08BFA21A08DE83100DB
:100B900033461F2232210A2004F082FA182022A1B3
:100BA000CDE90010012433461F22029446210A2079
:100BB00004F076FA202022A1CDE9001033461F224E
:100BC000029464210A2004F06BFABDE8FE404FF461
:100BD000966004F091BE0000B2E2CAD4373AD6D093
:100BE000CEC4CFD4CABEB2E2CAD400003136583126
:100BF000363AC8ABB6AFB5E7D7D3BCBCCAF5D3D08D
:100C0000CFDEB9ABCBBEBBB6D3ADC4FA000000009B
:100C100031365831363A57656C636F6D65C8ABB67F
:100C2000AFB5E7D7D300000032345832343AC9EEBA
:100C3000DBDACAD0D6D0CEC4B2E2CAD400000000FB
:100C400033325833323AD7D6CCE5B2E2CAD40000B8
:100C5000002788B03D4602F049FC47A000F0ACF800
:100C60004E480124009400884DA3183880B2102209
:100C7000002102F0E7FB4B494FF47840DFF828A150
:100C8000A34602AE08606D1CEDB200F07DFB0024AF
:100C90009AF814100BFA04F0534601424CD03F4925
:100CA00033F81420088882424AD20AEB4409B1F88A
:100CB00002C0B9F80A30634542D236F82480A8F55C
:100CC0007F4CBCF1FF0C05D106EB840C26F82420E8
:100CD000ACF8023018388846824216DD102B14D248
:100CE000012D2DD824A000F067F8CDF800B0B8F899
:100CF00000002BA3183880B21022002102F0A2FBC2
:100D000028494FF4784008600CE02849022031F867
:100D10001410CDE9000106EB8400418836F8240068
:100D200002F0DAF93AF8140026F8240006EB840100
:100D3000B9F80A00488003E04FF6FF7026F8240057
:100D4000641CE4B2052CA3D3052004F0D5FD7F1C60
:100D5000FFB21E20B7FBF0F100FB117030B914494F
:100D6000D1F8840230B10020C1F88402042D8AD960
:100D7000002588E70120F7E7B2E2CAD431303AB55E
:100D8000E7C8DD546F756368B2E2CAD428D6A7B34A
:100D9000D635B5E3B4A5C3FE2920200040000020CD
:100DA0005253540038000020580000202C850008C1
:100DB00000804042704700002DE9FE4380464FF618
:100DC000FF75284602F020F9194C1F26009620884E
:100DD0000021401E82B21423084602F0FFF900965B
:100DE0006188481E83B220881439401E82B289B2BD
:100DF000002002F0F3F90F48012610270560CDF816
:100E00000080CDE901761F232A460221002000F050
:100E10006FFE09A0CDE90007029660881F231238F3
:100E200081B22A46002000F063FEBDE8FE83000088
:100E30004000002038000020687474703A2F2F772B
:100E400077772E6C636477696B692E636F6D000032
:100E50002DE9F0479846DDE9085491460E460746CD
:100E600002F0EAF823462A464146484602F0E4F8F2
:100E700033463A4621462846BDE8F04702F0DCB842
:100E8000802000F05FBE0000FEB524A0FFF794FFB5
:100E90000C2527A0CDE9000500244FF6E0773B465E
:100EA0001F221E2102940A2004F0FAF801262BA02A
:100EB0008DE861003B461F222D210A2004F0F0F846
:100EC00031A0CDE900053B461F223C2102940A20B7
:100ED00004F0E6F8102534A0CDE900053B461F22BA
:100EE000502102940A2004F0DBF83AA08DE861005A
:100EF0003B461F2264210A2004F0D2F840A0CDE92D
:100F000000053B461F22782102940A2004F0C8F80D
:100F1000BDE8FE404FF4966004F0EEBCB2E2CAD4E5
:100F2000363AD3A2CEC4CFD4CABEB2E2CAD40000ED
:100F3000365831323A6162636465666768696A6B24
:100F40006C6D6E6F707172737475767778797A30B4
:100F500031323334353637383900000036583132C3
:100F60003A4142434445464748494A4B4C4D4E4F0F
:100F7000505152535455565758595A3031323334D0
:100F80003536373839000000365831323A7E214044
:100F90002324255E262A28295F2B7B7D3A3C3E3F71
:100FA0002F7C2D2B2E000000385831363A616263B9
:100FB0006465666768696A6B6C6D6E6F7071727379
:100FC0007475767778797A3031323334353637380C
:100FD00039000000385831363A41424344454647CB
:100FE00048494A4B4C4D4E4F505152535455565709
:100FF00058595A30313233343536373839000000D9
:10100000385831363A7E21402324255E262A282965
:101010005F2B7B7D3A3C3E3F2F7C2D2B2E0000002A
:1010200070B5B3F5804F05D06FF0704140F82210D5
:10103000002070BD50F82230084C2340D1E9004513
:1010400044EA05148D688E892D0245EA06458969B2
:101050002C430C431C4340F82240E9E70000F0CF4A
:10106000F0B50C6850F82450194A1540D1E9012315
:10107000D1E903671A433E4332434E6932438E69D6
:101080003243CE6932430E6A32434E6A32438E6A2D
:101090003243CE6A3243CE6B32430E6B32434E6BD9
:1010A00032432A43082B01D142F0400240F8242069
:1010B0004A6BB2F5801F08D10A6832B14FF48072D2
:1010C0000A6104490268114301600020F0BD00007C
:1010D0008000E0FF00011000F0B500EB82025368D1
:1010E0008E8903F04044D1E9003543EA05138D6849
:1010F0002D0245EA06452B430E8A0D4D05EB06569B
:1011000033430E7D6F0107EB066633438E6933432D
:10111000234353600268D20207D54268098A22F449
:10112000700205EB0151114341600020F0BD000049
:101130000000F0FF30B5D1E901231A43D1E90334AF
:1011400023431A434B690D681A438B691A43D1E94B
:101150000734012D496A05686FF30E0505D01A435F
:1011600022430A432A43026008E0234329430B43F6
:10117000416803606FF30E010A434260002030BDF6
:10118000426942EA4101416100207047F8B51446C6
:101190000546D1E9000210438A686FF01F03C96851
:1011A00003EB421242EA412108430090286100F01B
:1011B000CDFD064609E0601C07D024B100F0C6FD55
:1011C000801BA04201D90320F8BDA8698006F2D493
:1011D0000020F8BDF0B56FF00F05D1E9003405EB44
:1011E00004145B1E2E0123438C682F0306EB04249A
:1011F0004FEA054C23430D8A8E8ACC68097E4FF056
:101200007F4E07EB05450CEB06560EEB0161012AFC
:101210000CD082683F1107EB043423432B43334344
:1012200002F070420B43134383600FE0C2682B430C
:101230000B4302F070428168134301F070422103B6
:10124000A1F5805131431143C36081600020F0BD9E
:1012500070B5334888B00024016841F08001016016
:10126000016801F080010691016841F4807101601C
:101270000068012500F48070069080208DE8310020
:10128000032003906946274800F068FC2802CDE956
:1012900000056946244800F061FCFFF72FFB234E50
:1012A000C6F8A042142006F5287604F025FB356028
:1012B000322004F021FB8DF81440012205A9002002
:1012C00000F03CF9012205A9A42000F037F916200E
:1012D0008DF81400012205A9802000F02FF90C20C0
:1012E0008DF81400012205A9882000F027F90222B8
:1012F00005A9A12000F01CF89DF81400302803D1A6
:101300009DF81500032808D09DF81500012804D089
:10131000022802D0012008B070BD0020FBE70000C9
:1013200030380240001C02400020024000004442CD
:101330002DE9F04115460F460446FFF79FFB70204C
:10134000FFF768FBFFF7E6FBE0B2FFF763FBFFF791
:10135000E1FBFFF793FB7120FFF75CFBFFF7DAFB84
:1013600000246E1E09E0B44201D0012000E00020FC
:10137000FFF714FB3855641CE4B2AC42F3D3BDE86C
:10138000F041FFF7A1BB00002DE9FC47674F0024A7
:101390004FF00A093878664D401CC0B2B0FBF9F234
:1013A00009FB1201A046387009B10A2871D2012246
:1013B00001A90220FFF7BCFF9DF80400010768D0D7
:1013C00000F00F00062864D2FF218140C84340F09E
:1013D000C000DFF8608128754FF0010A0026297DE2
:1013E0000AFA04F001427AD053480422694630F8E0
:1013F0001400FFF79DFF98F80600414630B1012820
:101400001AD002282CD003285ED143E09DF800209A
:101410009DF8010002F00F02B8F8001000EB022066
:10142000081A25F814009DF802109DF8030001F039
:101430000F0100EB012028E09DF800109DF801004D
:1014400001F00F0100EB012005EB440148819DF8FC
:1014500002109DF8030001F00F0100EB012031E0C4
:101460009DF800009DF8012000F00F0002EB002025
:1014700025F814009DF802209DF8030002F00F02E9
:10148000B8F8021000EB0220081A05EB440148816D
:101490001AE032E09DF800209DF8010002F00F02F2
:1014A00000EB02204A88101A05EB440250819DF897
:1014B00002209DF8030002F00F02B8F8001000EBC4
:1014C0000220081A25F814009DF800000821B1EB4D
:1014D000101F04D005EB4400468125F81460641CFD
:1014E000E4B2052CFFF47BAF29884FF0010819B94D
:1014F000688908B98DF804603E709DF80400C00644
:101500000CD1287D010602D520F0800005E04FF6C1
:10151000FF712980698100F0E00028753878F02893
:1015200001D987F800904046BDE8FC8755000020AF
:101530005800002040000020588500082DE9F041A7
:1015400015460E4604460027FFF798FA7020FFF76D
:1015500061FAFFF7DFFAE0B2FFF75CFAFFF7DAFAB9
:10156000002408E0305DFFF755FAFFF7D3FA0700D3
:1015700003D1641CE4B2AC42F4D3FFF7A5FA3846B9
:10158000BDE8F0812DE9FF4F87B00026DDE9142387
:10159000BDF82840B046A14208D90D462146044670
:1015A000BDF82400ADF82850ADF82440BDF828500F
:1015B0009CB2A54207D9ADF828401446BDF82420B6
:1015C0002B46ADF82440BDF82840A14208D90D466D
:1015D00021460446BDF82400ADF82850ADF824405B
:1015E0001FFA83F90F46494522D1BDF82410ADF802
:1015F0000400814201D2084602E001D9ADF804108E
:1016000091B2814201D2084605E0BDF80420914222
:1016100001D9ADF804103E493B46BDF804200988C5
:1016200089B20091194601F0D9FD0BB0BDE8F08FE9
:10163000BDF824300546581BBDF828100690C81B7D
:1016400092B20590D01A0290A9EB0100A2EB050A14
:10165000A9EB070B0490494501D1039102E0491E13
:1016600088B203903C4620E098FBFBF105982944A2
:1016700096FBF0F01FFA81FCADF804C028440699EF
:1016800080B20E44D044604503D901466046ADF8AF
:1016900004101F492346BDF80420098889B200912F
:1016A000194601F09BFD641CA4B203988442DBD967
:1016B000BDF82800261A02984643E71B07FB0AF7E5
:1016C00022E00498BDF8241096FBF0F0084497FB44
:1016D000FBF129441FFA81FC029980B2ADF804C0E5
:1016E0000E445744604503D901466046ADF80410E6
:1016F00007492346BDF80420098889B2009119469C
:1017000001F06CFD641CA4B24C45DAD98DE70000F1
:10171000380000202DE9FF4F83B0044606464620DE
:10172000DFF8F8B00F464FF0000A01903C4A1099DC
:101730000AEB0A1012F8103009788B4236D102EB0E
:101740004000009041781098407881422ED107F1F6
:101750000F0083B204F10F0082B23946204601F037
:1017600089FD4FF000080098002500EB080911984A
:1017700090B32C48059A026099F802108020E84046
:10178000014203D03946204601F01AFD641CA4B280
:10179000A01B10283ED06D1CEDB2082DE7D308F138
:1017A000010000F0FF08B8F1200FDCD30AF10100BE
:1017B00001991FFA80FA8A45B8D3BBF80200401E8F
:1017C00083B2BBF8000007B0401EBDE8F04F82B204
:1017D0000021084601F04EBD99F802108020E84033
:1017E00001429BF8070005D0012801D0059804E0CC
:1017F000059A0AE0012807D0069801F06DFE9BF8D3
:1018000007000128C2D0C6E7069A3946204601F0F3
:10181000D7FCF4E77F1C3446BFB2C0E7400000208D
:10182000506B0008380000202DE9FF4F83B00446BC
:101830000646072001900020DFF8F8B00F468246E8
:1018400000EB800101EB4A103B49109A11F810306F
:101850001278934236D101EB400000904178109805
:10186000407881422ED107F1170083B204F11700AE
:1018700082B23946204601F0FDFC4FF00008009886
:10188000002500EB0809119890B32C48059A0260D6
:1018900099F802108020E840014203D039462046E2
:1018A00001F08EFC641CA4B2A01B18283ED06D1C55
:1018B000EDB2082DE7D308F1010000F0FF08B8F100
:1018C000480FDCD30AF1010080B2019982468842B8
:1018D000B6D3BBF80200401E83B2BBF8000007B0CD
:1018E000401EBDE8F04F82B20021084601F0C2BCA4
:1018F00099F802108020E84001429BF8070005D0CB
:10190000012801D0059804E0059A0AE0012807D0D3
:10191000069801F0E1FD9BF807000128C2D0C6E758
:10192000069A3946204601F04BFCF4E77F1C34460A
:10193000BFB2C0E7400000209C74000838000020BF
:101940002DE9FF4F83B0044606460420DFF8F8B0C7
:101950000F464FF0000A01903C4A10990AEB8A109A
:1019600012F8103009788B4236D102EB400000901B
:1019700041781098407881422ED107F11F0083B240
:1019800004F11F0082B23946204601F073FC4FF08B
:1019900000080098002500EB0809119890B32C4826
:1019A000059A026099F802108020E840014203D0B5
:1019B0003946204601F004FC641CA4B2A01B202878
:1019C0003ED06D1CEDB2082DE7D308F1010000F008
:1019D000FF08B8F1800FDCD30AF1010001991FFA6A
:1019E00080FA8A45B8D3BBF80200401E83B2BBF828
:1019F000000007B0401EBDE8F04F82B2002108464B
:101A000001F038BC99F802108020E84001429BF8B0
:101A1000070005D0012801D0059804E0059A0AE0E6
:101A2000012807D0069801F057FD9BF80700012810
:101A3000C2D0C6E7069A3946204601F0C1FBF4E75A
:101A40007F1C3446BFB2C0E740000020A2760008E9
:101A50003800002001F0B4BB2DE9F0479946054657
:101A600001EB0900401E164683B2A819401E82B23F
:101A70000F462846DDF8208001F0FCFB0024DFF84B
:101A80006CA009FB06F90DE008EB44019AF8072069
:101A900018F814004978012A14D040EA012001F016
:101AA0001BFD641CA145EFDCBAF80210BAF8000077
:101AB000BDE8F047491E401E8BB282B200210846A5
:101AC00001F0D8BB40EA01223946284601F078FBF4
:101AD000601C90FBF6F16D1C06FB1100ADB20028F6
:101AE000DFD1A81B7F1C85B2BFB2DAE7400000201F
:101AF0002DE9FE431F46DDE90A4690468946204609
:101B00000C9DFEF71BFD0A4980B240420988CDE9D1
:101B1000004601EBC00000EBD070C0F34F003B4625
:101B200042464946029503F0BBFABDE8FE83000039
:101B300040000020802802D1014901200870704730
:101B400054000020044910B50A68024202D008601F
:101B5000FFF7F0FF10BD0000143C01402DE9F84FE5
:101B6000DFF8A091002209F1040A0AF1040B4FF0FA
:101B70000F080BF1040E01260B6896403340B34268
:101B800071D14C68022C01D0122C11D1D40800EB79
:101B900084073D6A5407E40E08FA04FC25EA0C05A4
:101BA000D1F810C00CFA04FC4CEA050CC7F820C0B0
:101BB00007685400032591F804C0A5400CF0030CFD
:101BC000AF430CFA04FC4CEA070CC0F800C04F68A5
:101BD000012F05D0022F03D0112F01D0122F11D1C8
:101BE0008768D1F80CC0AF430CFA04FC4CEA070C30
:101BF000C0F808C04768B7430E79C6F30016964090
:101C00003E434660C668AE438D68A5403543C56017
:101C10004C68E4006FD53C4C256845F48045256050
:101C2000246822F0030504F480440094374C2E19F4
:101C3000D6F808789407250F08FA05F4A743344C22
:101C4000A04201D100242EE0324CA04201D1012457
:101C500029E0314CA04201D1022424E02F4CA042C3
:101C600002D103241FE046E02D4CA04201D1042400
:101C700019E02C4CA04201D1052414E02A4CA042CA
:101C800001D106240FE0294CA04201D107240AE02B
:101C9000274CA04201D1082405E0264CA04201D1E6
:101CA000092400E00A24AC403C43C6F80848D9F8AF
:101CB00000404D464E689C43F60300D51C432C6003
:101CC000DAF8004055464E689C43B60300D51C43E5
:101CD0002C60DBF800405D464E689C43F60200D560
:101CE0001C432C60DEF8004075464E689C43B602EB
:101CF00000D51C432C60521C102AFFF43CAFBDE8F9
:101D0000F88F0000003C01404438024000300140A0
:101D1000000002400004024000080240000C0240A3
:101D2000001002400014024000180240001C024053
:101D300000200240002402400069084000D0012039
:101D400070470AB1816170470904FBE701480068E8
:101D5000704700003000002002480168491C016003
:101D600070470000300000200B4810B5016841F4B6
:101D700000710160016841F480610160016841F413
:101D800080710160052000F0B3F90F2000F006F823
:101D900000F08AF9002010BD003C024010B5044656
:101DA00000F054FC4FF47A71B0FBF1F000F05CFFEE
:101DB00000222146501E00F07BF9002010BD2DE9C5
:101DC000F041044690F8A00015460F4601281DD0AA
:101DD000012684F8A060022084F8A10005EB8500AC
:101DE00000EBC50004EB800034223830FEF7C5FB61
:101DF0002A463946204601F09FFB2068466284F857
:101E0000A160002084F8A000BDE8F0810220FBE77B
:101E100070B5040004D094F8A100002510B106E0CC
:101E2000012070BD84F8A050204600F06FF8022019
:101E300084F8A1002068816921F070418161D4E9B2
:101E400001100143D4E90302104301432068826971
:101E500011438161206882682B490A408260A08A10
:101E6000020420688368A6693343134383602068B3
:101E7000C2680A40C260A08B02042068C368266A58
:101E800033431343C360206802690A400261A08C97
:101E9000020420680369A66A334313430361206880
:101EA00042690A404261A08D010420684269236BA7
:101EB0001A430A43426194F83500020294F836004E
:101EC00001042068C36A03F07F43C3622068C36AC9
:101ED00094F83460114333430B43C3622068416B71
:101EE00041F0040141632068416B41F0020141630C
:101EF0002068816941F001018161C4F8A45001208A
:101F000084F8A100002070BD00F800F030B536481C
:101F100087B00025016841F080610160006800F031
:101F20008060059030481438016841F40001016078
:101F3000016801F400010591016841F002010160AE
:101F4000016801F002010591016841F02001016082
:101F5000016801F020010591016841F04001016034
:101F6000016801F040010591016841F080010160C4
:101F7000016801F080010591016841F48071016000
:101F80000068032400F48070059020200090012058
:101F9000CDE90204019069461448FFF7DFFD4FF4D4
:101FA000806000900220CDE901050E20CDE90340BC
:101FB00069460F48FFF7D2FD4FF40C600090694668
:101FC0000C48FFF7CBFD4FF47E40009069460A486D
:101FD000FFF7C4FD40F2F760009069460748FFF73D
:101FE000BDFD07B030BD000044380240000402408F
:101FF0000014024000180240001C02400020024071
:1020000070B5044690F8A0000E46012820D00125A6
:1020100084F8A050022084F8A10003EB830000EBB9
:10202000C30004EB800141F8386F886A3044C1E98D
:102030000102C86A1044C8601A46204601F07CFAC2
:102040002068456284F8A150002084F8A00070BD8B
:10205000022070BD2DE9F041044690F8A0000F4623
:1020600001281FD0012584F8A050022084F8A10087
:1020700003EB830000EBC30004EB80010026E1E9E1
:102080000E672046C1E90262C1E90A721A4601F0F0
:1020900053FA2068456284F8A15084F8A0600020BB
:1020A000BDE8F0810220FBE708B50020009008BDE4
:1020B000F0B40E4B1B68C3F30223C3F10704042CD6
:1020C00000D904241D1D072D01D2002300E0DB1ED2
:1020D000012606FA04F56D1E0D409D409E40761EB9
:1020E000164045EA0601F0BC01F0A4BD0CED00E08D
:1020F000064A00F0070110684FF6FF03184040EA57
:102100000120034908431060704700000CED00E017
:102110000000FA052DE9F8431D48016841F080519F
:1021200001600068012700F080500090380490FAA8
:10213000A0F0DFF86080B0FA80F048F82070FFF778
:1021400005FE04464FF47A75134E04E0FFF7FEFDDA
:10215000001BA84213D87068C003F7D54FF40030B5
:1021600090FAA0F0B0FA80F048F82070FFF7EEFD8A
:10217000044607E0FFF7EAFD001BA84202D903204E
:10218000BDE8F88370688003F4D50020F8E700000C
:102190004038024000000E42007000402DE9F84F28
:1021A00004460068DFF878829E4DC10747F6C07A82
:1021B0004FF0E0464FF0010B4FF0000901D18007CE
:1021C0004BD59949C1F86890FFF7C0FD074604E078
:1021D000FFF7BCFDC01B64287ED828680001F7D437
:1021E00020789249C0070DD09AFAAAF26068B2FA34
:1021F00082F2904096FAA6F3A268B3FA83F39A406B
:10220000104308602078800718D5086896FAA6F26F
:1022100000F0E040B2FA82F2D0406268237B920183
:1022200042EA036242EA00700860D8F80010E269EE
:1022300021F01F01521E1143C8F800107A49C1F85D
:1022400068B0FFF783FD074604E0FFF77FFDC01B82
:10225000642841D828680001F7D52068410701D4D7
:10226000000776D57049C1F87090FFF76FFD0746FB
:1022700004E0FFF76BFDC01B64282DD82868C0431D
:102280008000F6D520786A4F40074FF0706C29D552
:10229000386896FAA6F100F0E040B1FA81F1C84042
:1022A0009AFAAAF22169B2FA82F291409CFAACF34E
:1022B0006269B3FA83F39A40114396FAA6F2B2FA2E
:1022C00082F2904001433960D8F800106FF0FF03AC
:1022D00021F4F851226A00E079E003EB0222114375
:1022E000C8F800102078000723D538689CFAACF1B4
:1022F00000F07060B1FA81F1C8409AFAAAF221693F
:10230000B2FA82F291409CFAACF2B2FA82F29040B8
:10231000014396FAA6F2A069B2FA82F29040014314
:102320003960D8F80010626A21F440311143C8F8CE
:1023300000103D49C1F870B0FFF708FD064604E003
:10234000FFF704FD801B642841D82868C043800043
:10235000F6D42078800651D532484F464030016887
:1023600041F0805101600068324E00F080500090D2
:10237000306840F480703060FFF7E8FC054604E008
:10238000FFF7E4FC401B642821D83068C005F7D56E
:10239000264E143E3068218D00F4407001F44071E7
:1023A00088422BD03068244920F44070C1F800B036
:1023B0000F603060800710D5FFF7C8FC054641F27A
:1023C000883707E0FFF7C2FC401BB84202D9032060
:1023D000BDE8F88F30688007F4D5A06A1149C0F3D2
:1023E00001220831032A13D0086820F4F81008608D
:1023F0003068218DC1F30B01084330602078C0069E
:1024000004D50E4994F82C00C1F8E0010020DFE764
:102410000A680B4B22F4F812184002430A60E7E7FF
:102420008C380240003802400000474284380240A5
:102430008838024000700040400E4742001047427A
:10244000FFFCFF0F2DE9F05FDFF8F8A104460F460F
:10245000DAF80000DFF8F08100F00F02C8B27A4924
:10246000814641F2883608F10808BA4261D2024634
:102470008AF80020DAF8000000F00F00B8427DD1A1
:102480002078800707D5D8F80020A36822F0F00252
:102490001A43C8F800202078C0072DD060680128B2
:1024A0001AD002281BD0032819D0096889070029EF
:1024B00064DAD8F80010474621F003010143C8F858
:1024C0000010FFF743FC0546606801280FD0022882
:1024D00018D003281CD027E009688903E7E70968BA
:1024E0008901E4E7FFF732FC401BB04258D8386856
:1024F000C0F381000128F5D188E0FFF727FC401BDD
:10250000B0424DD83868C0F381000228F5D17DE093
:102510003868FFF71BFC401BB042F9D940E0FFF7D9
:1025200015FC401BB0423BD8386810F00C0FF6D1B8
:102530006CE02078800707D5D8F80020A36822F047
:10254000F0021A43C8F800202078C0074CD0606819
:10255000012828D0022829D0032827D00968890714
:10256000002949DAD8F8002022F003020243C8F813
:102570000020FFF7EBFB0546606800E03CE0012827
:102580001DD0022829D0032838D0B34646463068EB
:1025900010F00C0F28D0FFF7D9FB411B5945F6D995
:1025A0000320BDE8F09F09688903D9E7096889011C
:1025B000D6E7FFF7CBFB411B594502D9F0E7B346FD
:1025C00046463068C0F381000128F2D10CE0FFF7E5
:1025D000BDFB411B594502D9E2E7B3464646306888
:1025E000C0F381000228F2D18AF80090DAF80000E6
:1025F00000F00F00B84209D00120D2E7444620681D
:10260000FFF7A4FB401BB042F9D9C9E72078400787
:1026100007D5D8F80010E26821F4E0511143C8F85A
:1026200000102078000708D5D8F80010226921F49E
:10263000604141EAC201C8F800100F20FFF7AEFB6D
:102640000020AEE7003C02400038024010B500F028
:1026500017F808490968F02292FAA2F201F0F00195
:10266000B2FA82F2D140044A515CC8400349086082
:1026700010BD000008380240488500081C000020FA
:1026800030B51948006810F00C01184812D0184CE9
:1026900004290ED008290DD1134A121F116813689E
:1026A00001F03F015D0247F6C07304D5B4FBF1F0C1
:1026B00003E0204630BDB0FBF1F01168194093FAF9
:1026C000A3F3B3FA83F3D940484311684FF440327F
:1026D00092FAA2F201F44031B2FA82F2D140491CDE
:1026E0004900B0FBF1F030BD083802400024F4008E
:1026F00040787D012DE9F84F04460078DFF8FCA210
:10270000BF4DC0074FF0000648D0DAF80010504621
:10271000C1F38101012908D00068C0F381000228BB
:102720000AD1281D0068400206D52868800335D5E7
:102730006068002873D031E0DFF8C49209F1020923
:1027400089F80060FFF702FB074641F2883804E091
:10275000FFF7FCFAC11B41457AD828688003F7D4FB
:10276000207989F80000606860B1FFF7EFFA07464A
:1027700004E0FFF7EBFAC11B4145EDD82868800360
:10278000F7D50BE0FFF7E2FA074604E0FFF7DEFAC1
:10279000C11B4145E0D828688003F7D42078DFF8D2
:1027A0006492800744D5DAF80010504611F00C0FFF
:1027B0004FF0F80809D00068C0F3810002280BD15F
:1027C0008E48001F0068400206D42868800714D590
:1027D000E068012823D110E0E068D0B10120C9F8F9
:1027E0000000FFF7B3FA074604E0FFF7AFFAC01B9B
:1027F0006428B1D828688007F7D5286898FAA8F225
:102800002169B2FA82F220F0F80091400843286072
:102810000EE0C9F80060FFF799FA074605E0EAE024
:10282000FFF794FAC01B642812D828688007F7D4F1
:102830002078000725D5DFF8C4817348616908F165
:102840006C0881B101210160FFF780FA074605E0BD
:102850007EE0FFF77BFAC01B642879D8D8F8000027
:102860008007F6D50DE00660FFF770FA074604E032
:10287000FFF76CFAC01B64286AD8D8F800008007FC
:10288000F6D42078400753D55C483830016841F0D1
:10289000805101600068DFF8748100F08050009082
:1028A000D8F8001041F48071C8F80010FFF74EFA14
:1028B000074604E0FFF74AFAC01B642848D8D8F856
:1028C0000000C005F6D5DFF834B10BF1680B8BF8CA
:1028D0000060FFF73BFA074641F2883804E0FFF753
:1028E00035FAC11B41457ED8DBF800008007F6D4DD
:1028F000207A8BF80000A06868B1FFF727FA074636
:1029000004E0FFF723FAC11B41456CD8DBF8000057
:102910008007F6D50CE0FFF719FA074604E0FFF749
:1029200015FAC11B41455ED8DBF800008007F6D4DC
:10293000A069E8B3DAF80010C1F3810102295AD086
:10294000022806D0C9F86060FFF700FA04464DE09F
:1029500049E04F46C9F86060FFF7F8F9064604E021
:10296000FFF7F4F9801B64283DD828688001F7D46C
:10297000D4E90701084347F6C07191FAA1F1626AF0
:10298000B1FA81F18A40A16A4FF0FF3303EB5101A4
:102990004FF4403393FAA3F3B3FA83F399400A4315
:1029A00010434FF0706292FAA2F2B2FA82F200E0A3
:1029B0001FE0E16A914008431049091F08600120A7
:1029C0003866FFF7C3F9044604E0FFF7BFF9001BC0
:1029D000642808D828688001F7D50AE0FFF7B6F91F
:1029E000001B642802D90320BDE8F88F2868800105
:1029F000F4D40020F8E70120F6E700000838024090
:102A00000038024000004742800E474200700040FC
:102A100070B50D46040003D094F82C0010B107E007
:102A2000012070BD002084F82D00204600F012F82F
:102A3000022084F82C00211D2068FEF77BFBD4E9DE
:102A400000022946FEF7C6FB012084F82C00002076
:102A500070BD0000304800B5016887B041F0010149
:102A60000160006800F0010005902B4808380168FB
:102A700041F004010160016801F004010591016861
:102A800041F008010160016801F008010591016849
:102A900041F010010160016801F010010591016829
:102AA00041F020010160016801F0200105910168F9
:102AB00041F0400101600068694600F04000059067
:102AC0000D2000900220019001200290032003902D
:102AD0000C2004901148FFF741F84CF2037000906D
:102AE00069460F48FFF73AF84FF683700090694641
:102AF0000C48FFF733F84FF63F00009069460A484C
:102B0000FFF72CF848F23710009069460748FFF7A6
:102B100025F807B000BD0000383802400008024028
:102B2000000C024000100240001402400018024055
:102B300010B5044690F82C00022809D0022084F831
:102B40002C002068FEF71CFB012084F82C000020DC
:102B500010BD70B5044690F82C000D4602280CD02C
:102B6000022084F82C002068FEF710FB2868022859
:102B700004D0012084F82C00002070BD0520F9E766
:102B800070B515460E46040003D094F8490010B104
:102B900007E0012070BD002084F84800204600F0C6
:102BA0001BF804F108012068FEF75AFA3146A268C2
:102BB0002068FEF791FAD4E901022946236BFEF75B
:102BC0002FFAA168206850F8212042F0010240F855
:102BD0002120002070BD00001A4800B5016887B0B0
:102BE00041F001010160006800F001000590154806
:102BF0000838016841F008010160016801F008012E
:102C00000591016841F0100101600068694600F01B
:102C1000100005904EF2B370009002200190012048
:102C20000290032003900C2004900748FEF796FFC3
:102C30004FF68070009069460448FEF78FFF07B09A
:102C400000BD000038380240000C02400010024075
:102C50004FF0E0210428086903D020F00400086147
:102C6000704740F00400FAE710B5401EB0F1807FD5
:102C700001D3012010BD4FF0E02460610F216017E7
:102C800000F0D8FF0020A06107202061002010BDC7
:102C9000FEE7000070B50D4C0025C4F890520C48BA
:102CA000016821F440610160016841F480610160C4
:102CB000C4F89452022004F5247402F02BFE012083
:102CC0002060022002F026FE256070BD0080434295
:102CD000001C024070B50D4C0026C4F890620C48F0
:102CE000016821F440610160016841F48061016084
:102CF0000125C4F89452022004F5247402F00AFE5F
:102D00002560022002F006FE266070BD008043426E
:102D1000001C02402DE9F047814616480024016856
:102D200021F44061016001680160134E2546274689
:102D30004FF00108C6F89072022002F0EBFDC6F8D1
:102D400090826006040ED6F8140208B1641CE4B246
:102D5000012002F0DFFD6D1CEDB2082DEAD3B9F1C0
:102D6000000F04D0FFF796FF2046BDE8F087FFF77D
:102D7000B1FFF9E7001C0240008043422DE9F04119
:102D800005461448016821F440610160016841F47E
:102D900080610160104E0027C6F890723C464FF0EB
:102DA0000108E809C6F894026806050E022002F040
:102DB000B1FDC6F89082022002F0ACFDC6F8907218
:102DC000022002F0A7FD641CE4B2082CE9D3BDE8A0
:102DD000F0810000001C02400080434270B50D48A5
:102DE000016821F440610160016841F48061016083
:102DF000094C0120C4F89402C4F89002042004F5A0
:102E0000247402F087FD00256560042002F082FD35
:102E1000256070BD001C02400080434270B50D4823
:102E2000016821F440610160016841F48061016042
:102E3000094C0020C4F89002C4F89402042004F560
:102E4000247402F067FD01252560042002F062FD74
:102E5000656070BD001C02400080434270B512489E
:102E60000024016821F440610160016801600F4D98
:102E70000126C5F89462304602F04CFDC5F8906218
:102E8000012002F047FD07E0641CE4B2FA2C03D9EC
:102E9000FFF7C4FF012070BDD5F814020028F3D15C
:102EA000C5F8900270BD0000001C02400080434243
:102EB00070B51B4886B00025016841F00101016032
:102EC000016801F001010591016841F00401016010
:102ED000016801F004010591016841F08001016081
:102EE0000068032400F08000059002200126CDE94F
:102EF0000204CDE9006569460A48FEF72FFE70031B
:102F000003948DE8610069460748FEF727FE0C2010
:102F1000009069460548FEF721FE06B070BD00002E
:102F2000303802400000024000080240001C02400D
:102F30002DE9F0470126304C7703DFF8C080DFF839
:102F4000C090304D01281DD02078A0B1082128461E
:102F5000FEF7F2FEC0B104212846FEF7EDFE98B15F
:102F600039464046FEF7E8FE70B101214846FEF7BB
:102F7000E3FE012808D008212846FEF7DDFE0128DF
:102F800026D037E02670E1E70A2002F0B5FC0020E9
:102F9000207008212846FEF7CFFE80B10421284684
:102FA000FEF7CAFE70B139464046FEF7C5FE58B17D
:102FB00001214846FEF7C0FE012807D01AE0012093
:102FC000BDE8F0870220FBE70320F9E70420F7E7DC
:102FD00004212846FEF7B0FE01280BD139464046B1
:102FE000FEF7AAFE012805D101214846FEF7A4FEFE
:102FF00000B926700020E3E74800002000080240E6
:1030000000000240001C02400549C979012904D092
:10301000002904D180B200F041BB00F06DBE7047C2
:103020004000002038B5034C2488A4B2009400F07E
:10303000D5F838BD380000202DE9FE4F0026A2EB60
:10304000000882465F1A701E35468946B8F1000FA7
:1030500002DD4FF0010102E003D14FF000010191C8
:1030600002E0C8F100080190002F02DD4FF00100DE
:1030700002E003D14FF00000009002E0C7F100072A
:1030800000904046B84501DD044600E03C46601C27
:103090004FF0000B029017E00E4A1FFA89F11FFA59
:1030A0008AF0126800F08CF846443D44A64202DDE6
:1030B0000199361B8A44A54202DD00992D1B8944E3
:1030C0000BF101001FFA80FB02998B45E4DDBDE89E
:1030D000FE8F0000380000202DE9FF5F00260E9CC7
:1030E0003546A0424CD3A2424AD3A14248D3A34280
:1030F00046D3A2EB000883465F1A701E8A46B8F1D9
:10310000000F02DD4FF0010102E003D14FF000019A
:10311000029102E0C8F100080290002F02DD4FF09A
:10312000010002E003D14FF00000019002E0C7F17E
:10313000000701904046B84501DD044600E03C46EA
:10314000601C4FF00009039017E001200090DDE9BA
:103150000E325146584602F0F7FB46443D44A64223
:1031600002DD0299361B8B44A54202DD01992D1B1D
:103170008A4409F101001FFA80F903998945E4DDC9
:10318000BDE8FF9F2DE9F0411C4615460E46074657
:103190000B46FFF751FF3A46234631461046FFF7EC
:1031A0004BFF23462A4619463846FFF745FF2A4675
:1031B00023463146BDE8F0411046FFF73DBF000011
:1031C000054BDB79012B04D0002B04D192B200F027
:1031D00081BA00F0D3BD70474000002038B5049C90
:1031E000009400F001F838BD38B5084C049DE4792E
:1031F000012C06D0002C03D1ACB2009400F086FA6A
:1032000038BD009500F0ECFD38BD00004000002006
:1032100010B500F049FF084CA08028B10120E071F2
:10322000BDE8104000F05CBE0020E07100F0E4FA60
:1032300000F0D5FBA08010BD40000020054AD279E7
:10324000012A02D01AB10020704700F079BF00F0C7
:10325000D3BB0000400000200549C979012903D0F3
:10326000002903D100F0F6BB00F066BD70470000F6
:103270004000002030B4044CE479002C02D130BC72
:1032800000F050BC30BC7047400000202DE9FF4FDB
:1032900081B08046DDE90E0689462038434900F0BA
:1032A000FF0A09EB06009B46401E098883B208EB23
:1032B000560089B2401E82B20091109C4946404699
:1032C000FFF7D8FF6CB300255DE00C2E05D0384821
:1032D00000EB0A100025075D1EE036480AEB4A01A4
:1032E00000EB8100F6E738063348C0790BD501289A
:1032F00001D003980AE009EB040081B208EB050055
:1033000080B2039A17E001280ED0584600F0E4F886
:103310007806070E6D1CEDB2B5EB560FE3D3641CB7
:10332000E4B2B442D1D330E009EB040081B208EB3F
:10333000050080B25A46FFF743FFE9E70C2E07D09D
:103340001B4800EB0A100024475D09EB050B15E054
:1033500018480AEB4A0100EB8100F4E71348039A8E
:103360000260380606D508EB04001FFA8BF180B224
:10337000FFF726FF7806070E641CE4B2B4EB560F85
:10338000ECD36D1CEDB2B542D8D30848009901606A
:1033900009494888401E83B2088805B0401EBDE830
:1033A000F04F82B200210846FFF764BF38000020CA
:1033B00060650008EC600008400000202DE9FF4F28
:1033C00083B00027DDF840801D4681463C46BA4662
:1033D000DFF868B04FEA58062AE0281B401EC1B249
:1033E0000A2002F07DFB0599B1FBF0F00A21B0FB49
:1033F000F1F201FB120027B9691E8C4201DA30B1EB
:1034000001273030C0B28DE801050D4803E02022CD
:103410008DE804050A480499008883B2BBF80000CF
:1034200082B206FB049080B2FFF730FF641CE4B266
:10343000AC42D2D307B0BDE8F08F000038000020C6
:103440003C0000202DE9FE4F1C4616460F4605465F
:10345000DFF85090DFF850A0DFF850B0DDF8308092
:1034600019E0B9F80020521EAA4219DBB9F802107F
:10347000491EB94214DB8DE84101BAF80000394613
:1034800083B2BBF8000082B22846FFF7FFFE05EBCF
:10349000560085B2641C2078A0F120015E29E0D995
:1034A000BDE8FE8F400000203C00002038000020D6
:1034B0000349C979002901D100F08EBB7047000093
:1034C000400000200349C979002901D100F090BBD8
:1034D00070470000400000200349C979002901D14C
:1034E00000F092BB7047000040000020104810B56B
:1034F000016886B041F0020101600068012100F01E
:10350000020005900320CDE90210CDE90001094C2D
:1035100069462046FEF722FB012211462046FEF7AF
:1035200010FC012202212046FEF70BFC06B010BD64
:103530003038024000040240F0B504688B88E5682A
:10354000C5F30B452B441D04882303EBC213E65837
:1035500006F47046E65004680F68E668C6F30B464A
:10356000761C3E442E43E65003688C89DD68C5F323
:103570000A052C4425048C2404EBC2141E5906F4BD
:1035800070461E5103688F68DE68C6F30A06761C13
:103590003E442E431E519423046803EBC213E558A6
:1035A00025F00705E55005680C69EC5091F83130BD
:1035B00005681F0291F832301C040B7E1E069C2306
:1035C00003EBC21355F803C04FF0000C45F803C0DD
:1035D00091F8305034433D4325430468E550982327
:1035E000046803EBC213E55825F0FF05E5500568B4
:1035F0004C69EC50A023046803EBC213E55840F279
:103600000776B543E550D1E907452C430568EC50F2
:10361000AC23046803EBC213E55844F803C0056803
:103620004C6AEC500B698BB3012B32D0042B32D097
:10363000022B30D0032B2ED0072B2CD00123B0240B
:10364000056804EBC2142E5906F0E0262E51D1E98C
:103650000065AD1B0E8D5D435E43ED1C45EA0643E0
:1036600005682B51B423046803EBC213E5586FF3CC
:103670000A05E5500468C96AE1500068842101EB3D
:10368000C211425842F001024250F0BDFFE704234C
:10369000D5E70323D3E70223D1E7000070B5054641
:1036A0000A480488408821464443491E401E8AB285
:1036B00083B20021084600F035FA0021044801E0F9
:1036C0000580491CA142FBD370BD0000040100200D
:1036D0000000086010B5144600F0B8F901480480F5
:1036E00010BD0000000008600FB410B5DDE909014D
:1036F00002900548049102A9036B82684068FDF7B7
:103700008FFC10BC5DF814FBB400002070B5141AD7
:103710005D1A641C6D1CA4B2ADB2049E00F002FAE6
:1037200000210D4A08E0002002E01680401C80B213
:10373000A042FAD3491C89B2A942F4D30748418870
:103740000088491E401EBDE870408BB282B2002145
:10375000084600F0E7B900000000086004010020FE
:103760000FB4214810B501688EB0002441F0020169
:103770000160006807A900F002000C904FF49070FF
:10378000079001200890099003200A901748FEF73F
:10379000E5F917484FF0204110AA01601549C0E92A
:1037A00001141021C460C0E9044184610902C461AC
:1037B000C0E909418900C0E90B4189014463C0E9BE
:1037C0000E410F20CDE90004462102910694CDE977
:1037D00010041290694616940548FFF7D1F90EB00F
:1037E00010BC5DF814FB00003038024000040240B9
:1037F000B4000020040100A000B585B03B461A4685
:103800008DE8700011460846FFF7AAFF642002F019
:1038100073F8E22000F0ECF91D2000F0DDF9022041
:1038200000F0DAF9042000F0D7F9642002F072F811
:10383000E02000F0DDF9012000F0CEF90A2002F0CE
:103840005BF8E02000F0D4F9032000F0C5F90C206B
:1038500002F052F8012000F0CBF90A2002F04CF8F7
:10386000E62000F0C5F92F2000F0B6F9FF2000F0A7
:10387000B3F9FF2000F0B0F9B02000F0B9F9202032
:1038800000F0AAF9002000F0A7F9032000F0A4F945
:1038900040F21F3000F0A0F9012000F09DF940F245
:1038A000DF1000F099F9002000F096F9B42000F044
:1038B0009FF9042000F090F940F21F4000F08CF9CD
:1038C000002000F089F92E2000F086F9002000F099
:1038D00083F9002000F080F9002000F07DF900203D
:1038E00000F07AF9B62000F083F9022000F074F9B4
:1038F0004FF4037000F070F9002000F06DF917200C
:1039000000F06AF9152000F067F9002000F064F972
:10391000002000F061F9F02000F06AF9032000F0C7
:103920005BF9292000F064F9D02000F061F9002053
:1039300000F052F9BE2000F05BF9052000F04CF9D0
:10394000FE2000F049F9012000F046F9002000F0C7
:1039500043F9002000F040F9002000F03DF9B820C4
:1039600000F046F9032000F037F9012000F034F9A7
:10397000BA2000F03DF9012000F02EF9642000F09B
:10398000A9F80420039004903B461A468DE8700085
:1039900011460846FFF7A8FE012000F05BF8054934
:1039A0000120C1F8940205B04FF6FF705DF804EBFA
:1039B000FFF774BE00804042034808B50088ADF8A8
:1039C0000000BDF8000008BD0000086010B5FFF75A
:1039D000F3FF0446012001F09DFF204610BD08B50D
:1039E0000020009003226946A12000F01FF8BDF8D6
:1039F000010040BA08BD0000084A10B51388834290
:103A000002D952888A4201D8002010BD00F01EF869
:103A100000F006F8BDE81040FFF7D8BF0401002011
:103A20000148008900F0E4B80401002070B5154693
:103A30000C4600F0DDF806E0FFF7BEFF04F8010BCE
:103A4000052001F067FF6D1EF6D270BD0B460246E1
:103A500000F068B830B51D4B2C214FF02B04D980F5
:103A60002E21198110F0030018714FF02A054FF430
:103A7000F0714FF4487206D001280AD0022818D0FD
:103A800003280ED11BE05C819D8119805A80A02102
:103A900004E05D819C811A8059800021362000F06D
:103AA000BFF80B48198801805988418019798171C4
:103AB00030BD5C819D8119805A806021EEE75D8177
:103AC0009C811A805980C021E8E700000401002091
:103AD0004000002010B50246BE2000F089F8052005
:103AE00000F07AF8104602F03CF89FED0C1B53EC06
:103AF000112B02F085F802F007F880B200F06CF8A4
:103B0000012000F069F8FF2000F066F8002000F0C6
:103B100063F8BDE81040002000F05EB86666666697
:103B2000666604402DE9F0411546DFF8A880074697
:103B300000EB050C40460E4698F8042001881C4610
:103B400032B133194088022A0DD0032A13D136E04E
:103B5000ACEB0500ACEB00028A1A521E081A401E9C
:103B600097B285B207E0191B5A1A821A521E401AE0
:103B7000401E96B284B2B8F80A00FFF7A3FC380AD8
:103B8000FFF796FCF8B2FFF793FC280AFFF790FCCA
:103B9000E8B2FFF78DFCB8F80C00FFF793FC300A91
:103BA000FFF786FCF0B2FFF783FC200AFFF780FCEA
:103BB000E0B2FFF77DFCBDE8F04100F02BB8ACEBC4
:103BC0000502ACEB02054D1B6D1E891AAFB2491EF2
:103BD0008DB2C8E70401002001B5BDF80000ADF8C2
:103BE0000000BDF800000149088008BD0000086021
:103BF00001B5BDF80000ADF80000BDF800000149B6
:103C0000088008BDFEFF076001490880704700007A
:103C1000000008600148C088FFF754BC0401002080
:103C2000024A1080901C018070470000FEFF076070
:103C3000FEE770470907090E002806DA00F00F00BA
:103C400000F1E02080F8141D704700F1E02080F8BA
:103C50000014704770470000FEB520A0FDF7ACF8D7
:103C6000234C28231E211A4608460094FDF7F4FE33
:103C7000102620A0CDE9000601254FF6E0773B464F
:103C80001F224B2102952A2001F00AFA28231A4606
:103C90001E215A200094FDF7DFFE16A0CDE9000694
:103CA0003B461F224B210295662001F0F9F928239B
:103CB0001A461E2196200094FDF7CEFE0DA0CDE9F8
:103CC00000063B461F224B210295A22001F0E8F995
:103CD000BDE8FE404FF4966001F00EBEB2E2CAD4D9
:103CE000383ACDBCC6ACCFD4CABEB2E2CAD400000A
:103CF000AC7800085151000008B500900548018BD0
:103D0000C08A491E8BB2401E82B20021084600F0D4
:103D100067F808BDBC01002000B58DB008230992EA
:103D20000490009306916846FEF738FA002800D008
:103D300001200DB000BD000030B50E4C00F00303B3
:103D400025466375A9888AB2298889B230B10228CC
:103D500004D0012805D0032803D004E0E2822183A7
:103D600001E0E182228304488371E18A0180218B92
:103D7000418030BDBC01002040000020F0B5164B52
:103D800095B21A465E7D147D5768D369DFF84CC042
:103D9000126886B1012E13D0022E18D0032E09D13D
:103DA000791A491E02FB0121081A401E5CF82410F2
:103DB00058430D52F0BD381A401E02FB0010F5E7C3
:103DC00002FB010043435CF82400C552F0BD02FB36
:103DD0000020401AE9E70000BC0100204C00002050
:103DE0002DE9F84FDFF8E8A09946D4469AF81580F7
:103DF000DCE9003C0024DDF828B0B8F1000F09D060
:103E0000B8F1010F0FD0B8F1020F11D0B8F1030FC4
:103E10001DD112E0ACEB0205ACEB0002521E0E46C7
:103E20004F466D1E13E0174606460D464A460EE005
:103E3000A3EB090605465F1A07E09E1AACEB0102E8
:103E4000ACEB09051F1A521E6D1E761E7F1E9AF8D6
:103E500014C0DFF88080B91B5F1A58F82CC003FB30
:103E60000563DAF81C007F1E00FB03C31A48BFB2CB
:103E7000066846F400060660006800F40000009042
:103E80001648066826F0010606604FF440360660C4
:103E9000022646630764C363F303521B03EB01412D
:103EA000521C0A434264C0F838B0016841F0010175
:103EB00001605A0102E0641C944202D24168890701
:103EC000F9D5816841F002018160BDE8F88F0000FA
:103ED000BC0100204C0000203038024000B00240FD
:103EE0002DE9FF4100F0E0F801264A4CA0F5EA4137
:103EF0004FF48032843904D0A0F5E041163914D053
:103F000029E04FF4487020604FF4F0706060268123
:103F100066812E20A0811720E081D22020821620E9
:103F2000608203214FF4C67013E04FF4806020607C
:103F30004FF41670606014202081032161818C2170
:103F4000A181E081A02020820C20608202214FF418
:103F5000B470FFF7E1FE0220304FE0612E48386078
:103F60002C482F49A8380025C0E900158560C56098
:103F700005612289511E416161894B1E8361A389BC
:103F80001A44531EC361E38919444B1E0362D4F8DB
:103F900000C0ACF10103134443626368A3F1010E56
:103FA0008E44C0F828E0B4F810E0F4446244521E95
:103FB000C262628A1A441144491E016380F8365075
:103FC00080F8355080F83450FDF722FF0720062195
:103FD000CDE90205CDE90051FF2302220020396816
:103FE00000F022F8A088002280B2009020881146BC
:103FF00083B2104600F046F80120FFF79DFE094805
:104000002575C0F8946204B0681EBDE8F041FFF762
:1040100073BE0000BC010020000000C04C00002066
:1040200000680140008040422DE9F0438DB0164603
:1040300014AA002492E88013114D009402942A6877
:1040400001926D68CDE904634FEA0823CDE9067358
:1040500003954FEA09230DF1240E08938EE82600FC
:1040600002468DF8324006488DF831408DF830C058
:104070006946A838FDF7A3FE0DB0BDE8F083000047
:10408000BC01002070B51E46044603460548049D49
:10409000FDF7B6FF23462A463146BDE87040014889
:1040A000FDF7D8BF1401002030B5224887B00021A9
:1040B000026842F040020260026802F0400205928B
:1040C000026842F48072026000681B4C00F4807049
:1040D00005904020CDE900010120029003200390CB
:1040E00069462046FDF73AFD8420144D009069464C
:1040F0002846FDF733FD40212046FDF71DFE04460E
:1041000004212846FDF718FE44EA40048021284691
:10411000FDF712FE44EA8000C0B2012804D0022854
:1041200005D0002007B030BD47F28450FAE747F2CF
:104130001600F7E730380240001802400020024025
:10414000F0B5164A0646DFF858C0557D147D57680D
:10415000D3691268002085B1012D13D0022D18D02B
:10416000032D09D1781A401E02FB0020801B401E3F
:104170005CF824105843085AF0BDB81B401E02FBDF
:104180000010F5E702FB016043435CF82400C05ACD
:10419000F0BD02FB0620401AE9E70000BC01002048
:1041A0004C0000202DE9FF4F81B00D46DDE910875E
:1041B000464906464FF47840DDF838B0DDF84890BF
:1041C00008609246012442A310228C2128200094EA
:1041D000FFF738F93FA310228C2178200094FFF7D5
:1041E00031F93DA31022A02128200094FFF72AF9DD
:1041F0003AA31022A02178200094FFF723F938A3D6
:104200001022B42128200094FFF71CF935A31022B6
:10421000B42178200094FFF715F933A31022C821A8
:1042200028200094FFF70EF930A31022C82178202F
:104230000094FFF707F92EA31022DC212820009418
:10424000FFF700F91024042332468C21402000940B
:10425000FFF7B4F804232A468C2190200094FFF73E
:10426000ADF804235246A02140200094FFF7A6F8A1
:1042700004230094A0219020049AFFF79FF80423C0
:104280005A46B42140200094FFF798F80094042384
:10429000B42190200F9AFFF791F804234246C821D9
:1042A00040200094FFF78AF804233A46C821902062
:1042B0000094FFF783F803234A46DC216020009432
:1042C000FFF77CF805B0BDE8F08F00003800002053
:1042D00078313A0079313A0078323A0079323A004E
:1042E00078333A0079333A0078343A0079343A0036
:1042F0006661632069733A002DE9F04FFA4E1F2082
:104300002DED0C8B89B04FF6FF77002425463060E9
:10431000F64807603846FEF777FE4FF4784838468F
:10432000C6F80080FEF770FE002737600126F0A374
:10433000102228210A200096FFF784F8F3A3102208
:1043400038210A200096FFF77DF8F7A310224821B4
:104350000A200096FFF776F8FAA3102258210A20C7
:104360000096FFF76FF8FEA3102268210A2000963E
:10437000FFF768F814214246084600F0E3FAFC49CA
:104380000F759FEDFC0A81ED060A9FEDFBCB9FEDBB
:10439000FCDB9FEDFDBBB146FD4EDFF8F8A3884680
:1043A0004FF0900B012000F05BFC98F814004146A0
:1043B000B9EB901F45D120F04000087505A80A8888
:1043C00020F8242000EB8400641C0025B8F80A10B3
:1043D000E4B24180012C06D0022C11D0032C1ED057
:1043E000042C2ED13CE014214FF6FF72084600F059
:1043F000A9FA30884FF47842143880B214211EE0B4
:1044000030884FF6FF72143880B2142100F09AFA07
:1044100070884FF47842143881B214200FE070880D
:104420004FF6FF72143881B2142000F08BFA7088B6
:104430004FF47842143881B23088143880B200F0DA
:1044400081FA0A2001F058FA6D1CADB2B5F57A7FF9
:10445000A8D900F0B9FA09B0BDEC0C8BBDE8F08F1B
:10446000BDF81400BDF81810411A00D54942BDF836
:104470001600BDF81A20801A00D540424943404337
:10448000084401F06EFB41EC100B01F09AF951EC7D
:10449000100B01F039FB84B2BDF81C00BDF82010F0
:1044A000411A00D54942BDF81E00BDF82220801AED
:1044B00000D5404249434043084401F052FB41ECDF
:1044C000100B01F07EF951EC100B01F01DFB00EE1A
:1044D000104A87B2F8EE400A00EE107AB8EE401AA1
:1044E00080EE810A10EE100A01F08AFDB0EE4C9ABF
:1044F000F0EE6C9A41EC180B53EC192B01F044FBD5
:104500005BD3B0EE4DAAF0EE6DAA53EC1A2B51EC32
:10451000180B01F073FC50D3ECB3E7B3BDF81400F3
:10452000BDF81C10411A00D54942BDF81600BDF86F
:104530001E20801A00D5404249434043084401F000
:1045400010FB41EC100B01F03CF951EC100B01F0A9
:10455000DBFA84B2BDF81800BDF82010411A00D56E
:104560004942BDF81A00BDF82220801A00D5404209
:1045700049434043084401F0F4FA41EC100B01F0C8
:1045800020F951EC100B01F0BFFA00EE104A80B296
:10459000F8EE400A00E010E000EE100AB8EE401A13
:1045A00080EE810A10EE100A01F02AFD41EC180B92
:1045B00053EC192B01F0E8FA31D27088002414383A
:1045C00081B230884FF6FF72143880B200F0BAF929
:1045D00014214FF47842084600F0B4F953EC1B2B39
:1045E00051EC180B01F00CFB01F08EFA80B2BDF813
:1045F0002220BDF82030BDF81E10CDE90320CDE902
:104600000113BDF81C000090BDF81A30BDF8182049
:10461000BDF81610BDF81400FFF7C4FDC2E653EC58
:104620001A2B51EC180B01F0E9FBC6D3BDF81800AA
:10463000BDF81C10411A00D54942BDF81A00BDF85A
:104640001E20801A00D5404249434043084401F0EF
:1046500088FA41EC100B01F0B4F851EC100B01F0AA
:1046600053FA84B2BDF81400BDF82010411A00D5E9
:104670004942BDF81600BDF82220801A00D54042FC
:1046800049434043084401F06CFA41EC100B01F03F
:1046900098F851EC100B01F037FA00EE104A80B296
:1046A000F8EE400A00EE100AB8EE401A80EE810AD9
:1046B00010EE100A01F0A4FC41EC180B53EC192B7E
:1046C00001F062FAB1D353EC1A2B51EC180B01F044
:1046D00095FBAAD3BDF81800BDF81410421A00EEDD
:1046E000102AB8EEC01A57E0380000203C00002025
:1046F000506C6561736520757365207468652073FF
:1047000074796C757320636C69636B0074686520E1
:1047100063726F7373206F6E2074686520736372A9
:1047200065656E2E000000005468652063726F732B
:10473000732077696C6C20616C77617973206D6F81
:1047400076650000756E74696C207468652073630B
:104750007265656E2061646A7573746D656E740050
:10476000697320636F6D706C657465642E00000062
:104770005800002000000000666666666666EE3F30
:10478000CDCCCCCCCCCCF03F000000000000594098
:10479000400000205600002032880844A2F128037F
:1047A00000EE103AF6EE001A4746B8EEC00AC0EE28
:1047B000010A00EE100AB8EE401A00EE102AB8EE18
:1047C000400AC8ED060A00EEC10AFDEEE00A20EE3E
:1047D000210ABDEEC00A10EE100AA8F82000BDF8AC
:1047E0001E00BDF81630C11A00EE101A7188184468
:1047F000B8EEC01AA1F1280400EE104AB8EEC02AA3
:1048000082EE010A01EE100AB8EE412A01EE101AFA
:10481000B8EE411A87ED070A00EE421A21EE211A7E
:10482000BDEEC11A11EE100A788410EE900A00282D
:1048300000DA4042022808DCBDEEC00A10EE100A81
:10484000002800DA404202282BDD143A143990B2D5
:10485000002489B24FF6FF7200F074F814214FF46F
:104860007842084600F06EF81BA310221A21282077
:10487000CDF80090FEF7E6FD97F8240048B100203F
:1048800087F8240038B18AF800B0D0218AF80110E6
:1048900088E50120F4E7D0218AF800108AF801B0F9
:1048A00080E512491F204FF6FF7408602046FEF78E
:1048B000ABFB0FA310226E212320CDF80090FEF752
:1048C000C1FD4FF47A7001F017F800F08DF9204621
:1048D000FEF79AFBBFE500005450204E656564204A
:1048E000726561646A7573742100000038000020ED
:1048F000546F7563682053637265656E2041646A06
:10490000757374204F4B21002DE9F0410C4D0C467E
:1049100006462A60FEF754FC771CB8B221462A6886
:10492000FEF74EFC641CA1B230462A68FEF748FC34
:10493000A1B2B8B22A68BDE8F041FEF741BC000060
:10494000380000202DE9F8431E4E05460D30326038
:1049500082B2A5F10C000C4680B20B46FEF76CFB50
:1049600004F10D0083B2193881B22A461046FEF7D1
:1049700063FB671C05F10109B9B21FFA89F03268BF
:10498000FEF71EFCA5F10108B9B21FFA88F03268E3
:10499000FEF716FC671EB9B21FFA89F03268FEF7FF
:1049A0000FFCB9B21FFA88F03268FEF709FC00204C
:1049B00000903088062382B22146284600F0C4FFCA
:1049C000BDE8F8833800002010B535202DED028BAE
:1049D000FBF71AFF0A2803D00020BDEC028B10BDA4
:1049E00004212820FBF7FBFE00EE100A9FED178A3A
:1049F000174CB8EEC00A04212C20C0EE080AC4ED02
:104A0000060AFBF7ECFE00EE100A02213020B8EE99
:104A1000C00AC0EE080AC4ED070AFBF7E0FE2084D6
:104A200002213220FBF7DBFE60843420FBF7ECFE32
:104A30009023084984F82400D02210B10B704A70EA
:104A400001E00A704B700120C7E7000020BCBE4C9B
:104A500058000020560000202DE9F05F00251E4F71
:104A60002C462E46C7F89852DFF87080C8F88C5252
:104A7000C8F8A05207F5267700F04CF9062000F0A0
:104A800049FF3E60012000F045FF4FF00109C7F8E3
:104A90000090484600F03EFF3E60B2464E46DFF8CA
:104AA00040B04FF6FF79A7F5267709EA4404C7F826
:104AB00098A2012000F02EFFC7F89862DBF80C02E4
:104AC00008B1641CA4B26D1CEDB2102DEDD3200909
:104AD000C8F8A062BDE8F09F008043420000444255
:104AE00000004342FEB5064600246D463046FFF7FF
:104AF000B3FF25F81400641CA4B2052CF6D30021E2
:104B00004C1CA0B20BE035F8113035F81020934260
:104B100003D925F8112025F81030401C80B2052853
:104B2000F1D3A1B20429EBD30021012035F81020E4
:104B3000401C114480B289B20428F7D30320B1FB92
:104B4000F0F0FEBD2DE9F041074F06460D463878DE
:104B5000FFF7C8FF04467878FFF7C4FF3480288049
:104B60000120BDE8F08100005600002070B586B03D
:104B70000C460546694604A8FFF7E4FF00282FD03D
:104B800001A903A8FFF7DEFF002829D0BDF80C30EB
:104B9000BDF81020934203D803F13200824205D3BE
:104BA0009A421FD802F1320083421BD2BDF8041092
:104BB000BDF80000814203D801F13206B04204D3AF
:104BC00088420FD8323081420CD2D0184008288059
:104BD000BDF80000BDF80410084440082080012002
:104BE00006B070BD0020FBE710B51B4C04222DED74
:104BF000028B282094ED060A9FED188A20EE080A01
:104C0000BDEEC00A10EE101AFBF71FFE94ED070A66
:104C100004222C2020EE080ABDEEC00A10EE101A65
:104C2000FBF713FEB4F9201002223020FBF70DFE33
:104C3000B4F9221002223220FBF707FE94F8241068
:104C40003420FBF717FEBDEC028B0A21BDE81040B3
:104C50003520FBF70FBE00005800002020BCBE4CE2
:104C60002A4910B5D1F81C12294C31B1207D01061A
:104C700040D520F08000207543E025490A31002806
:104C8000234802D0FFF772FF2AE0FFF76FFF38B327
:104C9000B4F9200094ED061A00EE100A208800EE08
:104CA000900AB8EEC00AF8EE600A01EE200ABCEEE7
:104CB000C00A10EE100A2080B4F9220094ED071A01
:104CC00000EE100A608900EE900AB8EEC00AF8EE15
:104CD000600A01EE200ABCEEC00A10EE100A6081E4
:104CE000207D00060DD4C020207520882081608999
:104CF000608206E00020208160824FF6FF702080F5
:104D00006081207D00F0800010BD000000804342E3
:104D1000580000202DE9F04700240E4E0E4F0546A6
:104D2000A0464FF00109280601D5484600E040465C
:104D3000C6F88C026806050EC7F89882012000F0BC
:104D4000E9FDC7F89892641CE4B2082CEBD3BDE8E7
:104D5000F087000000004442008043422DE9F04704
:104D60001C4888B003AE0FC886E80F000024DFF8A7
:104D7000689001274FF010084FF6E07A4FF47A75EB
:104D80002046FEF769FA15A0FCF716F856F824102D
:104D9000CDE9001853461F2202971E21142000F06F
:104DA0007FF928231A4632211E20CDF80090FCF707
:104DB00053FE284600F0A0FD284600F09DFD641C2F
:104DC000E4B2042CDCD30120FEF746FA08B0BDE8BB
:104DD000F087000038850008AC780008B2E2CAD439
:104DE000393AC6C1C4BBD0FDD7AAB2E2CAD40000CA
:104DF00008B500252C464FF47846FEF777FBFEF702
:104E000057F85FA0FBF7D8FFDFF894914FF0010A45
:104E1000CDF800A0B9F8000062A3183880B21022C3
:104E20000021FEF70FFB604F12233E600096B9F899
:104E30000000A0F11C018AB2323880B20221FEF7D4
:104E4000CDF90120FEF774F883460020FFF708FF34
:104E50005649087D000651D50888B9F800304A4601
:104E600098424ED24989B2F802C0614549D2A3F1B5
:104E70001802C84690421EDD10291CD240A0FBF744
:104E80009BFFCDF800A0B8F8000046A3183880B208
:104E900010220021FEF7D6FAB0B23E600090B8F8BA
:104EA00000001223A0F11C018AB2323880B2022124
:104EB000FEF794F925E0A3F1320C604525DD1C3B9B
:104EC000984222DA142920D20526B4FBF6F006FB1C
:104ED0001041DFF8DC809AB2122338F811000090FC
:104EE0001FFA8CF00221FEF779F9B4FBF6F006FB0D
:104EF0001041641C38F81160A4B23E600A2000F032
:104F0000FBFCBBF1010F05D029E03A8892B2FFF714
:104F1000FBFCF6E74FF6FF70FEF776F8FFF7ECF9CB
:104F2000FFF762FE16A0FBF747FFCDF800A0B9F827
:104F30000000C846183880B21AA310220021FEF7DC
:104F400081FAB0B23E600090B8F800001223A0F1E0
:104F50001C018AB2323880B20221FEF73FF96D1C83
:104F6000ADB21E2D7FF46DAF12490025D1F8840239
:104F700018B10020C1F8840263E70120FAE70000BD
:104F8000B2E2CAD431303A546F75636828B0B44B7A
:104F9000455930D0A3D7BC29202020202020000054
:104FA00040000020525354003800002058000020D8
:104FB000000000200080404200B5164887B0144928
:104FC0000022C0E900120121816008211023C0E9FC
:104FD0000313402343614FF4C073C0E906320A0251
:104FE00002624A0242628A0282620220CDE9000124
:104FF00006210291CDE90310059006906946054807
:10500000FDF706FD034800F007F807B000BD0000FB
:10501000400100A08000002010B5002301221146AD
:10502000184600F021F84FF4FA7000F073FC0023EA
:1050300001220221184600F017F80023082203215C
:10504000184600F011F84FF40C73012204210020DF
:1050500000F00AF8BDE8104040F2AB210148FDF72E
:1050600067BD0000800000201FB5002410B101289A
:1050700002D002E0102400E00824CDE90014CDE9BC
:1050800002234FF4805269460348FDF762FD002871
:1050900000D0012004B010BD800000207047000047
:1050A0002DE9FF4F83B08846DDE91054064682465D
:1050B0004FF00009DFF8CCB0129F1DE0B9F1000FEE
:1050C00020D0BBF80010091BB14218DBBBF802006E
:1050D000011B414513DB4FF00009202C46D0CDE9E0
:1050E0000057DDE90523182C4146304647D0FCF730
:1050F00011FB301986B2AD1C28780028DED107B02C
:10510000BDE8F08FBBF80020A2EB5402B242F6DB00
:10511000BBF802100A1B41464245F0DB802802D949
:105120004FF00109E8E70D280DD0102C12D91021FD
:105130008DE88300DDE9052341463046FEF7A6F8F9
:105140000836B6B210E008EB04001FFA80F85646A5
:105150006D1C09E08DE89100DDE905233046FEF77E
:1051600095F806EB540086B26D1CC5E7CDE90057F3
:10517000DDE9052341463046FCF7E2FBB9E7FCF7E1
:1051800053FBB6E74000002070B51E4C92B00025DE
:10519000266846F080562660246804F080541194F6
:1051A000194C266846F44046266024680DF1240C0C
:1051B00004F44044119401240094019402240694C0
:1051C0008CE80D006605CDE907616846FDF792FAA7
:1051D00000B1FEE7FCF79EFF00B1FEE70CA90F202F
:1051E00081E831004FF4A0500F904FF480501090A0
:1051F00005210CA8FDF726F9002800D0FEE712B023
:1052000070BD00004038024000700040FCF7A4BDB3
:105210001048016841F4700101600F48016841F0D5
:10522000010101600C4A00210832116002680B4B39
:105230001A400260031D0A4A1A60026822F48022A2
:10524000026005480C300160024958068039086048
:105250007047000088ED00E000380240FFFFF6FED6
:105260001030002410B5FBF7F3FF034911F8242F89
:1052700042F080020A7010BD580000202DE9F8436A
:1052800000242BA0FBF798FD2F4E4FF6FF770097D9
:1052900070881421143883B23088401E82B20020F6
:1052A000FDF79CFF294DA046CDF80080C4EBC4005B
:1052B000718800EB800000EB51013288322300EB53
:1052C000520035F814204638463900F03DFB641C86
:1052D000E4B2052CE8D340F2DC58404600F00CFB69
:1052E000009770881421143883B23088401E82B22F
:1052F0000020FDF773FF002401270097C4EBC400D2
:10530000718800EB800000EB51013288322300EB02
:10531000520035F814204638463900F015FB641C5D
:10532000E4B2052CE9D34046BDE8F84300F0E4BA06
:10533000B2E2CAD4343A475549BBADD4B2CCEEB38D
:10534000E4B2E2CAD40000004000002000000020C7
:105350002DE9FE43374C4FF6FF7000906088002126
:10536000401E83B22088401E82B20846FDF736FFF9
:10537000102631A0CDE9000601254FF6E07843461E
:105380001F221E2102951420FFF78AFE4FF4487950
:10539000484600F0B1FA4FF4784700976088002142
:1053A000401E83B22088401E82B20846FDF716FFD9
:1053B00023A0CDE9000643461F221E21029514209A
:1053C000FFF76EFE484600F097FA4FF4FC6000903D
:1053D00060880021401E83B22088401E82B20846A9
:1053E000FDF7FCFE18A0CDE9000643461F221E2152
:1053F00002951420FFF754FE484600F07DFA1F2066
:10540000009060880021401E83B22088401E82B236
:105410000846FDF7E3FE0EA0CDE9000643463A46F6
:105420001E2102951420FFF73BFE4846BDE8FE43CF
:1054300000F062BA40000020424C205465737400B2
:105440005245442000000000475245454E200000D0
:10545000424C5545200000002DE9F843002432A0BD
:10546000FBF7AAFC364F4FF6FF78CDF8008078881E
:105470001421143883B23888401E82B20020FDF710
:10548000ADFE304D304E35F814003060788841085C
:10549000C4EB041001EB4001A1F10A0293B23A8877
:1054A0006E39520802EB4000A0F10A026E3892B247
:1054B00089B280B2FDF766FE641CE4B2052CE2D32B
:1054C00040F2DC59484600F017FACDF800807888A1
:1054D0001421143883B23888401E82B20020FDF7B0
:1054E0007DFE002435F81400306078884108C4EB54
:1054F000041001EB4001A1F10A0293B23A886E391F
:10550000520802EB4000A0F10A026E3892B289B252
:1055100080B2FDF787FD641CE4B2052CE2D3484657
:10552000BDE8F84300F0E8B9B2E2CAD4333A4755CF
:1055300049BED8D0CECCEEB3E4B2E2CAD40000006B
:105540004000002000000020380000202DE9F04F2E
:105550008FB000200C900D900E90242103A8FBF733
:105560003EF837A0FBF728FC3B4C4FF6FF7000904D
:1055700060881421143883B22088401E82B2002033
:10558000FDF72CFEA088A0F5AE41613902D141F6AD
:105590006310A08082B231A10CA8FAF77FFE10261A
:1055A0000CA8CDE9000601254FF6E0731F22192152
:1055B00002953220FFF774FDDFF8A8A02A4F0024DF
:1055C0000DF10C0BA846B1463AF81400386004EB14
:1055D000C40000EB041505F1410305F12D01322251
:1055E0001E20FDF71FFD05F137012820FDF726FEDF
:1055F00086B23868B04201D11CA100E01CA10CA801
:10560000FAF778FF0CAB32461BA103A8FAF746FE67
:10561000CDF800B0CDE90198388805F12F0182B2AC
:105620004FF6E0733C20FFF73BFD641CE4B2072C0F
:10563000CAD340F2DC5000F05FF90FB0BDE8F08F44
:10564000B2E2CAD4323AB6C14944BACDD1D5C9AB17
:10565000D6B5B2E2CAD400004000002049443A3036
:10566000782578000A000020380000204F4B000009
:105670004552524F520000007265616420636F6CA6
:105680006F723A3078253034582020202020202591
:10569000730000002DE9FC47002438A0FBF78CFBC9
:1056A0003D4F4FF6FF78CDF80080788814211438EC
:1056B00083B23888401E82B20020FDF78FFD374D3F
:1056C000374E35F81400306078883B884108C4EBC9
:1056D000041001EB40025B08A2F1110103EB400052
:1056E000A0F10B0C89B21FFA8CF3CDE90031673AB7
:1056F00093B2A0F13D026E3892B280B2FBF7A8FBE4
:10570000641CE4B2052CDCD340F2DC59484600F0BE
:10571000F3F8CDF8008078881421143883B23888E3
:10572000401E82B20020FDF759FD002435F8140018
:10573000306078883B884108C4EB041001EB4002DC
:105740005B08A2F1110103EB4000A0F10B0389B249
:105750009BB2CDE90031673A93B2A0F13D026E38B9
:1057600092B280B2FBF70EFF641CE4B2052CDDD3CD
:105770004846BDE8FC4700F0BFB80000B2E2CAD41A
:10578000353A47554920547269616E676C65CCEEB5
:10579000B3E4B2E2CAD400004000002000000020C0
:1057A00038000020FFF75EFD044890F82400000652
:1057B00001D5FBF74DFAFFF71BFB00005800002056
:1057C000FEE700B52DED048BB0EE409AF0EE609A46
:1057D00083B051EC190B00F047FB41EC180B18EEAD
:1057E000100A18EE901A8DED008B002818BF0120CA
:1057F000084320F00040C0F17F6000F1E040C00F9E
:1058000014D019EE101A19EE900A8DED009B0029A4
:1058100018BF0121084320F00040C0F17F6000F173
:10582000E040C00F04BF0120FAF708FFB0EE480ABD
:1058300003B0F0EE680ABDEC048B00BD2DE9F05F0B
:1058400015461C46DDF828B00E46074601EB040855
:1058500000EB050A1FFA88F11FFA8AF05A46FCF796
:10586000F9F81FFA88F1A7EB05081FFA88F05A46E5
:10587000FCF7F0F8A6EB04091FFA89F11FFA8AF089
:105880005A46FCF7E7F81FFA89F11FFA88F05A46E2
:10589000FCF7E0F806EB050907EB04081FFA89F1AD
:1058A0001FFA88F05A46FCF7D5F83C1B1FFA89F11D
:1058B000A0B25A46FCF7CEF8751BA9B21FFA88F0C1
:1058C0005A46FCF7C7F8A9B2A0B25A46BDE8F05F45
:1058D000FCF7C0B830380A2801D2012070470020F8
:1058E0007047000010B504460420FDF7B1F90148E7
:1058F000046010BD3400002070B5054600244FF44C
:105900007A7603E0304600F005F8641CAC42F9D327
:1059100070BD000070B54FF0E02500216C69094AA8
:10592000AB6912685043AA699A42FCD002D2A3EB39
:10593000020302E0A4EB02063344194413468142F9
:10594000F1D370BD340000202DE9F84F89461E4682
:10595000904682460024714203220A9802EB4105D8
:10596000C8B930E0274608E03B4622464946504643
:10597000CDF80080FFF762FF7F1CB742F4DD002DF9
:1059800003DA05EB8405AD1D04E0A01B05EB8005E3
:105990000A35761E641CB442E4DDBDE8F88F334658
:1059A000224649465046CDF80080FFF747FF002DBC
:1059B00003DA05EB8405AD1D04E0A01B05EB8005B3
:1059C0000A35761E641CB442E9DDE6E7FCF7CCF943
:1059D0000823022219214FF4B470FFF7D5FBB4203D
:1059E000FFF780FFFFF7E8FAFDF712FC00F016F86A
:1059F000FFF7ACFDFFF7ACFCFFF72EFDFFF73EFC19
:105A0000FFF748FEFBF740FAFBF7AEF8FEF724F984
:105A1000FFF7A4F9FFF7C6FEE8E70000FEB51AA0FD
:105A2000FBF7CAF9012510241DA08DE831001F23C2
:105A3000DE0232461E210020FCF75AF814A08DE841
:105A400031001F2332463C210020FCF751F817A0FB
:105A50008DE831001F234FF61F025A210020FCF76A
:105A600047F818A08DE831001F231A46782100203E
:105A7000FCF73EF840F2DC542046FFF73DFF20469D
:105A8000BDE8FE40FFF738BFC8ABB6AFB5E7D7D328
:105A9000D7DBBACFB2E2CAD4B3CCD0F20000000058
:105AA000C8ABB6AFB5E7D7D300000000372E302221
:105AB000205353443139363320343830583830305D
:105AC000000000007869616F46656E67405144745C
:105AD00065636820323032302D30352D313300008F
