:020000040800F2
:10000000F80700205D020008853400083529000843
:1000100083340008DF0700083D4A000800000000A4
:10002000000000000000000000000000294300085C
:10003000DD0C000800000000A73400089944000807
:1000400077020008770200087702000877020008AC
:10005000770200087702000877020008770200089C
:10006000770200087702000877020008770200088C
:10007000770200087702000877020008770200087C
:10008000770200087702000877020008770200086C
:10009000770200087702000877020008A90D00081F
:1000A000770200087702000877020008770200084C
:1000B000770200087702000877020008770200083C
:1000C000770200087702000877020008770200082C
:1000D000770200087702000877020008770200081C
:1000E000770200087702000877020008770200080C
:1000F00077020008770200087702000877020008FC
:1001000077020008770200087702000877020008EB
:1001100077020008770200087702000877020008DB
:1001200077020008770200087702000877020008CB
:1001300077020008770200087702000877020008BB
:1001400077020008770200087702000877020008AB
:10015000770200087702000877020008770200089B
:10016000770200087702000877020008770200088B
:1001700077020008770200087702000800000000FC
:10018000770200087702000877020008770200086B
:10019000770200087702000877020008770200085B
:1001A00077020008770200087702000800F002F8E2
:1001B00000F044F80AA090E8000C82448344AAF1BD
:1001C0000107DA4501D100F039F8AFF2090EBAE8BB
:1001D0000F0013F0010F18BFFB1A43F0010318477B
:1001E0007876000098760000103A24BF78C878C16D
:1001F000FAD8520724BF30C830C144BF04680C602D
:10020000704700000023002400250026103A28BF74
:1002100078C1FBD8520728BF30C148BF0B60704778
:10022000782900F09F80732900F0978200207047A2
:100230001FB505F094F81FBD10B510BD00F09AFA77
:100240001146FFF7F5FF04F0FFFC00F0B8FA03B425
:10025000FFF7F2FF03BC00F0BBFA0000094880473B
:1002600009480047FEE7FEE7FEE7FEE7FEE7FEE798
:10027000FEE7FEE7FEE7FEE704480549054A064BB0
:10028000704700009D440008AD010008F8010020FF
:10029000F8070020F8030020F80300200FB41CB575
:1002A000074B06AA7B4469460090059800F02BFA9C
:1002B0000020694600F03AFA1CBC5DF814FB00000F
:1002C0008504000070B5044685690068C10601D543
:1002D000302600E02026C00707D070BDD4E90121F8
:1002E00030469047206A401C20626D1EF6D570BDD6
:1002F00070B5044685690078C00707D170BDD4E9A0
:10030000012120209047206A401C20626D1EF6D5F6
:1003100070BD70B50C460546012A05D028788006C8
:1003200000D5EA69002302E0012305E05B1C93424B
:1003300002D2E05C0028F9D1A869E618C01AA861C9
:10034000286A184428622846FFF7BCFF04E0D5E974
:10035000012114F8010B9047B442F8D32846FFF767
:10036000C7FF70BD70B504460D4621461068AFF357
:1003700000802188090502D50F4A7A4402E00E4A1E
:100380007A440E32002104F1240305E000F00F0648
:100390000009965D5E54491C0028F7D1207800239F
:1003A000000704D5702D02D009B102231132204676
:1003B000BDE8704000F048B9687400002DE9F05FB6
:1003C000894604464FF0000ADFF824B1FB44C0F828
:1003D00020A02046E168884700287DD0252806D047
:1003E000D4E901219047206A401C2062F1E70025F2
:1003F0005F462046E16888472028064607DB312E05
:1004000005D2B81910F8200C08B10543F1E7A80788
:1004100001D525F00405C4F81CA00027C4F818A0D5
:100420002A2E09D0304604F093FB38B304EB87083A
:10043000303EC8F8186019E059F8041B204604EB58
:1004400087029161E1688847012F064618D1E0696B
:10045000002820DA25F020051DE0D8F8180000EB70
:10046000800006EB40003038C8F818002046E168EC
:100470008847064604F06CFB0028EED1012F0AD015
:100480002E2E08D12046E16888477F1C0646022FA1
:1004900045F02005C4DBA069002803DA404245F09E
:1004A0000105A061E80701D025F01005A6B1A6F16D
:1004B0004100192802D8203645F400654A463146E5
:1004C000204625604D46FFF7ABFE60B1012807D0FE
:1004D000ED1D25F0070000E007E000F1080978E7CE
:1004E00005F1040975E730467AE7206ABDE8F09F18
:1004F0003E74000040EA0103024630B59B0710D16C
:100500004FF0013400E008C208C91D1B9D4315EAE5
:10051000C41FF8D013F0FF0102F8011B0DD01B0A15
:10052000F8E711F8013B002B02F8013B05D011F868
:10053000013B002B02F8013BF3D130BD10B5431C49
:1005400002E010F8011B71B18107FAD14FF00132BE
:1005500002C88C1A8C4314EAC211F9D0C01A0A06D8
:1005600003D0C01E10BDC01A10BD0A0401D0801EE9
:1005700010BD0902FCD0401E10BD10B5203AC0F0DD
:100580000B80B1E81850203AA0E81850B1E8185094
:10059000A0E81850BFF4F5AF5FEA027C24BFB1E8D1
:1005A0001850A0E8185044BF18C918C0BDE8104042
:1005B0005FEA827C24BF51F8043B40F8043B08BF4B
:1005C0007047D20728BF31F8023B48BF11F8012B12
:1005D00028BF20F8023B48BF00F8012B70474FF0BE
:1005E000000200B5134694469646203922BFA0E883
:1005F0000C50A0E80C50B1F12001BFF4F7AF09078F
:1006000028BFA0E80C5048BF0CC05DF804EB89007F
:1006100028BF40F8042B08BF704748BF20F8022BC2
:1006200011F0804F18BF00F8012B704770477047DA
:10063000704710B500F096F8006810BD10B504467C
:1006400000F090F8046010BD2DE9F0470D46994682
:100650009246044600F124080168880604D5E06942
:1006600021F01001216000E00120A84201DD471BBC
:1006700000E00027A1697A1902EB0900081AA061BD
:100680002078C00602D42046FFF71CFE002608E0B2
:10069000D4E901211AF806009047206A401C761C14
:1006A00020624E45F4DB2078C0060AD52046FFF7CD
:1006B00009FE06E0D4E9012130209047206A401C61
:1006C0002062381EA7F10107F4DC07E0D4E901211C
:1006D00018F805009047206A401C2062281EA5F1EA
:1006E0000105F3DC2046FFF703FE2078000602D563
:1006F0000220BDE8F0870120FBE7000001694A1CE9
:1007000002610878704700B58FB0CDE90131002152
:10071000059105497944CDE9031011466846FFF774
:100720004DFE0FB000BD0000E5FFFFFF0A6802F8B4
:10073000010B0A60704710B5436913B1AFF3008035
:1007400001E0FFF7E6FD012010BD127800F1240161
:100750000A7000224A700122EDE711684FF0FF3263
:10076000E9E7000000487047940100200048704706
:10077000940100207546FFF7F9FFAE460500694673
:10078000534620F00700854618B020B5FFF774FDEA
:10079000BDE820404FF000064FF000074FF0000882
:1007A0004FF0000B21F00701AC46ACE8C009ACE803
:1007B000C009ACE8C009ACE8C0098D46704710B567
:1007C0000446AFF300802046BDE81040FFF73FBD70
:1007D00001491820ABBEFEE7260002007047FEE785
:1007E00010B5124C00221021204601F0FAF82068C2
:1007F00020F440602060206840F480602060002287
:100800002021204601F0EDF8022004F0C1F9012278
:100810001021204601F0E5F8022004F0B9F9204645
:100820000022BDE81040102101F0DBB8001C02409E
:100830000B4800B5016887B041F080010160006895
:10084000694600F080000590302000900120019062
:10085000029002200390034800F0D0FF07B000BDD3
:1008600030380240001C024010B5124C002210210A
:10087000204601F0B6F8206820F44060206020682F
:1008800040F48060206001222021204601F0A9F878
:10089000022004F07DF901221021204601F0A1F888
:1008A000022004F075F920460022BDE81040102116
:1008B00001F097B8001C02402DE9F041194E07469F
:1008C0000024306820F440603060306830601E20C2
:1008D00004F05EF9002500221021304601F081F875
:1008E000022004F055F901221021304601F079F878
:1008F0006006040E2021304601F06EF808B1641C39
:10090000E4B2022004F044F96D1CEDB2082DE2D3EC
:1009100027B1FFF765FF2046BDE8F081FFF7A4FF90
:10092000F9E70000001C024070B5194E054630463C
:10093000316821F440613160316841F48061316097
:100940000022102101F04DF80024280601D50122D3
:1009500000E000222021304601F043F86806050E31
:10096000022004F015F901221021304601F039F877
:10097000022004F00DF900221021304601F031F878
:10098000022004F005F9641CE4B2082CDDD370BD2C
:10099000001C024010B5124C206820F4406020601A
:1009A000206840F48060206001222021204601F070
:1009B00018F801221021204601F013F81E2004F03F
:1009C000E7F800222021204601F00BF8022004F075
:1009D000DFF820460022BDE81040102101F001B8E8
:1009E000001C024010B5124C206820F440602060CA
:1009F000206840F48060206000221021204600F032
:100A0000F0FF00222021204600F0EBFF1E2004F022
:100A1000BFF801221021204600F0E3FF022004F07D
:100A2000B7F820460122BDE81040202100F0D9BFD0
:100A3000001C024070B5154D0024286820F4406069
:100A400028602868286001222021284600F0C9FF7C
:100A500001221021284600F0C4FF07E0641CE4B224
:100A6000FA2C03D9FFF7BEFF012070BD022004F06D
:100A70008FF82021284600F0AFFF0028EED1002299
:100A80001021284600F0ADFF002070BD001C024080
:100A9000FEB51BA000F024F9002510241DA08DE850
:100AA00031004FF6E07633461F221E210A2003F064
:100AB0003DFC21A08DE8310033461F2232210A205F
:100AC00003F034FC182022A1CDE9001001243346A4
:100AD0001F22029446210A2003F028FC202022A194
:100AE000CDE9001033461F22029464210A2003F04E
:100AF0001DFCBDE8FE404FF4966004F03BB80000DA
:100B0000B2E2CAD4373AD6D0CEC4CFD4CABEB2E24B
:100B1000CAD4000031365831363AC8ABB6AFB5E763
:100B2000D7D3BCBCCAF5D3D0CFDEB9ABCBBEBBB636
:100B3000D3ADC4FA0000000031365831363A57655B
:100B40006C636F6D65C8ABB6AFB5E7D7D300000077
:100B500032345832343AC9EEDBDACAD0D6D0CEC4F9
:100B6000B2E2CAD40000000033325833323AD7D64A
:100B7000CCE5B2E2CAD40000002788B03D4602F0BE
:100B8000ABFB47A000F0ACF84E480124009400886D
:100B90004DA3183880B21022002102F069FB4B49A6
:100BA0004FF47840DFF828A1A34602AE08606D1C20
:100BB000EDB200F0EBFA00249AF814100BFA04F0EE
:100BC000534601424CD03F4933F8142008888242F2
:100BD0004AD20AEB4409B1F802C0B9F80A306345B9
:100BE00042D236F82480A8F57F4CBCF1FF0C05D129
:100BF00006EB840C26F82420ACF80230183888461E
:100C0000824216DD102B14D2012D2DD824A000F025
:100C100067F8CDF800B0B8F800002BA3183880B200
:100C20001022002102F024FB28494FF4784008608C
:100C30000CE02849022051F82410CDE9000106EB10
:100C40008400418836F8240001F09CFF3AF8140033
:100C500026F8240006EB8401B9F80A00488003E076
:100C60004FF6FF7026F82400641CE4B2052CA3D3D1
:100C7000052003F07FFF7F1CFFB21E20B7FBF0F1C1
:100C800000FB117030B91449D1F8B00230B1002026
:100C9000C1F8B002042D8AD9002588E70120F7E7C2
:100CA000B2E2CAD431303AB5E7C8DD546F75636833
:100CB000B2E2CAD428D6A7B3D635B5E3B4A5C3FEED
:100CC00029202000600000205253540058000020CA
:100CD00070000020A87700080080414270470000A3
:100CE0002DE9FE4380464FF6FF75284601F0D0FE01
:100CF000194C1F26009620880021401E82B2142322
:100D0000084601F0E5FF00966188481E83B22088FE
:100D10001439401E82B289B2002001F0D9FF0F4879
:100D2000012610270560CDF80080CDE901761F234C
:100D30002A460221002000F02BFD09A0CDE9000782
:100D4000029660881F23123881B22A46002000F0E4
:100D50001FFDBDE8FE830000600000205800002059
:100D6000687474703A2F2F7777772E6C6364776985
:100D70006B692E636F6D00002DE9F0479846DDE941
:100D8000085491460E46074601F0ACFE23462A461B
:100D90004146484601F0A6FE33463A4621462846DB
:100DA000BDE8F04701F09EBE802000F01BBD0000B2
:100DB000FEB524A0FFF794FF0C2527A0CDE9000580
:100DC00000244FF6E0773B461F221E2102940A20A2
:100DD00003F0ACFA01262BA08DE861003B461F22F0
:100DE0002D210A2003F0A2FA31A0CDE900053B46EF
:100DF0001F223C2102940A2003F098FA102534A007
:100E0000CDE900053B461F22502102940A2003F041
:100E10008DFA3AA08DE861003B461F2264210A202A
:100E200003F084FA40A0CDE900053B461F2278215B
:100E300002940A2003F07AFABDE8FE404FF496606F
:100E400003F098BEB2E2CAD4363AD3A2CEC4CFD40D
:100E5000CABEB2E2CAD40000365831323A61626387
:100E60006465666768696A6B6C6D6E6F70717273CA
:100E70007475767778797A3031323334353637385D
:100E800039000000365831323A4142434445464722
:100E900048494A4B4C4D4E4F50515253545556575A
:100EA00058595A303132333435363738390000002A
:100EB000365831323A7E21402324255E262A2829BD
:100EC0005F2B7B7D3A3C3E3F2F7C2D2B2E0000007C
:100ED000385831363A6162636465666768696A6B7F
:100EE0006C6D6E6F707172737475767778797A3015
:100EF000313233343536373839000000385831361E
:100F00003A4142434445464748494A4B4C4D4E4F6F
:100F1000505152535455565758595A303132333430
:100F20003536373839000000385831363A7E21409E
:100F30002324255E262A28295F2B7B7D3A3C3E3FD1
:100F40002F7C2D2B2E00000030B5D1E901231A4350
:100F5000D1E9033423431A434B690D681A438B6963
:100F60001A43D1E90734012D496A05686FF30E056C
:100F700005D01A4322430A432A43026008E0234370
:100F800029430B43416803606FF30E010A4342603B
:100F9000002030BD426942EA4101416100207047B2
:100FA000F8B514460546D1E9000210438A686FF08F
:100FB0001F03C96803EB421242EA41210843009033
:100FC000286100F013FD064609E0601C07D024B13B
:100FD00000F00CFD801BA04201D90320F8BDA869D8
:100FE0008006F2D40020F8BDF0B56FF00F05D1E90E
:100FF000003405EB04145B1E2E0123438C682F0381
:1010000006EB04244FEA054C23430D8A8E8ACC68F4
:10101000097E4FF07F4E07EB05450CEB06560EEBB5
:101020000161012A0CD082683F1107EB043423438D
:101030002B43334302F070420B43134383600FE0B2
:10104000C2682B430B4302F070428168134301F0E6
:1010500070422103A1F5805131431143C360816087
:101060000020F0BD70B5304888B00024016841F020
:10107000080101600068012500F0080006904FF4A7
:1010800000508DE831000220284E0390694630461A
:1010900000F0B4FBE802CDE900056946304600F0F7
:1010A000ADFBFFF7C5FB224EC6F8AC42142006F597
:1010B0002B7603F05FFD3560322003F05BFD8DF889
:1010C0001440012205A9002000F03AF9012205A9E7
:1010D000A42000F035F916208DF81400012205A98E
:1010E000802000F02DF90C208DF81400012205A9B4
:1010F000882000F025F9022205A9A12000F01AF8A5
:101100009DF81400302803D19DF81500032808D05D
:101110009DF81500012804D0022802D0012008B053
:1011200070BD0020FBE7000030380240000C024098
:10113000008041422DE9F04115460F460446FFF775
:1011400029FC7020FFF7F0FBFFF774FCE0B2FFF71B
:10115000EBFBFFF76FFCFFF71DFC7120FFF7E4FBD3
:10116000FFF768FC00246E1E09E0B44201D00120A4
:1011700000E00020FFF7A0FB3855641CE4B2AC424D
:10118000F3D3BDE8F041FFF72DBC00002DE9FC478B
:10119000674F00244FF00A093878664D401CC0B2F2
:1011A000B0FBF9F209FB1201A046387009B10A2818
:1011B00071D2012201A90220FFF7BCFF9DF80400B3
:1011C000010768D000F00F00062864D2FF2181409B
:1011D000C84340F0C000DFF8608128754FF0010A75
:1011E0000026297D0AFA04F001427AD053480422ED
:1011F000694630F81400FFF79DFF98F80600414655
:1012000030B101281AD002282CD003285ED143E047
:101210009DF800209DF8010002F00F02B8F80010C0
:1012200000EB0220081A25F814009DF802109DF822
:10123000030001F00F0100EB012028E09DF80010F1
:101240009DF8010001F00F0100EB012005EB4401C6
:1012500048819DF802109DF8030001F00F0100EB9A
:10126000012031E09DF800009DF8012000F00F0002
:1012700002EB002025F814009DF802209DF80300E1
:1012800002F00F02B8F8021000EB0220081A05EB7A
:10129000440148811AE032E09DF800209DF80100E9
:1012A00002F00F0200EB02204A88101A05EB4402FC
:1012B00050819DF802209DF8030002F00F02B8F85B
:1012C000001000EB0220081A25F814009DF8000019
:1012D0000821B1EB101F04D005EB4400468125F82E
:1012E0001460641CE4B2052CFFF47BAF29884FF036
:1012F000010819B9688908B98DF804603E709DF835
:101300000400C0060CD1287D010602D520F0800023
:1013100005E04FF6FF712980698100F0E000287533
:101320003878F02801D987F800904046BDE8FC875E
:10133000520000207000002060000020DC770008D0
:101340002DE9F04115460E4604460027FFF722FB23
:101350007020FFF7E9FAFFF76DFBE0B2FFF7E4FA60
:10136000FFF768FB002408E0305DFFF7DDFAFFF7C8
:1013700061FB070003D1641CE4B2AC42F4D3FFF775
:1013800031FB3846BDE8F0812DE9FF4F87B00027DB
:10139000DDE91423BDF82840B846A14208D90D461E
:1013A00021460446BDF82400ADF82850ADF824408D
:1013B000BDF828509CB2A54207D9ADF82840144684
:1013C000BDF824202B46ADF82440BDF82840A142AA
:1013D00008D90D4621460446BDF82400ADF8285032
:1013E000ADF824401FFA83F90E46494521D1BDF8D6
:1013F0002410ADF80400814201D2084602E001D970
:10140000ADF8041091B2814201D2084605E0BDF862
:101410000420914201D9ADF804103C493346BDF88F
:10142000042009680091194601F052FC0BB0BDE898
:10143000F08FBDF824300546581BBDF828100690E3
:10144000881B92B20590D01A0290A9EB0100A2EB82
:10145000050AA9EB060B0490494501D1039102E06E
:10146000491E88B2039034461FE098FBFBF10598B3
:10147000294497FBF0F01FFA81FCADF804C0284422
:10148000069980B20F44D044604503D901466046B6
:10149000ADF804101D492346BDF8042009680091E9
:1014A000194601F015FC641CA4B203988442DCD9EF
:1014B000BDF82800271A02984743A61B06FB0AF628
:1014C00021E00498BDF8241097FBF0F0084496FB47
:1014D000FBF129441FFA81FC029980B2ADF804C0E7
:1014E0000F445644604503D901466046ADF80410E8
:1014F00006492346BDF8042009680091194601F009
:10150000E7FB641CA4B24C45DBD98FE758000020F0
:101510002DE9FF4F83B004460646462088464FF02B
:10152000000A4FF0800B01902549109A0AEB0A102F
:1015300011F810301278934232D101EB4000009044
:1015400041781098407881422AD1002700980025E0
:1015500000EB0709119848B11A48059A026099F8FA
:1015600002102BFA05F0014209D10CE099F80210A3
:101570002BFA05F0014201D0059A00E0069A414697
:10158000204601F073FB641CA4B2A01B102811D0EC
:101590006D1CEDB2082DDDD37F1CFFB2202FD5D3FB
:1015A0000AF1010001991FFA80FA8A45BCD307B0FD
:1015B000BDE8F08F08F1010034461FFA80F8EBE730
:1015C000CC5D0008580000202DE9FF4F83B0044691
:1015D0000646072001900020884682464FF0800B87
:1015E00000EB800101EB4A102449109A11F81030E9
:1015F0001278934232D101EB40000090417810986C
:10160000407881422AD100270098002500EB070985
:10161000119848B11A48059A026099F802102BFAFD
:1016200005F0014209D10CE099F802102BFA05F0FF
:10163000014201D0059A00E0069A4146204601F099
:1016400015FB641CA4B2A01B182811D06D1CEDB2B0
:10165000082DDDD37F1CFFB2482FD5D30AF101003E
:1016600080B2019982468842BAD307B0BDE8F08FB4
:1016700008F1010034461FFA80F8EBE7186700080C
:10168000580000202DE9FF4F83B004460646042091
:1016900088464FF0000A4FF0800B01902549109AC0
:1016A0000AEB8A1011F810301278934232D101EB14
:1016B0004000009041781098407881422AD100275C
:1016C0000098002500EB0709119848B11A48059ABF
:1016D000026099F802102BFA05F0014209D10CE0E2
:1016E00099F802102BFA05F0014201D0059A00E0AA
:1016F000069A4146204601F0B9FA641CA4B2A01B28
:10170000202811D06D1CEDB2082DDDD37F1CFFB257
:10171000802FD5D30AF1010001991FFA80FA8A457A
:10172000BCD307B0BDE8F08F08F1010034461FFAC2
:1017300080F8EBE71E6900085800002001F096BA17
:101740002DE9F04716460F460546002402FB03F933
:10175000DDF8208017E008EB440118F81400497800
:1017600040EA01223946284601F080FA6D1C601CCF
:1017700090FBF6F106FB1100ADB218B9A81B7F1C57
:1017800085B2BFB2641CA145E5DCBDE8F08700006E
:101790002DE9FE431F46DDE90A469046894620466C
:1017A0000C9DFEF7CBFE0A4980B240420988CDE984
:1017B000004601EBC00000EBD070C0F34F003B4689
:1017C00042464946029502F0B1FDBDE8FE830000A5
:1017D00060000020802802D1014901200870704774
:1017E00051000020044910B50A68024202D0086086
:1017F000FFF7F0FF10BD0000143C01402DE9F84F49
:10180000DFF8A091002209F1040A0AF1040B4FF05D
:101810000F080BF1040E01260B6896403340B342CB
:1018200071D14C68022C01D0122C11D1D40800EBDC
:1018300084073D6A5407E40E08FA04FC25EA0C0507
:10184000D1F810C00CFA04FC4CEA050CC7F820C013
:1018500007685400032591F804C0A5400CF0030C60
:10186000AF430CFA04FC4CEA070CC0F800C04F6808
:10187000012F05D0022F03D0112F01D0122F11D12B
:101880008768D1F80CC0AF430CFA04FC4CEA070C93
:10189000C0F808C04768B7430E79C6F300169640F3
:1018A0003E434660C668AE438D68A5403543C5607B
:1018B0004C68E4006FD53C4C256845F480452560B4
:1018C000246822F0030504F480440094374C2E1958
:1018D000D6F808789407250F08FA05F4A743344C86
:1018E000A04201D100242EE0324CA04201D10124BB
:1018F00029E0314CA04201D1022424E02F4CA04227
:1019000002D103241FE046E02D4CA04201D1042463
:1019100019E02C4CA04201D1052414E02A4CA0422D
:1019200001D106240FE0294CA04201D107240AE08E
:10193000274CA04201D1082405E0264CA04201D149
:10194000092400E00A24AC403C43C6F80848D9F812
:1019500000404D464E689C43F60300D51C432C6066
:10196000DAF8004055464E689C43B60300D51C4348
:101970002C60DBF800405D464E689C43F60200D5C3
:101980001C432C60DEF8004075464E689C43B6024E
:1019900000D51C432C60521C102AFFF43CAFBDE85C
:1019A000F88F0000003C0140443802400030014004
:1019B000000002400004024000080240000C024007
:1019C000001002400014024000180240001C0240B7
:1019D00000200240002402400069084000D001209D
:1019E00070470AB1816170470904FBE7014800684C
:1019F000704700004800002002480168491C01604F
:101A000070470000480000200B4810B5016841F401
:101A100000710160016841F480610160016841F476
:101A200080710160052000F00FFA0F2000F006F829
:101A300000F0E6F9002010BD003C024010B504465D
:101A400000F0B0FC4FF47A71B0FBF1F000F05EFFF3
:101A500000222146501E00F0D7F9002010BD2DE9CC
:101A6000F041044690F8A00015460F4601281DD00D
:101A7000012684F8A060022084F8A10005EB85000F
:101A800000EBC50004EB800034223830FEF775FD12
:101A90002A463946204601F043FC2068466284F815
:101AA000A160002084F8A000BDE8F0810220FBE7DF
:101AB00070B5040004D094F8A100002510B106E030
:101AC000012070BD84F8A050204600F06FF802207D
:101AD00084F8A1002068816921F070418161D4E916
:101AE00001100143D4E903021043014320688269D5
:101AF00011438161206882682B490A408260A08A74
:101B0000020420688368A669334313438360206816
:101B1000C2680A40C260A08B02042068C368266ABB
:101B200033431343C360206802690A400261A08CFA
:101B3000020420680369A66A3343134303612068E3
:101B400042690A404261A08D010420684269236B0A
:101B50001A430A43426194F83500020294F83600B1
:101B600001042068C36A03F07F43C3622068C36A2C
:101B700094F83460114333430B43C3622068416BD4
:101B800041F0040141632068416B41F0020141636F
:101B90002068816941F001018161C4F8A4500120ED
:101BA00084F8A100002070BD00F800F02DE9F04796
:101BB0005F4886B0016841F080610160006800F014
:101BC000806005905A481438016841F400010160B2
:101BD000016801F400010591016841F00101016013
:101BE000016801F001010591016841F00201016005
:101BF000016801F002010591016841F004010160F2
:101C0000016801F004010591016841F008010160DB
:101C1000016801F008010591016841F010010160BF
:101C2000016801F010010591016841F02001016097
:101C3000016801F020010591016841F04001016057
:101C4000016801F040010591016841F080010160E7
:101C5000016801F080010591016841F48071016023
:101C60000068012400F4807005909020CDE9000404
:101C7000DFF8C0A0032569465046CDE90245FFF7CD
:101C8000BDFD0227CDE9005702940920CDE903509C
:101C9000DFF8A48069464046FFF7B0FDDFF89C906E
:101CA000A602694648460096FFF7A8FD41F60800DF
:101CB000CDE9000702940E20CDE903506946204883
:101CC000FFF79CFD2802009069464046FFF796FD0D
:101CD0008020009069461B48FFF790FD402000904F
:101CE00069465046FFF78AFD702000906946164805
:101CF000FFF784FD694615480096FFF77FFD4FF416
:101D0000C650009069464846FFF778FD4AF20C102D
:101D1000009069460E48FFF771FD40F21560009093
:101D200069460C48FFF76AFD06B0BDE8F087000081
:101D300044380240000C02400004024000180240F7
:101D4000000002400008024000100240001402405F
:101D5000001C02400020024070B5044690F8A0002C
:101D60000E46012820D0012584F8A050022084F8D6
:101D7000A10003EB830000EBC30004EB800141F8FA
:101D8000386F886A3044C1E90102C86A1044C860EB
:101D90001A46204601F0C4FA2068456284F8A15032
:101DA000002084F8A00070BD022070BD2DE9F04134
:101DB000044690F8A0000F4601281FD0012584F8A2
:101DC000A050022084F8A10003EB830000EBC300C5
:101DD00004EB80010026E1E90E672046C1E90262BA
:101DE000C1E90A721A4601F09BFA2068456284F83C
:101DF000A15084F8A0600020BDE8F0810220FBE73C
:101E000008B50020009008BDF0B40E4B1B68C3F36A
:101E10000223C3F10704042C00D904241D1D072D3F
:101E200001D2002300E0DB1E012606FA04F56D1E38
:101E30000D409D409E40761E164045EA0601F0BCCE
:101E400001F021BB0CED00E0064A00F0070110682C
:101E50004FF6FF03184040EA012003490843106091
:101E6000704700000CED00E00000FA052DE9F84392
:101E70001D48016841F0805101600068012700F0B1
:101E800080500090380490FAA0F0DFF86080B0FA3B
:101E900080F048F82070FFF7A9FD04464FF47A75EA
:101EA000134E04E0FFF7A2FD001BA84213D8706890
:101EB000C003F7D54FF4003090FAA0F0B0FA80F0EC
:101EC00048F82070FFF792FD044607E0FFF78EFD0B
:101ED000001BA84202D90320BDE8F8837068800384
:101EE000F4D50020F8E700004038024000000E4220
:101EF000007000402DE9F84F04460068DFF8788252
:101F00009E4DC10747F6C07A4FF0E0464FF0010BF7
:101F10004FF0000901D180074BD59949C1F868906D
:101F2000FFF764FD074604E0FFF760FDC01B64286F
:101F30007ED828680001F7D420789249C0070DD0D8
:101F40009AFAAAF26068B2FA82F2904096FAA6F380
:101F5000A268B3FA83F39A401043086020788007A0
:101F600018D5086896FAA6F200F0E040B2FA82F2BC
:101F7000D0406268237B920142EA036242EA007029
:101F80000860D8F80010E26921F01F01521E1143C9
:101F9000C8F800107A49C1F868B0FFF727FD074676
:101FA00004E0FFF723FDC01B642841D82868000126
:101FB000F7D52068410701D4000776D57049C1F8EC
:101FC0007090FFF713FD074604E0FFF70FFDC01BFD
:101FD00064282DD82868C0438000F6D520786A4F41
:101FE00040074FF0706C29D5386896FAA6F100F0DA
:101FF000E040B1FA81F1C8409AFAAAF22169B2FA36
:1020000082F291409CFAACF36269B3FA83F39A408E
:10201000114396FAA6F2B2FA82F290400143396077
:10202000D8F800106FF0FF0321F4F851226A00E0A5
:1020300079E003EB02221143C8F800102078000772
:1020400023D538689CFAACF100F07060B1FA81F1E8
:10205000C8409AFAAAF22169B2FA82F291409CFA37
:10206000ACF2B2FA82F29040014396FAA6F2A0696D
:10207000B2FA82F2904001433960D8F80010626AE7
:1020800021F440311143C8F800103D49C1F870B047
:10209000FFF7ACFC064604E0FFF7A8FC801B6428B1
:1020A00041D82868C0438000F6D42078800651D5F6
:1020B00032484F464030016841F08051016000686D
:1020C000324E00F080500090306840F480703060F4
:1020D000FFF78CFC054604E0FFF788FC401B6428F2
:1020E00021D83068C005F7D5264E143E3068218DC2
:1020F00000F4407001F4407188422BD030682449CC
:1021000020F44070C1F800B00F603060800710D537
:10211000FFF76CFC054641F2883707E0FFF766FCE5
:10212000401BB84202D90320BDE8F88F3068800711
:10213000F4D5A06A1149C0F301220831032A13D053
:10214000086820F4F81008603068218DC1F30B0195
:10215000084330602078C00604D50E4994F82C005E
:10216000C1F8E0010020DFE70A680B4B22F4F81207
:10217000184002430A60E7E78C380240003802400A
:102180000000474284380240883802400070004016
:10219000400E474200104742FFFCFF0F2DE9F05F61
:1021A000DFF8F8A104460F46DAF80000DFF8F08106
:1021B00000F00F02C8B27A49814641F2883608F130
:1021C0000808BA4261D202468AF80020DAF8000014
:1021D00000F00F00B8427DD12078800707D5D8F8ED
:1021E0000020A36822F0F0021A43C8F800202078EB
:1021F000C0072DD0606801281AD002281BD0032800
:1022000019D009688907002964DAD8F80010474610
:1022100021F003010143C8F80010FFF7E7FB054672
:10222000606801280FD0022818D003281CD027E0AE
:1022300009688903E7E709688901E4E7FFF7D6FB46
:10224000401BB04258D83868C0F381000128F5D14E
:1022500088E0FFF7CBFB401BB0424DD83868C0F395
:1022600081000228F5D17DE03868FFF7BFFB401BF5
:10227000B042F9D940E0FFF7B9FB401BB0423BD870
:10228000386810F00C0FF6D16CE02078800707D585
:10229000D8F80020A36822F0F0021A43C8F8002002
:1022A0002078C0074CD06068012828D0022829D0A7
:1022B000032827D009688907002949DAD8F80020BF
:1022C00022F003020243C8F80020FFF78FFB054607
:1022D000606800E03CE001281DD0022829D00328D6
:1022E00038D0B3464646306810F00C0F28D0FFF7C0
:1022F0007DFB411B5945F6D90320BDE8F09F0968D5
:102300008903D9E709688901D6E7FFF76FFB411B0D
:10231000594502D9F0E7B34646463068C0F381001C
:102320000128F2D10CE0FFF761FB411B594502D9AE
:10233000E2E7B34646463068C0F381000228F2D196
:102340008AF80090DAF8000000F00F00B84209D0D7
:102350000120D2E744462068FFF748FB401BB0420B
:10236000F9D9C9E72078400707D5D8F80010E26806
:1023700021F4E0511143C8F800102078000708D577
:10238000D8F80010226921F4604141EAC201C8F87E
:1023900000100F20FFF752FB0020AEE7003C024088
:1023A0000038024010B500F017F808490968F0221B
:1023B00092FAA2F201F0F001B2FA82F2D140044A9C
:1023C000515CC8400349086010BD00000838024055
:1023D000CC7700083400002030B51948006810F0B0
:1023E0000C01184812D0184C04290ED008290DD120
:1023F000134A121F1168136801F03F015D0247F68E
:10240000C07304D5B4FBF1F003E0204630BDB0FB4F
:10241000F1F01168194093FAA3F3B3FA83F3D940AA
:10242000484311684FF4403292FAA2F201F440316D
:10243000B2FA82F2D140491C4900B0FBF1F030BD44
:10244000083802400024F40040787D012DE9F84F5F
:1024500004460078DFF8FCA2BF4DC0074FF000062D
:1024600048D0DAF800105046C1F38101012908D0A4
:102470000068C0F3810002280AD1281D00684002CC
:1024800006D52868800335D56068002873D031E010
:10249000DFF8C49209F1020989F80060FFF7A6FA93
:1024A000074641F2883804E0FFF7A0FAC11B414516
:1024B0007AD828688003F7D4207989F8000060680A
:1024C00060B1FFF793FA074604E0FFF78FFAC11BEC
:1024D0004145EDD828688003F7D50BE0FFF786FA71
:1024E000074604E0FFF782FAC11B4145E0D828689F
:1024F0008003F7D42078DFF86492800744D5DAF8B7
:102500000010504611F00C0F4FF0F80809D0006889
:10251000C0F3810002280BD18E48001F00684002E2
:1025200006D42868800714D5E068012823D110E07C
:10253000E068D0B10120C9F80000FFF757FA07465C
:1025400004E0FFF753FAC01B6428B1D8286880075D
:10255000F7D5286898FAA8F22169B2FA82F220F039
:10256000F8009140084328600EE0C9F80060FFF7CA
:102570003DFA074605E0EAE0FFF738FAC01B642899
:1025800012D828688007F7D42078000725D5DFF80F
:10259000C4817348616908F16C0881B1012101604F
:1025A000FFF724FA074605E07EE0FFF71FFAC01B9D
:1025B000642879D8D8F800008007F6D50DE00660C9
:1025C000FFF714FA074604E0FFF710FAC01B64286F
:1025D0006AD8D8F800008007F6D42078400753D591
:1025E0005C483830016841F0805101600068DFF8D4
:1025F000748100F080500090D8F8001041F4807190
:10260000C8F80010FFF7F2F9074604E0FFF7EEF90B
:10261000C01B642848D8D8F80000C005F6D5DFF8FC
:1026200034B10BF1680B8BF80060FFF7DFF9074658
:1026300041F2883804E0FFF7D9F9C11B41457ED843
:10264000DBF800008007F6D4207A8BF80000A06841
:1026500068B1FFF7CBF9074604E0FFF7C7F9C11BE4
:1026600041456CD8DBF800008007F6D50CE0FFF799
:10267000BDF9074604E0FFF7B9F9C11B41455ED833
:10268000DBF800008007F6D4A069E8B3DAF80010A0
:10269000C1F3810102295AD0022806D0C9F860602E
:1026A000FFF7A4F904464DE049E04F46C9F86060E1
:1026B000FFF79CF9064604E0FFF798F9801B6428B1
:1026C0003DD828688001F7D4D4E90701084347F6CC
:1026D000C07191FAA1F1626AB1FA81F18A40A16AEE
:1026E0004FF0FF3303EB51014FF4403393FAA3F360
:1026F000B3FA83F399400A4310434FF0706292FAA1
:10270000A2F2B2FA82F200E01FE0E16A91400843CF
:102710001049091F086001203866FFF767F9044671
:1027200004E0FFF763F9001B642808D828688001DB
:10273000F7D50AE0FFF75AF9001B642802D90320F5
:10274000BDE8F88F28688001F4D40020F8E7012064
:10275000F6E7000008380240003802400000474217
:10276000800E47420070004070B50D46040003D053
:1027700094F82C0010B107E0012070BD002084F80F
:102780002D00204600F012F8022084F82C00211DB4
:102790002068FEF7D9FBD4E900022946FEF724FCA5
:1027A000012084F82C00002070BD0000364800B5E0
:1027B000016887B041F001010160006800F001008C
:1027C000059031480838016841F004010160016852
:1027D00001F004010591016841F008010160016800
:1027E00001F008010591016841F0100101600168E4
:1027F00001F010010591016841F0200101600168BC
:1028000001F020010591016841F04001016001687B
:1028100001F040010591016841F08001016000680C
:10282000022100F0800005900120CDE90001029016
:10283000032003900C20049069461448FEF7DEFF45
:102840004CF20370009069461148FEF7D7FF4FF62F
:102850008370009069460F48FEF7D0FF4FF63F00A7
:10286000009069460C48FEF7C9FF48F2331000900B
:1028700069460A48FEF7C2FFC02000906946084832
:10288000FEF7BCFF07B000BD383802400008024028
:10289000000C0240001002400014024000180240E8
:1028A000001C024010B5044690F82C00022809D004
:1028B000022084F82C002068FEF76CFB012084F8CD
:1028C0002C00002010BD70B5044690F82C000D4679
:1028D00002280CD0022084F82C002068FEF760FB50
:1028E0002868022804D0012084F82C00002070BD44
:1028F0000520F9E74FF0E0210428086903D020F013
:1029000004000861704740F00400FAE710B5401E6B
:10291000B0F1807F01D3012010BD4FF0E024606151
:102920000F21601700F0AFFD0020A061072020619B
:10293000002010BDFEE7000070B51B4886B00025E2
:10294000016841F001010160016801F00101059198
:10295000016841F004010160016801F00401059182
:10296000016841F0800101600068032400F08000EC
:10297000059002200126CDE90204CDE900656946F3
:102980000A48FEF73BFF700303948DE86100694637
:102990000748FEF733FF0C20009069460548FEF714
:1029A0002DFF06B070BD000030380240000002402C
:1029B00000080240001C02402DE9F0470126304C7F
:1029C0007703DFF8C080DFF8C090304D01281DD0BC
:1029D0002078A0B108212846FEF7FEFFC0B10421EF
:1029E0002846FEF7F9FF98B139464046FEF7F4FF56
:1029F00070B101214846FEF7EFFF012808D00821F9
:102A00002846FEF7E9FF012826D037E02670E1E7E7
:102A10000A2002F0AFF80020207008212846FEF7B7
:102A2000DBFF80B104212846FEF7D6FF70B139469E
:102A30004046FEF7D1FF58B101214846FEF7CCFFD2
:102A4000012807D01AE00120BDE8F0870220FBE74B
:102A50000320F9E70420F7E704212846FEF7BCFF2E
:102A600001280BD139464046FEF7B6FF012805D1B3
:102A700001214846FEF7B0FF00B926700020E3E7C9
:102A8000500000200008024000000240001C0240EC
:102A900008B500900548018BC08A491E8BB2401EC4
:102AA00082B20021084600F019F908BD7401002027
:102AB00000B58DB0082309920490009306916846F2
:102AC000FFF718FA002800D001200DB000BD00006B
:102AD00038B5034C2468009400F0FAF838BD0000C3
:102AE000580000202DE9FE4F0026A2EB0008824688
:102AF0005F1A701E35468946B8F1000F02DD4FF0AF
:102B0000010102E003D14FF00001019102E0C8F1A0
:102B100000080190002F02DD4FF0010002E003D118
:102B20004FF00000009002E0C7F10007009040461F
:102B3000B84501DD044600E03C46601C4FF0000B48
:102B4000029017E00E4A1FFA89F11FFA8AF0126804
:102B500000F08CF846443D44A64202DD0199361B44
:102B60008A44A54202DD00992D1B89440BF1010026
:102B70001FFA80FB02998B45E4DDBDE8FE8F000063
:102B8000580000202DE9FF5F00260E9C3546A0422C
:102B90004CD3A2424AD3A14248D3A34246D3A2EB8C
:102BA000000883465F1A701E8A46B8F1000F02DDE6
:102BB0004FF0010102E003D14FF00001029102E069
:102BC000C8F100080290002F02DD4FF0010002E082
:102BD00003D14FF00000019002E0C7F1000701901F
:102BE0004046B84501DD044600E03C46601C4FF01D
:102BF0000009039017E001200090DDE90E325146F4
:102C0000584601F0DFFF46443D44A64202DD0299EA
:102C1000361B8B44A54202DD01992D1B8A4409F124
:102C200001001FFA80F903998945E4DDBDE8FF9FA3
:102C30002DE9F0411C4615460E4607460B46FFF7A8
:102C400051FF3A46234631461046FFF74BFF2346D5
:102C50002A4619463846FFF745FF2A46234631469D
:102C6000BDE8F0411046FFF73DBF0000F0B5164B40
:102C700095B21A465E7D147D5768D369DFF84CC063
:102C8000126886B1012E13D0022E18D0032E09D15E
:102C9000791A491E02FB0121081A401E5CF8241013
:102CA00058430D52F0BD381A401E02FB0010F5E7E4
:102CB00002FB010043435CF82400C552F0BD02FB57
:102CC0000020401AE9E7000074010020680000209D
:102CD00038B5049C009400F001F838BD2DE9F84F98
:102CE000DFF8E8A09946D4469AF81580DCE9003C64
:102CF0000024DDF828B0B8F1000F09D0B8F1010FB9
:102D00000FD0B8F1020F11D0B8F1030F1DD112E0AE
:102D1000ACEB0205ACEB0002521E0E464F466D1E98
:102D200013E0174606460D464A460EE0A3EB090699
:102D300005465F1A07E09E1AACEB0102ACEB0905F1
:102D40001F1A521E6D1E761E7F1E9AF814C0DFF8E1
:102D50008080B91B5F1A58F82CC003FB0563DAF8B2
:102D60001C007F1E00FB03C31A48BFB2066846F46E
:102D700000060660006800F400000090164806682F
:102D800026F0010606604FF44036066002264663D0
:102D90000764C363F303521B03EB0141521C0A4354
:102DA0004264C0F838B0016841F0010101605A0185
:102DB00002E0641C944202D241688907F9D5816817
:102DC00041F002018160BDE8F88F0000740100202D
:102DD000680000203038024000B002402DE9FF4179
:102DE00000F0E2F84C4901264C4C8880A0F5EA41FD
:102DF0004FF48032843904D0A0F5E041163914D064
:102E000029E04FF4487020604FF4F0706060268134
:102E100066812E20A0811720E081D22020821620FA
:102E2000608203214FF4C67013E04FF4806020608D
:102E30004FF41670606014202081032161818C2181
:102E4000A181E081A02020820C20608202214FF429
:102E5000B470FFF72DFE304F0220E0610837304894
:102E600038602E482F49A8380025C0E90015856034
:102E7000C56005612289511E416161894B1E8361D4
:102E8000A3891A44531EC361E38919444B1E03628C
:102E9000D4F800C0ACF10103134443626368A3F1AA
:102EA000010E8E44C0F828E0B4F810E0F444624407
:102EB000521EC262628A1A441144491E016380F89C
:102EC000365080F8355080F83450FEF7F1FD05207B
:102ED0000421CDE90205CDE90051FF2302220020A3
:102EE000396800F023F8A088002280B20090208882
:102EF000114683B2104600F045F8012000F0E4F8D6
:102F000009482575C0F89C62C0F8906204B0681E3C
:102F1000BDE8F041FFF7BCBD600000207401002057
:102F2000000000D000680140008041422DE9F043DC
:102F30008DB0164614AA002492E88013104D009418
:102F400002942A6801926D68CDE904634FEA082370
:102F5000CDE9067303950DF1240ECDF820908EE88F
:102F6000260002468DF8324005488DF831408DF834
:102F700030C06946A838FEF772FD0DB0BDE8F08399
:102F80007401002070B51E46044603460548049DA2
:102F9000FEF7E2FE23462A463146BDE8704001486E
:102FA000FEF704BFCC000020F0B52A4887B000210E
:102FB000026842F040020260026802F0400205929C
:102FC000026842F480720260026802F48072059224
:102FD000026842F00202026000681F4F00F0020027
:102FE00005904020CDE900010120029003200390CC
:102FF00069463846FEF702FC0420184C00906946EA
:103000002046FEF7FBFB164E6515694630460095D7
:10301000FEF7F4FB40213846FEF7DEFC07460421AC
:103020002046FEF7D9FC47EA400429463046FEF721
:10303000D3FC44EA8000C0B2012804D0022805D0A5
:10304000002007B0F0BD47F28450FAE747F21600BF
:10305000F7E700003038024000180240002002402C
:1030600000040240F0B5164A0646DFF858C0557D08
:10307000147D5768D3691268002085B1012D13D0E3
:10308000022D18D0032D09D1781A401E02FB002012
:10309000801B401E5CF824105843085AF0BDB81B32
:1030A000401E02FB0010F5E702FB016043435CF8A1
:1030B0002400C05AF0BD02FB0620401AE9E70000D8
:1030C000740100206800002030B50E4C00F00303AE
:1030D00025466375A9888AB2298889B230B1022849
:1030E00004D0012805D0032803D004E0E282218324
:1030F00001E0E182228304488371E18A0180218B0F
:10310000418030BD74010020600000202DE9FF4F98
:1031100081B08146DDE90E05304A8B461099126870
:10312000203800F0FF084FF00006009229B34CE071
:103130000C2D07D02A4800EB08100024875D0BEB0C
:10314000060A15E0274808EB480100EB8100F4E788
:10315000380609EB04001FFA8AF180B201D5039A00
:1031600000E0049AFFF782FD7806070E641CE4B2C3
:10317000B4EB550FECD3761CF6B2AE42D8D326E0B2
:103180000C2D07D0164800EB08100024875D0BEBD0
:10319000060A15E0134808EB480100EB8100F4E74C
:1031A0000E48039A0260380606D509EB04001FFAA0
:1031B0008AF180B2FFF75AFD7806070E641CE4B26C
:1031C000B4EB550FECD3761CF6B2AE42D8D303491C
:1031D0000098086005B0BDE8F08F0000580000209E
:1031E000DC570008685300082DE9FF4F83B0002723
:1031F000DDF840801D4681463C46BA464FEA5806F7
:10320000DFF864B02AE0281B401EC1B20A2001F09A
:10321000A5FD0599B1FBF0F00A21B0FBF1F201FB2D
:10322000120027B9691E8C4201DA40B10127303003
:10323000C0B28DE8010506FB049080B205E02022B3
:1032400006FB04908DE8040580B20849DBF80030E5
:103250000A680499FFF75AFF641CE4B2AC42D2D367
:1032600007B0BDE8F08F00005C000020580000208F
:103270002DE9FE4F1C4616460F460546DFF84C90DA
:10328000DFF84CA0DFF84CB0DDF8308017E0B9F87B
:103290000020521EAA4217DBB9F80210491EB9429B
:1032A00012DB8DE84101DAF8003039462846DBF8B8
:1032B0000020FFF72BFF05EB560085B2641C207839
:1032C000A0F120015E29E2D9BDE8FE8F6000002058
:1032D0005C000020580000200E4810B5016886B040
:1032E00041F00801016000684FF4805400F00800CC
:1032F00005900120CDE9004002900320039069462B
:103300000548FEF77BFA012221460448FEF769FBD7
:1033100006B010BD30380240000C0240001C0240D4
:10332000F0B504688B88E568C5F30B452B441D0494
:10333000882303EBC213E65806F47046E65004688F
:103340000F68E668C6F30B46761C3E442E43E650F3
:1033500003688C89DD68C5F30A052C4425048C2498
:1033600004EBC2141E5906F470461E5103688F68A0
:10337000DE68C6F30A06761C3E442E431E51942393
:10338000046803EBC213E55825F00705E55005680E
:103390000C69EC5091F8313005681F0291F8323019
:1033A0001C040B7E1E069C2303EBC21355F803C0BE
:1033B0004FF0000C45F803C091F8305034433D43C2
:1033C00025430468E5509823046803EBC213E558CD
:1033D00025F0FF05E55005684C69EC50A023046812
:1033E00003EBC213E55840F20776B543E550D1E947
:1033F00007452C430568EC50AC23046803EBC2136B
:10340000E55844F803C005684C6AEC500B698BB36F
:10341000012B32D0042B32D0022B30D0032B2ED0F4
:10342000072B2CD00123B024056804EBC2142E59BD
:1034300006F0E0262E51D1E90065AD1B0E8D5D43EF
:103440005E43ED1C45EA064305682B51B42304682E
:1034500003EBC213E5586FF30A05E5500468C96A27
:10346000E1500068842101EBC211425842F0010290
:103470004250F0BDFFE70423D5E70323D3E702233F
:10348000D1E7FEE770470907090E002806DA00F0C9
:103490000F0000F1E02080F8141D704700F1E020DB
:1034A00080F8001470477047FEB520A0FDF718FCA7
:1034B000234C28231E211A4608460094FEF740F9A3
:1034C000102620A0CDE9000601254FF6E0773B4607
:1034D0001F224B2102952A2000F028FF28231A469C
:1034E0001E215A200094FEF72BF916A0CDE9000604
:1034F0003B461F224B210295662000F017FF282330
:103500001A461E2196200094FEF71AF90DA0CDE967
:1035100000063B461F224B210295A22000F006FF29
:10352000BDE8FE404FF4966001F024BBB2E2CAD47D
:10353000383ACDBCC6ACCFD4CABEB2E2CAD40000C1
:10354000286B0008515100002DE9FF4F81B00D4656
:10355000DDE91087464906464FF47840DDF838B07B
:10356000DDF8489008609246012442A310228C2185
:1035700028200094FFF77CFE3FA310228C217820A6
:103580000094FFF775FE3DA31022A021282000948F
:10359000FFF76EFE3AA31022A02178200094FFF7D7
:1035A00067FE38A31022B42128200094FFF760FEA4
:1035B00035A31022B42178200094FFF759FE33A3DD
:1035C0001022C82128200094FFF752FE30A31022B9
:1035D000C82178200094FFF74BFE2EA31022DC2197
:1035E00028200094FFF744FE1024042332468C2147
:1035F00040200094FFF7F8FD04232A468C219020F8
:103600000094FFF7F1FD04235246A02140200094CE
:10361000FFF7EAFD04230094A0219020049AFFF70D
:10362000E3FD04235A46B42140200094FFF7DCFD5B
:1036300000940423B42190200F9AFFF7D5FD0423B2
:103640004246C82140200094FFF7CEFD04233A46AD
:10365000C82190200094FFF7C7FD03234A46DC21D0
:1036600060200094FFF7C0FD05B0BDE8F08F0000BA
:103670005800002078313A0079313A0078323A0027
:1036800079323A0078333A0079333A0078343A00A4
:1036900079343A006661632069733A002DE9F04F8E
:1036A000FA4E1F202DED0C8B89B04FF6FF770024CA
:1036B00025463060F64807603846FFF7E9F94FF4D1
:1036C00078483846C6F80080FFF7E2F900273760EF
:1036D0000126F0A3102228210A200096FFF7C8FD3A
:1036E000F3A3102238210A200096FFF7C1FDF7A3AB
:1036F000102248210A200096FFF7BAFDFAA31022F3
:1037000058210A200096FFF7B3FDFEA3102268217E
:103710000A200096FFF7ACFD14214246084600F04F
:10372000DFFAFC490F759FEDFC0A81ED060A9FED5B
:10373000FBCB9FEDFCDB9FEDFDBBB146FD4EDFF803
:10374000F8A388464FF0900B012000F0D5FB98F8C5
:1037500014004146B9EB901F45D120F04000087598
:1037600005A80A8820F8242000EB8400641C0025AA
:10377000B8F80A10E4B24180012C06D0022C11D016
:10378000032C1ED0042C2ED13AE014214FF6FF72E8
:10379000084600F0A5FA30884FF47842143880B219
:1037A00014211EE030884FF6FF72143880B21421C5
:1037B00000F096FA70884FF47842143881B21420E1
:1037C0000FE070884FF6FF72143881B2142000F0B9
:1037D00087FA70884FF47842143881B230881438F0
:1037E00080B200F07DFA0A2001F0C4F96D1CADB280
:1037F000B5F57A7FA8D909B0BDEC0C8BBDE8F08F88
:10380000BDF81400BDF81810411A00D54942BDF8A2
:103810001600BDF81A20801A00D5404249434043A3
:10382000084401F0DCFA41EC100B01F008F951EC0E
:10383000100B01F0A7FA84B2BDF81C00BDF82010EF
:10384000411A00D54942BDF81E00BDF82220801A59
:1038500000D5404249434043084401F0C0FA41ECDE
:10386000100B01F0ECF851EC100B01F08BFA00EEAC
:10387000104A87B2F8EE400A00EE107AB8EE401A0D
:1038800080EE810A10EE100A01F0F8FCB0EE4C9ABE
:10389000F0EE6C9A41EC180B53EC192B01F0B2FAD4
:1038A0005BD3B0EE4DAAF0EE6DAA53EC1A2B51EC9F
:1038B000180B01F0E1FB50D3ECB3E7B3BDF81400F3
:1038C000BDF81C10411A00D54942BDF81600BDF8DC
:1038D0001E20801A00D5404249434043084401F06D
:1038E0007EFA41EC100B01F0AAF851EC100B01F03C
:1038F00049FA84B2BDF81800BDF82010411A00D56D
:103900004942BDF81A00BDF82220801A00D5404275
:1039100049434043084401F062FA41EC100B01F0C6
:103920008EF851EC100B01F02DFA00EE104A80B227
:10393000F8EE400A00E010E000EE100AB8EE401A7F
:1039400080EE810A10EE100A01F098FC41EC180B91
:1039500053EC192B01F056FA31D270880024143838
:1039600081B230884FF6FF72143880B200F0B8F997
:1039700014214FF47842084600F0B2F953EC1B2BA7
:1039800051EC180B01F07AFA01F0FCF980B2BDF8A5
:103990002220BDF82030BDF81E10CDE90320CDE96E
:1039A0000113BDF81C000090BDF81A30BDF81820B6
:1039B000BDF81610BDF81400FFF7C6FDC4E653ECC1
:1039C0001A2B51EC180B01F057FBC6D3BDF81800A9
:1039D000BDF81C10411A00D54942BDF81A00BDF8C7
:1039E0001E20801A00D5404249434043084401F05C
:1039F000F6F941EC100B01F022F851EC100B01F03C
:103A0000C1F984B2BDF81400BDF82010411A00D5E8
:103A10004942BDF81600BDF82220801A00D5404268
:103A200049434043084401F0DAF941EC100B01F03E
:103A300006F851EC100B01F0A5F900EE104A80B227
:103A4000F8EE400A00EE100AB8EE401A80EE810A45
:103A500010EE100A01F012FC41EC180B53EC192B7C
:103A600001F0D0F9B1D353EC1A2B51EC180B01F043
:103A700003FBAAD3BDF81800BDF81410421A00EEDB
:103A8000102A3288B8EEC01A58E000005800002012
:103A90005C000020506C656173652075736520744F
:103AA0006865207374796C757320636C69636B004F
:103AB0007468652063726F7373206F6E207468651D
:103AC0002073637265656E2E0000000054686520E7
:103AD00063726F73732077696C6C20616C776179A6
:103AE00073206D6F76650000756E74696C20746864
:103AF000652073637265656E2061646A7573746DA9
:103B0000656E7400697320636F6D706C65746564B5
:103B10002E0000007000002000000000666666664F
:103B20006666EE3FCDCCCCCCCCCCF03F00000000A4
:103B3000000059406000002053000020A2F128033B
:103B400000EE103A0844F6EE001AB8EEC00A4746F6
:103B5000C0EE010A00EE100AB8EE401A00EE102A7C
:103B6000B8EE400AC8ED060A00EEC10AFDEEE00A12
:103B700020EE210ABDEEC00A10EE100AA8F82000BF
:103B8000BDF81E00BDF81630C11A00EE101A71887B
:103B90001844B8EEC01AA1F1280400EE104AB8EE9D
:103BA000C02A82EE010A01EE100AB8EE412A01EEA7
:103BB000101AB8EE411A87ED070A00EE421A21EEFC
:103BC000211ABDEEC11A11EE100A788410EE900A87
:103BD000002800DA4042022808DCBDEEC00A10EEE0
:103BE000100A002800DA404202282BDD143A14396A
:103BF00090B2002489B24FF6FF7200F071F81421E0
:103C00004FF47842084600F06BF81AA310221A21EC
:103C10002820CDF80090FFF72BFB97F8240048B13F
:103C2000002087F8240038B18AF800B0D0218AF843
:103C3000011089E50120F4E7D0218AF800108AF804
:103C400001B081E510491F204FF6FF74086020463F
:103C5000FEF71EFF0DA310226E212320CDF8009049
:103C6000FFF706FB4FF47A7000F084FF2046FEF762
:103C70000FFFC0E55450204E656564207265616495
:103C80006A7573742100000058000020546F75633A
:103C9000682053637265656E2041646A7573742091
:103CA0004F4B21002DE9F0410C4D0C4606462A6091
:103CB000FEF7DCFF771CB8B221462A68FEF7D6FF74
:103CC000641CA1B230462A68FEF7D0FFA1B2B8B298
:103CD0002A68BDE8F041FEF7C9BF00005800002087
:103CE0002DE9F8431E4E05460D30326082B2A5F133
:103CF0000C000C4680B20B46FEF7F4FE04F10D00FA
:103D000083B2193881B22A461046FEF7EBFE671CD3
:103D100005F10109B9B21FFA89F03268FEF7A6FF72
:103D2000A5F10108B9B21FFA88F03268FEF79EFFCC
:103D3000671EB9B21FFA89F03268FEF797FFB9B271
:103D40001FFA88F03268FEF791FF002000900623EA
:103D500021462846326800F035FFBDE8F8830000B0
:103D6000580000202DE9F05F00251E4F2C462E46FE
:103D7000C7F89852DFF87080C8F88C52C8F8A05283
:103D800007F5267700F012F9062000F001FF3E60EB
:103D9000012000F0FDFE4FF00109C7F800904846F1
:103DA00000F0F6FE3E60B2464E46DFF840B04FF6F9
:103DB000FF79A7F5267709EA4404C7F898A20120FD
:103DC00000F0E6FEC7F89862DBF80C0208B1641C4C
:103DD000A4B26D1CEDB2102DEDD32009C8F8A0627D
:103DE000BDE8F09F0080434200004442000043428F
:103DF000FEB5064600246D463046FFF7B3FF25F8B2
:103E00001400641CA4B2052CF6D300214C1CA0B2F3
:103E10000BE035F8113035F81020934203D925F81E
:103E2000112025F81030401C80B20528F1D3A1B232
:103E30000429EBD30021012035F81020401C114447
:103E400080B289B20428F7D30320B1FBF0F0FEBDA5
:103E50002DE9F041074F06460D463878FFF7C8FFB9
:103E600004467878FFF7C4FF348028800120BDE83D
:103E7000F08100005300002070B586B00C46054666
:103E8000694604A8FFF7E4FF00282FD001A903A882
:103E9000FFF7DEFF002829D0BDF80C30BDF8102058
:103EA000934203D803F13200824205D39A421FD8CD
:103EB00002F1320083421BD2BDF80410BDF80000AD
:103EC000814203D801F13206B04204D388420FD8B0
:103ED000323081420CD2D01840082880BDF8000052
:103EE000BDF80410084440082080012006B070BDD1
:103EF0000020FBE7704700002A4910B5D1F81C12DA
:103F0000294C31B1207D010640D520F0800020757C
:103F100043E025490A310028234802D0FFF7ACFFCF
:103F20002AE0FFF7A9FF38B3B4F9200094ED061A90
:103F300000EE100A208800EE900AB8EEC00AF8EEF3
:103F4000600A01EE200ABCEEC00A10EE100A2080C2
:103F5000B4F9220094ED071A00EE100A608900EE11
:103F6000900AB8EEC00AF8EE600A01EE200ABCEE34
:103F7000C00A10EE100A6081207D00060DD4C0201A
:103F80002075208820816089608206E000202081E1
:103F900060824FF6FF7020806081207D00F08000FD
:103FA00010BD000000804342700000202DE9F04762
:103FB00000240E4E0E4F0546A0464FF0010928067C
:103FC00001D5484600E04046C6F88C026806050E5A
:103FD000C7F89882012000F0DBFDC7F89892641CB6
:103FE000E4B2082CEBD3BDE8F087000000004442A7
:103FF000008043422DE9F0471C4888B003AE0FC84B
:1040000086E80F000024DFF8689001274FF01008C1
:104010004FF6E07A4FF47A752046FFF755F815A071
:10402000FCF75EFE56F82410CDE9001853461F2217
:1040300002971E21142000F079F928231A46322114
:104040001E20CDF80090FDF77BFB284600F092FD86
:10405000284600F08FFD641CE4B2042CDCD3012060
:10406000FFF732F808B0BDE8F0870000BC77000821
:10407000286B0008B2E2CAD4393AC6C1C4BBD0FD2D
:10408000D7AAB2E2CAD4000008B500252C464FF4E6
:104090007846FFF721F9FEF74FFC5DA0FCF720FE04
:1040A000DFF88C914FF0010ACDF800A0B9F80000BC
:1040B00060A3183880B210220021FFF7D9F85E4FB4
:1040C00012233E600096B9F80000A0F11C018AB2EC
:1040D000323880B20221FEF7FBFD0120FEF76CFCB6
:1040E00083460020FFF708FF5449087D000650D59D
:1040F0000888B9F800304A4698424DD24989B2F84A
:1041000002C0614548D2A3F11802C84690421DDDA5
:1041100010291BD23EA0FCF7E3FDCDF800A0B8F8B3
:10412000000044A3183880B210220021FFF7A0F845
:104130003E600096B8F800001223A0F11C018AB27C
:10414000323880B20221FEF7C3FD25E0A3F1320C24
:10415000604525DD1C3B984222DA142920D2052631
:10416000B4FBF6F006FB1041DFF8D4809AB21223BC
:1041700058F8210000901FFA8CF00221FEF7A8FDEC
:10418000B4FBF6F006FB1041641C58F82160A4B2A1
:104190003E600A2000F0EEFCBBF1010F04D027E0E6
:1041A0003A68FFF77FFDF7E74FF6FF70FEF770FC08
:1041B000FFF774FAFFF79EFE15A0FCF791FDCDF80E
:1041C00000A0B9F80000C846183880B219A3102220
:1041D0000021FFF74DF83E600096B8F8000012236A
:1041E000A0F11C018AB2323880B20221FEF770FDC4
:1041F0006D1CADB21E2D7FF470AF12490025D1F8B1
:10420000B00218B10020C1F8B00266E70120FAE759
:10421000B2E2CAD431303A546F75636828B0B44BF7
:10422000455930D0A3D7BC292020202020200000D1
:1042300060000020525354005800002070000020FD
:10424000000000200080414200B5154887B01349A6
:1042500001600121416000F1080C002104221023BB
:104260008CE80E00402343614FF4C073C0E906316F
:104270005302C0E90831D1028162022007218DE892
:104280000700CDE903100590069069460448FEF743
:104290006BFA034800F006F807B000BD400100A02B
:1042A00098000020012210B500231146104600F0AE
:1042B00021F84FF4FA7000F06BFC01220023022178
:1042C000104600F017F8002304220321012000F01B
:1042D00011F8012240F231230421104600F00AF8BF
:1042E000BDE8104040F26A510148FEF7DBBA000019
:1042F000980000201FB5002410B1012802D002E070
:10430000102400E00824CDE90014CDE902234FF485
:10431000805269460348FEF7D6FA002800D00120F3
:1043200004B010BD98000020704700002DE9FF4F39
:1043300083B08846DDE91054064682464FF00009F6
:10434000DFF8CCB0129F1DE0B9F1000F20D0BBF810
:104350000010091BB14218DBBBF80200011B4145EC
:1043600013DB4FF00009202C46D0CDE90057DDE9E2
:104370000523182C4146304647D0FDF7C9F83019BF
:1043800086B2AD1C28780028DED107B0BDE8F08FDA
:10439000BBF80020A2EB5402B242F6DBBBF80210DD
:1043A0000A1B41464245F0DB802802D94FF0010943
:1043B000E8E70D280DD0102C12D910218DE88300CC
:1043C000DDE9052341463046FEF7A0FE0836B6B2C9
:1043D00010E008EB04001FFA80F856466D1C09E057
:1043E0008DE89100DDE905233046FEF78FFE06EBF0
:1043F000540086B26D1CC5E7CDE90057DDE9052301
:1044000041463046FDF73EF9B9E7FDF7DDF8B6E77E
:104410006000002070B51E4C92B00025266846F062
:1044200080562660246804F080541194194C266844
:1044300046F44046266024680DF1240C04F4404400
:104440001194012400940194022406948CE80D0038
:104450006605CDE907616846FDF7F8FF00B1FEE7A4
:10446000FDF704FD00B1FEE70CA90F2081E8310043
:104470004FF4A0500F904FF48050109005210CA8DD
:10448000FDF78CFE002800D0FEE712B070BD0000E2
:104490004038024000700040FDF7AEBA1048016895
:1044A00041F4700101600F48016841F001010160B1
:1044B0000C4A00210832116002680B4B1A4002605E
:1044C000031D0A4A1A60026822F48022026005482D
:1044D0000C300160024958068039086070470000BE
:1044E00088ED00E000380240FFFFF6FE10300024A7
:1044F00010B5FCF7B7FD034911F8242F42F08002F4
:104500000A7010BD700000202DE9F84300242BA094
:10451000FCF7E6FB2F4E4FF6FF77009770881421CB
:10452000143883B23088401E82B20020FEF7D0FBE0
:10453000294DA046CDF80080C4EBC400718800EB83
:10454000800000EB51013288322300EB520055F815
:1045500024204638463900F035FB641CE4B2052CB3
:10456000E8D340F2DC58404600F004FB0097708826
:104570001421143883B23088401E82B20020FEF726
:10458000A7FB002401270097C4EBC400718800EB4F
:10459000800000EB51013288322300EB520055F8C5
:1045A00024204638463900F00DFB641CE4B2052C8B
:1045B000E9D34046BDE8F84300F0DCBAB2E2CAD421
:1045C000343A475549BBADD4B2CCEEB3E4B2E2CAFB
:1045D000D400000060000020000000202DE9FE4310
:1045E000374C4FF6FF70009060880021401E83B268
:1045F0002088401E82B20846FEF76AFB102631A0D2
:10460000CDE9000601254FF6E07843461F221E2122
:1046100002951420FFF78AFE4FF44879484600F0CF
:10462000A9FA4FF47847009760880021401E83B2B2
:104630002088401E82B20846FEF74AFB23A0CDE93F
:10464000000643461F221E2102951420FFF76EFE2E
:10465000484600F08FFA4FF4FC600090608800211B
:10466000401E83B22088401E82B20846FEF730FB0F
:1046700018A0CDE9000643461F221E2102951420F2
:10468000FFF754FE484600F075FA1F20009060883E
:104690000021401E83B22088401E82B20846FEF7E9
:1046A00017FB0EA0CDE9000643463A461E210295AF
:1046B0001420FFF73BFE4846BDE8FE4300F05ABA1F
:1046C00060000020424C2054657374005245442021
:1046D00000000000475245454E200000424C554521
:1046E000200000002DE9F843002432A0FCF7F8FA7E
:1046F000364F4FF6FF78CDF80080788814211438B3
:1047000083B23888401E82B20020FEF7E1FA304DB5
:10471000304E55F82400306078884108C4EB04100E
:1047200001EB4001A1F10A0293B23A886E395208B6
:1047300002EB4000A0F10A026E3892B289B280B258
:10474000FEF776FA641CE4B2052CE2D340F2DC59A1
:10475000484600F00FFACDF800807888142114380C
:1047600083B23888401E82B20020FEF7B1FA0024DE
:1047700055F82400306078884108C4EB041001EB40
:104780004001A1F10A0293B23A886E39520802EB55
:104790004000A0F10A026E3892B289B280B2FEF7F0
:1047A00097F9641CE4B2052CE2D34846BDE8F8430F
:1047B00000F0E0B9B2E2CAD4333A475549BED8D086
:1047C000CECCEEB3E4B2E2CAD40000006000002018
:1047D00000000020580000202DE9F04F8FB000208D
:1047E0000C900D900E90242103A8FBF7F8FE33A047
:1047F000FCF776FA374C4FF6FF7000906088142172
:10480000143883B22088401E82B20020FEF760FA7E
:10481000A28831A10CA8FBF741FD10260CA8CDE918
:10482000000601254FF6E0731F2219210295322060
:10483000FFF77CFDDFF8A8A02A4F00240DF10C0B38
:10484000A846B1465AF82400386004EBC40000EBD7
:10485000041505F1410305F12D0132221E20FEF75A
:1048600037F905F137012820FEF7FCFB39680646C9
:10487000B14201D11CA100E01CA10CA8FBF73AFE3B
:104880000CAB32461BA103A8FBF708FDCDF800B026
:10489000CDE9019805F12F014FF6E0733C203A680D
:1048A000FFF744FD641CE4B2072CCBD340F2DC508C
:1048B00000F060F90FB0BDE8F08F0000B2E2CAD49A
:1048C000323AB6C14944BACDD1D5C9ABD6B5B2E2B8
:1048D000CAD400006000002049443A3078257800AE
:1048E00014000020580000204F4B00004552524F4A
:1048F000520000007265616420636F6C6F723A3021
:1049000078253038582020202020202573000000F2
:104910002DE9FC47002438A0FCF7E2F93D4F4FF6A3
:10492000FF78CDF8008078881421143883B2388855
:10493000401E82B20020FEF7CBF9374D374E55F8B6
:104940002400306078883B884108C4EB041001EBF8
:1049500040025B08A2F1110103EB4000A0F10B0C37
:1049600089B21FFA8CF3CDE90031673A93B2A0F116
:104970003D026E3892B280B2FCF7FEF9641CE4B2DC
:10498000052CDCD340F2DC59484600F0F3F8CDF8B2
:10499000008078881421143883B23888401E82B28F
:1049A0000020FEF795F9002455F82400306078883F
:1049B0003B884108C4EB041001EB40025B08A2F104
:1049C000110103EB4000A0F10B0389B29BB2CDE9CA
:1049D0000031673A93B2A0F13D026E3892B280B2D4
:1049E000FCF7D2FC641CE4B2052CDDD34846BDE8DC
:1049F000FC4700F0BFB80000B2E2CAD4353A4755D0
:104A00004920547269616E676C65CCEEB3E4B2E222
:104A1000CAD40000600000200000002058000020E0
:104A2000FFF766FD044890F82400000601D5FCF766
:104A3000A3F8FFF729FB000070000020FEE700B597
:104A40002DED048BB0EE409AF0EE609A83B051ECFD
:104A5000190B00F047FB41EC180B18EE100A18EE8A
:104A6000901A8DED008B002818BF0120084320F01C
:104A70000040C0F17F6000F1E040C00F14D019EE9B
:104A8000101A19EE900A8DED009B002918BF012124
:104A9000084320F00040C0F17F6000F1E040C00F0B
:104AA00004BF0120FBF7CAFDB0EE480A03B0F0EEE8
:104AB000680ABDEC048B00BD2DE9F05F15461C466D
:104AC000DDF828B00E46074601EB040800EB050AA6
:104AD0001FFA88F11FFA8AF05A46FCF72FFE1FFAD8
:104AE00088F1A7EB05081FFA88F05A46FCF726FE66
:104AF000A6EB04091FFA89F11FFA8AF05A46FCF75F
:104B00001DFE1FFA89F11FFA88F05A46FCF716FEBF
:104B100006EB050907EB04081FFA89F11FFA88F074
:104B20005A46FCF70BFE3C1B1FFA89F1A0B25A460D
:104B3000FCF704FE751BA9B21FFA88F05A46FCF771
:104B4000FDFDA9B2A0B25A46BDE8F05FFCF7F6BD84
:104B500030380A2801D20120704700207047000039
:104B600010B504460420FDF7C5FE0148046010BDE1
:104B70004C00002070B5054600244FF47A7603E01F
:104B8000304600F005F8641CAC42F9D370BD00005B
:104B900070B54FF0E02500216C69094AAB691268D5
:104BA0005043AA699A42FCD002D2A3EB020302E06E
:104BB000A4EB02063344194413468142F1D370BD7D
:104BC0004C0000202DE9F84F89461E46904682464B
:104BD0000024714203220A9802EB4105C8B930E073
:104BE000274608E03B46224649465046CDF800801D
:104BF000FFF762FF7F1CB742F4DD002D03DA05EBFF
:104C00008405AD1D04E0A01B05EB80050A35761E6A
:104C1000641CB442E4DDBDE8F88F334622464946C1
:104C20005046CDF80080FFF747FF002D03DA05EB73
:104C30008405AD1D04E0A01B05EB80050A35761E3A
:104C4000641CB442E9DDE6E7FCF7DEFE082302223D
:104C500019214FF4B470FFF7DDFBB420FFF780FF9C
:104C6000FFF7F2FAFEF7BAF800F016F8FFF7B4FD16
:104C7000FFF7B4FCFFF736FDFFF746FCFFF748FEF1
:104C8000FCF796F8FBF704FFFEF70EFCFFF7B2F90E
:104C9000FFF7C6FEE8E70000FEB51AA0FCF720F813
:104CA000012510241DA08DE831001F23DE023246AD
:104CB0001E210020FCF76CFD14A08DE831001F239D
:104CC00032463C210020FCF763FD17A08DE831003F
:104CD0001F234FF61F025A210020FCF759FD18A090
:104CE0008DE831001F231A4678210020FCF750FD83
:104CF00040F2DC542046FFF73DFF2046BDE8FE4071
:104D0000FFF738BFC8ABB6AFB5E7D7D3D7DBBACF5D
:104D1000B2E2CAD4B3CCD0F200000000C8ABB6AF48
:104D2000B5E7D7D300000000372E3022205353447C
:104D300031393633203438305838303000000000F4
:104D40007869616F46656E67405144746563682099
:104D5000323032302D30352D313300000346012002
:104D600000E05843491EC9B2FBD27047491058BFF2
:104D7000C1F140415B1058BFC3F140438B42EFF398
:104D8000008070474FEA1153A3F58063D3F11E03EF
:104D9000A8BFD3F1200C08DB4FF0004242EAC12249
:104DA00052EA505232FA03F0704709420BD4102BEA
:104DB000C4BF0020704703F5787CBCF1FF3F05D0ED
:104DC0004FF0FF3070474FF00000704770B500F0B3
:104DD000FFF800BF4992248000207047F0E7B0FA46
:104DE00080F310FA03F10AD0C3F11D0303F58063C9
:104DF0004FEA41504FEA035202EBD12170474FF086
:104E00000000704751EA030C17D41CF5801F58BFEF
:104E1000BCF5801F00F10680994218BF704708BF9B
:104E20009042704707D711F5801F58BF13F5801FB8
:104E300019D499427047894270471CF5801F08D5E4
:104E4000BCF5801FF7D58B4218BF704708BF824260
:104E500070474FF4001C1CEB410F38BF1CEB430F95
:104E600001D28B42704770B500F0B2F8922449002D
:104E70004FF000514FF08053FFF778BFDFF848C183
:104E800070B51CEA111E1EBF1CEA13159EEA0C0F1A
:104E900095EA0C0F00F06F8081EA030423EA4C13BB
:104EA0004EEAD47E21EA4C1141F4801143F4801380
:104EB000AE44A1FB024CA0FB0365AEF17F7E361928
:104EC00055EB0C05A1FB034C4CF10003A0FB021CAD
:104ED00016EB0C06654153F10003094218BF46F07A
:104EE000010613F4007F0BD14FEA03314FEA05307E
:104EF000340341EA155140EA16506FF003020AE00C
:104F00004FEAC3214FEAC520F40241EA555140EA75
:104F100056506FF0020202EB2E4201EB025585EA79
:104F2000CE710AD05FEA440C18BF24F0004450F15F
:104F3000000041F1000120EAD47040F2FE7C62459D
:104F400000D270BDA84214BF4FF080444FF04044DF
:104F5000002E08BF0024BEF1806FA8BFA1F1C041A0
:104F6000BDE8704080F282804FF0000001F1C04146
:104F700001F0004170479EEA0C0F0CEA131518BFB0
:104F800095EA0C0F06D04FF0000081EA030E0EF0F8
:104F9000004170BD00F01CF88900013E00F007B828
:104FA00000F009B84FEA430C5FEA5C5C08D081EA84
:104FB000030100F05BB84FEA410C5FEA5C5CF6D19C
:104FC0004FF00000014970470000FF070000F87F24
:104FD0000EF1020E2EF0030E5EF8046B364205D47D
:104FE000012A43EB030515F5001F12D8012841EBF8
:104FF000010C1CF5001F0CD80ED14FEAD17C15F521
:10500000001F0CEB4C0C0CF1020C08BF4CEBD37CDA
:1050100004E04FF0080C01E04FEAD37C0CEB4C05A8
:1050200026FA05F606F00706B6F1040C06D20EEBDA
:10503000860CBDE870404CF0010C6047DFE80CF0D6
:10504000090B02024FF000414FF00000A1F50021D2
:1050500070BD19461046012851EB010418BFD4F564
:10506000001484BF002001F0004170BD0808A0F5C5
:1050700000114FEA3101704753EA010C17D41CF5B7
:10508000801F58BFBCF5801F00F106808B4218BFFF
:10509000704708BF8242704707D713F5801F58BF7B
:1050A00011F5801F19D48B4270479B4270471CF545
:1050B000801F08D5BCF5801FF7D5994218BF7047EF
:1050C00008BF904270474FF4001C1CEB430F38BFE1
:1050D0001CEB410F01D2994270470FB40CBC03BCCA
:1050E000FFF7C1BE2DE9F04101F5801CBCF5001FA2
:1050F000C0F2A9804FEA115C21EA0C510CF1FD0CC1
:1051000041F480115FEA5C0C0CF5C07C01D34000D7
:10511000494130A4890241EA905187028E0E0A0C5F
:10512000A45D04FB04F602FB06F6C6F14046A4FBB0
:105130000662F60D46EA422606FB06F4A4FB0123AE
:105140005242C3F1404338BF5B1EA6FB024200241B
:10515000E6FB0324D20B42EA4446A6FB0623A1FB4E
:1051600002E2A3FB07E4E3FB61426442C2F1404E6A
:1051700038BFAEF1010EA6FB04234FF00002E6FBA0
:105180000E32A2FB03463400E2FB6264A1FB06E69A
:10519000A4FB07E8E4FB61687642C8F1405838BFD9
:1051A000A8F10108A2FB06E4A3FB08E5E2FB6854B2
:1051B000A1FB05E6A7FB04E8E1FB648618F12005E6
:1051C00056F10006A809A8F11B08B10908F03F082C
:1051D000B8F10A0F40EA86601CD901EB0C51BDE81A
:1051E000F08100BFFCF5EEE8E2DDD8D3CFCBC7C33A
:1051F000C0BDB9B6B4B1AEACA9A7A5A3A19F9D9BF4
:105200009A9896959392908F8D8C8B8988878685B6
:1052100084838281A0FB006800FB01F208EB420856
:10522000B8EB872807D5341858EB0104D5D5401CB6
:1052300051F10001D1E7341A78EB0104CDD4401EBE
:1052400071F10001C9E75FEA4C0C5FEA9C5C0DD18B
:1052500005D34FF0000001F00041BDE8F081BDE84A
:10526000F04170B5FFF7B4FE6DDBFFBEBDE8F04165
:105270004FF00000004970470000F87F43004FEAFC
:10528000D30C4FEA3C0C43401FBF40070CF1605168
:1052900013F0FE4F70471CF0006F03D100200CF09C
:1052A000004170470CF0004343EA507010B540EAEB
:1052B000CC0000F00EF800BF000000924FEA0001A1
:1052C000FFF7D4BE4FF000414FF00000A1F50021E0
:1052D00070470EF1020E2EF0030E5EF8044B2442CE
:1052E00004D44FEA4102B2F17F4F11D84FEA400394
:1052F000B3F17F4F0CD80ED14FEAD07CB2F17F4F83
:105300000CEB4C0C0CF1020C08BF4CEBD17C04E014
:105310004FF0080C01E04FEAD17C0CEB4C0324FA6F
:1053200003F404F00704B4F1040C06D20EEB840C71
:10533000BDE810404CF0010C6047DFE80CF00708B6
:1053400002024FF00040A0F5800010BD0846420068
:1053500018BFD2F1807288BF00F0004010BD4FF03E
:105360004070E1EE100A70470000000000000000ED
:10537000000000000000202020202020002000004D
:105380000028505000000000000000000000282805
:10539000FC2850FC50500000002078A8A060302865
:1053A000A8F02000000048A8B0502834544800005D
:1053B000000020505078A8A8906C00000040408069
:1053C0000000000000000000000408101010101081
:1053D0001008040000402010101010101020400091
:1053E00000000020A87070A820000000000020200D
:1053F00020F8202020000000000000000000000035
:10540000004040800000000000F8000000000000A4
:105410000000000000000000004000000008101024
:1054200010202040404080000000708888888888D4
:1054300088700000000020602020202020700000E4
:10544000000070888810204080F8000000007088FC
:105450000830080888700000000010305050907824
:10546000101800000000F88080F008088870000024
:105470000000709080F08888887000000000F8902C
:10548000102020202020000000007088887088886C
:1054900088700000000070888888780848700000D4
:1054A00000000000200000000020000000000000BC
:1054B00000200000002020000004081020402010E0
:1054C0000804000000000000F80000F800000000E0
:1054D00000402010080408102040000000007088E0
:1054E00088102020002000000000708898A8A8B82C
:1054F00080780000000020203050507848CC000018
:105500000000F0484870484848F0000000007888E3
:1055100080808080887000000000F048484848483B
:1055200048F000000000F8485070504048F8000073
:105530000000F8485070504040E00000000038483B
:1055400080809C88483000000000CC48487848485B
:1055500048CC00000000F8202020202020F8000087
:1055600000007C10101010101090E0000000EC48BB
:105570005060505048EC00000000E0404040404087
:1055800044FC00000000D8D8D8D8A8A8A8A80000DB
:105590000000DC486868585848E80000000070883F
:1055A00088888888887000000000F0484870404073
:1055B00040E0000000007088888888E89870180033
:1055C0000000F0484870504848EC0000000078881F
:1055D0008060100888F000000000F8A8202020203B
:1055E000207000000000CC4848484848483000007F
:1055F0000000CC4848505030202000000000A8A8EF
:10560000A8705050505000000000D850502020503A
:1056100050D800000000D8505020202020700000FA
:105620000000F8901020204048F8000000382020AA
:105630002020202020203800004040402020101052
:1056400010080000007010101010101010107000E2
:1056500000205000000000000000000000000000DA
:1056600000000000000000FC00200000000000001E
:10567000000000000000000000304838483C0000F6
:105680000000C04040704848487000000000000022
:1056900000384840403800000000180808384848E2
:1056A000483C00000000000000304878403800000E
:1056B00000001C202078202020780000000000003E
:1056C000003C4830407844380000C04040704848B2
:1056D00048EC000000002000006020202070000046
:1056E0000000100000301010101010E00000C0404A
:1056F000405C507048EC00000000E020202020209A
:1057000020F800000000000000F0A8A8A8A80000F1
:105710000000000000F0484848EC000000000000D5
:1057200000304848483000000000000000F04848C1
:10573000487040E000000000003848484838081C25
:105740000000000000D8604040E0000000000000C1
:1057500000784030087800000000002020702020F1
:10576000201800000000000000D84848483C000015
:105770000000000000EC4850302000000000000055
:1057800000A8A870505000000000000000D8502071
:1057900050D800000000000000EC4850302020C02D
:1057A0000000000000781020207800000018101081
:1057B00010201010101018001010101010101010E1
:1057C00010101010006020202010202020206000E9
:1057D00040A41800000000000000000000000000CD
:1057E00000000000000000000000000000000010A9
:1057F00010101010101000001818000000123624AD
:10580000480000000000000000000000000000242C
:105810002424FE484848FE4848480000000010384C
:1058200054545030181414545438101000000044CC
:10583000A4A8A8A8541A2A2A2A440000000000306C
:10584000484848506EA49488897600000060602023
:10585000C00000000000000000000000000204087A
:10586000081010101010100808040200004020104A
:105870001008080808080810102040000000000068
:105880001010D63838D610100000000000000000BC
:1058900010101010FE10101010000000000000008A
:1058A0000000000000000000606020C00000000058
:1058B000000000007F000000000000000000000069
:1058C0000000000000000000606000000000010215
:1058D00002040408081010202040400000000018B6
:1058E000244242424242424224180000000000107A
:1058F0007010101010101010107C00000000003C00
:105900004242420404081020427E00000000003C95
:10591000424204180402024244380000000000041D
:105920000C14242444447E04041E00000000007E65
:105930004040405864020242443800000000001C0D
:105940002440405864424242241800000000007E77
:105950004444080810101010101000000000003C13
:105960004242422418244242423C000000000018F7
:1059700024424242261A020224380000000000009D
:1059800000001818000000001818000000000000B7
:1059900000000010000000000010102000000002B5
:1059A000040810204020100804020000000000003D
:1059B0000000FE000000FE000000000000000040AB
:1059C0002010080402040810204000000000003CE1
:1059D0004242620204080800181800000000003863
:1059E000445AAAAAAAAAB4424438000000000010EF
:1059F00010182828243C444242E70000000000F828
:105A0000444444784442424244F800000000003ECE
:105A1000424280808080804244380000000000F8CC
:105A2000444242424242424244F80000000000FC2C
:105A3000424848784848404242FC0000000000FCD0
:105A4000424848784848404040E000000000003CA0
:105A500044448080808E844444380000000000E785
:105A6000424242427E42424242E700000000007C45
:105A70001010101010101010107C00000000003EDC
:105A80000808080808080808080888F0000000EE60
:105A9000444850705048484444EE0000000000E084
:105AA000404040404040404042FE0000000000EEC8
:105AB0006C6C6C6C5454545454D60000000000C7F5
:105AC000626252524A4A4A4646E2000000000038EA
:105AD000448282828282828244380000000000FC7C
