:020000040800F2
:1000000090080024490300080D500008DD3900085D
:10001000550300081D0900080571000800000000D4
:10002000000000000000000000000000AD680008B3
:10003000A50E0008000000000F500008916A00089B
:1000400063030008630300086303000863030008F8
:1000500063030008630300086303000863030008E8
:1000600063030008630300086303000863030008D8
:1000700063030008630300086303000863030008C8
:1000800063030008630300086303000863030008B8
:10009000630300086303000863030008750F00088A
:1000A0006303000863030008630300086303000898
:1000B0006303000863030008630300086303000888
:1000C0006303000863030008630300086303000878
:1000D0006303000863030008630300086303000868
:1000E00063030008630300080000000063030008C6
:1000F0006303000863030008630300086303000848
:100100006303000863030008630300086303000837
:100110006303000863030008630300086303000827
:100120006303000863030008630300086303000817
:100130006303000863030008630300086303000807
:1001400000000000000000000000000000000000AF
:1001500063030008630300086303000863030008E7
:1001600063030008630300086303000863030008D7
:100170006303000863030008630300080000000035
:1001800063030008630300086303000863030008B7
:1001900063030008630300086303000863030008A7
:1001A0006303000863030008630300086303000897
:1001B0006303000863030008630300086303000887
:1001C0006303000863030008630300086303000877
:1001D0006303000863030008630300086303000867
:1001E0006303000863030008630300086303000857
:1001F0006303000863030008630300086303000847
:100200006303000863030008630300086303000836
:100210006303000863030008630300086303000826
:100220006303000863030008630300080000000084
:100230006303000863030008000000006303000874
:1002400063030008630300086303000863030008F6
:1002500063030008630300086303000863030008E6
:1002600063030008630300086303000863030008D6
:100270006303000863030008630300080000000034
:100280006303000800000000630300080000000092
:10029000000000006303000800F002F800F044F8DA
:1002A0000AA090E8000C82448344AAF10107DA45D1
:1002B00001D100F039F8AFF2090EBAE80F0013F0DF
:1002C000010F18BFFB1A43F001031847889600007E
:1002D000A8960000103A24BF78C878C1FAD852070F
:1002E00024BF30C830C144BF04680C6070470000B0
:1002F0000023002400250026103A28BF78C1FBD82F
:10030000520728BF30C148BF0B607047782900F002
:100310009F80732900F01982002070471FB507F0F5
:10032000A1F81FBD10B510BD00F01CFA1146FFF773
:10033000F5FF07F008F800F03AFA03B4FFF7F2FF10
:1003400003BC00F03DFA0000094880470948004717
:10035000FEE7FEE7FEE7FEE7FEE7FEE7FEE7FEE775
:10036000FEE7FEE704480549054A064B70470000D2
:10037000956A000899020008900200249008002461
:1003800090040024900400240FB41CB5074B06AA67
:100390007B4469460090059800F0ADF9002069465D
:1003A00000F0BCF91CBC5DF814FB000089030000E0
:1003B00070B5044685690068C10601D5302600E0A5
:1003C0002026C00707D070BDD4E9012130469047F0
:1003D000206A401C20626D1EF6D570BD70B50446C3
:1003E00085690078C00707D170BDD4E901212020BC
:1003F0009047206A401C20626D1EF6D570BD70B516
:100400000C460546012A05D02878800600D5EA6901
:10041000002302E0012305E05B1C934202D2E05C72
:100420000028F9D1A869E618C01AA861286A1844FA
:1004300028622846FFF7BCFF04E0D5E9012114F843
:10044000010B9047B442F8D32846FFF7C7FF70BDB1
:1004500070B504460D4621461068AFF30080218830
:10046000090502D50F4A7A4402E00E4A7A440E3258
:10047000002104F1240305E000F00F060009965D59
:100480005E54491C0028F7D120780023000704D5CA
:10049000702D02D009B1022311322046BDE8704010
:1004A00000F0CBB8789400002DE9F05F894604464F
:1004B0004FF0000ADFF824B1FB44C0F820A020462A
:1004C000E168884700287DD0252806D0D4E901219D
:1004D0009047206A401C2062F1E700255F462046D5
:1004E000E16888472028064607DB312E05D2B81977
:1004F00010F8200C08B10543F1E7A80701D525F055
:100500000405C4F81CA00027C4F818A02A2E09D09E
:10051000304606F079FE38B304EB8708303EC8F861
:10052000186019E059F8041B204604EB870291611A
:10053000E1688847012F064618D1E069002820DAD3
:1005400025F020051DE0D8F8180000EB800006EB30
:1005500040003038C8F818002046E1688847064651
:1005600006F052FE0028EED1012F0AD02E2E08D11F
:100570002046E16888477F1C0646022F45F020058B
:10058000C4DBA069002803DA404245F00105A06100
:10059000E80701D025F01005A6B1A6F14100192801
:1005A00002D8203645F400654A463146204625608B
:1005B0004D46FFF7ABFE60B1012807D0ED1D25F0D9
:1005C000070000E007E000F1080978E705F10409F9
:1005D00075E730467AE7206ABDE8F09F4E94000048
:1005E00010B5431C02E010F8011B71B18107FAD16C
:1005F0004FF0013202C88C1A8C4314EAC211F9D0B0
:10060000C01A0A0603D0C01E10BDC01A10BD0A04CD
:1006100001D0801E10BD0902FCD0401E10BD7047E5
:100620007047704710B500F095F8006810BD10B520
:10063000044600F08FF8046010BD2DE9F0470D4628
:1006400099469246044600F124080168880604D5BC
:10065000E06921F01001216000E00120A84201DDE5
:10066000471B00E00027A1697A1902EB0900081A6C
:10067000A0612078C00602D42046FFF799FE00262C
:1006800008E0D4E901211AF806009047206A401CCE
:10069000761C20624E45F4DB2078C0060AD5204641
:1006A000FFF786FE06E0D4E9012130209047206A5A
:1006B000401C2062381EA7F10107F4DC07E0D4E9F2
:1006C000012118F805009047206A401C2062281E6E
:1006D000A5F10105F3DC2046FFF780FE2078000637
:1006E00002D50220BDE8F0870120FBE701694A1C22
:1006F00002610878704700B58FB0CDE90131002163
:10070000059105497944CDE9031011466846FFF784
:10071000CBFE0FB000BD0000E5FFFFFF0A6802F846
:10072000010B0A60704710B5436913B1AFF3008045
:1007300001E0FFF764FE012010BD127800F12401F2
:100740000A7000224A700122EDE711684FF0FF3273
:10075000E9E70000004870472C0200240048704779
:100760002C0200247546FFF7F9FFAE4605006946E6
:10077000534620F00700854618B020B5FFF7F2FD7C
:10078000BDE820404FF000064FF000074FF0000892
:100790004FF0000B21F00701AC46ACE8C009ACE813
:1007A000C009ACE8C009ACE8C0098D46704710B577
:1007B0000446AFF300802046BDE81040FFF7BDBD02
:1007C00001491820ABBEFEE72600020070472DE964
:1007D000F0470E0001464FF0000004461ABF01EB3F
:1007E00006084FF0A009BDE8F0870702A8EB040057
:1007F000451E03F0A5F9280A09EB4000C0B203F03A
:1008000063F903F0EDF9E8B203F05EF903F0E8F9FB
:1008100003F096F9A12003F057F903F0E1F9002065
:1008200003F0DEF8054603F0B3F9611CE819CCB219
:10083000A642DAD8BDE8F08710B5044603F080F987
:10084000200AA02101EB4000C0B203F03DF903F003
:10085000C7F9E0B203F038F903F0C2F903F070F918
:10086000A12003F031F903F0BBF9002003F0B8F840
:10087000044603F08DF9204610BD2DE9F04716001F
:100880000F4680464FF0000414BF4FF0A00ABDE8A9
:10089000F08708EB0405E00027FA00F000F0FF09FC
:1008A00003F04EF9280A0AEB4000C0B203F00CF93D
:1008B00003F096F9E8B203F007F903F091F948461E
:1008C00003F002F903F08CF903F062F90A2006F054
:1008D000ADFC601CC4B2A642DBD8BDE8F08770B5A1
:1008E0000D46044603F02CF9200AA02202EB40003A
:1008F000C0B203F0E9F803F073F9E0B203F0E4F8F2
:1009000003F06EF9284603F0DFF803F069F903F00D
:100910003FF9BDE870400A2006F088BCFEE7000001
:1009200013484DF804ED87B0016841F08001016083
:10093000016801F080010591016841F48071016056
:100940000068694600F48070059040200090012006
:100950000190029003200390064801F03DFA082020
:1009600000900548694601F037FA07B05DF804FBCE
:10097000E0440258001C0258002002582DE9F041C2
:100980003C4F80460024386820F0C000386038684A
:1009900038601E2006F070FC374E002500224021F2
:1009A000304601F022FB022006F066FC01223046B0
:1009B000402101F01AFB60060821040E384601F0C0
:1009C0000BFB00281CBF601CC4B2681CC5B2082DFC
:1009D000E4D3B8F1000F4FF000024FF04001304671
:1009E00024D001F002FB386820F0C000386038687D
:1009F00040F040003860022006F03EFC00223846FD
:100A0000082101F0F2FA022006F036FC01223046FD
:100A1000402101F0EAFA022006F02EFC00223046C6
:100A2000402101F0E2FA2046BDE8F08101F0DDFA54
:100A3000386820F0C0003860386840F04000386006
:100A4000022006F019FC01223846082101F0CDFAF7
:100A5000022006F011FC01223046402101F0C5FAC7
:100A6000022006F009FC00223046402101F0BDFAC8
:100A7000D9E7000000200258001C02582DE9F0417F
:100A80001C4F0546386820F0C0003860386840F0D8
:100A900040003860184E00224021304601F0A5FA8F
:100AA000022006F0E9FB002415F0800F05D001229A
:100AB0003846082101F099FA04E00022384608215E
:100AC00001F093FA68060122050E3046402101F03C
:100AD0008CFA022006F0D0FB00223046402101F0C3
:100AE00084FA022006F0C8FB601CC4B2082CDBD3D9
:100AF000BDE8F08100200258001C025870B5134C6C
:100B0000206820F0C0002060206840F04000206095
:100B100001222046082101F068FA0D4D01224021F2
:100B2000284601F062FA1E2006F0A6FB00222046AD
:100B3000082101F05AFA022006F09EFB2846BDE883
:100B400070400022402101F050BA000000200258FD
:100B5000001C025810B5104C206820F0C000206026
:100B6000206840F0400020600C480122402101F044
:100B70003CFA1E2006F080FB00222046082101F0EE
:100B800034FA022006F078FB01222046BDE810402E
:100B9000082101F02ABA000000200258001C025867
:100BA00070B5284E0024306820F0C00030603068F6
:100BB000306001220821304601F017FA224D01224F
:100BC0004021284601F011FA022006F055FB0821C9
:100BD000304601F001FA00282CD0601CC4B2FA2C77
:100BE0001FD93068344620F0C0003060306840F0D3
:100BF0004000306001222846402101F0F6F91E2015
:100C000006F03AFB00222046082101F0EEF902200E
:100C100006F032FB01222046082101F0E6F901200E
:100C200070BD022006F028FB0821304601F0D4F9FF
:100C30000028D2D100222846402101F0D6F9002018
:100C400070BD000000200258001C025830B583B06F
:100C50001DA000F029F910244FF6E0731FA0002515
:100C60000295CDE900041F221E210A2005F020FE76
:100C700023A04FF6E073CDE900041F220295322134
:100C80000A2005F015FE18204FF6E07322A101247A
:100C90000294CDE900101F2246210A2005F008FE2B
:100CA00020204FF6E07322A102941F22CDE900100C
:100CB00064210A2005F0FCFD03B04FF49660BDE806
:100CC000304006F0B3BA0000B2E2CAD4373AD6D008
:100CD000CEC4CFD4CABEB2E2CAD400003136583135
:100CE000363AC8ABB6AFB5E7D7D3BCBCCAF5D3D09C
:100CF000CFDEB9ABCBBEBBB6D3ADC4FA00000000AB
:100D000031365831363A57656C636F6D65C8ABB68E
:100D1000AFB5E7D7D300000032345832343AC9EEC9
:100D2000DBDACAD0D6D0CEC4B2E2CAD4000000000A
:100D300033325833323AD7D6CCE5B2E2CAD40000C7
:100D40004FF0000888B0454603F050FB45A000F086
:100D5000ABF8DFF834B14FF00109CDF80090102264
:100D600000214AA3BBF80000183880B203F0DCFA77
:100D700047494FF47840DFF81CA102AE0860681CB8
:100D8000C5B200F08FFB00249AF8140009FA04F1B0
:100D9000084204BF4FF6FF7026F8240046D03AF808
:100DA0001420BBF80000904240D90AEB4407BBF87E
:100DB00002107B89994239D936F824C0ACF57F41BD
:100DC000FF3904D106EB840126F824204B80183823
:100DD000824216DD102B14D2012D27D821A000F05D
:100DE00063F8CDF800901022BBF80000002127A383
:100DF000183880B203F098FA25494FF4784008601B
:100E00000CE02549022031F81410CDE9000106EB71
:100E10008400418836F8240003F058F83AF81400AA
:100E200006EB840126F8240078894880601CC4B24F
:100E3000052CA9D3052006F0F9F908F1010000F00E
:100E4000FF081648A0FB08100009A0EB001018EBE3
:100E5000400003D11248022101F0C3F8042D88BFDD
:100E600000258CE7B2E2CAD431303AB5E7C8DD5488
:100E70006F756368B2E2CAD428D6A7B3D635B5E396
:100E8000B4A5C3FE2920200038000024525354008A
:100E9000300000244C000024AC9800088988888821
:100EA0000004025870470000F0B583B007464FF6C3
:100EB000FF7002F09FFF1B4C1F250095002114239B
:100EC0002088401E82B2084603F0C0F80095618871
:100ED000481E83B22088401E82B2A1F1140081B264
:100EE000002003F0B3F810494FF6FF7001260246C8
:100EF00010251F230860022100970020CDE901562C
:100F000000F0DCFE09A00296CDE9000560881F23F1
:100F10004FF6FF72123881B2002000F0CFFE03B00E
:100F2000F0BD0000380000243000002468747470A4
:100F30003A2F2F7777772E6C636477696B692E630E
:100F40006F6D00002DE9F0471E4617468846814622
:100F5000DDE9085402F06AFF23462A463146384646
:100F600002F064FF43464A4621462846BDE8F04762
:100F700002F05CBF802000F021BF000070B584B09B
:100F800027A0FFF791FF0C254FF6E07329A000245E
:100F90000294CDE900051F221E210A2005F088FCDD
:100FA0002FA04FF6E073CDE90005012602961F221F
:100FB0002D210A2005F07CFC34A04FF6E073CDE92A
:100FC00000051F2202943C210A2005F071FC102527
:100FD0004FF6E07335A002941F22CDE900055021A1
:100FE0000A2005F065FC3CA04FF6E073CDE9000552
:100FF0001F22029664210A2005F05AFC41A04FF6F8
:10100000E073CDE900051F22029478210A2005F043
:101010004FFC04B04FF49660BDE8704006F006B98E
:10102000B2E2CAD4363AD3A2CEC4CFD4CABEB2E258
:10103000CAD40000365831323A616263646566672B
:1010400068696A6B6C6D6E6F7071727374757677A8
:1010500078797A3031323334353637383900000018
:10106000365831323A4142434445464748494A4B53
:101070004C4D4E4F505152535455565758595A3063
:101080003132333435363738390000003658313292
:101090003A7E21402324255E262A28295F2B7B7D4A
:1010A0003A3C3E3F2F7C2D2B2E0000003858313625
:1010B0003A6162636465666768696A6B6C6D6E6FDE
:1010C000707172737475767778797A30313233341F
:1010D0003536373839000000385831363A41424306
:1010E0004445464748494A4B4C4D4E4F5051525348
:1010F0005455565758595A303132333435363738BB
:1011000039000000385831363A7E21402324255ECC
:10111000262A28295F2B7B7D3A3C3E3F2F7C2D2BB6
:101120002E000000B3F5804F30B418BF6FF070414F
:1011300004D040F8221030BC0020704750F8223014
:10114000DFF824C08D8903EA0C03D1E900C44CEA1E
:10115000041C8C688969240244EA05444CEA040CA6
:101160004CEA01011943E4E70000F0CF70B4D1F874
:1011700000C050F82C201B4BD1E903561A40D1E98E
:10118000014335431C432C434D692C438D692C434B
:10119000CD692C430D6A2C434D6A2C438D6A2C4338
:1011A000CD6A2C430D6B2C438D6B2C434D6B2C4324
:1011B0002243082B08BF42F0400240F82C200A6B63
:1011C000B2F5801F05D10A684AB1026842F4801264
:1011D00002600A681AB10268496B1143016070BC71
:1011E000002070478004C0FF00EB820270B4536897
:1011F0004FF07E46D1E900C48D8903F040434CEAAC
:10120000041C8C68240244EA05440D8A4CEA040458
:10121000DFF834C00CEB05552C430D7D06EB05655E
:101220002C438D692C4323435360026812F4801FC2
:1012300007D04268098A22F470020CEB0151114375
:10124000416070BC002070470000F0FF4DF8044D75
:10125000D1E901320C681343D1E903C24CEA02021E
:101260001A434B6913438A69012C046843EA020C50
:10127000CB690A6A496A08D04CEA03031A4311434E
:101280006FF30E04214301600BE024F4F8441A4389
:1012900021430A43416802606FF30E014CEA0101E9
:1012A00041605DF8044B00207047426942EA410109
:1012B00041610020704781B0D1E900236FF01F0C1D
:1012C0001A438B68C9680CEB431343EA412111436D
:1012D00000910161002001B070472DE9F001D1F8C3
:1012E00004C06FF00F050B682C015B1E05EB0C1C96
:1012F00043EA0C03D1F808C04FEA0428270304EBA3
:101300000C2C43EA0C050B8A2604CC68012A82685F
:1013100008EB034C8B8A097E07EB035306EB016154
:101320000DD0361306EB04342C4344EA0C0C4CEA83
:101330000303194302F070421143816012E0240359
:1013400022F47042A4F58054234322F470021A431D
:10135000C36845EA0C0C826003F070434CEA01015B
:101360001943C160BDE8F00100207047344870B5F2
:1013700088B0016841F080010160016801F08001DE
:101380000691016841F48071016000680025012424
:10139000694600F4807006908020CDE900050320A6
:1013A000CDE90240274800F017FD274E2002CDE985
:1013B00000046946304600F00FFD05F069FEFFF7B6
:1013C000AFFA00223046210200F00FFE142005F093
:1013D0002DFF01223046110200F007FE322005F0F9
:1013E00025FF01228DF81450002005A900F05CF9BA
:1013F00001228DF81440A42005A900F055F916200B
:101400008DF814000122802005A900F04DF90C2070
:101410008DF814000122882005A900F045F9022268
:10142000A12005A900F012F89DF81400302805BF8E
:101430009DF8150003280120002008B070BD0000B1
:10144000E0440258001C0258002002582DE9F041E7
:1014500015460E460446FFF751FB7020FFF70EFBC2
:10146000FFF79EFBE0B2FFF709FBFFF799FBFFF7E1
:1014700045FB7120FFF702FBFFF792FB0024002DD4
:1014800088BF6F1E0AD9BC4214BF01200020FFF79D
:1014900075FA3055601CC4B2AC42F4D3BDE8F041DB
:1014A000FFF758BB2DE9F04F7B480024DFF8EC91A3
:1014B00083B02546A246007800287CD00122022075
:1014C00001A9FFF7C3FF9DF8041011F00F0F72D0B0
:1014D00001F00F0006286ED2FF21DFF8C4B101FA37
:1014E00000F0C04340F0C00089F81400012099F8D2
:1014F0001410A040014278D06A480426E84610F84B
:101500001450FFF7FBFA7020FFF7B8FAFFF748FB1B
:10151000E8B2FFF7B3FAFFF743FBFFF7EFFA7120EA
:10152000FFF7ACFAFFF73CFB0025771EBD4214BF66
:1015300001200020FFF722FA08F80500681CC5B258
:10154000B542F3D3FFF706FB9BF8060030B1012844
:101550001DD0022830D0032848D062E09DF800104A
:101560009DF8010001F00F0100EB0120BBF8001015
:10157000081A29F814009DF802109DF8030001F0E4
:101580000F0100EB012009EB4401488149E09DF87F
:1015900000109DF8010001F00F0100EB012009EBA4
:1015A000440148819DF802109DF8030001F00F01ED
:1015B00000EB012033E04FE09DF800109DF80100A2
:1015C00001F00F0100EB012029F814009DF8021032
:1015D0009DF8030001F00F0100EB0120BBF80210A1
:1015E000081A09EB440148811BE026E09DF8001031
:1015F0009DF8010001F00F0100EB0120BBF8021083
:10160000081A09EB440148819DF802109DF8030077
:1016100001F00F0100EB0120BBF80010081A29F8B7
:1016200014009DF8000000F0F000802805D009EBC0
:101630004400A0F80AA029F814A0601CC4B2052C2C
:10164000FFF454AFB9F800100125002902BFB9F822
:101650000A0000288DF804A09DF8040010F01F0F68
:1016600003D003B02846BDE8F08F0B4880F800A0F7
:1016700099F8141011F0800F11BF21F080004FF67F
:10168000FF70A9F80000A9F80A0008BF01F0E00007
:1016900089F81400E5E70000410000244C00002414
:1016A00038000024D89800082DE9F041002716469C
:1016B0000D460446FFF722FA7020FFF7DFF9FFF727
:1016C0006FFAE0B2FFF7DAF9FFF76AFA0024002EAA
:1016D0000AD9285DFFF7D2F9FFF762FA070003D1B4
:1016E000601CC4B2B442F4D3FFF734FA3846BDE804
:1016F000F08100002DE9FF4F87B04FF00008C14690
:10170000DDE91423BDF828C0614508D90C466146BF
:101710008446BDF82400ADF82840ADF824C01FFA77
:1017200083FCBDF82840644507D9ADF828C094462D
:10173000BDF824202346ADF824C0BDF828C061457B
:1017400008D90C4661468446BDF82400ADF828400F
:10175000ADF824C09FB2B9420E4625D1BDF8241081
:10176000ADF80400814288BFADF8041038BF0846C8
:1017700091B2814238BF084605D3BDF804208A42A1
:1017800038BFADF80410BDF804203346DFF810C1AF
:101790001946BCF800C01FFA8CFCCDF800C002F05E
:1017A0005DFC0BB0BDE8F08FBDF824100546BDF818
:1017B00028B092B2481B0690ABEB06000590B81B10
:1017C0000390501A0290BB45A2EB050AA7EB0B0051
:1017D00004901CBFABF101001FFA80FB34465E454C
:1017E00023D80399059899FBF1F198FBF0F0D144C7
:1017F00029441FFA81FCADF804C00699284480B240
:101800006045884403D901466046ADF8041023467C
:101810002349BDF80420098889B20091194602F0D5
:101820001DFC601C84B25C45DBD9BDF82800211A80
:10183000029801FB00F8A01BBC4200FB0AF692BF15
:10184000DFF85C900BB0BDE8F08F0498BDF8241071
:1018500098FBF0F00844039980B296FBF1F15644EE
:1018600029441FFA81FC02996045ADF804C0884400
:1018700003D901466046ADF804102346B9F80010BC
:10188000BDF804201FFA81FC1946CDF800C002F013
:10189000E5FB601C84B2BC42D7D90BB0BDE8F08F29
:1018A000300000242DE9FF4F83B0DFF814A1044677
:1018B0000646462088464FF0000B01904149109A99
:1018C0000BEB0B1011F810301278934235D101EB6D
:1018D0004000009041781098407881422DD108F165
:1018E0000F00414683B204F10F0082B2204602F09D
:1018F000FFFB4FF000090098002500EB0907119845
:1019000088B33148059A02608020B978E8400142E6
:1019100003D04146204602F08BFB601C84B2A01B22
:10192000102836D0681CC5B2082DE8D309F1010093
:1019300000F0FF09B9F1200FDDD30BF101001FFA10
:1019400080FB01988345B9D3BAF80200401E83B2E8
:10195000BAF8000007B0401E82B2BDE8F04F002187
:10196000084602F0C5BB8020B978E84001429AF8E9
:1019700007001AD0012818BF059810D002F02CFDDE
:101980009AF807000128CDD1601C84B2A01B102852
:10199000C8D108F1010034461FFA80F8C6E7059A5D
:1019A0004146204602F044FBEAE7012818BF0698AA
:1019B000E4D1069A4146204602F03AFBE0E70000F7
:1019C00038000024D27E0008300000242DE9FF4FAB
:1019D00083B0DFF818A104460646072088464FF07A
:1019E000000B01904249109A0BEB8B0000EB4B105F
:1019F00011F810301278934235D101EB400000907D
:101A000041781098407881422DD108F11700414665
:101A100083B204F1170082B2204602F069FB4FF056
:101A200000090098002500EB0907119888B3314898
:101A3000059A02608020B978E840014203D041460F
:101A4000204602F0F5FA601C84B2A01B182836D09C
:101A5000681CC5B2082DE8D309F1010000F0FF09A8
:101A6000B9F1480FDDD30BF101001FFA80FB01989B
:101A70008345B7D3BAF80200401E83B2BAF800001B
:101A800007B0401E82B2BDE8F04F0021084602F0C8
:101A90002FBB8020B978E84001429AF807001AD09D
:101AA000012818BF059810D002F096FC9AF807009C
:101AB0000128CDD1601C84B2A01B1828C8D108F120
:101AC000010034461FFA80F8C6E7059A41462046D1
:101AD00002F0AEFAEAE7012818BF0698E4D1069AA8
:101AE0004146204602F0A4FAE0E700003800002456
:101AF0001E880008300000242DE9FF4F83B0DFF876
:101B000014A104460646042088464FF0000B0190BD
:101B10004149109A0BEB8B1011F810301278934258
:101B200035D101EB40000090417810984078814217
:101B30002DD108F11F00414683B204F11F0082B28B
:101B4000204602F0D5FA4FF000090098002500EB7E
:101B50000907119888B33148059A02608020B97846
:101B6000E840014203D04146204602F061FA601C81
:101B700084B2A01B202836D0681CC5B2082DE8D33B
:101B800009F1010000F0FF09B9F1800FDDD30BF17D
:101B900001001FFA80FB01988345B9D3BAF802000F
:101BA000401E83B2BAF8000007B0401E82B2BDE802
:101BB000F04F0021084602F09BBA8020B978E84037
:101BC00001429AF807001AD0012818BF059810D0D2
:101BD00002F002FC9AF807000128CDD1601C84B203
:101BE000A01B2028C8D108F1010034461FFA80F854
:101BF000C6E7059A4146204602F01AFAEAE70128AC
:101C000018BF0698E4D1069A4146204602F010FA21
:101C1000E0E7000038000024248A00083000002497
:101C20002DE9F0479946054601EB09001646401E8E
:101C3000DDF8208083B20F46A819401E82B22846E4
:101C400002F056FA06FB09F9DFF86CA00024B9F19E
:101C5000000F0FDD08EB44019AF8072018F8140074
:101C6000012A497814D040EA012002F0B5FB641C37
:101C7000A145EFDCBAF80200401E83B2BAF80000BA
:101C8000BDE8F047401E82B20021084602F030BA9B
:101C900040EA01223946284602F0CAF9681C85B29A
:101CA000601C90FBF6F106FB11000028DFD1A81B99
:101CB00085B2781C87B2DAE7380000242DE9F043BA
:101CC00083B01F4690468946DDE90A460C9D2046B2
:101CD000FEF786FC0A4980B240423B4642460988EC
:101CE000CDE9004601EBC00C494602950CEBDC70D7
:101CF000C0F34F0004F0DCFD03B0BDE8F08300004A
:101D000038000024002804BF0120704770B5044645
:101D100090F85900002520B9204684F8585000F06A
:101D20003AF8022084F8590020680168626821F4BA
:101D30004031114301602068416BA26821F0070126
:101D4000114341632068016CE2686FF30D01114398
:101D500001642068416B4FF48013226993FAA3F366
:101D600021F48011B3FA83F39A4011434163206850
:101D7000416B4FF40013626993FAA3F321F400114D
:101D8000B3FA83F39A4011434163E565012084F877
:101D90005900002070BD70470248016841F0010100
:101DA0000160704720040058802818BF7047012048
:101DB0000149087070470000410000244FF0B04115
:101DC000D1F88820024208BF704710B5C1F88800DA
:101DD000FFF7EAFF10BD00002DE9F84FDFF8F0C172
:101DE0000022DFF8F0A14FF0B0494FF0010E4FF0A4
:101DF0000F080B680EFA02F63340B34240F0E18060
:101E00004C68022C18BF122C13D14FEAD20400EBFD
:101E100084052F6A4FEA42744FEAD46408FA04FB3F
:101E200027EA0B07D1F810B00BFA04F444EA0704D0
:101E30002C6207684FEA420491F804B04FF00305A2
:101E40000BF0030B05FA04F50BFA04FB27EA050770
:101E50004BEA070707604F68012F18BF022F03D016
:101E6000112F18BF122F14D18768D1F80CB027EAB0
:101E700005070BFA04FB4BEA07078760476827EA68
:101E800006060F79C7F3001707FA02F747EA0606B6
:101E90004660C66826EA05058E6806FA04F444EA38
:101EA0000504C4604C6814F0805F7BD0DAF8004011
:101EB00044F00204CAF80040DAF8004004F00204DA
:101EC000009422F0030404F1B046D6F808444FEA27
:101ED00082754FEA157508FA05F724EA0707A0F19D
:101EE000B044B4F500343ED0A0F1B044B4F50134B0
:101EF00008BF012437D0A0F1B044B4F5023408BFC4
:101F0000022430D0A0F1B044B4F5033408BF032458
:101F100029D0A0F1B044B4F5043408BF042422D081
:101F2000A0F1B044B4F5053408BF05241BD0A0F1DE
:101F3000B044B4F5063408BF062414D0A0F1B04470
:101F4000B4F5073408BF07240DD0A0F1B044B4F5B0
:101F5000083408BF082406D0A0F1B044B4F5093411
:101F60000CBF09240A24AC403C43C6F80844DCF802
:101F700000404D689C4315F4803F18BF1C43CCF8CB
:101F80000040DCF804404D689C4315F4003F18BF46
:101F90001C43CCF80440D9F800404D689C4315F42C
:101FA000801F00E00DE018BF1C43C9F80040D9F8BD
:101FB00004404D689C4315F4001F18BF1C43C9F82A
:101FC0000440521C102AFFF414AFBDE8F88F000043
:101FD00080000058F44402580069084018BF0120EE
:101FE00070474269514041617047002A14BF018324
:101FF000418370470148806870470000200000243A
:1020000002488168027811448160704720000024F2
:10201000032010B500F03CFA0F2000F009F800286A
:102020001CBF012010BD00F0F1F9002010BD000020
:1020300070B50D4D04464FF47A712878B1FBF0F07D
:102040000A490968B1FBF0F001F0B2FC48B9102C64
:1020500007D200222146501E00F0E8F900206C60F3
:1020600070BD012070BD0000200000241C00002471
:102070002DE9F05F044690F8A000012804BF02207B
:10208000BDE8F09F0125022084F8A05084F8A1004B
:1020900002EB820000EBC20004EB8003B1E8C11F39
:1020A0003833A3E8C11F91E8C111203983E8C11179
:1020B000204602F0C1F92068456284F8A150002052
:1020C00084F8A000BDE8F09F002804BF01207047FD
:1020D00070B5044690F8A100002520B9204684F888
:1020E000A05000F071F8022084F8A10020688169F6
:1020F00021F070418161D4E901010843D4E9031260
:10210000114301432068826911438161206882681C
:102110002C490A408260A08A020420688368D4F8AF
:1021200018C043EA0C031A4382602068C2680A4060
:10213000C260A08B02042068C368D4F820C043EAC0
:102140000C031A43C260206802690A400261A08C35
:10215000020420680369D4F828C043EA0C031A4338
:1021600002612068426911404161A08D010420682C
:102170004269236B1A431143416194F8350002020E
:1021800094F8360001042068C36A03F07F43C362F9
:102190002068C36A114394F834C043EA0C0319431E
:1021A000C1622068416B41F006014163206881698A
:1021B00041F001018161C4F8A450012084F8A1001C
:1021C000002070BD00F800F0364810B586B00168F8
:1021D00041F008010160006800F0080005903248F5
:1021E000016841F010010160006800F010000590E6
:1021F0002E48016841F002010160016801F002010E
:102200000591016841F020010160016801F02001A1
:102210000591016841F040010160016801F0400151
:102220000591016841F080010160016801F08001C1
:102230000591016841F480710160006803246946DA
:1022400000F4807005902020009001200190CDE9DD
:1022500002041748FFF7C0FD4FF480600090022091
:10226000019000206946CDE902040E200490114837
:10227000FFF7B2FD4FF40C6000900F486946FFF77E
:10228000ABFD4FF47E4000900C486946FFF7A4FD7B
:1022900040F2F76000900A486946FFF79DFD06B0DE
:1022A00010BD0000E4440258D4440258E0440258EF
:1022B000000402580014025800180258001C02586A
:1022C0000020025870B5044690F8A0008C46012802
:1022D00004BF022070BD0125022084F8A05084F8BC
:1022E000A10003EB830000EBC30004EB800000F1CE
:1022F0003801C0F838C0006E6044C1E90102C86A04
:1023000010441A46C860204602F096F820684562DC
:1023100084F8A150002084F8A00070BD70B5044678
:1023200090F8A0008C46012804BF022070BD012552
:10233000022084F8A05084F8A10003EB830000EB96
:10234000C30004EB800000F13801806B60444860FA
:1023500088681044C860C1E90AC21A46204602F0E3
:102360006BF82068456284F8A150002084F8A00032
:1023700070BD0000134A41781160111D03780A1DD9
:10238000002B04BF002008601AD043680B60017B5B
:10239000C37A090741EA0361837A41EAC341437B77
:1023A00041EA8341837B41EA4341C37B41EA0341E4
:1023B000437A41EA0321037A007841EA4301084362
:1023C0001060704798ED00E0BFF35F8F044801682C
:1023D00021F480310160034900200860704700004B
:1023E00024ED00E094ED00E0064940F001000860B3
:1023F0000548016841F480310160BFF34F8FBFF39E
:102400006F8F704794ED00E024ED00E070470028E6
:10241000B8BF704700F01F01012202FA01F1400924
:10242000800000F1E020C0F800117047174B4DF814
:10243000044D1B68C3F30223C3F1070CBCF1040F66
:1024400088BF4FF0040C1C1D072C34BF0023DB1E7B
:10245000012404FA0CFCACF1010C0CEA01019940D6
:1024600004FA03F35B1E1A40114300284FEA0111DE
:10247000B8BF00F00F0000F1E020ACBF80F80014FE
:1024800080F8141D5DF8044B704700000CED00E06F
:10249000074A00F0070011684FF6FF03194041EAB0
:1024A000002040F0FD7040F0806010607047000038
:1024B0000CED00E02DE9F84F0025044600682E469B
:1024C000FF4FDFF8008410F0006F1FD0606E58B12E
:1024D000B0F5801F0DD0B0F5001F0FD0B0F5401F34
:1024E00018BF01251ED010E0386840F40030386075
:1024F00018E00221201D02F0DFFD04E0022104F1BA
:10250000240002F063FE05000CD02E46208810F453
:10251000807F24D0606D05281FD2DFE800F00C1109
:10252000161C1C00D8F80000616E20F4401008430F
:10253000C8F80000EAE7386840F4003038600AE084
:102540000021201D02F0B8FD04E0002104F1240068
:1025500002F03CFE05467DB100E001252E432088B7
:1025600010F4007F2BD0A06D802820D00DDC90B11E
:10257000402815D0012521E0D8F80000616D20F039
:1025800007000843C8F80000E9E7C02818BFB0F505
:10259000807FEFD111E0386840F4003038600CE003
:1025A00004F104004FF0000102F086FD04E0002178
:1025B00004F1240002F00AFE054695B12E4320885E
:1025C000DFF8049310F4806F2FD0D4F8A400B0F596
:1025D000800F22D00EDCA0B1B0F5001F16D001256F
:1025E00022E0D8F80000A16D20F4E0700843C8F89C
:1025F0000000E4E7B0F5C00F18BFB0F5000FEED152
:1026000011E0386840F4003038600CE004F1040058
:102610004FF0000102F050FD04E0002104F124001D
:1026200002F0D4FD054685B12E43208810F4006FDA
:1026300030D0D4F8A800B0F1007F23D00FDCA8B1CF
:10264000B0F1807F17D0012523E0D9F80000D4F83D
:10265000A41020F460000843C9F80000E5E7B0F1D9
:10266000407F18BFB0F1806FEDD111E0386840F4C1
:10267000003038600CE004F104004FF0000102F07B
:102680001BFD04E0002104F1240002F09FFD05463B
:102690007DB12E43206810F0007F20D0A06CE0B107
:1026A000102810D0202813D0302818BF012514D0AE
:1026B00014E0D9F80000D4F8A81020F0E060084336
:1026C000C9F80000E6E7386840F40030386004E0FC
:1026D0000221201D02F0F0FC05467DB12E4320882A
:1026E00010F4805F2DD0E06DB0F5005F21D00DDCDF
:1026F00098B1B0F5805F15D0012521E073480168DD
:10270000A26C21F0300111430160E8E7B0F5405FB1
:1027100018BFB0F5804FEFD111E0386840F40030B9
:1027200038600CE004F104004FF0000102F0C4FC3A
:1027300004E0002104F1240002F048FD054695B1B3
:102740002E43208810F4005F2CD0206EB0F5403F5F
:1027500026D011DC20B3B0F5803F14D0B0F5003F97
:1027600018D001251DE0D8F80000E16D20F4E0400C
:102770000843C8F80000E4E7B0F5802F18BFB0F5B3
:10278000A02FEED10CE004F104004FF0010102F0A3
:1027900093FC04E0012104F1240002F017FD05463A
:1027A0009DB12E43208810F4804F2DD0D4F8AC007A
:1027B000B0F1405F26D011DC20B3B0F1805F14D0BF
:1027C000B0F1005F18D001251DE0D8F80000216E9F
:1027D00020F4E0200843C8F80000E3E7B0F1804FA0
:1027E00018BFB0F1A04FEED10CE004F104004FF09F
:1027F000010102F061FC04E0012104F1240002F077
:10280000E5FC05467DB12E43208810F4004F20D012
:10281000E06EE0B1B0F1805F0FD0B0F1005F18BFA3
:1028200001250FD014E0D9F80000D4F8AC1020F046
:10283000E0400843C9F80000E6E7386840F400309B
:10284000386004E00121201D02F036FC05467DB110
:102850002E43206810F0807F1FD0606CD8B1012813
:102860000FD0022812D0032818BF012513D013E07F
:10287000D8F80000E16E20F040500843C8F800008E
:10288000E7E7386840F40030386004E00221201D9A
:1028900002F012FC054695B12E432068DFF830B0F7
:1028A00010F4800F6CD00B48006840F48071094828
:1028B0000160FFF79FFB8246064800680CE00FE0CE
:1028C0002C44025850440258584402584C44025870
:1028D000104402580048025810F4807F08D012E0DB
:1028E000FE480168626C21F0030111430160D4E7E6
:1028F000FFF780FBA0EB0A00642838D8F84800688E
:1029000010F4807FF4D09DBBDFF8D8A3DAF8000084
:10291000B4F8B01000F4407001F44071884211D056
:10292000DAF80000DAF8001020F4407041F4803149
:10293000CAF80010DAF8001021F48031CAF800104B
:10294000CAF80000D4F8B000B0F5807F29D1FFF7B5
:1029500051FB0090DAF8000010F0020F21D1FFF7D0
:1029600049FB0099411A41F28830814201D903257F
:1029700005E0DAF8000010F0020FF0D08DB12E4320
:102980002078DFF864A310F0010F3ED0A06F182864
:1029900039D026DC48B3082828D010282DD00125AE
:1029A00032E0D4F8B0004FF4407181431CBFDBF833
:1029B000000020F47C500BD0CBF80000DAF80000C7
:1029C000B4F8B010C1F30B010843CAF80000D7E710
:1029D000DBF80010C54A21F47C5102EA10100843CC
:1029E000EAE7202818BF2828D9D10CE004F1040018
:1029F0004FF0010102F060FB04E0012104F124002A
:102A000002F0E4FB054665B12E43207810F0020F7A
:102A10001FD0606F06281AD2DFE800F0170C1117DC
:102A20001717DAF80000A16F20F038000843CAF841
:102A30000000EAE70121201D02F03EFB04E0012135
:102A400004F1240002F0C2FB05467DB100E001253F
:102A50002E43207810F0040F20D0D4F890000628E0
:102A60001AD2DFE800F0170C11171717DAF8000078
:102A7000616F20F007000843CAF80000E9E7012170
:102A8000201D02F019FB04E0012104F1240002F0F2
:102A90009DFB0546ADB100E001252E43207810F0E6
:102AA000200F2ED0D4F88C00B0F1405F27D012DC7C
:102AB00028B3B0F1805F15D0B0F1005F19D00125C7
:102AC0001EE0D9F80000D4F8901020F00700084369
:102AD000C9F80000E2E7B0F1804F18BFB0F1A04F95
:102AE000EDD10CE004F104004FF0000102F0E4FA33
:102AF00004E0022104F1240002F068FB05469DB1C8
:102B00002E43207810F0400F2ED0D4F89800B0F566
:102B1000406F27D012DC28B3B0F5806F15D0B0F528
:102B2000006F19D001251EE0DAF80000D4F88C10EF
:102B300020F0E0400843CAF80000E2E7B0F5805F0B
:102B400018BFB0F5A05FEDD10CE004F104004FF028
:102B5000000102F0B1FA04E0022104F1240002F0C5
:102B600035FB05469DB12E43207810F0800F2ED006
:102B7000D4F89C00B0F5C04F27D012DC28B3B0F5D4
:102B8000005F15D0B0F5804F19D001251EE0D9F8AF
:102B90000000D4F8981020F4E0500843C9F8000071
:102BA000E2E7B0F5004F18BFB0F5204FEDD10CE0D3
:102BB00004F104004FF0000102F07EFA04E002216B
:102BC00004F1240002F002FB054685B32E43207871
:102BD00010F0080F0BD0D4F88000B0F5805F31D032
:102BE000DAF8001021F440510843CAF800002078B8
:102BF00010F0100F0BD0D4F89400B0F5807F28D0DF
:102C0000D9F8001021F440710843C9F80000206889
:102C100010F4002F31D0D4F8A00008B3B0F5803FF5
:102C200023D0B0F5003F18BF012524D024E0FFE7F2
:102C3000D9F80000D4F89C1020F460400843C9F88B
:102C40000000C4E7022104F1240002F0BFFA0643A9
:102C5000CDE7022104F1240002F0B8FA0643D6E7DA
:102C60000021201D02F028FA04E0022104F12400D2
:102C700002F0ACFA054695B12E43206810F4802F7F
:102C800024D0D4F88400B0F5801F12D0B0F5001F16
:102C900014D0B0F5401F18BF012515D015E0D9F8A4
:102CA0000000D4F8A01020F440300843C9F8000018
:102CB000E3E7386840F40030386005E0012104F1B2
:102CC000240002F083FA0546C5B12E43206810F4B3
:102CD000803F29D0E06CD8B10AE000004C44025893
:102CE000004802587044025854440258CFFFFF0075
:102CF000B0F5803F18BF01250FD014E0DAF80000CE
:102D0000D4F8841020F440100843CAF80000DDE72E
:102D1000386840F40030386004E00221201D02F0E1
:102D2000CBF90546DDB12E43206810F0005F05D0D9
:102D3000022104F1240002F049FA0643206810F44D
:102D4000003F1CD0E06FB8B1B0F5807F10D0B0F577
:102D5000007F1CBFB0F5407F01250DD00DE033484A
:102D60000168E26C21F4803141EA02010160DBE795
:102D7000386840F400303860EDB346EA0506206854
:102D800010F4801F08D0D8F80000216F20F0004018
:102D900040EA0100C8F80000206810F0805F09D008
:102DA000DBF80000D4F8B41020F4804040EA0100C1
:102DB000CBF80000206810F4001F08D0D8F80000FD
:102DC000A16E20F0807040EA0100C8F80000206881
:102DD00010F0804F0DD0DBF8000020F40040CBF85D
:102DE0000000DBF80000D4F8B81040EA0100CBF88E
:102DF0000000206800E010E010F0004F07D00B4802
:102E00000168226D21F0405141EA02010160002E6B
:102E10000CBF00200120BDE8F88FDAF80000E16F58
:102E200020F440700843CAF80000A8E74C44025858
:102E30002DE9F047DFF8E49104460E46D9F800008A
:102E400000F00700B0420CD2D9F8000020F00700D3
:102E50003043C9F80000D9F8000000F00700B04284
:102E600047D12078DFF8B88110F0020F07D0D8F8EA
:102E70000000E16820F00F000843C8F80000207847
:102E800010F0010F70D0D8F80000A16820F4706035
:102E90000843C8F8000060686249022825D003286A
:102EA00028D0096801282AD011F0040F6FD05E4F96
:102EB000396821F0070108433860FFF79BF80546A1
:102EC000606841F2883A02281DD003282BD00128DF
:102ED000386800F0380036D020B3FFF78BF8401B7D
:102EE00050453DD90320BDE8F087096811F4003F43
:102EF000DDD14CE0096811F0007FD8D147E011F432
:102F0000807FD4D143E0386800F0380010282BD0FF
:102F1000FFF770F8401B5045E4D8386800F03800DF
:102F20001028F5D120E0386800F0380018281BD0B0
:102F3000FFF760F8401B5045D4D8386800F03800DF
:102F40001828F5D110E008280ED0FFF753F8401BE1
:102F50005045C7D8386800F038000828F5D103E09C
:102F6000386810F0380FB8D1D9F8000000F0070029
:102F7000B0420FD9D9F8000020F007003043C9F85B
:102F80000000D9F8000000F00700B04202D0012094
:102F9000BDE8F087207810F0040F07D0D8F80000C3
:102FA000216920F070000843C8F80000207810F074
:102FB000080F1E4805D00168626921F070011143B5
:102FC0000160217811F0100F05D00168A26921F489
:102FD000E06111430160207810F0200F06D0144802
:102FE0000168E26921F070011143016000F026F8E8
:102FF000D8F800104FF4807292FAA2F201F47061D6
:10300000B2FA82F2D1400B4A515CC8400A490860CA
:103010000F20FFF70DF80020BDE8F08700200052D8
:103020001844025800440258104402581C440258E4
:1030300020440258C89800081C0000244A4870B474
:1030400000684B4C10F0380148480ED008294FEA70
:10305000201C07D0474D102902BF284670BC70477E
:1030600018290ED070BC60467047216811F0200FFF
:1030700004BF70BC7047216870BCC1F3C101C84077
:1030800070473D490A68096812F003023B4BC1F3DF
:1030900005111B683A4E03F001033668DFED390A6B
:1030A000B7EE001AC6F3CC0616FB03F300EE103A97
:1030B000354BB8EE400A17D0012A01D0022A2FD092
:1030C000BCFBF1F001EE900A1868B8EE612AC0F37B
:1030D000080001EE900AF8EE611A40EE201A31EE77
:1030E000810A22EE000A2EE0226812F0200F03D09F
:1030F0002268C2F3C102D040B0FBF1F001EE900AA9
:103100001868B8EE612AC0F3080001EE900AF8EEE4
:10311000611A40EE201A31EE810A22EE000A12E016
:10312000B5FBF1F001EE900A1868B8EE612AC0F321
:10313000080001EE900AF8EE611A40EE201A31EE16
:10314000810A22EE000A186870BCC0F34620401CB9
:1031500000EE900AF8EE600A80EE201ABCEEC10A7A
:1031600010EE100A70470000104402580090D0037F
:103170000044025840787D01284402582C440258EB
:103180003444025800000039304402582DE9F05F01
:1031900004460078FC4F41F28838FC4E10F0010FD5
:1031A000FB4D5CD0386800F0380010281DD038681E
:1031B00000F03800182804D1306800F0030002281D
:1031C00013D06068B0F5803F04BF286840F48030B9
:1031D00014D010B1B0F5A02F1BD0286820F4803097
:1031E0002860286820F4802008E0286810F4003F58
:1031F00035D06068002800F08A8230E0286060687E
:10320000D8B1FEF7F7FE8146286810F4003F08D0D9
:1032100025E0286840F480202860286840F4803049
:10322000ECE7FEF7E7FEA0EB0900404500F2E8817D
:10323000286810F4003FF4D011E0FEF7DBFE814671
:10324000286810F4003F0AD0FEF7D4FEA0EB090076
:10325000404500F2D581286810F4003FF4D1207871
:10326000DFF830A310F0020F6FD038684FF47C3BCA
:1032700010F0380F18D0386800F03800182804BF54
:10328000306810F0030F0FD0E06870B3296821F0A8
:10329000190141EA00002860FEF7ACFE814628686B
:1032A00010F0040F22D02CE0286810F0040F03D097
:1032B000E068002800F02B822868E16820F01900FF
:1032C00008432860FEF796FE8146286810F0040F38
:1032D00017D1FEF78FFEA0EB0900022800F29081C3
:1032E000286810F0040FF4D00BE018E0FEF782FE1F
:1032F000A0EB0900022800F28381286810F0040F77
:10330000F4D0DAF800009BFAABF22169B2FA82F24B
:1033100020F47C3091400843CAF8000015E028688A
:1033200020F001002860FEF765FE8146286810F055
:10333000040F0AD0FEF75EFEA0EB0900022800F29F
:103340005F81286810F0040FF4D1207810F0100F7E
:1033500054D038684FF0F84B00F03800082818D0E7
:10336000386800F03800182804D1306800F00300F5
:1033700001280ED0E069002828682BD040F080009A
:103380002860FEF737FE8146286810F4807F09D058
:1033900012E0286810F4807F1CBFE06980280BD001
:1033A00000F0B5B9FEF726FEA0EB090002287CD894
:1033B000286810F4807FF5D0DAF800009BFAABF2B1
:1033C000216AB2FA82F220F0F84091400843CAF82C
:1033D000000013E020F080002860FEF70BFE81461D
:1033E000286810F4807F09D0FEF704FEA0EB0900E6
:1033F00002285AD8286810F4807FF5D1207810F080
:10340000080F35D0DFF890A160690028DAF80000D5
:1034100017D040F00100CAF80000FEF7EBFD81462E
:10342000DAF8000010F0020F22D1FEF7E3FDA0EB66
:103430000900022839D8DAF8000010F0020FF4D0A1
:1034400016E020F00100CAF80000FEF7D3FD814627
:10345000DAF8000010F0020F0AD0FEF7CBFDA0EB67
:103460000900022821D8DAF8000010F0020FF4D188
:10347000207810F0200F2DD0A0690028286815D0E2
:1034800040F480502860FEF7B5FD8146286810F4AE
:10349000005F1FD1FEF7AEFDA0EB0900022804D8A3
:1034A000286810F4005FF5D014E07CE020F4805030
:1034B0002860FEF79FFD8146286810F4005F09D060
:1034C000FEF798FDA0EB090002286CD8286810F4DC
:1034D000005FF5D1207810F0040F78D0DFF8BCA0A1
:1034E000DAF8000040F48070CAF80000FEF782FDB0
:1034F0008146DAF8000010F4807F0AD1FEF77AFDE9
:10350000A0EB090064287BD8DAF8000010F4807F73
:10351000F4D0A068DFF888A0012804BFDAF8000022
:1035200040F001000CD008B1052816D0DAF80000F0
:1035300020F00100CAF80000DAF8000020F00400D2
:10354000CAF80000A06868B3FEF754FD8146DAF8B7
:10355000000010F0020F0BD039E0DAF8000040F064
:103560000400CAF80000DAF8000040F00100E7E7C4
:10357000FEF740FDA0EB0900404541D8DAF8000015
:1035800010F0020FF4D022E01044025828440258F0
:103590000044025804440258744402580048025837
:1035A0007044025800E02BE0FEF724FD8146DAF873
:1035B000000010F0020F0AD0FEF71CFDA0EB09007E
:1035C00040451DD8DAF8000010F0020FF4D1606A0F
:1035D000F0B3396801F0380118297DD00228286835
:1035E00020F0807028600ED0FEF704FD04462868A5
:1035F00010F0007F2CD0FEF7FDFC001B02287ED9C6
:103600000320BDE8F09FFEF7F5FC0746286810F0A0
:10361000007F08D0FEF7EEFCC01B0228F0D8286817
:1036200010F0007FF6D13068E16A20F0F30020F45A
:10363000407040EA0110A16A0843306094F83400F9
:10364000218E4002A0F50070491E00F47E4000E08B
:103650005AE0C1F308010843218F4FF4FE02491ECE
:1036600002EA0141084394F83C101202491E02EAA2
:103670000161084327490860081D01684FF6F87387
:10368000A26C93FAA3F36FF3CF01B3FA83F39A40DA
:103690001143016020480168226C21F00C011143A4
:1036A00001600168626C21F0020111430160016850
:1036B00041F480310160016841F40031016001682A
:1036C00041F480210160016841F001010160286836
:1036D00040F08070286001E019E010E0FEF78AFCFD
:1036E0000446286810F0007F0ED1FEF783FC001B13
:1036F000022885D8286810F0007FF6D004E02868FA
:1037000010F0007F7FF477AF0020BDE8F09F01202C
:10371000BDE8F09F304402582C440258002804BFF2
:103720000120704770B5044690F82C000D4628B96A
:10373000002084F82D00204600F018F8022084F8BC
:103740002C002068211DFDF781FDD4E900022946E7
:10375000FDF7C3FD0448016841F00041016001200C
:1037600084F82C00002070BD0040005235484DF810
:1037700004ED87B0016841F002010160006800F0CB
:10378000020005903048016841F4805101600068F2
:1037900000F4805005902D48016841F0040101605B
:1037A000016801F004010591016841F00801016020
:1037B000016801F008010591016841F01001016004
:1037C000016801F010010591016841F020010160DC
:1037D000016801F020010591016841F0400101609C
:1037E0000068694600F0400005900D20009002201E
:1037F000019001200290032003900C2004901448B3
:10380000FEF7EAFA4CF20370009012486946FEF7A0
:10381000E3FA4FF6837000900F486946FEF7DCFA32
:103820004FF63F0000900D486946FEF7D5FA48F282
:10383000371000900A486946FEF7CEFA07B05DF8E7
:1038400004FB0000F4440258D4440258E0440258F7
:1038500000080258000C02580010025800140258C8
:103860000018025810B5044690F82C00022808BF32
:1038700010BD022084F82C002068FDF716FD012001
:1038800084F82C00002010BD70B5044690F82C0080
:103890000D46022808BF70BD022084F82C00206865
:1038A000FDF709FD286802280CBF0520012084F8D7
:1038B0002C00002070BD0000002804BF01207047CC
:1038C00070B5044690F8450015460E4628B900200C
:1038D00084F84400204600F021F8206804F1080133
:1038E000FDF744FCA26831462068FDF77DFCE36AE1
:1038F0002946D4E90102FDF715FCA168206850F8BB
:10390000212042F0010240F821200348016841F0E3
:1039100000410160002070BD004000521A484DF87F
:1039200004ED87B0016841F480510160006800F443
:10393000805005901548016841F008010160016858
:1039400001F008010591016841F010010160006873
:10395000694600F0100005904EF2B370009002200E
:10396000019001200290032003900C20049008484D
:10397000FEF732FA4FF68070009006486946FEF76F
:103980002BFA07B05DF804FBD4440258E044025817
:10399000000C0258001002584FF0E021042808697A
:1039A0000CBF40F0040020F00400086170470000E4
:1039B000401EB0F1807F24BF012070474FF0E0210E
:1039C0004861F020044A82F8140D00208861072025
:1039D00008610020704700000FE000E0FEE70000F3
:1039E0002DE9F041374E07460024306820F440604E
:1039F0003060306830602546002230461021FEF7E6
:103A0000F4FA022003F038FC012230461021FEF7C0
:103A1000ECFA60062021040E3046FEF7DDFA00289D
:103A20001CBF601CC4B2012003F026FC681CC5B298
:103A3000082DE1D34FF000024FF0100130460FB3D4
:103A4000FEF7D3FA306820F440603060306840F40C
:103A500080603060002230462021FEF7C6FA022046
:103A600003F00AFC012230461021FEF7BEFA0220C4
:103A700003F002FC002230461021FEF7B6FA204681
:103A8000BDE8F081FEF7B1FA306820F440603060A4
:103A9000306840F480603060012230462021FEF71B
:103AA000A4FA022003F0E8FB012230461021FEF7C1
:103AB0009CFA022003F0E0FB002230461021FEF7C2
:103AC00094FADCE7001C025870B51C4E05463046DF
:103AD000316821F440613160316841F480613160C6
:103AE00000221021FEF781FA002415F0800F05D086
:103AF000012230462021FEF778FA04E00022304609
:103B00002021FEF772FA6806050E022003F0B4FBCE
:103B1000012230461021FEF768FA022003F0ACFBC8
:103B2000002230461021FEF760FA022003F0A4FBC9
:103B3000601CC4B2082CD8D370BD0000001C025811
:103B400010B5124C206820F440602060206840F4DA
:103B500080602060012220462021FEF746FA0122E3
:103B600020461021FEF741FA042003F085FB0022D5
:103B700020462021FEF739FA042003F07DFB0022C5
:103B80002046BDE810401021FEF72FBA001C025855
:103B900010B5124C206820F440602060206840F48A
:103BA00080602060002220461021FEF71EFA0022CD
:103BB00020462021FEF719FA042003F05DFB0122C4
:103BC00020461021FEF711FA042003F055FB0122D4
:103BD0002046BDE810402021FEF707BA001C02581D
:103BE00070B5294D0024286820F4406028602868BA
:103BF0002860012220212846FEF7F7F9012003F072
:103C00003BFB012228461021FEF7EFF9012003F0CB
:103C100033FB20212846FEF7DFF900282DD0601C59
:103C2000C4B2FA2C23D9286820F4406028602868A0
:103C300040F480602860002228461021FEF7D5F964
:103C4000002228462021FEF7D0F9042003F014FBBF
:103C5000012228461021FEF7C8F9042003F00CFBCE
:103C6000012228462021FEF7C0F9012070BD202145
:103C70002846FEF7B1F90028D1D1002228461021AC
:103C8000FEF7B3F9002070BD001C02581B4870B548
:103C900086B0016841F001010160016801F0010195
:103CA0000591016841F004010160016801F004011F
:103CB0000591016841F0800101600068032500263C
:103CC000694600F08000059002200124CDE902053C
:103CD0000B48CDE90046FEF77FF860036946CDE961
:103CE00000060848CDE90245FEF776F80C20009062
:103CF00005486946FEF770F806B070BDE04402580A
:103D00000000025800080258001C02582DE9F0413A
:103D1000344C0126344F0128DFF8D080344D08BFE1
:103D2000267001D02078A8B108212846FEF754F962
:103D3000B8B104212846FEF74FF990B14FF4005175
:103D40003846FEF749F960B101214046FEF744F9D3
:103D5000012806D008212846FEF73EF901283ED169
:103D60002AE00A2003F062FA002020700821284689
:103D7000FEF732F9002804BF0120BDE8F0810421DC
:103D80002846FEF729F9002804BF0220BDE8F0818B
:103D90004FF400513846FEF71FF9002804BF0320F6
:103DA000BDE8F08101214046FEF716F9012804BF65
:103DB0000420BDE8F08112E004212846FEF70CF94A
:103DC00001280CD141033846FEF706F9012806D137
:103DD00001214046FEF700F9002808BF26700020A8
:103DE000BDE8F0814000002400080258000002589D
:103DF000001C02580549C979012905D0002918BFBE
:103E0000704780B200F000BC01F06ABA38000024AC
:103E1000DFF814C008B5BCF800C01FFA8CFCCDF860
:103E200000C000F01BF908BD300000242DE9F04F60
:103E3000002682465F1A3546A2EB00088946B8F193
:103E4000000F83B0C8BF012007DC0FBF00204FF078
:103E5000FF300190C8F1000800D10190002FC8BFC9
:103E6000012006DC0FBF00204FF0FF3000907F42A2
:103E700000D10090B845CCBF44463C464FF0000B03
:103E8000601C52BF029003B0BDE8F08F1FFA89F1A9
:103E90000D4A1FFA8AF0126800F0CAF84644A6429A
:103EA0003D4402DD0198361B8244A54202DD0098A4
:103EB0002D1B81440BF101001FFA80FB0298834502
:103EC000E4DD03B0BDE8F08F300000242DE9F04FB1
:103ED0008DB04FF0000AD146DDF858C060452EBFC6
:103EE00062450DB0BDE8F08F61452EBF63450DB052
:103EF000BDE8F08F121A04925A1A0192049ACDE981
:103F00000201002AC8BF012008DC0FBF00204FF0CB
:103F1000FF300790504218BF049000D107900198DD
:103F2000002808BF0020C8BF012001DB099006E07F
:103F30004FF0FF3009900198C0F100000190049902
:103F400001988142CCBF8846804600200A90B8F193
:103F5000FF3F44BF0DB0BDE8F08FCCF1000003215E
:103F600001EB4000089008F101000B900298002638
:103F7000DDE9164B06900398002C089F05901CDB8A
:103F8000A64235460ADCCDF800B02B46DDE9051027
:103F9000324603F0EBF86D1CA542F4DD002FBCBFE8
:103FA00007EB8600871D05DB301B641E07EB8000D6
:103FB00000F10A07761CA642E2DD049882440198CB
:103FC000C245814405DD0799AAEB080A0298084416
:103FD0000290C14505DD0999A9EB08090398084439
:103FE00003900A980B99401C80B20A908842BDDD6C
:103FF0000DB0BDE8F08F2DE9F0411C4615460E4688
:1040000007460B46FFF712FF3A4623463146104655
:10401000FFF70CFF23462A4619463846FFF706FFEE
:104020002A46234631461046BDE8F041FFF7FEBE62
:10403000054BDB79012B05D0002B18BF704792B2DE
:1040400000F00ABB01F088B93800002408B5DDF89B
:1040500008C0CDF800C000F001F808BD38B50A4C22
:10406000DDF810C0E479012C09D0002C18BF38BD50
:104070001FFA8CFCCDF800C000F002FB38BDCDF873
:1040800000C001F0ADF938BD3800002410B501F0D2
:1040900021FB084CA08028B10120E071BDE8104050
:1040A00001F022BA0020E07100F094FB00F010FE55
:1040B000A08010BD38000024054AD279012A05D01D
:1040C000002A1CBF0020704700F028BE01F04EBB44
:1040D000380000240549C979012904D0002918BFF6
:1040E000704700F05BBE01F00BB9000038000024FF
:1040F000DFF810C09CF807C0BCF1000F18BF704774
:1041000000F0FABE380000242DE9FF4F83B00746C7
:10411000884650499146DDE91004129E20380988EE
:10412000C5B208EB0400401E83B207EB5400401EEA
:1041300089B2019182B241463846FFF7D9FF46491C
:10414000002E4FF0000A01F2744241D0002C2ED90B
:1041500005EB450001EB8000029002EB051000909A
:104160000C2C0CBF0298009810F80A600025B5EBE3
:10417000540F38BF08EB0A0B13D2364816F0800FE5
:10418000C0F8009006D078194A461FFA8BF180B229
:10419000FFF74EFF7006060E681CC5B2B5EB540F54
:1041A000EBD30AF1010000F0FF0AA245D8D3294958
:1041B0000198086029484188008807B0491E401EC0
:1041C000BDE8F04F8BB282B200210846FFF790BFE6
:1041D000002CECD905EB450001EB8000029002EBCE
:1041E000051000900C2C0CBF0298009810F80A6083
:1041F0000025B5EB540F38BF08EB0A0B11D2174856
:1042000016F0800FC07919D0012818BF48460FD08A
:1042100000F0E2F87006060E681CC5B2B5EB540F4C
:10422000EDD30AF1010000F0FF0AA245DAD3BEE7A0
:1042300078194A461FFA8BF180B208E0012818BFAE
:104240000698E5D17819069A1FFA8BF180B2FFF72C
:10425000EFFEDFE7300000246E7400083800002411
:104260002DE9FF4F83B04FF000081D0093468146B3
:104270004446109E19BFA5F1010A770807B0BDE8B2
:10428000F08F0A23281B401E0121C2B2501EC0B26B
:1042900004D301FB03F1401EC0B2FAD2BBFBF1F024
:1042A0001E49A1FB0021C9084942B8F1000F01EBEA
:1042B000810100EB410006D1544504DA002818BF03
:1042C0004FF0010818D03030C0B2CDE900061448D4
:1042D000002102910499008883B21248008882B2BA
:1042E00007FB049080B2FFF70FFF601CC4B2AC4222
:1042F000C7D307B0BDE8F08F002020210091CDE9A1
:10430000016007480499008883B20648008882B299
:1043100007FB049080B2FFF7F7FEE6E7CDCCCCCCEC
:1043200034000024300000242DE9F04F83B005460E
:1043300018781C4616468946DDF8308020385E28FD
:1043400084BF03B0BDE8F08F164FDFF85CA0DFF844
:104350005CB03888401EA842BCBF03B0BDE8F08FF7
:104360007888401E4845BCBF03B0BDE8F08F207878
:104370004946CDE90006CDF80880BAF8000083B2BE
:10438000BBF8000082B22846FFF7BEFE05EB5600E0
:1043900085B214F8010F20385E28DAD903B0BDE8E1
:1043A000F08F000038000024340000243000002486
:1043B0000349C979002918BF704700F0FDBD00000E
:1043C000380000240349C979002918BF704700F05C
:1043D00001BE0000380000240349C979002918BF34
:1043E000704700F005BE000038000024104810B5EA
:1043F00086B0016841F002010160006801210D4CA6
:1044000000F0020005900320CDE90001CDE9021083
:1044100069462046FDF7E0FC012220461146FDF7E3
:10442000E4FD012220460221FDF7DFFD06B010BDAC
:10443000E044025800040258F0B4D0F800C08B8861
:10444000DCF80C40C4F30B4423441C04882303EB26
:10445000C2135CF8035005F470454CF80350D0F8D3
:1044600000C00D68DCF80C60C6F30B46761C3544C2
:104470002C434CF80340D0F800C08B89DCF80C408A
:10448000C4F30A0423441C048C2303EBC2135CF81A
:10449000035005F470454CF80350D0F800C08D6807
:1044A000DCF80C60C6F30A06761C35442C434CF845
:1044B0000340D0F800C0942303EBC2135CF8034020
:1044C00024F007044CF803400468D1F810C044F805
:1044D00003C091F83130D0F800C01F0291F832309B
:1044E0001E040B7E1D069C2303EBC2135CF80340E5
:1044F00000244CF8034091F830C035434CEA070CD7
:104500004CEA050C056845F803C0D0F800C09823B4
:1045100003EBC2135CF8035025F0FF054CF8035081
:104520000568D1F814C045F803C0D0F800C0A02336
:1045300003EBC2135CF8035025F0070525F4E06592
:104540004CF80350D1E907C54CEA050C056845F85D
:1045500003C0D0F800C0AC2303EBC2135CF80350D7
:104560004CF803400468D1F824C044F803C00B6938
:10457000002B08BF04230CD0012B08BF032308D055
:10458000042B18BF022B3BD0032B1CBF072B01238E
:1045900036D004684FF0B00C0CEBC21C54F80C5031
:1045A00005F0E02544F80C50D1E90054A4EB0504D3
:1045B0000D8D04FB03F405FB03F304F1070444EA47
:1045C0000343046844F80C30D0F800C04FF0B40343
:1045D00003EBC2135CF803406FF30A044CF803408A
:1045E000D0F800C0C96A4CF8031000684FF084018D
:1045F00001EBC211425842F001024250F0BC704738
:104600004FF00203C5E7000070B505461048018869
:10461000408801FB00F4401E83B2481E82B2002194
:10462000084600F069FC0021002C98BF70BDF820FE
:10463000084A00EA1523FC2000EAD50CE806000E23
:10464000137082F800C01070491CA142F8D370BDED
:10465000F40000240000046010B514460B46024626
:1046600000F04AFCF82000EA142104480170FC2103
:1046700001EAD4010170E100017010BD0000046086
:104680002DE9F041A2EB000C0CF1010C1FFA8CF4A7
:10469000069FA3EB010C0CF1010C1FFA8CF500F046
:1046A0002BFC0026002D18D9F820124900EA172209
:1046B000FC2000EAD703F8064FEA106C0020002C1B
:1046C00007D90A700B7081F800C0401C80B2844288
:1046D000F7D8701C86B2AE42F0D3074841880088F4
:1046E000491E401EBDE8F0418BB282B2002108464F
:1046F00000F002BC00000460F40000240FB4304855
:1047000070B5016890B041F00201016000680125B8
:10471000032600F0020000904FF49070CDE90B05E5
:1047200028480BA9CDE90D56FDF756FBFDF74CFEC9
:1047300000248DF80C40700701901B208DF80800B4
:104740008DF8094068468DF80D408DF800508DF8C1
:104750000A408DF80E408DF801408DF80B608DF801
:104760000F50FDF707FE0420FDF73EFE174814AA80
:10477000154901601649C0E90114C46029030461A8
:1047800044618461C461C0E908418900C0E90A410B
:1047900089010463C0E90D411120CDE904045520CD
:1047A0000A9406901520CDE914040E2016900748AF
:1047B00004A91A94FFF780F810B070BC5DF814FBE0
:1047C000E04402580004025800400052A8000024AF
:1047D000044100522DE9704688B03B463946CDE988
:1047E0000078CDF808B0FFF789FF642002F01EFDC5
:1047F000E220ADF80000BDF80000ADF80000BDF803
:104800000000FE4D28701D20ADF80000BDF800002E
:10481000ADF80000BDF800006C1C20700220ADF85F
:104820000000BDF80000ADF80000BDF800002070E9
:104830004FF0040AADF800A0BDF80000ADF800008C
:10484000BDF800002070642002F016FD4FF0E00972
:10485000ADF80090BDF80000ADF80000BDF8000014
:1048600028700126ADF80060BDF80000ADF800002A
:10487000BDF8000020700A2002F0D8FCADF80090CE
:10488000BDF80000ADF80000BDF8000028704FF042
:104890000309ADF80090BDF80000ADF80000BDF8C8
:1048A000000020700C2002F0C1FCADF80060BDF8E3
:1048B0000000ADF80000BDF8000028700A2002F0EA
:1048C000B5FCE620ADF80000BDF80000ADF8000032
:1048D000BDF8000028702F20ADF80000BDF80000E2
:1048E000ADF80000BDF800002070FF21ADF8001009
:1048F000BDF80000ADF80000BDF800002070ADF874
:104900000010BDF80000ADF80000BDF800002070F8
:10491000B020ADF80000BDF80000ADF80000BDF813
:10492000000028702020ADF80000BDF80000ADF8B0
:104930000000BDF8000020700020ADF80000BDF8B8
:104940000010ADF80010BDF800102170ADF8009017
:10495000BDF80010ADF80010BDF80010217040F255
:104960001F31ADF80010BDF80010ADF80010BDF813
:1049700000102170ADF80060BDF80010ADF8001017
:10498000BDF80010217040F2DF11ADF80010BDF845
:104990000010ADF80010BDF800102170ADF8000057
:1049A000BDF80010ADF80010BDF800102170B42162
:1049B000ADF80010BDF80010ADF80010BDF8001003
:1049C0002970ADF800A0BDF80010ADF80010BDF8DA
:1049D0000010217040F21F41ADF80010BDF800102A
:1049E000ADF80010BDF800102170ADF80000BDF862
:1049F0000010ADF80010BDF8001021702E21ADF8A8
:104A00000010BDF80010ADF80010BDF800102170C6
:104A1000ADF80000BDF80010ADF80010BDF80010B2
:104A20002170ADF80000BDF80010ADF80010BDF821
:104A300000102170ADF80000BDF80010ADF80010B6
:104A4000BDF800102170ADF80000BDF80010ADF801
:104A50000010BDF800102170B621ADF80010BDF8AF
:104A60000010ADF80010BDF8001029700221ADF85B
:104A70000010BDF80010ADF80010BDF80010217056
:104A80004FF40371ADF80010BDF80010ADF8001040
:104A9000BDF800102170ADF80000BDF80010ADF8B1
:104AA0000010BDF8001021701721ADF80010BDF8FE
:104AB0000010ADF80010BDF8001021701521ADF800
:104AC0000010BDF80010ADF80010BDF80010217006
:104AD000ADF80000BDF80010ADF80010BDF80010F2
:104AE0002170ADF80000BDF80010ADF80010BDF861
:104AF00000102170F021ADF80010BDF80010ADF8E5
:104B00000010BDF800102970ADF80000BDF80010CD
:104B1000ADF80010BDF8001021702921ADF800108B
:104B2000BDF80010ADF80010BDF800102970D021BC
:104B3000ADF80010BDF80010ADF80010BDF8001081
:104B40002970ADF80000BDF80010ADF80010BDF8F8
:104B500000102170BE21ADF80010BDF80010ADF8B6
:104B60000010BDF8001029704FF0050AADF800A044
:104B7000BDF80010ADF80010BDF800102170FE2146
:104B8000ADF80010BDF80010ADF80010BDF8001031
:104B90002170ADF80060BDF80010ADF80010BDF850
:104BA00000102170ADF80000BDF80010ADF8001045
:104BB000BDF800102170ADF80000BDF80010ADF890
:104BC0000010BDF800102170ADF80000BDF8000025
:104BD000ADF80000BDF800002070B820ADF800006E
:104BE000BDF80000ADF80000BDF800002870ADF879
:104BF0000090BDF80000ADF8000001E0FFFF036089
:104C0000BDF800002070ADF80060BDF80000ADF800
:104C10000000BDF800002070BA20ADF80000BDF81B
:104C20000000ADF80000BDF800002870ADF800608D
:104C3000BDF80000ADF80000BDF800002070642051
:104C400000F0FAF81F4869460197CDF800A0CDE9B9
:104C50000478CDF818B0CDF808A00397C36A82682D
:104C60004068FCF75FFA012000F098F8164801222E
:104C70002021FDF7BAF915484FF6FF7501884088E5
:104C800001FB00F6401E83B2481E82B20021084696
:104C900000F032F90020002E9CBF08B0BDE87086FD
:104CA000F821FC22EB0601EA15211B0E02EAD502CF
:104CB000217022702370401CB042F9D308B0BDE8C7
:104CC00070860000A800002400040258F4000024AC
:104CD00070B582B0002001AC0190A120ADF80000B9
:104CE000BDF80000ADF80000BDF800000A490870EA
:104CF00002254E1C3078ADF80000BDF8000004F825
:104D0000010B052002F0B8FA6D1EF3D2BDF80500C4
:104D100002B040BA70BD0000FFFF0360F8B51D4C43
:104D20002288824287BF62888A420020F8BD0B46F3
:104D3000024600F0E1F82089ADF80000BDF800005F
:104D4000ADF80000BDF80000134908704E1C307823
:104D5000ADF80000BDF80050012002F08DFA307867
:104D6000ADF80000BDF80040012002F085FA30786F
:104D7000ADF80000BDF80060012002F07DFA05F0FA
:104D8000F80104F0FC020902F0B241EAC20141EA72
:104D9000D000F8BDF4000024FFFF0360F0B4224906
:104DA0002C22224C4FF448734FF02B064FF02A0769
:104DB00004F101054FF0360CCA802E220A8110F052
:104DC00003004FF4F072087106D001280CD00228BD
:104DD00012D0032818D01FE04E818F810A804B80AB
:104DE00084F800C0A02216E04F818E810B804A809B
:104DF00084F800C000220EE04E818F810A804B8033
:104E000084F800C0602206E04F818E810B804A80CA
:104E100084F800C0C0222A70054A0B881380498894
:104E200051809071F0BC7047F4000024FFFF0360D4
:104E3000380000240000000081B0BE21ADF8001051
:104E4000BDF80010ADF80010BDF80010264A117032
:104E50000521ADF80010BDF80010ADF80010BDF848
:104E6000002022490A7000EE100A9FED211BB8EEC7
:104E7000400B20EE010BBCEEC00B10EE100AADF89B
:104E80000000BDF80000ADF80000BDF8000008709B
:104E90000120ADF80000BDF80000ADF80000BDF83D
:104EA00000000870FF20ADF80000BDF80000ADF86C
:104EB0000000BDF8000008700020ADF80000BDF84B
:104EC0000020ADF80020BDF800200A70ADF8000009
:104ED000BDF80000ADF80000BDF80000087001B09A
:104EE0007047000000000000FFFF03600000046046
:104EF00066666666666604402DE9F041DFF8B480B8
:104F0000154600EB050C074640460E461C4698F831
:104F10000420018832B140883319022A0DD0032AB7
:104F200039D012E0ACEB0500ACEB00028A1A521E3D
:104F3000081A401E97B285B207E0191B5A1A821A46
:104F4000521E401A401E96B284B2B8F80A00FFF70B
:104F500039FA380AFFF72CFAF8B2FFF729FA280ACB
:104F6000FFF726FAE8B2FFF723FAB8F80C00FFF7CC
:104F700029FA300AFFF71CFAF0B2FFF719FA200AF3
:104F8000FFF716FAE0B2FFF713FAB8F80600BDE82B
:104F9000F041FFF717BAACEB0502ACEB020CA1EB4A
:104FA0000C0C891A491EACF1010C1FFA8CF78DB25A
:104FB000C3E70000F40000244DF8040DBDF8000024
:104FC000ADF80000BDF800000149087001B070475D
:104FD000000004604DF8040DBDF80000ADF80000BD
:104FE000BDF800000149087001B07047FFFF036081
:104FF000F82101EA102204490A70FC2202EAD002D8
:105000000A70C00008707047000004607047704765
:1050100070B584B021A0FBF747FF254E28231E2141
:105020001A4608460096FCF7FBFD10254FF6E07384
:1050300020A001240294CDE900051F224B212A2043
:1050400001F036FC282300961E211A465A20FCF750
:10505000E7FD18A04FF6E073CDE900051F2202948A
:105060004B21662001F024FC282300961E211A46BD
:105070009620FCF7D5FD0FA04FF6E073CDE90005B3
:105080001F2202944B21A22001F012FC04B04FF425
:105090009660BDE8704002F0C9B80000B2E2CAD420
:1050A000383ACDBCC6ACCFD4CABEB2E2CAD4000036
:1050B0002C8C0008515100002DE9F047DFF8FC90DE
:1050C000044600278846D9F80000032131EA000091
:1050D00004BF0120BDE8F087394D286820F08060CA
:1050E0002860FCF787FF0646286810F0006F08D09C
:1050F000FCF780FF801B022855D8286810F0006F4D
:10510000F6D1D9F80000216820F47C3040EA013063
:10511000C9F80000207A4FF4FE02A1884002491E1F
:10512000A0F5007000F47E40C1F308010843A18996
:10513000491E02EA01410843217C1202491E02EA8B
:10514000016108431F4908601F480168626921F036
:10515000C001114301600168A26921F020011143DF
:105160000160B8F1000F14D00168B8F1010F0CBF55
:1051700041F4801141F400110160286840F0806022
:105180002860FCF737FF0446286810F0006F05D050
:1051900010E0016841F400210160EEE7FCF72AFF0E
:1051A000001B022802D90320BDE8F087286810F010
:1051B000006FF3D03846BDE8F0870000284402585D
:1051C00000440258384402582C4402582DE9F04754
:1051D000DFF8FC90044600278846D9F80000032138
:1051E00031EA000004BF0120BDE8F087394D28688E
:1051F00020F080502860FCF7FDFE0646286810F07D
:10520000005F08D0FCF7F6FE801B022855D82868FE
:1052100010F0005FF6D1D9F80000218820F07C70F2
:1052200040EA0150C9F80000207A4FF4FE02A1883C
:105230004002491EA0F5007000F47E40C1F3080151
:105240000843A189491E02EA01410843217C120258
:10525000491E02EA016108431F4908601F480168AE
:10526000626921F44061114301600168A26921F47F
:10527000007111430160B8F1000F14D00168B8F15A
:10528000010F0CBF41F4000141F0807101602868FA
:1052900040F080502860FCF7ADFE0446286810F00E
:1052A000005F05D010E0016841F480010160EEE785
:1052B000FCF7A0FE001B022802D90320BDE8F087FE
:1052C000286810F0005FF3D03846BDE8F087000092
:1052D0002844025800440258404402582C440258C2
:1052E00008B500900548018BC08A491E8BB2401E4C
:1052F00082B20021084600F073F808BD0C020024B9
:10530000DFF84CC000F003034DF8044D644600285C
:105310008CF81530A1888AB2218889B212BF022880
:10532000ACF81620ACF8181006D0012812BF0328DC
:10533000ACF81610ACF8182006488371BCF81610AB
:105340000180BCF8181041805DF8044B70470000E4
:105350000C02002438000024F0B41F4B94B21F4FFD
:105360001A465D7D137DD2F81CC056681268A5B13F
:10537000012D1DD0022D24D0032D1CBFF0BC704781
:10538000711A491E02FB0121081A57F82310401E0A
:1053900000FB0CF00C52F0BC7047301A401E02FBB0
:1053A000001057F8231000FB0CF00C52F0BC7047B3
:1053B00002FB010057F823100CFB00F00C52F0BC6C
:1053C000704702FB0020401A57F82310401E00FBD4
:1053D0000CF00C52F0BC70470C0200244400002476
:1053E0002DE9F00FDFF8F0B00024D846DDF820A05A
:1053F0009BF81590D8E900C8B9F1000F09D0B9F1B0
:10540000010F0ED0B9F1020F10D0B9F1030F15D072
:1054100020E00E461F46A8EB02014D1EA8EB00003F
:1054200017E006460D4617461A4613E0ACEB030399
:1054300005465E1EACEB0100471E0BE0ACEB020222
:10544000561EA8EB0302551EACEB0000471EA8EB4E
:105450000100421EB91B214FACEB0100401E83B27C
:105460009BF814000CFB056C57F82000DBF81C704F
:1054700007FB0C0C1A48066846F40006066019483B
:105480004FF440360660022646630364036823F047
:1054900001030360C0F83CC0F303521B521C03EB32
:1054A000014111434164C0F838A0016841F0010195
:1054B0000160416811F0020F07D1641CB4F5001FB0
:1054C00003D2416811F0020FF7D0816841F0020168
:1054D0008160BDE8F00F70470C02002444000024F6
:1054E000D844025800100052F0B5AFB000F0F2F806
:1054F000594C0225A0F5EA4184394FF0005304D0FD
:10550000A0F5E04116391ED039E04FF44870206014
:105510004FF4F07060600120208160812E20A08116
:105520001720E081D2202082162060821820A0213E
:10553000009305220992CDE90C50CDE90A15684681
:10554000FCF7B8FF1BE04FF4806020604FF416704A
:10555000606014202081032161818C21A181E08180
:10556000A0220C2022826082122000930521CDE926
:105570000A25CDE90C5068460991FCF79BFF384E8F
:105580003648E5610025374930603748C0E90015E5
:105590008560C560056121894A1E42616289531E8A
:1055A0008361A38919444B1EC361E3891A44531EC6
:1055B0000362D4F800C0ACF101030B44436263689A
:1055C0005F1E17448762278ABC446144491EC1623A
:1055D000618A19441144491E016380F8365080F8ED
:1055E000355080F83450FCF76FFD2048FCF78AFBFB
:1055F00006210720CDE90205CDE900513168FF23DE
:105600000222002000F036F820882B461A4686B287
:10561000A088114687B21448FCF754FE12482B4666
:105620003A463146FCF77AFE0120FFF769FE104842
:10563000012220212575FCF7D8FC681E0090208BE4
:105640000021401E83B2E08A401E82B20846FFF766
:10565000C7FE2FB0F0BD00000C020024000000C007
:10566000440000240010005004010024AC01002478
:10567000000402582DE9F0438DB0914614AADFF8DA
:105680004CC0002492E8E00100940294DCF8002071
:105690000192DCF804C0CDE90535330207933B02E3
:1056A0000893CDE903C9CDF82CC0CDE909128DF8D6
:1056B000324002468DF83140694605488DF8308009
:1056C000FCF7D6FC0DB0BDE8F08300000C0200240E
:1056D00004010024224830B587B0016841F0400140
:1056E0000160016801F040010591016841F4807199
:1056F0000160006869461B4C00F4807005904020F2
:105700000090002001900120029003200390204689
:10571000FCF762FB144D8420694600902846FCF794
:105720005BFB40212046FCF757FC04210446284639
:10573000FCF752FC44EA400428468021FCF74CFC6C
:1057400044EA8000C0B2012802BF47F2845007B08B
:1057500030BD02280CBF47F21600002007B030BD54
:10576000E044025800180258002002581F4AF0B4C2
:105770001F4F0546547D0020137DD2F81CC056688B
:105780001268A4B1012C1DD0022C24D0032C1CBF04
:10579000F0BC7047701A401E57F8231002FB00201F
:1057A000401B401E00FB0CF0085AF0BC7047701BF9
:1057B000401E02FB001057F8231000FB0CF0085AA3
:1057C000F0BC704702FB015057F823100CFB00F0AF
:1057D000085AF0BC704702FB0520401A57F8231006
:1057E000401E00FB0CF0085AF0BC70470C0200246D
:1057F000440000242DE9FF4F81B08B460EA99A4644
:105800004FF47840012491E8E0034249102242A37A
:1058100008608C2128200094FEF786FD1022009459
:105820008C2178203DA3FEF77FFD10220094A0215B
:1058300028203BA3FEF778FD10220094A0217820B9
:1058400038A3FEF771FD10220094B421282036A35E
:10585000FEF76AFD10220094B421782033A3FEF7EE
:1058600063FD10220094C821282031A3FEF75CFDBF
:1058700010220094C82178202EA3FEF755FD102297
:105880000094DC2128202CA3FEF74EFD019A102461
:10589000042300948C214020FEF7E2FC04235A46A6
:1058A0008C2100949020FEF7DBFC039A0423A021B6
:1058B00000944020FEF7D4FC04235246A02100941B
:1058C0009020FEF7CDFC04232A46B421009440200A
:1058D000FEF7C6FC04233246B42100949020FEF764
:1058E000BFFC04233A46C82100944020FEF7B8FCD0
:1058F00004234246C82100949020FEF7B1FC032304
:105900004A46DC2100946020FEF7AAFC05B0BDE801
:10591000F08F00003000002478313A0079313A00ED
:1059200078323A0079323A0078333A0079333A00E3
:1059300078343A0079343A006661632069733A003A
:105940002DE9F04FF84E0024F8491F2025462DED93
:105950000E8B8BB030604FF6FF700860FEF74AFA8E
:105960004FF4784030604FF6FF70FEF743FAA046E0
:10597000C6F8008010224FF0010B2821CDF800B0AE
:105980000A20EBA3FEF7D0FC1022CDF800B038219E
:105990000A20EEA3FEF7C8FC1022CDF800B0482183
:1059A0000A20F1A3FEF7C0FC1022CDF800B0582168
:1059B0000A20F4A3FEF7B8FC1022CDF800B068214D
:1059C0000A20F7A3FEF7B0FC14214FF478420846F2
:1059D00000F0A0FBF64F87F814809FEDF60A87EDE4
:1059E000060A9FEDF5CB9FEDF6DB9FEDF7BBF84E7A
:1059F0004FF09009DFF8DC834FF0D00AB6EE00EAF2
:105A0000012000F055FD387D00F0C001402946D14D
:105A100020F04000387506A83988002520F82410A9
:105A200000EB840079894180601CC4B2012C06D04F
:105A3000022C13D0032C20D0042C3FD02FE01421B3
:105A40004FF6FF72084600F065FB308814214FF4D2
:105A50007842143880B200F05DFB20E030881421D9
:105A60004FF6FF72143880B200F054FB70884FF488
:105A70007842143881B214200FE070884FF6FF721C
:105A8000143881B2142000F045FB70884FF478423E
:105A9000143881B23088143880B200F03BFB0A2001
:105AA00001F0C4FB681C85B2B5F57A7FA8D900F077
:105AB00077FB0BB0BDEC0E8BBDE8F08FBDF8180086
:105AC000BDF81C10411A48BF4942BDF81A00BDF884
:105AD0001E20801A48BF404201FB01F100FB00F08C
